{"contracts/TestSwapV3.sol":{"TestSwapV3":{"abi":[{"inputs":[{"internalType":"contract ISwapRouter","name":"_swapRouter","type":"address"},{"internalType":"address","name":"_stableAssetAddressUSDC","type":"address"},{"internalType":"address","name":"_wrappedAssetAddressNative","type":"address"},{"internalType":"contract IUniswapV3Factory","name":"_uniswapV3Factory","type":"address"},{"internalType":"contract IQuoter","name":"_quoter","type":"address"}],"stateMutability":"nonpayable","type":"constructor"},{"inputs":[],"name":"POOL_FEE","outputs":[{"internalType":"uint24","name":"","type":"uint24"}],"stateMutability":"view","type":"function"},{"inputs":[{"internalType":"uint256","name":"_amount","type":"uint256"}],"name":"_getAssetPrice","outputs":[{"internalType":"uint256","name":"","type":"uint256"}],"stateMutability":"view","type":"function"},{"inputs":[],"name":"_getPool","outputs":[{"internalType":"address","name":"","type":"address"}],"stateMutability":"view","type":"function"},{"inputs":[{"internalType":"uint256","name":"_amountIn","type":"uint256"}],"name":"_getQuotes","outputs":[{"internalType":"uint256","name":"","type":"uint256"}],"stateMutability":"nonpayable","type":"function"},{"inputs":[{"internalType":"uint256","name":"_amountIn","type":"uint256"},{"internalType":"address","name":"_recipient","type":"address"}],"name":"_swapTest","outputs":[{"internalType":"uint256","name":"_amountOut","type":"uint256"}],"stateMutability":"nonpayable","type":"function"},{"inputs":[],"name":"quoter","outputs":[{"internalType":"contract IQuoter","name":"","type":"address"}],"stateMutability":"view","type":"function"},{"inputs":[],"name":"stableAssetAddressUSDC","outputs":[{"internalType":"address","name":"","type":"address"}],"stateMutability":"view","type":"function"},{"inputs":[],"name":"swapRouter","outputs":[{"internalType":"contract ISwapRouter","name":"","type":"address"}],"stateMutability":"view","type":"function"},{"inputs":[],"name":"uniswapV3Factory","outputs":[{"internalType":"contract IUniswapV3Factory","name":"","type":"address"}],"stateMutability":"view","type":"function"},{"inputs":[],"name":"wrappedAssetAddressNative","outputs":[{"internalType":"address","name":"","type":"address"}],"stateMutability":"view","type":"function"}],"evm":{"bytecode":{"linkReferences":{},"object":"60e06040523480156200001157600080fd5b50604051620017a4380380620017a4833981810160405281019062000037919062000298565b8473ffffffffffffffffffffffffffffffffffffffff1660808173ffffffffffffffffffffffffffffffffffffffff1681525050836000806101000a81548173ffffffffffffffffffffffffffffffffffffffff021916908373ffffffffffffffffffffffffffffffffffffffff16021790555082600160006101000a81548173ffffffffffffffffffffffffffffffffffffffff021916908373ffffffffffffffffffffffffffffffffffffffff1602179055508173ffffffffffffffffffffffffffffffffffffffff1660a08173ffffffffffffffffffffffffffffffffffffffff16815250508073ffffffffffffffffffffffffffffffffffffffff1660c08173ffffffffffffffffffffffffffffffffffffffff1681525050505050505062000320565b600080fd5b600073ffffffffffffffffffffffffffffffffffffffff82169050919050565b6000620001918262000164565b9050919050565b6000620001a58262000184565b9050919050565b620001b78162000198565b8114620001c357600080fd5b50565b600081519050620001d781620001ac565b92915050565b620001e88162000184565b8114620001f457600080fd5b50565b6000815190506200020881620001dd565b92915050565b60006200021b8262000184565b9050919050565b6200022d816200020e565b81146200023957600080fd5b50565b6000815190506200024d8162000222565b92915050565b6000620002608262000184565b9050919050565b620002728162000253565b81146200027e57600080fd5b50565b600081519050620002928162000267565b92915050565b600080600080600060a08688031215620002b757620002b66200015f565b5b6000620002c788828901620001c6565b9550506020620002da88828901620001f7565b9450506040620002ed88828901620001f7565b935050606062000300888289016200023c565b9250506080620003138882890162000281565b9150509295509295909350565b60805160a05160c0516114386200036c6000396000818161087b01526108a80152600081816103b7015281816104a201526104c901526000818161030f015261085701526114386000f3fe608060405234801561001057600080fd5b506004361061009e5760003560e01c8063c31c9c0711610066578063c31c9c071461015d578063c6bbd5a71461017b578063dd1b9c4a14610199578063e4d4a3c5146101b7578063fb2134d9146101e75761009e565b80630563d1ac146100a35780630c75538a146100c157806315c1c9c6146100f15780635b5491821461010f578063a02e9fea1461012d575b600080fd5b6100ab610205565b6040516100b89190610ad8565b60405180910390f35b6100db60048036038101906100d69190610b5a565b61022b565b6040516100e89190610ba9565b60405180910390f35b6100f96103b2565b6040516101069190610ad8565b60405180910390f35b6101176104a0565b6040516101249190610c23565b60405180910390f35b61014760048036038101906101429190610c3e565b6104c4565b6040516101549190610ba9565b60405180910390f35b610165610855565b6040516101729190610c8c565b60405180910390f35b610183610879565b6040516101909190610cc8565b60405180910390f35b6101a161089d565b6040516101ae9190610d01565b60405180910390f35b6101d160048036038101906101cc9190610c3e565b6108a3565b6040516101de9190610ba9565b60405180910390f35b6101ef61099a565b6040516101fc9190610ad8565b60405180910390f35b600160009054906101000a900473ffffffffffffffffffffffffffffffffffffffff1681565b60008060405180610100016040528060008054906101000a900473ffffffffffffffffffffffffffffffffffffffff1673ffffffffffffffffffffffffffffffffffffffff168152602001600160009054906101000a900473ffffffffffffffffffffffffffffffffffffffff1673ffffffffffffffffffffffffffffffffffffffff1681526020016101f462ffffff1681526020018473ffffffffffffffffffffffffffffffffffffffff16815260200142815260200185815260200160008152602001600073ffffffffffffffffffffffffffffffffffffffff1681525090507f000000000000000000000000000000000000000000000000000000000000000073ffffffffffffffffffffffffffffffffffffffff1663414bf389826040518263ffffffff1660e01b81526004016103669190610dfa565b6020604051808303816000875af1158015610385573d6000803e3d6000fd5b505050506040513d601f19601f820116820180604052508101906103a99190610e2b565b91505092915050565b6000807f000000000000000000000000000000000000000000000000000000000000000073ffffffffffffffffffffffffffffffffffffffff16631698ee8260008054906101000a900473ffffffffffffffffffffffffffffffffffffffff16600160009054906101000a900473ffffffffffffffffffffffffffffffffffffffff166101f46040518463ffffffff1660e01b815260040161045693929190610e58565b602060405180830381865afa158015610473573d6000803e3d6000fd5b505050506040513d601f19601f820116820180604052508101906104979190610ea4565b90508091505090565b7f000000000000000000000000000000000000000000000000000000000000000081565b6000807f000000000000000000000000000000000000000000000000000000000000000073ffffffffffffffffffffffffffffffffffffffff16631698ee8260008054906101000a900473ffffffffffffffffffffffffffffffffffffffff16600160009054906101000a900473ffffffffffffffffffffffffffffffffffffffff166101f46040518463ffffffff1660e01b815260040161056893929190610e58565b602060405180830381865afa158015610585573d6000803e3d6000fd5b505050506040513d601f19601f820116820180604052508101906105a99190610ea4565b905060008173ffffffffffffffffffffffffffffffffffffffff16633850c7bd6040518163ffffffff1660e01b815260040160e060405180830381865afa1580156105f8573d6000803e3d6000fd5b505050506040513d601f19601f8201168201806040525081019061061c9190610fe1565b505050505050905060006106d48373ffffffffffffffffffffffffffffffffffffffff16631a6865026040518163ffffffff1660e01b8152600401602060405180830381865afa158015610674573d6000803e3d6000fd5b505050506040513d601f19601f8201168201806040525081019061069891906110cb565b6fffffffffffffffffffffffffffffffff166c010000000000000000000000008473ffffffffffffffffffffffffffffffffffffffff166109be565b905060006107868473ffffffffffffffffffffffffffffffffffffffff16631a6865026040518163ffffffff1660e01b8152600401602060405180830381865afa158015610726573d6000803e3d6000fd5b505050506040513d601f19601f8201168201806040525081019061074a91906110cb565b6fffffffffffffffffffffffffffffffff168473ffffffffffffffffffffffffffffffffffffffff166c010000000000000000000000006109be565b905060008260008054906101000a900473ffffffffffffffffffffffffffffffffffffffff1673ffffffffffffffffffffffffffffffffffffffff1663313ce5676040518163ffffffff1660e01b8152600401602060405180830381865afa1580156107f6573d6000803e3d6000fd5b505050506040513d601f19601f8201168201806040525081019061081a91906110f8565b600a6108269190611287565b8361083191906112d2565b61083b9190611343565b9050808761084991906112d2565b95505050505050919050565b7f000000000000000000000000000000000000000000000000000000000000000081565b7f000000000000000000000000000000000000000000000000000000000000000081565b6101f481565b6000807f000000000000000000000000000000000000000000000000000000000000000073ffffffffffffffffffffffffffffffffffffffff1663f7729d4360008054906101000a900473ffffffffffffffffffffffffffffffffffffffff16600160009054906101000a900473ffffffffffffffffffffffffffffffffffffffff166101f48760006040518663ffffffff1660e01b815260040161094c9594939291906113af565b6020604051808303816000875af115801561096b573d6000803e3d6000fd5b505050506040513d601f19601f8201168201806040525081019061098f9190610e2b565b905080915050919050565b60008054906101000a900473ffffffffffffffffffffffffffffffffffffffff1681565b60008060008019858709858702925082811083820303915050600081036109f857600084116109ec57600080fd5b83820492505050610a90565b808411610a0457600080fd5b600084868809905082811182039150808303925060008586600003169050808604955080840493506001818260000304019050808302841793506000600287600302189050808702600203810290508087026002038102905080870260020381029050808702600203810290508087026002038102905080870260020381029050808502955050505050505b9392505050565b600073ffffffffffffffffffffffffffffffffffffffff82169050919050565b6000610ac282610a97565b9050919050565b610ad281610ab7565b82525050565b6000602082019050610aed6000830184610ac9565b92915050565b600080fd5b6000819050919050565b610b0b81610af8565b8114610b1657600080fd5b50565b600081359050610b2881610b02565b92915050565b610b3781610ab7565b8114610b4257600080fd5b50565b600081359050610b5481610b2e565b92915050565b60008060408385031215610b7157610b70610af3565b5b6000610b7f85828601610b19565b9250506020610b9085828601610b45565b9150509250929050565b610ba381610af8565b82525050565b6000602082019050610bbe6000830184610b9a565b92915050565b6000819050919050565b6000610be9610be4610bdf84610a97565b610bc4565b610a97565b9050919050565b6000610bfb82610bce565b9050919050565b6000610c0d82610bf0565b9050919050565b610c1d81610c02565b82525050565b6000602082019050610c386000830184610c14565b92915050565b600060208284031215610c5457610c53610af3565b5b6000610c6284828501610b19565b91505092915050565b6000610c7682610bf0565b9050919050565b610c8681610c6b565b82525050565b6000602082019050610ca16000830184610c7d565b92915050565b6000610cb282610bf0565b9050919050565b610cc281610ca7565b82525050565b6000602082019050610cdd6000830184610cb9565b92915050565b600062ffffff82169050919050565b610cfb81610ce3565b82525050565b6000602082019050610d166000830184610cf2565b92915050565b610d2581610ab7565b82525050565b610d3481610ce3565b82525050565b610d4381610af8565b82525050565b610d5281610a97565b82525050565b61010082016000820151610d6f6000850182610d1c565b506020820151610d826020850182610d1c565b506040820151610d956040850182610d2b565b506060820151610da86060850182610d1c565b506080820151610dbb6080850182610d3a565b5060a0820151610dce60a0850182610d3a565b5060c0820151610de160c0850182610d3a565b5060e0820151610df460e0850182610d49565b50505050565b600061010082019050610e106000830184610d58565b92915050565b600081519050610e2581610b02565b92915050565b600060208284031215610e4157610e40610af3565b5b6000610e4f84828501610e16565b91505092915050565b6000606082019050610e6d6000830186610ac9565b610e7a6020830185610ac9565b610e876040830184610cf2565b949350505050565b600081519050610e9e81610b2e565b92915050565b600060208284031215610eba57610eb9610af3565b5b6000610ec884828501610e8f565b91505092915050565b610eda81610a97565b8114610ee557600080fd5b50565b600081519050610ef781610ed1565b92915050565b60008160020b9050919050565b610f1381610efd565b8114610f1e57600080fd5b50565b600081519050610f3081610f0a565b92915050565b600061ffff82169050919050565b610f4d81610f36565b8114610f5857600080fd5b50565b600081519050610f6a81610f44565b92915050565b600060ff82169050919050565b610f8681610f70565b8114610f9157600080fd5b50565b600081519050610fa381610f7d565b92915050565b60008115159050919050565b610fbe81610fa9565b8114610fc957600080fd5b50565b600081519050610fdb81610fb5565b92915050565b600080600080600080600060e0888a03121561100057610fff610af3565b5b600061100e8a828b01610ee8565b975050602061101f8a828b01610f21565b96505060406110308a828b01610f5b565b95505060606110418a828b01610f5b565b94505060806110528a828b01610f5b565b93505060a06110638a828b01610f94565b92505060c06110748a828b01610fcc565b91505092959891949750929550565b60006fffffffffffffffffffffffffffffffff82169050919050565b6110a881611083565b81146110b357600080fd5b50565b6000815190506110c58161109f565b92915050565b6000602082840312156110e1576110e0610af3565b5b60006110ef848285016110b6565b91505092915050565b60006020828403121561110e5761110d610af3565b5b600061111c84828501610f94565b91505092915050565b7f4e487b7100000000000000000000000000000000000000000000000000000000600052601160045260246000fd5b60008160011c9050919050565b6000808291508390505b60018511156111ab5780860481111561118757611186611125565b5b60018516156111965780820291505b80810290506111a485611154565b945061116b565b94509492505050565b6000826111c45760019050611280565b816111d25760009050611280565b81600181146111e857600281146111f257611221565b6001915050611280565b60ff84111561120457611203611125565b5b8360020a91508482111561121b5761121a611125565b5b50611280565b5060208310610133831016604e8410600b84101617156112565782820a90508381111561125157611250611125565b5b611280565b6112638484846001611161565b9250905081840481111561127a57611279611125565b5b81810290505b9392505050565b600061129282610af8565b915061129d83610f70565b92506112ca7fffffffffffffffffffffffffffffffffffffffffffffffffffffffffffffffff84846111b4565b905092915050565b60006112dd82610af8565b91506112e883610af8565b92508282026112f681610af8565b9150828204841483151761130d5761130c611125565b5b5092915050565b7f4e487b7100000000000000000000000000000000000000000000000000000000600052601260045260246000fd5b600061134e82610af8565b915061135983610af8565b92508261136957611368611314565b5b828204905092915050565b6000819050919050565b600061139961139461138f84611374565b610bc4565b610a97565b9050919050565b6113a98161137e565b82525050565b600060a0820190506113c46000830188610ac9565b6113d16020830187610ac9565b6113de6040830186610cf2565b6113eb6060830185610b9a565b6113f860808301846113a0565b969550505050505056fea2646970667358221220bb1a8091883a7559f24345103c00d98c13eae0c5b05dacd1f12023fe68f2e07764736f6c63430008130033","opcodes":"PUSH1 0xE0 PUSH1 0x40 MSTORE CALLVALUE DUP1 ISZERO PUSH3 0x11 JUMPI PUSH1 0x0 DUP1 REVERT JUMPDEST POP PUSH1 0x40 MLOAD PUSH3 0x17A4 CODESIZE SUB DUP1 PUSH3 0x17A4 DUP4 CODECOPY DUP2 DUP2 ADD PUSH1 0x40 MSTORE DUP2 ADD SWAP1 PUSH3 0x37 SWAP2 SWAP1 PUSH3 0x298 JUMP JUMPDEST DUP5 PUSH20 0xFFFFFFFFFFFFFFFFFFFFFFFFFFFFFFFFFFFFFFFF AND PUSH1 0x80 DUP2 PUSH20 0xFFFFFFFFFFFFFFFFFFFFFFFFFFFFFFFFFFFFFFFF AND DUP2 MSTORE POP POP DUP4 PUSH1 0x0 DUP1 PUSH2 0x100 EXP DUP2 SLOAD DUP2 PUSH20 0xFFFFFFFFFFFFFFFFFFFFFFFFFFFFFFFFFFFFFFFF MUL NOT AND SWAP1 DUP4 PUSH20 0xFFFFFFFFFFFFFFFFFFFFFFFFFFFFFFFFFFFFFFFF AND MUL OR SWAP1 SSTORE POP DUP3 PUSH1 0x1 PUSH1 0x0 PUSH2 0x100 EXP DUP2 SLOAD DUP2 PUSH20 0xFFFFFFFFFFFFFFFFFFFFFFFFFFFFFFFFFFFFFFFF MUL NOT AND SWAP1 DUP4 PUSH20 0xFFFFFFFFFFFFFFFFFFFFFFFFFFFFFFFFFFFFFFFF AND MUL OR SWAP1 SSTORE POP DUP2 PUSH20 0xFFFFFFFFFFFFFFFFFFFFFFFFFFFFFFFFFFFFFFFF AND PUSH1 0xA0 DUP2 PUSH20 0xFFFFFFFFFFFFFFFFFFFFFFFFFFFFFFFFFFFFFFFF AND DUP2 MSTORE POP POP DUP1 PUSH20 0xFFFFFFFFFFFFFFFFFFFFFFFFFFFFFFFFFFFFFFFF AND PUSH1 0xC0 DUP2 PUSH20 0xFFFFFFFFFFFFFFFFFFFFFFFFFFFFFFFFFFFFFFFF AND DUP2 MSTORE POP POP POP POP POP POP POP PUSH3 0x320 JUMP JUMPDEST PUSH1 0x0 DUP1 REVERT JUMPDEST PUSH1 0x0 PUSH20 0xFFFFFFFFFFFFFFFFFFFFFFFFFFFFFFFFFFFFFFFF DUP3 AND SWAP1 POP SWAP2 SWAP1 POP JUMP JUMPDEST PUSH1 0x0 PUSH3 0x191 DUP3 PUSH3 0x164 JUMP JUMPDEST SWAP1 POP SWAP2 SWAP1 POP JUMP JUMPDEST PUSH1 0x0 PUSH3 0x1A5 DUP3 PUSH3 0x184 JUMP JUMPDEST SWAP1 POP SWAP2 SWAP1 POP JUMP JUMPDEST PUSH3 0x1B7 DUP2 PUSH3 0x198 JUMP JUMPDEST DUP2 EQ PUSH3 0x1C3 JUMPI PUSH1 0x0 DUP1 REVERT JUMPDEST POP JUMP JUMPDEST PUSH1 0x0 DUP2 MLOAD SWAP1 POP PUSH3 0x1D7 DUP2 PUSH3 0x1AC JUMP JUMPDEST SWAP3 SWAP2 POP POP JUMP JUMPDEST PUSH3 0x1E8 DUP2 PUSH3 0x184 JUMP JUMPDEST DUP2 EQ PUSH3 0x1F4 JUMPI PUSH1 0x0 DUP1 REVERT JUMPDEST POP JUMP JUMPDEST PUSH1 0x0 DUP2 MLOAD SWAP1 POP PUSH3 0x208 DUP2 PUSH3 0x1DD JUMP JUMPDEST SWAP3 SWAP2 POP POP JUMP JUMPDEST PUSH1 0x0 PUSH3 0x21B DUP3 PUSH3 0x184 JUMP JUMPDEST SWAP1 POP SWAP2 SWAP1 POP JUMP JUMPDEST PUSH3 0x22D DUP2 PUSH3 0x20E JUMP JUMPDEST DUP2 EQ PUSH3 0x239 JUMPI PUSH1 0x0 DUP1 REVERT JUMPDEST POP JUMP JUMPDEST PUSH1 0x0 DUP2 MLOAD SWAP1 POP PUSH3 0x24D DUP2 PUSH3 0x222 JUMP JUMPDEST SWAP3 SWAP2 POP POP JUMP JUMPDEST PUSH1 0x0 PUSH3 0x260 DUP3 PUSH3 0x184 JUMP JUMPDEST SWAP1 POP SWAP2 SWAP1 POP JUMP JUMPDEST PUSH3 0x272 DUP2 PUSH3 0x253 JUMP JUMPDEST DUP2 EQ PUSH3 0x27E JUMPI PUSH1 0x0 DUP1 REVERT JUMPDEST POP JUMP JUMPDEST PUSH1 0x0 DUP2 MLOAD SWAP1 POP PUSH3 0x292 DUP2 PUSH3 0x267 JUMP JUMPDEST SWAP3 SWAP2 POP POP JUMP JUMPDEST PUSH1 0x0 DUP1 PUSH1 0x0 DUP1 PUSH1 0x0 PUSH1 0xA0 DUP7 DUP9 SUB SLT ISZERO PUSH3 0x2B7 JUMPI PUSH3 0x2B6 PUSH3 0x15F JUMP JUMPDEST JUMPDEST PUSH1 0x0 PUSH3 0x2C7 DUP9 DUP3 DUP10 ADD PUSH3 0x1C6 JUMP JUMPDEST SWAP6 POP POP PUSH1 0x20 PUSH3 0x2DA DUP9 DUP3 DUP10 ADD PUSH3 0x1F7 JUMP JUMPDEST SWAP5 POP POP PUSH1 0x40 PUSH3 0x2ED DUP9 DUP3 DUP10 ADD PUSH3 0x1F7 JUMP JUMPDEST SWAP4 POP POP PUSH1 0x60 PUSH3 0x300 DUP9 DUP3 DUP10 ADD PUSH3 0x23C JUMP JUMPDEST SWAP3 POP POP PUSH1 0x80 PUSH3 0x313 DUP9 DUP3 DUP10 ADD PUSH3 0x281 JUMP JUMPDEST SWAP2 POP POP SWAP3 SWAP6 POP SWAP3 SWAP6 SWAP1 SWAP4 POP JUMP JUMPDEST PUSH1 0x80 MLOAD PUSH1 0xA0 MLOAD PUSH1 0xC0 MLOAD PUSH2 0x1438 PUSH3 0x36C PUSH1 0x0 CODECOPY PUSH1 0x0 DUP2 DUP2 PUSH2 0x87B ADD MSTORE PUSH2 0x8A8 ADD MSTORE PUSH1 0x0 DUP2 DUP2 PUSH2 0x3B7 ADD MSTORE DUP2 DUP2 PUSH2 0x4A2 ADD MSTORE PUSH2 0x4C9 ADD MSTORE PUSH1 0x0 DUP2 DUP2 PUSH2 0x30F ADD MSTORE PUSH2 0x857 ADD MSTORE PUSH2 0x1438 PUSH1 0x0 RETURN INVALID PUSH1 0x80 PUSH1 0x40 MSTORE CALLVALUE DUP1 ISZERO PUSH2 0x10 JUMPI PUSH1 0x0 DUP1 REVERT JUMPDEST POP PUSH1 0x4 CALLDATASIZE LT PUSH2 0x9E JUMPI PUSH1 0x0 CALLDATALOAD PUSH1 0xE0 SHR DUP1 PUSH4 0xC31C9C07 GT PUSH2 0x66 JUMPI DUP1 PUSH4 0xC31C9C07 EQ PUSH2 0x15D JUMPI DUP1 PUSH4 0xC6BBD5A7 EQ PUSH2 0x17B JUMPI DUP1 PUSH4 0xDD1B9C4A EQ PUSH2 0x199 JUMPI DUP1 PUSH4 0xE4D4A3C5 EQ PUSH2 0x1B7 JUMPI DUP1 PUSH4 0xFB2134D9 EQ PUSH2 0x1E7 JUMPI PUSH2 0x9E JUMP JUMPDEST DUP1 PUSH4 0x563D1AC EQ PUSH2 0xA3 JUMPI DUP1 PUSH4 0xC75538A EQ PUSH2 0xC1 JUMPI DUP1 PUSH4 0x15C1C9C6 EQ PUSH2 0xF1 JUMPI DUP1 PUSH4 0x5B549182 EQ PUSH2 0x10F JUMPI DUP1 PUSH4 0xA02E9FEA EQ PUSH2 0x12D JUMPI JUMPDEST PUSH1 0x0 DUP1 REVERT JUMPDEST PUSH2 0xAB PUSH2 0x205 JUMP JUMPDEST PUSH1 0x40 MLOAD PUSH2 0xB8 SWAP2 SWAP1 PUSH2 0xAD8 JUMP JUMPDEST PUSH1 0x40 MLOAD DUP1 SWAP2 SUB SWAP1 RETURN JUMPDEST PUSH2 0xDB PUSH1 0x4 DUP1 CALLDATASIZE SUB DUP2 ADD SWAP1 PUSH2 0xD6 SWAP2 SWAP1 PUSH2 0xB5A JUMP JUMPDEST PUSH2 0x22B JUMP JUMPDEST PUSH1 0x40 MLOAD PUSH2 0xE8 SWAP2 SWAP1 PUSH2 0xBA9 JUMP JUMPDEST PUSH1 0x40 MLOAD DUP1 SWAP2 SUB SWAP1 RETURN JUMPDEST PUSH2 0xF9 PUSH2 0x3B2 JUMP JUMPDEST PUSH1 0x40 MLOAD PUSH2 0x106 SWAP2 SWAP1 PUSH2 0xAD8 JUMP JUMPDEST PUSH1 0x40 MLOAD DUP1 SWAP2 SUB SWAP1 RETURN JUMPDEST PUSH2 0x117 PUSH2 0x4A0 JUMP JUMPDEST PUSH1 0x40 MLOAD PUSH2 0x124 SWAP2 SWAP1 PUSH2 0xC23 JUMP JUMPDEST PUSH1 0x40 MLOAD DUP1 SWAP2 SUB SWAP1 RETURN JUMPDEST PUSH2 0x147 PUSH1 0x4 DUP1 CALLDATASIZE SUB DUP2 ADD SWAP1 PUSH2 0x142 SWAP2 SWAP1 PUSH2 0xC3E JUMP JUMPDEST PUSH2 0x4C4 JUMP JUMPDEST PUSH1 0x40 MLOAD PUSH2 0x154 SWAP2 SWAP1 PUSH2 0xBA9 JUMP JUMPDEST PUSH1 0x40 MLOAD DUP1 SWAP2 SUB SWAP1 RETURN JUMPDEST PUSH2 0x165 PUSH2 0x855 JUMP JUMPDEST PUSH1 0x40 MLOAD PUSH2 0x172 SWAP2 SWAP1 PUSH2 0xC8C JUMP JUMPDEST PUSH1 0x40 MLOAD DUP1 SWAP2 SUB SWAP1 RETURN JUMPDEST PUSH2 0x183 PUSH2 0x879 JUMP JUMPDEST PUSH1 0x40 MLOAD PUSH2 0x190 SWAP2 SWAP1 PUSH2 0xCC8 JUMP JUMPDEST PUSH1 0x40 MLOAD DUP1 SWAP2 SUB SWAP1 RETURN JUMPDEST PUSH2 0x1A1 PUSH2 0x89D JUMP JUMPDEST PUSH1 0x40 MLOAD PUSH2 0x1AE SWAP2 SWAP1 PUSH2 0xD01 JUMP JUMPDEST PUSH1 0x40 MLOAD DUP1 SWAP2 SUB SWAP1 RETURN JUMPDEST PUSH2 0x1D1 PUSH1 0x4 DUP1 CALLDATASIZE SUB DUP2 ADD SWAP1 PUSH2 0x1CC SWAP2 SWAP1 PUSH2 0xC3E JUMP JUMPDEST PUSH2 0x8A3 JUMP JUMPDEST PUSH1 0x40 MLOAD PUSH2 0x1DE SWAP2 SWAP1 PUSH2 0xBA9 JUMP JUMPDEST PUSH1 0x40 MLOAD DUP1 SWAP2 SUB SWAP1 RETURN JUMPDEST PUSH2 0x1EF PUSH2 0x99A JUMP JUMPDEST PUSH1 0x40 MLOAD PUSH2 0x1FC SWAP2 SWAP1 PUSH2 0xAD8 JUMP JUMPDEST PUSH1 0x40 MLOAD DUP1 SWAP2 SUB SWAP1 RETURN JUMPDEST PUSH1 0x1 PUSH1 0x0 SWAP1 SLOAD SWAP1 PUSH2 0x100 EXP SWAP1 DIV PUSH20 0xFFFFFFFFFFFFFFFFFFFFFFFFFFFFFFFFFFFFFFFF AND DUP2 JUMP JUMPDEST PUSH1 0x0 DUP1 PUSH1 0x40 MLOAD DUP1 PUSH2 0x100 ADD PUSH1 0x40 MSTORE DUP1 PUSH1 0x0 DUP1 SLOAD SWAP1 PUSH2 0x100 EXP SWAP1 DIV PUSH20 0xFFFFFFFFFFFFFFFFFFFFFFFFFFFFFFFFFFFFFFFF AND PUSH20 0xFFFFFFFFFFFFFFFFFFFFFFFFFFFFFFFFFFFFFFFF AND DUP2 MSTORE PUSH1 0x20 ADD PUSH1 0x1 PUSH1 0x0 SWAP1 SLOAD SWAP1 PUSH2 0x100 EXP SWAP1 DIV PUSH20 0xFFFFFFFFFFFFFFFFFFFFFFFFFFFFFFFFFFFFFFFF AND PUSH20 0xFFFFFFFFFFFFFFFFFFFFFFFFFFFFFFFFFFFFFFFF AND DUP2 MSTORE PUSH1 0x20 ADD PUSH2 0x1F4 PUSH3 0xFFFFFF AND DUP2 MSTORE PUSH1 0x20 ADD DUP5 PUSH20 0xFFFFFFFFFFFFFFFFFFFFFFFFFFFFFFFFFFFFFFFF AND DUP2 MSTORE PUSH1 0x20 ADD TIMESTAMP DUP2 MSTORE PUSH1 0x20 ADD DUP6 DUP2 MSTORE PUSH1 0x20 ADD PUSH1 0x0 DUP2 MSTORE PUSH1 0x20 ADD PUSH1 0x0 PUSH20 0xFFFFFFFFFFFFFFFFFFFFFFFFFFFFFFFFFFFFFFFF AND DUP2 MSTORE POP SWAP1 POP PUSH32 0x0 PUSH20 0xFFFFFFFFFFFFFFFFFFFFFFFFFFFFFFFFFFFFFFFF AND PUSH4 0x414BF389 DUP3 PUSH1 0x40 MLOAD DUP3 PUSH4 0xFFFFFFFF AND PUSH1 0xE0 SHL DUP2 MSTORE PUSH1 0x4 ADD PUSH2 0x366 SWAP2 SWAP1 PUSH2 0xDFA JUMP JUMPDEST PUSH1 0x20 PUSH1 0x40 MLOAD DUP1 DUP4 SUB DUP2 PUSH1 0x0 DUP8 GAS CALL ISZERO DUP1 ISZERO PUSH2 0x385 JUMPI RETURNDATASIZE PUSH1 0x0 DUP1 RETURNDATACOPY RETURNDATASIZE PUSH1 0x0 REVERT JUMPDEST POP POP POP POP PUSH1 0x40 MLOAD RETURNDATASIZE PUSH1 0x1F NOT PUSH1 0x1F DUP3 ADD AND DUP3 ADD DUP1 PUSH1 0x40 MSTORE POP DUP2 ADD SWAP1 PUSH2 0x3A9 SWAP2 SWAP1 PUSH2 0xE2B JUMP JUMPDEST SWAP2 POP POP SWAP3 SWAP2 POP POP JUMP JUMPDEST PUSH1 0x0 DUP1 PUSH32 0x0 PUSH20 0xFFFFFFFFFFFFFFFFFFFFFFFFFFFFFFFFFFFFFFFF AND PUSH4 0x1698EE82 PUSH1 0x0 DUP1 SLOAD SWAP1 PUSH2 0x100 EXP SWAP1 DIV PUSH20 0xFFFFFFFFFFFFFFFFFFFFFFFFFFFFFFFFFFFFFFFF AND PUSH1 0x1 PUSH1 0x0 SWAP1 SLOAD SWAP1 PUSH2 0x100 EXP SWAP1 DIV PUSH20 0xFFFFFFFFFFFFFFFFFFFFFFFFFFFFFFFFFFFFFFFF AND PUSH2 0x1F4 PUSH1 0x40 MLOAD DUP5 PUSH4 0xFFFFFFFF AND PUSH1 0xE0 SHL DUP2 MSTORE PUSH1 0x4 ADD PUSH2 0x456 SWAP4 SWAP3 SWAP2 SWAP1 PUSH2 0xE58 JUMP JUMPDEST PUSH1 0x20 PUSH1 0x40 MLOAD DUP1 DUP4 SUB DUP2 DUP7 GAS STATICCALL ISZERO DUP1 ISZERO PUSH2 0x473 JUMPI RETURNDATASIZE PUSH1 0x0 DUP1 RETURNDATACOPY RETURNDATASIZE PUSH1 0x0 REVERT JUMPDEST POP POP POP POP PUSH1 0x40 MLOAD RETURNDATASIZE PUSH1 0x1F NOT PUSH1 0x1F DUP3 ADD AND DUP3 ADD DUP1 PUSH1 0x40 MSTORE POP DUP2 ADD SWAP1 PUSH2 0x497 SWAP2 SWAP1 PUSH2 0xEA4 JUMP JUMPDEST SWAP1 POP DUP1 SWAP2 POP POP SWAP1 JUMP JUMPDEST PUSH32 0x0 DUP2 JUMP JUMPDEST PUSH1 0x0 DUP1 PUSH32 0x0 PUSH20 0xFFFFFFFFFFFFFFFFFFFFFFFFFFFFFFFFFFFFFFFF AND PUSH4 0x1698EE82 PUSH1 0x0 DUP1 SLOAD SWAP1 PUSH2 0x100 EXP SWAP1 DIV PUSH20 0xFFFFFFFFFFFFFFFFFFFFFFFFFFFFFFFFFFFFFFFF AND PUSH1 0x1 PUSH1 0x0 SWAP1 SLOAD SWAP1 PUSH2 0x100 EXP SWAP1 DIV PUSH20 0xFFFFFFFFFFFFFFFFFFFFFFFFFFFFFFFFFFFFFFFF AND PUSH2 0x1F4 PUSH1 0x40 MLOAD DUP5 PUSH4 0xFFFFFFFF AND PUSH1 0xE0 SHL DUP2 MSTORE PUSH1 0x4 ADD PUSH2 0x568 SWAP4 SWAP3 SWAP2 SWAP1 PUSH2 0xE58 JUMP JUMPDEST PUSH1 0x20 PUSH1 0x40 MLOAD DUP1 DUP4 SUB DUP2 DUP7 GAS STATICCALL ISZERO DUP1 ISZERO PUSH2 0x585 JUMPI RETURNDATASIZE PUSH1 0x0 DUP1 RETURNDATACOPY RETURNDATASIZE PUSH1 0x0 REVERT JUMPDEST POP POP POP POP PUSH1 0x40 MLOAD RETURNDATASIZE PUSH1 0x1F NOT PUSH1 0x1F DUP3 ADD AND DUP3 ADD DUP1 PUSH1 0x40 MSTORE POP DUP2 ADD SWAP1 PUSH2 0x5A9 SWAP2 SWAP1 PUSH2 0xEA4 JUMP JUMPDEST SWAP1 POP PUSH1 0x0 DUP2 PUSH20 0xFFFFFFFFFFFFFFFFFFFFFFFFFFFFFFFFFFFFFFFF AND PUSH4 0x3850C7BD PUSH1 0x40 MLOAD DUP2 PUSH4 0xFFFFFFFF AND PUSH1 0xE0 SHL DUP2 MSTORE PUSH1 0x4 ADD PUSH1 0xE0 PUSH1 0x40 MLOAD DUP1 DUP4 SUB DUP2 DUP7 GAS STATICCALL ISZERO DUP1 ISZERO PUSH2 0x5F8 JUMPI RETURNDATASIZE PUSH1 0x0 DUP1 RETURNDATACOPY RETURNDATASIZE PUSH1 0x0 REVERT JUMPDEST POP POP POP POP PUSH1 0x40 MLOAD RETURNDATASIZE PUSH1 0x1F NOT PUSH1 0x1F DUP3 ADD AND DUP3 ADD DUP1 PUSH1 0x40 MSTORE POP DUP2 ADD SWAP1 PUSH2 0x61C SWAP2 SWAP1 PUSH2 0xFE1 JUMP JUMPDEST POP POP POP POP POP POP SWAP1 POP PUSH1 0x0 PUSH2 0x6D4 DUP4 PUSH20 0xFFFFFFFFFFFFFFFFFFFFFFFFFFFFFFFFFFFFFFFF AND PUSH4 0x1A686502 PUSH1 0x40 MLOAD DUP2 PUSH4 0xFFFFFFFF AND PUSH1 0xE0 SHL DUP2 MSTORE PUSH1 0x4 ADD PUSH1 0x20 PUSH1 0x40 MLOAD DUP1 DUP4 SUB DUP2 DUP7 GAS STATICCALL ISZERO DUP1 ISZERO PUSH2 0x674 JUMPI RETURNDATASIZE PUSH1 0x0 DUP1 RETURNDATACOPY RETURNDATASIZE PUSH1 0x0 REVERT JUMPDEST POP POP POP POP PUSH1 0x40 MLOAD RETURNDATASIZE PUSH1 0x1F NOT PUSH1 0x1F DUP3 ADD AND DUP3 ADD DUP1 PUSH1 0x40 MSTORE POP DUP2 ADD SWAP1 PUSH2 0x698 SWAP2 SWAP1 PUSH2 0x10CB JUMP JUMPDEST PUSH16 0xFFFFFFFFFFFFFFFFFFFFFFFFFFFFFFFF AND PUSH13 0x1000000000000000000000000 DUP5 PUSH20 0xFFFFFFFFFFFFFFFFFFFFFFFFFFFFFFFFFFFFFFFF AND PUSH2 0x9BE JUMP JUMPDEST SWAP1 POP PUSH1 0x0 PUSH2 0x786 DUP5 PUSH20 0xFFFFFFFFFFFFFFFFFFFFFFFFFFFFFFFFFFFFFFFF AND PUSH4 0x1A686502 PUSH1 0x40 MLOAD DUP2 PUSH4 0xFFFFFFFF AND PUSH1 0xE0 SHL DUP2 MSTORE PUSH1 0x4 ADD PUSH1 0x20 PUSH1 0x40 MLOAD DUP1 DUP4 SUB DUP2 DUP7 GAS STATICCALL ISZERO DUP1 ISZERO PUSH2 0x726 JUMPI RETURNDATASIZE PUSH1 0x0 DUP1 RETURNDATACOPY RETURNDATASIZE PUSH1 0x0 REVERT JUMPDEST POP POP POP POP PUSH1 0x40 MLOAD RETURNDATASIZE PUSH1 0x1F NOT PUSH1 0x1F DUP3 ADD AND DUP3 ADD DUP1 PUSH1 0x40 MSTORE POP DUP2 ADD SWAP1 PUSH2 0x74A SWAP2 SWAP1 PUSH2 0x10CB JUMP JUMPDEST PUSH16 0xFFFFFFFFFFFFFFFFFFFFFFFFFFFFFFFF AND DUP5 PUSH20 0xFFFFFFFFFFFFFFFFFFFFFFFFFFFFFFFFFFFFFFFF AND PUSH13 0x1000000000000000000000000 PUSH2 0x9BE JUMP JUMPDEST SWAP1 POP PUSH1 0x0 DUP3 PUSH1 0x0 DUP1 SLOAD SWAP1 PUSH2 0x100 EXP SWAP1 DIV PUSH20 0xFFFFFFFFFFFFFFFFFFFFFFFFFFFFFFFFFFFFFFFF AND PUSH20 0xFFFFFFFFFFFFFFFFFFFFFFFFFFFFFFFFFFFFFFFF AND PUSH4 0x313CE567 PUSH1 0x40 MLOAD DUP2 PUSH4 0xFFFFFFFF AND PUSH1 0xE0 SHL DUP2 MSTORE PUSH1 0x4 ADD PUSH1 0x20 PUSH1 0x40 MLOAD DUP1 DUP4 SUB DUP2 DUP7 GAS STATICCALL ISZERO DUP1 ISZERO PUSH2 0x7F6 JUMPI RETURNDATASIZE PUSH1 0x0 DUP1 RETURNDATACOPY RETURNDATASIZE PUSH1 0x0 REVERT JUMPDEST POP POP POP POP PUSH1 0x40 MLOAD RETURNDATASIZE PUSH1 0x1F NOT PUSH1 0x1F DUP3 ADD AND DUP3 ADD DUP1 PUSH1 0x40 MSTORE POP DUP2 ADD SWAP1 PUSH2 0x81A SWAP2 SWAP1 PUSH2 0x10F8 JUMP JUMPDEST PUSH1 0xA PUSH2 0x826 SWAP2 SWAP1 PUSH2 0x1287 JUMP JUMPDEST DUP4 PUSH2 0x831 SWAP2 SWAP1 PUSH2 0x12D2 JUMP JUMPDEST PUSH2 0x83B SWAP2 SWAP1 PUSH2 0x1343 JUMP JUMPDEST SWAP1 POP DUP1 DUP8 PUSH2 0x849 SWAP2 SWAP1 PUSH2 0x12D2 JUMP JUMPDEST SWAP6 POP POP POP POP POP POP SWAP2 SWAP1 POP JUMP JUMPDEST PUSH32 0x0 DUP2 JUMP JUMPDEST PUSH32 0x0 DUP2 JUMP JUMPDEST PUSH2 0x1F4 DUP2 JUMP JUMPDEST PUSH1 0x0 DUP1 PUSH32 0x0 PUSH20 0xFFFFFFFFFFFFFFFFFFFFFFFFFFFFFFFFFFFFFFFF AND PUSH4 0xF7729D43 PUSH1 0x0 DUP1 SLOAD SWAP1 PUSH2 0x100 EXP SWAP1 DIV PUSH20 0xFFFFFFFFFFFFFFFFFFFFFFFFFFFFFFFFFFFFFFFF AND PUSH1 0x1 PUSH1 0x0 SWAP1 SLOAD SWAP1 PUSH2 0x100 EXP SWAP1 DIV PUSH20 0xFFFFFFFFFFFFFFFFFFFFFFFFFFFFFFFFFFFFFFFF AND PUSH2 0x1F4 DUP8 PUSH1 0x0 PUSH1 0x40 MLOAD DUP7 PUSH4 0xFFFFFFFF AND PUSH1 0xE0 SHL DUP2 MSTORE PUSH1 0x4 ADD PUSH2 0x94C SWAP6 SWAP5 SWAP4 SWAP3 SWAP2 SWAP1 PUSH2 0x13AF JUMP JUMPDEST PUSH1 0x20 PUSH1 0x40 MLOAD DUP1 DUP4 SUB DUP2 PUSH1 0x0 DUP8 GAS CALL ISZERO DUP1 ISZERO PUSH2 0x96B JUMPI RETURNDATASIZE PUSH1 0x0 DUP1 RETURNDATACOPY RETURNDATASIZE PUSH1 0x0 REVERT JUMPDEST POP POP POP POP PUSH1 0x40 MLOAD RETURNDATASIZE PUSH1 0x1F NOT PUSH1 0x1F DUP3 ADD AND DUP3 ADD DUP1 PUSH1 0x40 MSTORE POP DUP2 ADD SWAP1 PUSH2 0x98F SWAP2 SWAP1 PUSH2 0xE2B JUMP JUMPDEST SWAP1 POP DUP1 SWAP2 POP POP SWAP2 SWAP1 POP JUMP JUMPDEST PUSH1 0x0 DUP1 SLOAD SWAP1 PUSH2 0x100 EXP SWAP1 DIV PUSH20 0xFFFFFFFFFFFFFFFFFFFFFFFFFFFFFFFFFFFFFFFF AND DUP2 JUMP JUMPDEST PUSH1 0x0 DUP1 PUSH1 0x0 DUP1 NOT DUP6 DUP8 MULMOD DUP6 DUP8 MUL SWAP3 POP DUP3 DUP2 LT DUP4 DUP3 SUB SUB SWAP2 POP POP PUSH1 0x0 DUP2 SUB PUSH2 0x9F8 JUMPI PUSH1 0x0 DUP5 GT PUSH2 0x9EC JUMPI PUSH1 0x0 DUP1 REVERT JUMPDEST DUP4 DUP3 DIV SWAP3 POP POP POP PUSH2 0xA90 JUMP JUMPDEST DUP1 DUP5 GT PUSH2 0xA04 JUMPI PUSH1 0x0 DUP1 REVERT JUMPDEST PUSH1 0x0 DUP5 DUP7 DUP9 MULMOD SWAP1 POP DUP3 DUP2 GT DUP3 SUB SWAP2 POP DUP1 DUP4 SUB SWAP3 POP PUSH1 0x0 DUP6 DUP7 PUSH1 0x0 SUB AND SWAP1 POP DUP1 DUP7 DIV SWAP6 POP DUP1 DUP5 DIV SWAP4 POP PUSH1 0x1 DUP2 DUP3 PUSH1 0x0 SUB DIV ADD SWAP1 POP DUP1 DUP4 MUL DUP5 OR SWAP4 POP PUSH1 0x0 PUSH1 0x2 DUP8 PUSH1 0x3 MUL XOR SWAP1 POP DUP1 DUP8 MUL PUSH1 0x2 SUB DUP2 MUL SWAP1 POP DUP1 DUP8 MUL PUSH1 0x2 SUB DUP2 MUL SWAP1 POP DUP1 DUP8 MUL PUSH1 0x2 SUB DUP2 MUL SWAP1 POP DUP1 DUP8 MUL PUSH1 0x2 SUB DUP2 MUL SWAP1 POP DUP1 DUP8 MUL PUSH1 0x2 SUB DUP2 MUL SWAP1 POP DUP1 DUP8 MUL PUSH1 0x2 SUB DUP2 MUL SWAP1 POP DUP1 DUP6 MUL SWAP6 POP POP POP POP POP POP JUMPDEST SWAP4 SWAP3 POP POP POP JUMP JUMPDEST PUSH1 0x0 PUSH20 0xFFFFFFFFFFFFFFFFFFFFFFFFFFFFFFFFFFFFFFFF DUP3 AND SWAP1 POP SWAP2 SWAP1 POP JUMP JUMPDEST PUSH1 0x0 PUSH2 0xAC2 DUP3 PUSH2 0xA97 JUMP JUMPDEST SWAP1 POP SWAP2 SWAP1 POP JUMP JUMPDEST PUSH2 0xAD2 DUP2 PUSH2 0xAB7 JUMP JUMPDEST DUP3 MSTORE POP POP JUMP JUMPDEST PUSH1 0x0 PUSH1 0x20 DUP3 ADD SWAP1 POP PUSH2 0xAED PUSH1 0x0 DUP4 ADD DUP5 PUSH2 0xAC9 JUMP JUMPDEST SWAP3 SWAP2 POP POP JUMP JUMPDEST PUSH1 0x0 DUP1 REVERT JUMPDEST PUSH1 0x0 DUP2 SWAP1 POP SWAP2 SWAP1 POP JUMP JUMPDEST PUSH2 0xB0B DUP2 PUSH2 0xAF8 JUMP JUMPDEST DUP2 EQ PUSH2 0xB16 JUMPI PUSH1 0x0 DUP1 REVERT JUMPDEST POP JUMP JUMPDEST PUSH1 0x0 DUP2 CALLDATALOAD SWAP1 POP PUSH2 0xB28 DUP2 PUSH2 0xB02 JUMP JUMPDEST SWAP3 SWAP2 POP POP JUMP JUMPDEST PUSH2 0xB37 DUP2 PUSH2 0xAB7 JUMP JUMPDEST DUP2 EQ PUSH2 0xB42 JUMPI PUSH1 0x0 DUP1 REVERT JUMPDEST POP JUMP JUMPDEST PUSH1 0x0 DUP2 CALLDATALOAD SWAP1 POP PUSH2 0xB54 DUP2 PUSH2 0xB2E JUMP JUMPDEST SWAP3 SWAP2 POP POP JUMP JUMPDEST PUSH1 0x0 DUP1 PUSH1 0x40 DUP4 DUP6 SUB SLT ISZERO PUSH2 0xB71 JUMPI PUSH2 0xB70 PUSH2 0xAF3 JUMP JUMPDEST JUMPDEST PUSH1 0x0 PUSH2 0xB7F DUP6 DUP3 DUP7 ADD PUSH2 0xB19 JUMP JUMPDEST SWAP3 POP POP PUSH1 0x20 PUSH2 0xB90 DUP6 DUP3 DUP7 ADD PUSH2 0xB45 JUMP JUMPDEST SWAP2 POP POP SWAP3 POP SWAP3 SWAP1 POP JUMP JUMPDEST PUSH2 0xBA3 DUP2 PUSH2 0xAF8 JUMP JUMPDEST DUP3 MSTORE POP POP JUMP JUMPDEST PUSH1 0x0 PUSH1 0x20 DUP3 ADD SWAP1 POP PUSH2 0xBBE PUSH1 0x0 DUP4 ADD DUP5 PUSH2 0xB9A JUMP JUMPDEST SWAP3 SWAP2 POP POP JUMP JUMPDEST PUSH1 0x0 DUP2 SWAP1 POP SWAP2 SWAP1 POP JUMP JUMPDEST PUSH1 0x0 PUSH2 0xBE9 PUSH2 0xBE4 PUSH2 0xBDF DUP5 PUSH2 0xA97 JUMP JUMPDEST PUSH2 0xBC4 JUMP JUMPDEST PUSH2 0xA97 JUMP JUMPDEST SWAP1 POP SWAP2 SWAP1 POP JUMP JUMPDEST PUSH1 0x0 PUSH2 0xBFB DUP3 PUSH2 0xBCE JUMP JUMPDEST SWAP1 POP SWAP2 SWAP1 POP JUMP JUMPDEST PUSH1 0x0 PUSH2 0xC0D DUP3 PUSH2 0xBF0 JUMP JUMPDEST SWAP1 POP SWAP2 SWAP1 POP JUMP JUMPDEST PUSH2 0xC1D DUP2 PUSH2 0xC02 JUMP JUMPDEST DUP3 MSTORE POP POP JUMP JUMPDEST PUSH1 0x0 PUSH1 0x20 DUP3 ADD SWAP1 POP PUSH2 0xC38 PUSH1 0x0 DUP4 ADD DUP5 PUSH2 0xC14 JUMP JUMPDEST SWAP3 SWAP2 POP POP JUMP JUMPDEST PUSH1 0x0 PUSH1 0x20 DUP3 DUP5 SUB SLT ISZERO PUSH2 0xC54 JUMPI PUSH2 0xC53 PUSH2 0xAF3 JUMP JUMPDEST JUMPDEST PUSH1 0x0 PUSH2 0xC62 DUP5 DUP3 DUP6 ADD PUSH2 0xB19 JUMP JUMPDEST SWAP2 POP POP SWAP3 SWAP2 POP POP JUMP JUMPDEST PUSH1 0x0 PUSH2 0xC76 DUP3 PUSH2 0xBF0 JUMP JUMPDEST SWAP1 POP SWAP2 SWAP1 POP JUMP JUMPDEST PUSH2 0xC86 DUP2 PUSH2 0xC6B JUMP JUMPDEST DUP3 MSTORE POP POP JUMP JUMPDEST PUSH1 0x0 PUSH1 0x20 DUP3 ADD SWAP1 POP PUSH2 0xCA1 PUSH1 0x0 DUP4 ADD DUP5 PUSH2 0xC7D JUMP JUMPDEST SWAP3 SWAP2 POP POP JUMP JUMPDEST PUSH1 0x0 PUSH2 0xCB2 DUP3 PUSH2 0xBF0 JUMP JUMPDEST SWAP1 POP SWAP2 SWAP1 POP JUMP JUMPDEST PUSH2 0xCC2 DUP2 PUSH2 0xCA7 JUMP JUMPDEST DUP3 MSTORE POP POP JUMP JUMPDEST PUSH1 0x0 PUSH1 0x20 DUP3 ADD SWAP1 POP PUSH2 0xCDD PUSH1 0x0 DUP4 ADD DUP5 PUSH2 0xCB9 JUMP JUMPDEST SWAP3 SWAP2 POP POP JUMP JUMPDEST PUSH1 0x0 PUSH3 0xFFFFFF DUP3 AND SWAP1 POP SWAP2 SWAP1 POP JUMP JUMPDEST PUSH2 0xCFB DUP2 PUSH2 0xCE3 JUMP JUMPDEST DUP3 MSTORE POP POP JUMP JUMPDEST PUSH1 0x0 PUSH1 0x20 DUP3 ADD SWAP1 POP PUSH2 0xD16 PUSH1 0x0 DUP4 ADD DUP5 PUSH2 0xCF2 JUMP JUMPDEST SWAP3 SWAP2 POP POP JUMP JUMPDEST PUSH2 0xD25 DUP2 PUSH2 0xAB7 JUMP JUMPDEST DUP3 MSTORE POP POP JUMP JUMPDEST PUSH2 0xD34 DUP2 PUSH2 0xCE3 JUMP JUMPDEST DUP3 MSTORE POP POP JUMP JUMPDEST PUSH2 0xD43 DUP2 PUSH2 0xAF8 JUMP JUMPDEST DUP3 MSTORE POP POP JUMP JUMPDEST PUSH2 0xD52 DUP2 PUSH2 0xA97 JUMP JUMPDEST DUP3 MSTORE POP POP JUMP JUMPDEST PUSH2 0x100 DUP3 ADD PUSH1 0x0 DUP3 ADD MLOAD PUSH2 0xD6F PUSH1 0x0 DUP6 ADD DUP3 PUSH2 0xD1C JUMP JUMPDEST POP PUSH1 0x20 DUP3 ADD MLOAD PUSH2 0xD82 PUSH1 0x20 DUP6 ADD DUP3 PUSH2 0xD1C JUMP JUMPDEST POP PUSH1 0x40 DUP3 ADD MLOAD PUSH2 0xD95 PUSH1 0x40 DUP6 ADD DUP3 PUSH2 0xD2B JUMP JUMPDEST POP PUSH1 0x60 DUP3 ADD MLOAD PUSH2 0xDA8 PUSH1 0x60 DUP6 ADD DUP3 PUSH2 0xD1C JUMP JUMPDEST POP PUSH1 0x80 DUP3 ADD MLOAD PUSH2 0xDBB PUSH1 0x80 DUP6 ADD DUP3 PUSH2 0xD3A JUMP JUMPDEST POP PUSH1 0xA0 DUP3 ADD MLOAD PUSH2 0xDCE PUSH1 0xA0 DUP6 ADD DUP3 PUSH2 0xD3A JUMP JUMPDEST POP PUSH1 0xC0 DUP3 ADD MLOAD PUSH2 0xDE1 PUSH1 0xC0 DUP6 ADD DUP3 PUSH2 0xD3A JUMP JUMPDEST POP PUSH1 0xE0 DUP3 ADD MLOAD PUSH2 0xDF4 PUSH1 0xE0 DUP6 ADD DUP3 PUSH2 0xD49 JUMP JUMPDEST POP POP POP POP JUMP JUMPDEST PUSH1 0x0 PUSH2 0x100 DUP3 ADD SWAP1 POP PUSH2 0xE10 PUSH1 0x0 DUP4 ADD DUP5 PUSH2 0xD58 JUMP JUMPDEST SWAP3 SWAP2 POP POP JUMP JUMPDEST PUSH1 0x0 DUP2 MLOAD SWAP1 POP PUSH2 0xE25 DUP2 PUSH2 0xB02 JUMP JUMPDEST SWAP3 SWAP2 POP POP JUMP JUMPDEST PUSH1 0x0 PUSH1 0x20 DUP3 DUP5 SUB SLT ISZERO PUSH2 0xE41 JUMPI PUSH2 0xE40 PUSH2 0xAF3 JUMP JUMPDEST JUMPDEST PUSH1 0x0 PUSH2 0xE4F DUP5 DUP3 DUP6 ADD PUSH2 0xE16 JUMP JUMPDEST SWAP2 POP POP SWAP3 SWAP2 POP POP JUMP JUMPDEST PUSH1 0x0 PUSH1 0x60 DUP3 ADD SWAP1 POP PUSH2 0xE6D PUSH1 0x0 DUP4 ADD DUP7 PUSH2 0xAC9 JUMP JUMPDEST PUSH2 0xE7A PUSH1 0x20 DUP4 ADD DUP6 PUSH2 0xAC9 JUMP JUMPDEST PUSH2 0xE87 PUSH1 0x40 DUP4 ADD DUP5 PUSH2 0xCF2 JUMP JUMPDEST SWAP5 SWAP4 POP POP POP POP JUMP JUMPDEST PUSH1 0x0 DUP2 MLOAD SWAP1 POP PUSH2 0xE9E DUP2 PUSH2 0xB2E JUMP JUMPDEST SWAP3 SWAP2 POP POP JUMP JUMPDEST PUSH1 0x0 PUSH1 0x20 DUP3 DUP5 SUB SLT ISZERO PUSH2 0xEBA JUMPI PUSH2 0xEB9 PUSH2 0xAF3 JUMP JUMPDEST JUMPDEST PUSH1 0x0 PUSH2 0xEC8 DUP5 DUP3 DUP6 ADD PUSH2 0xE8F JUMP JUMPDEST SWAP2 POP POP SWAP3 SWAP2 POP POP JUMP JUMPDEST PUSH2 0xEDA DUP2 PUSH2 0xA97 JUMP JUMPDEST DUP2 EQ PUSH2 0xEE5 JUMPI PUSH1 0x0 DUP1 REVERT JUMPDEST POP JUMP JUMPDEST PUSH1 0x0 DUP2 MLOAD SWAP1 POP PUSH2 0xEF7 DUP2 PUSH2 0xED1 JUMP JUMPDEST SWAP3 SWAP2 POP POP JUMP JUMPDEST PUSH1 0x0 DUP2 PUSH1 0x2 SIGNEXTEND SWAP1 POP SWAP2 SWAP1 POP JUMP JUMPDEST PUSH2 0xF13 DUP2 PUSH2 0xEFD JUMP JUMPDEST DUP2 EQ PUSH2 0xF1E JUMPI PUSH1 0x0 DUP1 REVERT JUMPDEST POP JUMP JUMPDEST PUSH1 0x0 DUP2 MLOAD SWAP1 POP PUSH2 0xF30 DUP2 PUSH2 0xF0A JUMP JUMPDEST SWAP3 SWAP2 POP POP JUMP JUMPDEST PUSH1 0x0 PUSH2 0xFFFF DUP3 AND SWAP1 POP SWAP2 SWAP1 POP JUMP JUMPDEST PUSH2 0xF4D DUP2 PUSH2 0xF36 JUMP JUMPDEST DUP2 EQ PUSH2 0xF58 JUMPI PUSH1 0x0 DUP1 REVERT JUMPDEST POP JUMP JUMPDEST PUSH1 0x0 DUP2 MLOAD SWAP1 POP PUSH2 0xF6A DUP2 PUSH2 0xF44 JUMP JUMPDEST SWAP3 SWAP2 POP POP JUMP JUMPDEST PUSH1 0x0 PUSH1 0xFF DUP3 AND SWAP1 POP SWAP2 SWAP1 POP JUMP JUMPDEST PUSH2 0xF86 DUP2 PUSH2 0xF70 JUMP JUMPDEST DUP2 EQ PUSH2 0xF91 JUMPI PUSH1 0x0 DUP1 REVERT JUMPDEST POP JUMP JUMPDEST PUSH1 0x0 DUP2 MLOAD SWAP1 POP PUSH2 0xFA3 DUP2 PUSH2 0xF7D JUMP JUMPDEST SWAP3 SWAP2 POP POP JUMP JUMPDEST PUSH1 0x0 DUP2 ISZERO ISZERO SWAP1 POP SWAP2 SWAP1 POP JUMP JUMPDEST PUSH2 0xFBE DUP2 PUSH2 0xFA9 JUMP JUMPDEST DUP2 EQ PUSH2 0xFC9 JUMPI PUSH1 0x0 DUP1 REVERT JUMPDEST POP JUMP JUMPDEST PUSH1 0x0 DUP2 MLOAD SWAP1 POP PUSH2 0xFDB DUP2 PUSH2 0xFB5 JUMP JUMPDEST SWAP3 SWAP2 POP POP JUMP JUMPDEST PUSH1 0x0 DUP1 PUSH1 0x0 DUP1 PUSH1 0x0 DUP1 PUSH1 0x0 PUSH1 0xE0 DUP9 DUP11 SUB SLT ISZERO PUSH2 0x1000 JUMPI PUSH2 0xFFF PUSH2 0xAF3 JUMP JUMPDEST JUMPDEST PUSH1 0x0 PUSH2 0x100E DUP11 DUP3 DUP12 ADD PUSH2 0xEE8 JUMP JUMPDEST SWAP8 POP POP PUSH1 0x20 PUSH2 0x101F DUP11 DUP3 DUP12 ADD PUSH2 0xF21 JUMP JUMPDEST SWAP7 POP POP PUSH1 0x40 PUSH2 0x1030 DUP11 DUP3 DUP12 ADD PUSH2 0xF5B JUMP JUMPDEST SWAP6 POP POP PUSH1 0x60 PUSH2 0x1041 DUP11 DUP3 DUP12 ADD PUSH2 0xF5B JUMP JUMPDEST SWAP5 POP POP PUSH1 0x80 PUSH2 0x1052 DUP11 DUP3 DUP12 ADD PUSH2 0xF5B JUMP JUMPDEST SWAP4 POP POP PUSH1 0xA0 PUSH2 0x1063 DUP11 DUP3 DUP12 ADD PUSH2 0xF94 JUMP JUMPDEST SWAP3 POP POP PUSH1 0xC0 PUSH2 0x1074 DUP11 DUP3 DUP12 ADD PUSH2 0xFCC JUMP JUMPDEST SWAP2 POP POP SWAP3 SWAP6 SWAP9 SWAP2 SWAP5 SWAP8 POP SWAP3 SWAP6 POP JUMP JUMPDEST PUSH1 0x0 PUSH16 0xFFFFFFFFFFFFFFFFFFFFFFFFFFFFFFFF DUP3 AND SWAP1 POP SWAP2 SWAP1 POP JUMP JUMPDEST PUSH2 0x10A8 DUP2 PUSH2 0x1083 JUMP JUMPDEST DUP2 EQ PUSH2 0x10B3 JUMPI PUSH1 0x0 DUP1 REVERT JUMPDEST POP JUMP JUMPDEST PUSH1 0x0 DUP2 MLOAD SWAP1 POP PUSH2 0x10C5 DUP2 PUSH2 0x109F JUMP JUMPDEST SWAP3 SWAP2 POP POP JUMP JUMPDEST PUSH1 0x0 PUSH1 0x20 DUP3 DUP5 SUB SLT ISZERO PUSH2 0x10E1 JUMPI PUSH2 0x10E0 PUSH2 0xAF3 JUMP JUMPDEST JUMPDEST PUSH1 0x0 PUSH2 0x10EF DUP5 DUP3 DUP6 ADD PUSH2 0x10B6 JUMP JUMPDEST SWAP2 POP POP SWAP3 SWAP2 POP POP JUMP JUMPDEST PUSH1 0x0 PUSH1 0x20 DUP3 DUP5 SUB SLT ISZERO PUSH2 0x110E JUMPI PUSH2 0x110D PUSH2 0xAF3 JUMP JUMPDEST JUMPDEST PUSH1 0x0 PUSH2 0x111C DUP5 DUP3 DUP6 ADD PUSH2 0xF94 JUMP JUMPDEST SWAP2 POP POP SWAP3 SWAP2 POP POP JUMP JUMPDEST PUSH32 0x4E487B7100000000000000000000000000000000000000000000000000000000 PUSH1 0x0 MSTORE PUSH1 0x11 PUSH1 0x4 MSTORE PUSH1 0x24 PUSH1 0x0 REVERT JUMPDEST PUSH1 0x0 DUP2 PUSH1 0x1 SHR SWAP1 POP SWAP2 SWAP1 POP JUMP JUMPDEST PUSH1 0x0 DUP1 DUP3 SWAP2 POP DUP4 SWAP1 POP JUMPDEST PUSH1 0x1 DUP6 GT ISZERO PUSH2 0x11AB JUMPI DUP1 DUP7 DIV DUP2 GT ISZERO PUSH2 0x1187 JUMPI PUSH2 0x1186 PUSH2 0x1125 JUMP JUMPDEST JUMPDEST PUSH1 0x1 DUP6 AND ISZERO PUSH2 0x1196 JUMPI DUP1 DUP3 MUL SWAP2 POP JUMPDEST DUP1 DUP2 MUL SWAP1 POP PUSH2 0x11A4 DUP6 PUSH2 0x1154 JUMP JUMPDEST SWAP5 POP PUSH2 0x116B JUMP JUMPDEST SWAP5 POP SWAP5 SWAP3 POP POP POP JUMP JUMPDEST PUSH1 0x0 DUP3 PUSH2 0x11C4 JUMPI PUSH1 0x1 SWAP1 POP PUSH2 0x1280 JUMP JUMPDEST DUP2 PUSH2 0x11D2 JUMPI PUSH1 0x0 SWAP1 POP PUSH2 0x1280 JUMP JUMPDEST DUP2 PUSH1 0x1 DUP2 EQ PUSH2 0x11E8 JUMPI PUSH1 0x2 DUP2 EQ PUSH2 0x11F2 JUMPI PUSH2 0x1221 JUMP JUMPDEST PUSH1 0x1 SWAP2 POP POP PUSH2 0x1280 JUMP JUMPDEST PUSH1 0xFF DUP5 GT ISZERO PUSH2 0x1204 JUMPI PUSH2 0x1203 PUSH2 0x1125 JUMP JUMPDEST JUMPDEST DUP4 PUSH1 0x2 EXP SWAP2 POP DUP5 DUP3 GT ISZERO PUSH2 0x121B JUMPI PUSH2 0x121A PUSH2 0x1125 JUMP JUMPDEST JUMPDEST POP PUSH2 0x1280 JUMP JUMPDEST POP PUSH1 0x20 DUP4 LT PUSH2 0x133 DUP4 LT AND PUSH1 0x4E DUP5 LT PUSH1 0xB DUP5 LT AND OR ISZERO PUSH2 0x1256 JUMPI DUP3 DUP3 EXP SWAP1 POP DUP4 DUP2 GT ISZERO PUSH2 0x1251 JUMPI PUSH2 0x1250 PUSH2 0x1125 JUMP JUMPDEST JUMPDEST PUSH2 0x1280 JUMP JUMPDEST PUSH2 0x1263 DUP5 DUP5 DUP5 PUSH1 0x1 PUSH2 0x1161 JUMP JUMPDEST SWAP3 POP SWAP1 POP DUP2 DUP5 DIV DUP2 GT ISZERO PUSH2 0x127A JUMPI PUSH2 0x1279 PUSH2 0x1125 JUMP JUMPDEST JUMPDEST DUP2 DUP2 MUL SWAP1 POP JUMPDEST SWAP4 SWAP3 POP POP POP JUMP JUMPDEST PUSH1 0x0 PUSH2 0x1292 DUP3 PUSH2 0xAF8 JUMP JUMPDEST SWAP2 POP PUSH2 0x129D DUP4 PUSH2 0xF70 JUMP JUMPDEST SWAP3 POP PUSH2 0x12CA PUSH32 0xFFFFFFFFFFFFFFFFFFFFFFFFFFFFFFFFFFFFFFFFFFFFFFFFFFFFFFFFFFFFFFFF DUP5 DUP5 PUSH2 0x11B4 JUMP JUMPDEST SWAP1 POP SWAP3 SWAP2 POP POP JUMP JUMPDEST PUSH1 0x0 PUSH2 0x12DD DUP3 PUSH2 0xAF8 JUMP JUMPDEST SWAP2 POP PUSH2 0x12E8 DUP4 PUSH2 0xAF8 JUMP JUMPDEST SWAP3 POP DUP3 DUP3 MUL PUSH2 0x12F6 DUP2 PUSH2 0xAF8 JUMP JUMPDEST SWAP2 POP DUP3 DUP3 DIV DUP5 EQ DUP4 ISZERO OR PUSH2 0x130D JUMPI PUSH2 0x130C PUSH2 0x1125 JUMP JUMPDEST JUMPDEST POP SWAP3 SWAP2 POP POP JUMP JUMPDEST PUSH32 0x4E487B7100000000000000000000000000000000000000000000000000000000 PUSH1 0x0 MSTORE PUSH1 0x12 PUSH1 0x4 MSTORE PUSH1 0x24 PUSH1 0x0 REVERT JUMPDEST PUSH1 0x0 PUSH2 0x134E DUP3 PUSH2 0xAF8 JUMP JUMPDEST SWAP2 POP PUSH2 0x1359 DUP4 PUSH2 0xAF8 JUMP JUMPDEST SWAP3 POP DUP3 PUSH2 0x1369 JUMPI PUSH2 0x1368 PUSH2 0x1314 JUMP JUMPDEST JUMPDEST DUP3 DUP3 DIV SWAP1 POP SWAP3 SWAP2 POP POP JUMP JUMPDEST PUSH1 0x0 DUP2 SWAP1 POP SWAP2 SWAP1 POP JUMP JUMPDEST PUSH1 0x0 PUSH2 0x1399 PUSH2 0x1394 PUSH2 0x138F DUP5 PUSH2 0x1374 JUMP JUMPDEST PUSH2 0xBC4 JUMP JUMPDEST PUSH2 0xA97 JUMP JUMPDEST SWAP1 POP SWAP2 SWAP1 POP JUMP JUMPDEST PUSH2 0x13A9 DUP2 PUSH2 0x137E JUMP JUMPDEST DUP3 MSTORE POP POP JUMP JUMPDEST PUSH1 0x0 PUSH1 0xA0 DUP3 ADD SWAP1 POP PUSH2 0x13C4 PUSH1 0x0 DUP4 ADD DUP9 PUSH2 0xAC9 JUMP JUMPDEST PUSH2 0x13D1 PUSH1 0x20 DUP4 ADD DUP8 PUSH2 0xAC9 JUMP JUMPDEST PUSH2 0x13DE PUSH1 0x40 DUP4 ADD DUP7 PUSH2 0xCF2 JUMP JUMPDEST PUSH2 0x13EB PUSH1 0x60 DUP4 ADD DUP6 PUSH2 0xB9A JUMP JUMPDEST PUSH2 0x13F8 PUSH1 0x80 DUP4 ADD DUP5 PUSH2 0x13A0 JUMP JUMPDEST SWAP7 SWAP6 POP POP POP POP POP POP JUMP INVALID LOG2 PUSH5 0x6970667358 0x22 SLT KECCAK256 0xBB BYTE DUP1 SWAP2 DUP9 GASPRICE PUSH22 0x59F24345103C00D98C13EAE0C5B05DACD1F12023FE68 CALLCODE 0xE0 PUSH24 0x64736F6C6343000813003300000000000000000000000000 "},"methodIdentifiers":{"POOL_FEE()":"dd1b9c4a","_getAssetPrice(uint256)":"a02e9fea","_getPool()":"15c1c9c6","_getQuotes(uint256)":"e4d4a3c5","_swapTest(uint256,address)":"0c75538a","quoter()":"c6bbd5a7","stableAssetAddressUSDC()":"fb2134d9","swapRouter()":"c31c9c07","uniswapV3Factory()":"5b549182","wrappedAssetAddressNative()":"0563d1ac"}}}}}