{"contracts/TokenBridgeHyper.sol":{"TokenBridgeHyper":{"abi":[{"inputs":[{"internalType":"address","name":"_endpoint","type":"address"},{"internalType":"contract ISwapRouter","name":"_swapRouter","type":"address"},{"internalType":"address","name":"_stableAssetAddressUSDC","type":"address"},{"internalType":"address","name":"_wrappedAssetAddressNative","type":"address"},{"internalType":"contract IUniswapV3Factory","name":"_uniswapV3Factory","type":"address"}],"stateMutability":"nonpayable","type":"constructor"},{"anonymous":false,"inputs":[{"indexed":false,"internalType":"uint16","name":"_srcChainId","type":"uint16"},{"indexed":false,"internalType":"bytes","name":"_srcAddress","type":"bytes"},{"indexed":false,"internalType":"uint64","name":"_nonce","type":"uint64"},{"indexed":false,"internalType":"bytes","name":"_payload","type":"bytes"},{"indexed":false,"internalType":"bytes","name":"_reason","type":"bytes"}],"name":"MessageFailed","type":"event"},{"anonymous":false,"inputs":[{"indexed":true,"internalType":"address","name":"previousOwner","type":"address"},{"indexed":true,"internalType":"address","name":"newOwner","type":"address"}],"name":"OwnershipTransferred","type":"event"},{"anonymous":false,"inputs":[{"indexed":false,"internalType":"uint16","name":"_srcChainId","type":"uint16"},{"indexed":false,"internalType":"bytes","name":"_srcAddress","type":"bytes"},{"indexed":false,"internalType":"uint64","name":"_nonce","type":"uint64"},{"indexed":false,"internalType":"bytes32","name":"_payloadHash","type":"bytes32"}],"name":"RetryMessageSuccess","type":"event"},{"anonymous":false,"inputs":[{"indexed":false,"internalType":"uint16","name":"_dstChainId","type":"uint16"},{"indexed":false,"internalType":"uint16","name":"_type","type":"uint16"},{"indexed":false,"internalType":"uint256","name":"_minDstGas","type":"uint256"}],"name":"SetMinDstGas","type":"event"},{"anonymous":false,"inputs":[{"indexed":false,"internalType":"address","name":"precrime","type":"address"}],"name":"SetPrecrime","type":"event"},{"anonymous":false,"inputs":[{"indexed":false,"internalType":"uint16","name":"_remoteChainId","type":"uint16"},{"indexed":false,"internalType":"bytes","name":"_path","type":"bytes"}],"name":"SetTrustedRemote","type":"event"},{"anonymous":false,"inputs":[{"indexed":false,"internalType":"uint16","name":"_remoteChainId","type":"uint16"},{"indexed":false,"internalType":"bytes","name":"_remoteAddress","type":"bytes"}],"name":"SetTrustedRemoteAddress","type":"event"},{"inputs":[],"name":"DEFAULT_PAYLOAD_SIZE_LIMIT","outputs":[{"internalType":"uint256","name":"","type":"uint256"}],"stateMutability":"view","type":"function"},{"inputs":[],"name":"POOL_FEE","outputs":[{"internalType":"uint24","name":"","type":"uint24"}],"stateMutability":"view","type":"function"},{"inputs":[{"internalType":"uint256","name":"_amount","type":"uint256"},{"internalType":"uint16","name":"_dstChainId","type":"uint16"}],"name":"bridgeToken","outputs":[],"stateMutability":"payable","type":"function"},{"inputs":[{"internalType":"uint16","name":"","type":"uint16"},{"internalType":"bytes","name":"","type":"bytes"},{"internalType":"uint64","name":"","type":"uint64"}],"name":"failedMessages","outputs":[{"internalType":"bytes32","name":"","type":"bytes32"}],"stateMutability":"view","type":"function"},{"inputs":[{"internalType":"uint16","name":"_srcChainId","type":"uint16"},{"internalType":"bytes","name":"_srcAddress","type":"bytes"}],"name":"forceResumeReceive","outputs":[],"stateMutability":"nonpayable","type":"function"},{"inputs":[{"internalType":"uint16","name":"_version","type":"uint16"},{"internalType":"uint16","name":"_chainId","type":"uint16"},{"internalType":"address","name":"","type":"address"},{"internalType":"uint256","name":"_configType","type":"uint256"}],"name":"getConfig","outputs":[{"internalType":"bytes","name":"","type":"bytes"}],"stateMutability":"view","type":"function"},{"inputs":[],"name":"getContractBalanceNatve","outputs":[{"internalType":"uint256","name":"","type":"uint256"}],"stateMutability":"view","type":"function"},{"inputs":[{"internalType":"uint16","name":"_remoteChainId","type":"uint16"}],"name":"getTrustedRemoteAddress","outputs":[{"internalType":"bytes","name":"","type":"bytes"}],"stateMutability":"view","type":"function"},{"inputs":[{"internalType":"uint16","name":"_srcChainId","type":"uint16"},{"internalType":"bytes","name":"_srcAddress","type":"bytes"}],"name":"isTrustedRemote","outputs":[{"internalType":"bool","name":"","type":"bool"}],"stateMutability":"view","type":"function"},{"inputs":[],"name":"lzEndpoint","outputs":[{"internalType":"contract ILayerZeroEndpoint","name":"","type":"address"}],"stateMutability":"view","type":"function"},{"inputs":[{"internalType":"uint16","name":"_srcChainId","type":"uint16"},{"internalType":"bytes","name":"_srcAddress","type":"bytes"},{"internalType":"uint64","name":"_nonce","type":"uint64"},{"internalType":"bytes","name":"_payload","type":"bytes"}],"name":"lzReceive","outputs":[],"stateMutability":"nonpayable","type":"function"},{"inputs":[{"internalType":"uint16","name":"","type":"uint16"},{"internalType":"uint16","name":"","type":"uint16"}],"name":"minDstGasLookup","outputs":[{"internalType":"uint256","name":"","type":"uint256"}],"stateMutability":"view","type":"function"},{"inputs":[{"internalType":"uint16","name":"_srcChainId","type":"uint16"},{"internalType":"bytes","name":"_srcAddress","type":"bytes"},{"internalType":"uint64","name":"_nonce","type":"uint64"},{"internalType":"bytes","name":"_payload","type":"bytes"}],"name":"nonblockingLzReceive","outputs":[],"stateMutability":"nonpayable","type":"function"},{"inputs":[],"name":"owner","outputs":[{"internalType":"address","name":"","type":"address"}],"stateMutability":"view","type":"function"},{"inputs":[{"internalType":"uint16","name":"","type":"uint16"}],"name":"payloadSizeLimitLookup","outputs":[{"internalType":"uint256","name":"","type":"uint256"}],"stateMutability":"view","type":"function"},{"inputs":[],"name":"precrime","outputs":[{"internalType":"address","name":"","type":"address"}],"stateMutability":"view","type":"function"},{"inputs":[],"name":"priceFeedAddress","outputs":[{"internalType":"address","name":"","type":"address"}],"stateMutability":"view","type":"function"},{"inputs":[],"name":"renounceOwnership","outputs":[],"stateMutability":"nonpayable","type":"function"},{"inputs":[{"internalType":"uint16","name":"_srcChainId","type":"uint16"},{"internalType":"bytes","name":"_srcAddress","type":"bytes"},{"internalType":"uint64","name":"_nonce","type":"uint64"},{"internalType":"bytes","name":"_payload","type":"bytes"}],"name":"retryMessage","outputs":[],"stateMutability":"payable","type":"function"},{"inputs":[{"internalType":"uint16","name":"_version","type":"uint16"},{"internalType":"uint16","name":"_chainId","type":"uint16"},{"internalType":"uint256","name":"_configType","type":"uint256"},{"internalType":"bytes","name":"_config","type":"bytes"}],"name":"setConfig","outputs":[],"stateMutability":"nonpayable","type":"function"},{"inputs":[{"internalType":"uint16","name":"_dstChainId","type":"uint16"},{"internalType":"uint16","name":"_packetType","type":"uint16"},{"internalType":"uint256","name":"_minGas","type":"uint256"}],"name":"setMinDstGas","outputs":[],"stateMutability":"nonpayable","type":"function"},{"inputs":[{"internalType":"uint16","name":"_dstChainId","type":"uint16"},{"internalType":"uint256","name":"_size","type":"uint256"}],"name":"setPayloadSizeLimit","outputs":[],"stateMutability":"nonpayable","type":"function"},{"inputs":[{"internalType":"address","name":"_precrime","type":"address"}],"name":"setPrecrime","outputs":[],"stateMutability":"nonpayable","type":"function"},{"inputs":[{"internalType":"uint16","name":"_version","type":"uint16"}],"name":"setReceiveVersion","outputs":[],"stateMutability":"nonpayable","type":"function"},{"inputs":[{"internalType":"uint16","name":"_version","type":"uint16"}],"name":"setSendVersion","outputs":[],"stateMutability":"nonpayable","type":"function"},{"inputs":[{"internalType":"uint16","name":"_remoteChainId","type":"uint16"},{"internalType":"bytes","name":"_path","type":"bytes"}],"name":"setTrustedRemote","outputs":[],"stateMutability":"nonpayable","type":"function"},{"inputs":[{"internalType":"uint16","name":"_remoteChainId","type":"uint16"},{"internalType":"bytes","name":"_remoteAddress","type":"bytes"}],"name":"setTrustedRemoteAddress","outputs":[],"stateMutability":"nonpayable","type":"function"},{"inputs":[],"name":"stableAssetAddressUSDC","outputs":[{"internalType":"address","name":"","type":"address"}],"stateMutability":"view","type":"function"},{"inputs":[],"name":"swapRouter","outputs":[{"internalType":"contract ISwapRouter","name":"","type":"address"}],"stateMutability":"view","type":"function"},{"inputs":[{"internalType":"address","name":"newOwner","type":"address"}],"name":"transferOwnership","outputs":[],"stateMutability":"nonpayable","type":"function"},{"inputs":[{"internalType":"uint16","name":"","type":"uint16"}],"name":"trustedRemoteLookup","outputs":[{"internalType":"bytes","name":"","type":"bytes"}],"stateMutability":"view","type":"function"},{"inputs":[],"name":"uniswapV3Factory","outputs":[{"internalType":"contract IUniswapV3Factory","name":"","type":"address"}],"stateMutability":"view","type":"function"},{"inputs":[],"name":"withdrawNative","outputs":[],"stateMutability":"nonpayable","type":"function"},{"inputs":[],"name":"wrappedAssetAddressNative","outputs":[{"internalType":"address","name":"","type":"address"}],"stateMutability":"view","type":"function"},{"stateMutability":"payable","type":"receive"}],"evm":{"bytecode":{"linkReferences":{},"object":"60e06040523480156200001157600080fd5b5060405162004b9638038062004b96833981810160405281019062000037919062000344565b8480620000596200004d6200018460201b60201c565b6200018c60201b60201c565b8073ffffffffffffffffffffffffffffffffffffffff1660808173ffffffffffffffffffffffffffffffffffffffff168152505050508373ffffffffffffffffffffffffffffffffffffffff1660a08173ffffffffffffffffffffffffffffffffffffffff168152505082600760006101000a81548173ffffffffffffffffffffffffffffffffffffffff021916908373ffffffffffffffffffffffffffffffffffffffff16021790555081600860006101000a81548173ffffffffffffffffffffffffffffffffffffffff021916908373ffffffffffffffffffffffffffffffffffffffff1602179055508073ffffffffffffffffffffffffffffffffffffffff1660c08173ffffffffffffffffffffffffffffffffffffffff16815250505050505050620003cc565b600033905090565b60008060009054906101000a900473ffffffffffffffffffffffffffffffffffffffff169050816000806101000a81548173ffffffffffffffffffffffffffffffffffffffff021916908373ffffffffffffffffffffffffffffffffffffffff1602179055508173ffffffffffffffffffffffffffffffffffffffff168173ffffffffffffffffffffffffffffffffffffffff167f8be0079c531659141344cd1fd0a4f28419497f9722a3daafe3b4186f6b6457e060405160405180910390a35050565b600080fd5b600073ffffffffffffffffffffffffffffffffffffffff82169050919050565b6000620002828262000255565b9050919050565b620002948162000275565b8114620002a057600080fd5b50565b600081519050620002b48162000289565b92915050565b6000620002c78262000275565b9050919050565b620002d981620002ba565b8114620002e557600080fd5b50565b600081519050620002f981620002ce565b92915050565b60006200030c8262000275565b9050919050565b6200031e81620002ff565b81146200032a57600080fd5b50565b6000815190506200033e8162000313565b92915050565b600080600080600060a0868803121562000363576200036262000250565b5b60006200037388828901620002a3565b95505060206200038688828901620002e8565b94505060406200039988828901620002a3565b9350506060620003ac88828901620002a3565b9250506080620003bf888289016200032d565b9150509295509295909350565b60805160a05160c05161475b6200043b60003960008181610ebb0152611adc0152600081816113b4015261259d0152600081816107e001528181610a6401528181610b2601528181610d6a0152818161130d015281816113e6015281816118b30152611f65015261475b6000f3fe6080604052600436106101fc5760003560e01c8063950c8a741161010d578063d1deba1f116100a0578063e0abca0b1161006f578063e0abca0b146106f9578063eb8d72b714610724578063f2fde38b1461074d578063f5ecbdbc14610776578063fb2134d9146107b357610203565b8063d1deba1f1461065e578063dd1b9c4a1461067a578063df2a5b3b146106a5578063dffc4bfc146106ce57610203565b8063baf3292d116100dc578063baf3292d146105b6578063c31c9c07146105df578063c44618341461060a578063cbed8b9c1461063557610203565b8063950c8a74146104fa5780639f38369a14610525578063a6c3d16514610562578063b353aaa71461058b57610203565b806342d65a8d1161019057806366ad5c8a1161015f57806366ad5c8a14610415578063715018a61461043e5780637533d788146104555780638cfd8f5c146104925780638da5cb5b146104cf57610203565b806342d65a8d1461036d57806350431ce4146103965780635b549182146103ad5780635b8c41e6146103d857610203565b806310ddb137116101cc57806310ddb137146102ae5780631b175c9c146102d75780633d8b38f6146102f35780633f1f4fa41461033057610203565b80621d3567146102085780630563d1ac1461023157806307e0db171461025c5780630df374831461028557610203565b3661020357005b600080fd5b34801561021457600080fd5b5061022f600480360381019061022a9190612733565b6107de565b005b34801561023d57600080fd5b50610246610a34565b604051610253919061281b565b60405180910390f35b34801561026857600080fd5b50610283600480360381019061027e9190612836565b610a5a565b005b34801561029157600080fd5b506102ac60048036038101906102a79190612899565b610af0565b005b3480156102ba57600080fd5b506102d560048036038101906102d09190612836565b610b1c565b005b6102f160048036038101906102ec91906128d9565b610bb2565b005b3480156102ff57600080fd5b5061031a60048036038101906103159190612919565b610c74565b6040516103279190612994565b60405180910390f35b34801561033c57600080fd5b5061035760048036038101906103529190612836565b610d48565b60405161036491906129be565b60405180910390f35b34801561037957600080fd5b50610394600480360381019061038f9190612919565b610d60565b005b3480156103a257600080fd5b506103ab610dfc565b005b3480156103b957600080fd5b506103c2610eb9565b6040516103cf9190612a38565b60405180910390f35b3480156103e457600080fd5b506103ff60048036038101906103fa9190612b94565b610edd565b60405161040c9190612c1c565b60405180910390f35b34801561042157600080fd5b5061043c60048036038101906104379190612733565b610f25565b005b34801561044a57600080fd5b50610453611036565b005b34801561046157600080fd5b5061047c60048036038101906104779190612836565b61104a565b6040516104899190612cb6565b60405180910390f35b34801561049e57600080fd5b506104b960048036038101906104b49190612cd8565b6110ea565b6040516104c691906129be565b60405180910390f35b3480156104db57600080fd5b506104e461110f565b6040516104f1919061281b565b60405180910390f35b34801561050657600080fd5b5061050f611138565b60405161051c919061281b565b60405180910390f35b34801561053157600080fd5b5061054c60048036038101906105479190612836565b61115e565b6040516105599190612cb6565b60405180910390f35b34801561056e57600080fd5b5061058960048036038101906105849190612919565b611277565b005b34801561059757600080fd5b506105a061130b565b6040516105ad9190612d39565b60405180910390f35b3480156105c257600080fd5b506105dd60048036038101906105d89190612d80565b61132f565b005b3480156105eb57600080fd5b506105f46113b2565b6040516106019190612dce565b60405180910390f35b34801561061657600080fd5b5061061f6113d6565b60405161062c91906129be565b60405180910390f35b34801561064157600080fd5b5061065c60048036038101906106579190612de9565b6113dc565b005b61067860048036038101906106739190612733565b61147e565b005b34801561068657600080fd5b5061068f6116c1565b60405161069c9190612e8f565b60405180910390f35b3480156106b157600080fd5b506106cc60048036038101906106c79190612eaa565b6116c7565b005b3480156106da57600080fd5b506106e361178b565b6040516106f091906129be565b60405180910390f35b34801561070557600080fd5b5061070e611793565b60405161071b919061281b565b60405180910390f35b34801561073057600080fd5b5061074b60048036038101906107469190612919565b6117b9565b005b34801561075957600080fd5b50610774600480360381019061076f9190612d80565b61182c565b005b34801561078257600080fd5b5061079d60048036038101906107989190612efd565b6118af565b6040516107aa9190612cb6565b60405180910390f35b3480156107bf57600080fd5b506107c8611960565b6040516107d5919061281b565b60405180910390f35b7f000000000000000000000000000000000000000000000000000000000000000073ffffffffffffffffffffffffffffffffffffffff1661081d611986565b73ffffffffffffffffffffffffffffffffffffffff1614610873576040517f08c379a000000000000000000000000000000000000000000000000000000000815260040161086a90612fc1565b60405180910390fd5b6000600160008861ffff1661ffff168152602001908152602001600020805461089b90613010565b80601f01602080910402602001604051908101604052809291908181526020018280546108c790613010565b80156109145780601f106108e957610100808354040283529160200191610914565b820191906000526020600020905b8154815290600101906020018083116108f757829003601f168201915b5050505050905080518686905014801561092f575060008151115b801561095857508080519060200120868660405161094e929190613071565b6040518091039020145b610997576040517f08c379a000000000000000000000000000000000000000000000000000000000815260040161098e906130fc565b60405180910390fd5b610a2b8787878080601f016020809104026020016040519081016040528093929190818152602001838380828437600081840152601f19601f820116905080830192505050505050508686868080601f016020809104026020016040519081016040528093929190818152602001838380828437600081840152601f19601f8201169050808301925050505050505061198e565b50505050505050565b600860009054906101000a900473ffffffffffffffffffffffffffffffffffffffff1681565b610a62611a59565b7f000000000000000000000000000000000000000000000000000000000000000073ffffffffffffffffffffffffffffffffffffffff166307e0db17826040518263ffffffff1660e01b8152600401610abb919061312b565b600060405180830381600087803b158015610ad557600080fd5b505af1158015610ae9573d6000803e3d6000fd5b5050505050565b610af8611a59565b80600360008461ffff1661ffff168152602001908152602001600020819055505050565b610b24611a59565b7f000000000000000000000000000000000000000000000000000000000000000073ffffffffffffffffffffffffffffffffffffffff166310ddb137826040518263ffffffff1660e01b8152600401610b7d919061312b565b600060405180830381600087803b158015610b9757600080fd5b505af1158015610bab573d6000803e3d6000fd5b5050505050565b81341015610bf5576040517f08c379a0000000000000000000000000000000000000000000000000000000008152600401610bec906131b8565b60405180910390fd5b6000610c0083611ad7565b905060008133604051602001610c17929190613241565b6040516020818303038152906040529050600060019050600062055730905060008282604051602001610c4b9291906132a3565b6040516020818303038152906040529050610c6b86853060008534611e6c565b50505050505050565b600080600160008661ffff1661ffff1681526020019081526020016000208054610c9d90613010565b80601f0160208091040260200160405190810160405280929190818152602001828054610cc990613010565b8015610d165780601f10610ceb57610100808354040283529160200191610d16565b820191906000526020600020905b815481529060010190602001808311610cf957829003601f168201915b505050505090508383604051610d2d929190613071565b60405180910390208180519060200120149150509392505050565b60036020528060005260406000206000915090505481565b610d68611a59565b7f000000000000000000000000000000000000000000000000000000000000000073ffffffffffffffffffffffffffffffffffffffff166342d65a8d8484846040518463ffffffff1660e01b8152600401610dc5939291906132fc565b600060405180830381600087803b158015610ddf57600080fd5b505af1158015610df3573d6000803e3d6000fd5b50505050505050565b610e04611a59565b600047905060003373ffffffffffffffffffffffffffffffffffffffff1682604051610e2f90613354565b60006040518083038185875af1925050503d8060008114610e6c576040519150601f19603f3d011682016040523d82523d6000602084013e610e71565b606091505b5050905080610eb5576040517f08c379a0000000000000000000000000000000000000000000000000000000008152600401610eac906133b5565b60405180910390fd5b5050565b7f000000000000000000000000000000000000000000000000000000000000000081565b60056020528260005260406000208280516020810182018051848252602083016020850120818352809550505050505060205280600052604060002060009250925050505481565b3073ffffffffffffffffffffffffffffffffffffffff16610f44611986565b73ffffffffffffffffffffffffffffffffffffffff1614610f9a576040517f08c379a0000000000000000000000000000000000000000000000000000000008152600401610f9190613447565b60405180910390fd5b61102e8686868080601f016020809104026020016040519081016040528093929190818152602001838380828437600081840152601f19601f820116905080830192505050505050508585858080601f016020809104026020016040519081016040528093929190818152602001838380828437600081840152601f19601f82011690508083019250505050505050612002565b505050505050565b61103e611a59565b6110486000612040565b565b6001602052806000526040600020600091509050805461106990613010565b80601f016020809104026020016040519081016040528092919081815260200182805461109590613010565b80156110e25780601f106110b7576101008083540402835291602001916110e2565b820191906000526020600020905b8154815290600101906020018083116110c557829003601f168201915b505050505081565b6002602052816000526040600020602052806000526040600020600091509150505481565b60008060009054906101000a900473ffffffffffffffffffffffffffffffffffffffff16905090565b600460009054906101000a900473ffffffffffffffffffffffffffffffffffffffff1681565b60606000600160008461ffff1661ffff168152602001908152602001600020805461118890613010565b80601f01602080910402602001604051908101604052809291908181526020018280546111b490613010565b80156112015780601f106111d657610100808354040283529160200191611201565b820191906000526020600020905b8154815290600101906020018083116111e457829003601f168201915b50505050509050600081510361124c576040517f08c379a0000000000000000000000000000000000000000000000000000000008152600401611243906134b3565b60405180910390fd5b61126f60006014835161125f9190613502565b836121049092919063ffffffff16565b915050919050565b61127f611a59565b81813060405160200161129493929190613536565b604051602081830303815290604052600160008561ffff1661ffff16815260200190815260200160002090816112ca9190613702565b507f8c0400cfe2d1199b1a725c78960bcc2a344d869b80590d0f2bd005db15a572ce8383836040516112fe939291906132fc565b60405180910390a1505050565b7f000000000000000000000000000000000000000000000000000000000000000081565b611337611a59565b80600460006101000a81548173ffffffffffffffffffffffffffffffffffffffff021916908373ffffffffffffffffffffffffffffffffffffffff1602179055507f5db758e995a17ec1ad84bdef7e8c3293a0bd6179bcce400dff5d4c3d87db726b816040516113a7919061281b565b60405180910390a150565b7f000000000000000000000000000000000000000000000000000000000000000081565b61271081565b6113e4611a59565b7f000000000000000000000000000000000000000000000000000000000000000073ffffffffffffffffffffffffffffffffffffffff1663cbed8b9c86868686866040518663ffffffff1660e01b81526004016114459594939291906137d4565b600060405180830381600087803b15801561145f57600080fd5b505af1158015611473573d6000803e3d6000fd5b505050505050505050565b6000600560008861ffff1661ffff16815260200190815260200160002086866040516114ab929190613071565b908152602001604051809103902060008567ffffffffffffffff1667ffffffffffffffff1681526020019081526020016000205490506000801b8103611526576040517f08c379a000000000000000000000000000000000000000000000000000000000815260040161151d90613894565b60405180910390fd5b808383604051611537929190613071565b60405180910390201461157f576040517f08c379a000000000000000000000000000000000000000000000000000000000815260040161157690613926565b60405180910390fd5b6000801b600560008961ffff1661ffff16815260200190815260200160002087876040516115ae929190613071565b908152602001604051809103902060008667ffffffffffffffff1667ffffffffffffffff168152602001908152602001600020819055506116798787878080601f016020809104026020016040519081016040528093929190818152602001838380828437600081840152601f19601f820116905080830192505050505050508686868080601f016020809104026020016040519081016040528093929190818152602001838380828437600081840152601f19601f82011690508083019250505050505050612002565b7fc264d91f3adc5588250e1551f547752ca0cfa8f6b530d243b9f9f4cab10ea8e587878787856040516116b0959493929190613955565b60405180910390a150505050505050565b610bb881565b6116cf611a59565b60008111611712576040517f08c379a0000000000000000000000000000000000000000000000000000000008152600401611709906139ef565b60405180910390fd5b80600260008561ffff1661ffff16815260200190815260200160002060008461ffff1661ffff168152602001908152602001600020819055507f9d5c7c0b934da8fefa9c7760c98383778a12dfbfc0c3b3106518f43fb9508ac083838360405161177e93929190613a0f565b60405180910390a1505050565b600047905090565b600660009054906101000a900473ffffffffffffffffffffffffffffffffffffffff1681565b6117c1611a59565b8181600160008661ffff1661ffff16815260200190815260200160002091826117eb929190613a51565b507ffa41487ad5d6728f0b19276fa1eddc16558578f5109fc39d2dc33c3230470dab83838360405161181f939291906132fc565b60405180910390a1505050565b611834611a59565b600073ffffffffffffffffffffffffffffffffffffffff168173ffffffffffffffffffffffffffffffffffffffff16036118a3576040517f08c379a000000000000000000000000000000000000000000000000000000000815260040161189a90613b93565b60405180910390fd5b6118ac81612040565b50565b60607f000000000000000000000000000000000000000000000000000000000000000073ffffffffffffffffffffffffffffffffffffffff1663f5ecbdbc868630866040518563ffffffff1660e01b81526004016119109493929190613bb3565b600060405180830381865afa15801561192d573d6000803e3d6000fd5b505050506040513d6000823e3d601f19601f820116820180604052508101906119569190613c68565b9050949350505050565b600760009054906101000a900473ffffffffffffffffffffffffffffffffffffffff1681565b600033905090565b600080611a3a5a60966366ad5c8a60e01b898989896040516024016119b69493929190613cb1565b604051602081830303815290604052907bffffffffffffffffffffffffffffffffffffffffffffffffffffffff19166020820180517bffffffffffffffffffffffffffffffffffffffffffffffffffffffff83818316178352505050503073ffffffffffffffffffffffffffffffffffffffff16612222909392919063ffffffff16565b9150915081611a5157611a5086868686856122ba565b5b505050505050565b611a61611986565b73ffffffffffffffffffffffffffffffffffffffff16611a7f61110f565b73ffffffffffffffffffffffffffffffffffffffff1614611ad5576040517f08c379a0000000000000000000000000000000000000000000000000000000008152600401611acc90613d50565b60405180910390fd5b565b6000807f000000000000000000000000000000000000000000000000000000000000000073ffffffffffffffffffffffffffffffffffffffff16631698ee82600760009054906101000a900473ffffffffffffffffffffffffffffffffffffffff16600860009054906101000a900473ffffffffffffffffffffffffffffffffffffffff16610bb86040518463ffffffff1660e01b8152600401611b7d93929190613d70565b602060405180830381865afa158015611b9a573d6000803e3d6000fd5b505050506040513d601f19601f82011682018060405250810190611bbe9190613dbc565b905060008173ffffffffffffffffffffffffffffffffffffffff16633850c7bd6040518163ffffffff1660e01b815260040160e060405180830381865afa158015611c0d573d6000803e3d6000fd5b505050506040513d601f19601f82011682018060405250810190611c319190613ec8565b50505050505090506000611ce98373ffffffffffffffffffffffffffffffffffffffff16631a6865026040518163ffffffff1660e01b8152600401602060405180830381865afa158015611c89573d6000803e3d6000fd5b505050506040513d601f19601f82011682018060405250810190611cad9190613fb2565b6fffffffffffffffffffffffffffffffff166c010000000000000000000000008473ffffffffffffffffffffffffffffffffffffffff16612368565b90506000611d9b8473ffffffffffffffffffffffffffffffffffffffff16631a6865026040518163ffffffff1660e01b8152600401602060405180830381865afa158015611d3b573d6000803e3d6000fd5b505050506040513d601f19601f82011682018060405250810190611d5f9190613fb2565b6fffffffffffffffffffffffffffffffff168473ffffffffffffffffffffffffffffffffffffffff166c01000000000000000000000000612368565b9050600082600760009054906101000a900473ffffffffffffffffffffffffffffffffffffffff1673ffffffffffffffffffffffffffffffffffffffff1663313ce5676040518163ffffffff1660e01b8152600401602060405180830381865afa158015611e0d573d6000803e3d6000fd5b505050506040513d601f19601f82011682018060405250810190611e319190613fdf565b600a611e3d919061413f565b83611e48919061418a565b611e5291906141fb565b90508087611e60919061418a565b95505050505050919050565b6000600160008861ffff1661ffff1681526020019081526020016000208054611e9490613010565b80601f0160208091040260200160405190810160405280929190818152602001828054611ec090613010565b8015611f0d5780601f10611ee257610100808354040283529160200191611f0d565b820191906000526020600020905b815481529060010190602001808311611ef057829003601f168201915b505050505090506000815103611f58576040517f08c379a0000000000000000000000000000000000000000000000000000000008152600401611f4f9061429e565b60405180910390fd5b611f63878751612441565b7f000000000000000000000000000000000000000000000000000000000000000073ffffffffffffffffffffffffffffffffffffffff1663c58031008389848a8a8a8a6040518863ffffffff1660e01b8152600401611fc7969594939291906142df565b6000604051808303818588803b158015611fe057600080fd5b505af1158015611ff4573d6000803e3d6000fd5b505050505050505050505050565b6000601484015190506000859050600080848060200190518101906120279190614396565b9150915061203582826124b7565b505050505050505050565b60008060009054906101000a900473ffffffffffffffffffffffffffffffffffffffff169050816000806101000a81548173ffffffffffffffffffffffffffffffffffffffff021916908373ffffffffffffffffffffffffffffffffffffffff1602179055508173ffffffffffffffffffffffffffffffffffffffff168173ffffffffffffffffffffffffffffffffffffffff167f8be0079c531659141344cd1fd0a4f28419497f9722a3daafe3b4186f6b6457e060405160405180910390a35050565b606081601f8361211491906143d6565b1015612155576040517f08c379a000000000000000000000000000000000000000000000000000000000815260040161214c90614456565b60405180910390fd5b818361216191906143d6565b845110156121a4576040517f08c379a000000000000000000000000000000000000000000000000000000000815260040161219b906144c2565b60405180910390fd5b60608215600081146121c55760405191506000825260208201604052612216565b6040519150601f8416801560200281840101858101878315602002848b0101015b8183101561220357805183526020830192506020810190506121e6565b50868552601f19601f8301166040525050505b50809150509392505050565b6000606060008060008661ffff1667ffffffffffffffff81111561224957612248612a69565b5b6040519080825280601f01601f19166020018201604052801561227b5781602001600182028036833780820191505090505b50905060008087516020890160008d8df191503d92508683111561229d578692505b828152826000602083013e81819450945050505094509492505050565b8180519060200120600560008761ffff1661ffff168152602001908152602001600020856040516122eb9190614513565b908152602001604051809103902060008567ffffffffffffffff1667ffffffffffffffff168152602001908152602001600020819055507fe183f33de2837795525b4792ca4cd60535bd77c53b7e7030060bfcf5734d6b0c858585858560405161235995949392919061452a565b60405180910390a15050505050565b60008060008019858709858702925082811083820303915050600081036123a2576000841161239657600080fd5b8382049250505061243a565b8084116123ae57600080fd5b600084868809905082811182039150808303925060008586600003169050808604955080840493506001818260000304019050808302841793506000600287600302189050808702600203810290508087026002038102905080870260020381029050808702600203810290508087026002038102905080870260020381029050808502955050505050505b9392505050565b6000600360008461ffff1661ffff1681526020019081526020016000205490506000810361246f5761271090505b808211156124b2576040517f08c379a00000000000000000000000000000000000000000000000000000000081526004016124a9906145de565b60405180910390fd5b505050565b600080604051806101000160405280600760009054906101000a900473ffffffffffffffffffffffffffffffffffffffff1673ffffffffffffffffffffffffffffffffffffffff168152602001600860009054906101000a900473ffffffffffffffffffffffffffffffffffffffff1673ffffffffffffffffffffffffffffffffffffffff168152602001610bb862ffffff1681526020018473ffffffffffffffffffffffffffffffffffffffff16815260200142815260200185815260200160008152602001600073ffffffffffffffffffffffffffffffffffffffff1681525090507f000000000000000000000000000000000000000000000000000000000000000073ffffffffffffffffffffffffffffffffffffffff1663414bf389826040518263ffffffff1660e01b81526004016125f491906146dc565b6020604051808303816000875af1158015612613573d6000803e3d6000fd5b505050506040513d601f19601f8201168201806040525081019061263791906146f8565b91505092915050565b6000604051905090565b600080fd5b600080fd5b600061ffff82169050919050565b61266b81612654565b811461267657600080fd5b50565b60008135905061268881612662565b92915050565b600080fd5b600080fd5b600080fd5b60008083601f8401126126b3576126b261268e565b5b8235905067ffffffffffffffff8111156126d0576126cf612693565b5b6020830191508360018202830111156126ec576126eb612698565b5b9250929050565b600067ffffffffffffffff82169050919050565b612710816126f3565b811461271b57600080fd5b50565b60008135905061272d81612707565b92915050565b600080600080600080608087890312156127505761274f61264a565b5b600061275e89828a01612679565b965050602087013567ffffffffffffffff81111561277f5761277e61264f565b5b61278b89828a0161269d565b9550955050604061279e89828a0161271e565b935050606087013567ffffffffffffffff8111156127bf576127be61264f565b5b6127cb89828a0161269d565b92509250509295509295509295565b600073ffffffffffffffffffffffffffffffffffffffff82169050919050565b6000612805826127da565b9050919050565b612815816127fa565b82525050565b6000602082019050612830600083018461280c565b92915050565b60006020828403121561284c5761284b61264a565b5b600061285a84828501612679565b91505092915050565b6000819050919050565b61287681612863565b811461288157600080fd5b50565b6000813590506128938161286d565b92915050565b600080604083850312156128b0576128af61264a565b5b60006128be85828601612679565b92505060206128cf85828601612884565b9150509250929050565b600080604083850312156128f0576128ef61264a565b5b60006128fe85828601612884565b925050602061290f85828601612679565b9150509250929050565b6000806000604084860312156129325761293161264a565b5b600061294086828701612679565b935050602084013567ffffffffffffffff8111156129615761296061264f565b5b61296d8682870161269d565b92509250509250925092565b60008115159050919050565b61298e81612979565b82525050565b60006020820190506129a96000830184612985565b92915050565b6129b881612863565b82525050565b60006020820190506129d360008301846129af565b92915050565b6000819050919050565b60006129fe6129f96129f4846127da565b6129d9565b6127da565b9050919050565b6000612a10826129e3565b9050919050565b6000612a2282612a05565b9050919050565b612a3281612a17565b82525050565b6000602082019050612a4d6000830184612a29565b92915050565b600080fd5b6000601f19601f8301169050919050565b7f4e487b7100000000000000000000000000000000000000000000000000000000600052604160045260246000fd5b612aa182612a58565b810181811067ffffffffffffffff82111715612ac057612abf612a69565b5b80604052505050565b6000612ad3612640565b9050612adf8282612a98565b919050565b600067ffffffffffffffff821115612aff57612afe612a69565b5b612b0882612a58565b9050602081019050919050565b82818337600083830152505050565b6000612b37612b3284612ae4565b612ac9565b905082815260208101848484011115612b5357612b52612a53565b5b612b5e848285612b15565b509392505050565b600082601f830112612b7b57612b7a61268e565b5b8135612b8b848260208601612b24565b91505092915050565b600080600060608486031215612bad57612bac61264a565b5b6000612bbb86828701612679565b935050602084013567ffffffffffffffff811115612bdc57612bdb61264f565b5b612be886828701612b66565b9250506040612bf98682870161271e565b9150509250925092565b6000819050919050565b612c1681612c03565b82525050565b6000602082019050612c316000830184612c0d565b92915050565b600081519050919050565b600082825260208201905092915050565b60005b83811015612c71578082015181840152602081019050612c56565b60008484015250505050565b6000612c8882612c37565b612c928185612c42565b9350612ca2818560208601612c53565b612cab81612a58565b840191505092915050565b60006020820190508181036000830152612cd08184612c7d565b905092915050565b60008060408385031215612cef57612cee61264a565b5b6000612cfd85828601612679565b9250506020612d0e85828601612679565b9150509250929050565b6000612d2382612a05565b9050919050565b612d3381612d18565b82525050565b6000602082019050612d4e6000830184612d2a565b92915050565b612d5d816127fa565b8114612d6857600080fd5b50565b600081359050612d7a81612d54565b92915050565b600060208284031215612d9657612d9561264a565b5b6000612da484828501612d6b565b91505092915050565b6000612db882612a05565b9050919050565b612dc881612dad565b82525050565b6000602082019050612de36000830184612dbf565b92915050565b600080600080600060808688031215612e0557612e0461264a565b5b6000612e1388828901612679565b9550506020612e2488828901612679565b9450506040612e3588828901612884565b935050606086013567ffffffffffffffff811115612e5657612e5561264f565b5b612e628882890161269d565b92509250509295509295909350565b600062ffffff82169050919050565b612e8981612e71565b82525050565b6000602082019050612ea46000830184612e80565b92915050565b600080600060608486031215612ec357612ec261264a565b5b6000612ed186828701612679565b9350506020612ee286828701612679565b9250506040612ef386828701612884565b9150509250925092565b60008060008060808587031215612f1757612f1661264a565b5b6000612f2587828801612679565b9450506020612f3687828801612679565b9350506040612f4787828801612d6b565b9250506060612f5887828801612884565b91505092959194509250565b600082825260208201905092915050565b7f4c7a4170703a20696e76616c696420656e64706f696e742063616c6c65720000600082015250565b6000612fab601e83612f64565b9150612fb682612f75565b602082019050919050565b60006020820190508181036000830152612fda81612f9e565b9050919050565b7f4e487b7100000000000000000000000000000000000000000000000000000000600052602260045260246000fd5b6000600282049050600182168061302857607f821691505b60208210810361303b5761303a612fe1565b5b50919050565b600081905092915050565b60006130588385613041565b9350613065838584612b15565b82840190509392505050565b600061307e82848661304c565b91508190509392505050565b7f4c7a4170703a20696e76616c696420736f757263652073656e64696e6720636f60008201527f6e74726163740000000000000000000000000000000000000000000000000000602082015250565b60006130e6602683612f64565b91506130f18261308a565b604082019050919050565b60006020820190508181036000830152613115816130d9565b9050919050565b61312581612654565b82525050565b6000602082019050613140600083018461311c565b92915050565b7f596f75206e65656420746f2073656e642074686520657861637420616d6f756e60008201527f74206f6620746f6b656e73202121000000000000000000000000000000000000602082015250565b60006131a2602e83612f64565b91506131ad82613146565b604082019050919050565b600060208201905081810360008301526131d181613195565b9050919050565b6000819050919050565b6131f36131ee82612863565b6131d8565b82525050565b60008160601b9050919050565b6000613211826131f9565b9050919050565b600061322382613206565b9050919050565b61323b613236826127fa565b613218565b82525050565b600061324d82856131e2565b60208201915061325d828461322a565b6014820191508190509392505050565b60008160f01b9050919050565b60006132858261326d565b9050919050565b61329d61329882612654565b61327a565b82525050565b60006132af828561328c565b6002820191506132bf82846131e2565b6020820191508190509392505050565b60006132db8385612c42565b93506132e8838584612b15565b6132f183612a58565b840190509392505050565b6000604082019050613311600083018661311c565b81810360208301526133248184866132cf565b9050949350505050565b50565b600061333e600083613041565b91506133498261332e565b600082019050919050565b600061335f82613331565b9150819050919050565b7f5769746864726177204661696c65642021212100000000000000000000000000600082015250565b600061339f601383612f64565b91506133aa82613369565b602082019050919050565b600060208201905081810360008301526133ce81613392565b9050919050565b7f4e6f6e626c6f636b696e674c7a4170703a2063616c6c6572206d75737420626560008201527f204c7a4170700000000000000000000000000000000000000000000000000000602082015250565b6000613431602683612f64565b915061343c826133d5565b604082019050919050565b6000602082019050818103600083015261346081613424565b9050919050565b7f4c7a4170703a206e6f20747275737465642070617468207265636f7264000000600082015250565b600061349d601d83612f64565b91506134a882613467565b602082019050919050565b600060208201905081810360008301526134cc81613490565b9050919050565b7f4e487b7100000000000000000000000000000000000000000000000000000000600052601160045260246000fd5b600061350d82612863565b915061351883612863565b92508282039050818111156135305761352f6134d3565b5b92915050565b600061354382858761304c565b915061354f828461322a565b601482019150819050949350505050565b60008190508160005260206000209050919050565b60006020601f8301049050919050565b600082821b905092915050565b6000600883026135c27fffffffffffffffffffffffffffffffffffffffffffffffffffffffffffffffff82613585565b6135cc8683613585565b95508019841693508086168417925050509392505050565b60006135ff6135fa6135f584612863565b6129d9565b612863565b9050919050565b6000819050919050565b613619836135e4565b61362d61362582613606565b848454613592565b825550505050565b600090565b613642613635565b61364d818484613610565b505050565b5b818110156136715761366660008261363a565b600181019050613653565b5050565b601f8211156136b65761368781613560565b61369084613575565b8101602085101561369f578190505b6136b36136ab85613575565b830182613652565b50505b505050565b600082821c905092915050565b60006136d9600019846008026136bb565b1980831691505092915050565b60006136f283836136c8565b9150826002028217905092915050565b61370b82612c37565b67ffffffffffffffff81111561372457613723612a69565b5b61372e8254613010565b613739828285613675565b600060209050601f83116001811461376c576000841561375a578287015190505b61376485826136e6565b8655506137cc565b601f19841661377a86613560565b60005b828110156137a25784890151825560018201915060208501945060208101905061377d565b868310156137bf57848901516137bb601f8916826136c8565b8355505b6001600288020188555050505b505050505050565b60006080820190506137e9600083018861311c565b6137f6602083018761311c565b61380360408301866129af565b81810360608301526138168184866132cf565b90509695505050505050565b7f4e6f6e626c6f636b696e674c7a4170703a206e6f2073746f726564206d65737360008201527f6167650000000000000000000000000000000000000000000000000000000000602082015250565b600061387e602383612f64565b915061388982613822565b604082019050919050565b600060208201905081810360008301526138ad81613871565b9050919050565b7f4e6f6e626c6f636b696e674c7a4170703a20696e76616c6964207061796c6f6160008201527f6400000000000000000000000000000000000000000000000000000000000000602082015250565b6000613910602183612f64565b915061391b826138b4565b604082019050919050565b6000602082019050818103600083015261393f81613903565b9050919050565b61394f816126f3565b82525050565b600060808201905061396a600083018861311c565b818103602083015261397d8186886132cf565b905061398c6040830185613946565b6139996060830184612c0d565b9695505050505050565b7f4c7a4170703a20696e76616c6964206d696e4761730000000000000000000000600082015250565b60006139d9601583612f64565b91506139e4826139a3565b602082019050919050565b60006020820190508181036000830152613a08816139cc565b9050919050565b6000606082019050613a24600083018661311c565b613a31602083018561311c565b613a3e60408301846129af565b949350505050565b600082905092915050565b613a5b8383613a46565b67ffffffffffffffff811115613a7457613a73612a69565b5b613a7e8254613010565b613a89828285613675565b6000601f831160018114613ab85760008415613aa6578287013590505b613ab085826136e6565b865550613b18565b601f198416613ac686613560565b60005b82811015613aee57848901358255600182019150602085019450602081019050613ac9565b86831015613b0b5784890135613b07601f8916826136c8565b8355505b6001600288020188555050505b50505050505050565b7f4f776e61626c653a206e6577206f776e657220697320746865207a65726f206160008201527f6464726573730000000000000000000000000000000000000000000000000000602082015250565b6000613b7d602683612f64565b9150613b8882613b21565b604082019050919050565b60006020820190508181036000830152613bac81613b70565b9050919050565b6000608082019050613bc8600083018761311c565b613bd5602083018661311c565b613be2604083018561280c565b613bef60608301846129af565b95945050505050565b6000613c0b613c0684612ae4565b612ac9565b905082815260208101848484011115613c2757613c26612a53565b5b613c32848285612c53565b509392505050565b600082601f830112613c4f57613c4e61268e565b5b8151613c5f848260208601613bf8565b91505092915050565b600060208284031215613c7e57613c7d61264a565b5b600082015167ffffffffffffffff811115613c9c57613c9b61264f565b5b613ca884828501613c3a565b91505092915050565b6000608082019050613cc6600083018761311c565b8181036020830152613cd88186612c7d565b9050613ce76040830185613946565b8181036060830152613cf98184612c7d565b905095945050505050565b7f4f776e61626c653a2063616c6c6572206973206e6f7420746865206f776e6572600082015250565b6000613d3a602083612f64565b9150613d4582613d04565b602082019050919050565b60006020820190508181036000830152613d6981613d2d565b9050919050565b6000606082019050613d85600083018661280c565b613d92602083018561280c565b613d9f6040830184612e80565b949350505050565b600081519050613db681612d54565b92915050565b600060208284031215613dd257613dd161264a565b5b6000613de084828501613da7565b91505092915050565b613df2816127da565b8114613dfd57600080fd5b50565b600081519050613e0f81613de9565b92915050565b60008160020b9050919050565b613e2b81613e15565b8114613e3657600080fd5b50565b600081519050613e4881613e22565b92915050565b600081519050613e5d81612662565b92915050565b600060ff82169050919050565b613e7981613e63565b8114613e8457600080fd5b50565b600081519050613e9681613e70565b92915050565b613ea581612979565b8114613eb057600080fd5b50565b600081519050613ec281613e9c565b92915050565b600080600080600080600060e0888a031215613ee757613ee661264a565b5b6000613ef58a828b01613e00565b9750506020613f068a828b01613e39565b9650506040613f178a828b01613e4e565b9550506060613f288a828b01613e4e565b9450506080613f398a828b01613e4e565b93505060a0613f4a8a828b01613e87565b92505060c0613f5b8a828b01613eb3565b91505092959891949750929550565b60006fffffffffffffffffffffffffffffffff82169050919050565b613f8f81613f6a565b8114613f9a57600080fd5b50565b600081519050613fac81613f86565b92915050565b600060208284031215613fc857613fc761264a565b5b6000613fd684828501613f9d565b91505092915050565b600060208284031215613ff557613ff461264a565b5b600061400384828501613e87565b91505092915050565b60008160011c9050919050565b6000808291508390505b60018511156140635780860481111561403f5761403e6134d3565b5b600185161561404e5780820291505b808102905061405c8561400c565b9450614023565b94509492505050565b60008261407c5760019050614138565b8161408a5760009050614138565b81600181146140a057600281146140aa576140d9565b6001915050614138565b60ff8411156140bc576140bb6134d3565b5b8360020a9150848211156140d3576140d26134d3565b5b50614138565b5060208310610133831016604e8410600b841016171561410e5782820a905083811115614109576141086134d3565b5b614138565b61411b8484846001614019565b92509050818404811115614132576141316134d3565b5b81810290505b9392505050565b600061414a82612863565b915061415583613e63565b92506141827fffffffffffffffffffffffffffffffffffffffffffffffffffffffffffffffff848461406c565b905092915050565b600061419582612863565b91506141a083612863565b92508282026141ae81612863565b915082820484148315176141c5576141c46134d3565b5b5092915050565b7f4e487b7100000000000000000000000000000000000000000000000000000000600052601260045260246000fd5b600061420682612863565b915061421183612863565b925082614221576142206141cc565b5b828204905092915050565b7f4c7a4170703a2064657374696e6174696f6e20636861696e206973206e6f742060008201527f61207472757374656420736f7572636500000000000000000000000000000000602082015250565b6000614288603083612f64565b91506142938261422c565b604082019050919050565b600060208201905081810360008301526142b78161427b565b9050919050565b60006142c9826127da565b9050919050565b6142d9816142be565b82525050565b600060c0820190506142f4600083018961311c565b81810360208301526143068188612c7d565b9050818103604083015261431a8187612c7d565b905061432960608301866142d0565b614336608083018561280c565b81810360a08301526143488184612c7d565b9050979650505050505050565b6000815190506143648161286d565b92915050565b614373816142be565b811461437e57600080fd5b50565b6000815190506143908161436a565b92915050565b600080604083850312156143ad576143ac61264a565b5b60006143bb85828601614355565b92505060206143cc85828601614381565b9150509250929050565b60006143e182612863565b91506143ec83612863565b9250828201905080821115614404576144036134d3565b5b92915050565b7f736c6963655f6f766572666c6f77000000000000000000000000000000000000600082015250565b6000614440600e83612f64565b915061444b8261440a565b602082019050919050565b6000602082019050818103600083015261446f81614433565b9050919050565b7f736c6963655f6f75744f66426f756e6473000000000000000000000000000000600082015250565b60006144ac601183612f64565b91506144b782614476565b602082019050919050565b600060208201905081810360008301526144db8161449f565b9050919050565b60006144ed82612c37565b6144f78185613041565b9350614507818560208601612c53565b80840191505092915050565b600061451f82846144e2565b915081905092915050565b600060a08201905061453f600083018861311c565b81810360208301526145518187612c7d565b90506145606040830186613946565b81810360608301526145728185612c7d565b905081810360808301526145868184612c7d565b90509695505050505050565b7f4c7a4170703a207061796c6f61642073697a6520697320746f6f206c61726765600082015250565b60006145c8602083612f64565b91506145d382614592565b602082019050919050565b600060208201905081810360008301526145f7816145bb565b9050919050565b614607816127fa565b82525050565b61461681612e71565b82525050565b61462581612863565b82525050565b614634816127da565b82525050565b6101008201600082015161465160008501826145fe565b50602082015161466460208501826145fe565b506040820151614677604085018261460d565b50606082015161468a60608501826145fe565b50608082015161469d608085018261461c565b5060a08201516146b060a085018261461c565b5060c08201516146c360c085018261461c565b5060e08201516146d660e085018261462b565b50505050565b6000610100820190506146f2600083018461463a565b92915050565b60006020828403121561470e5761470d61264a565b5b600061471c84828501614355565b9150509291505056fea2646970667358221220a8deef282e475d326025ca1ccdb26f03cd5a71519de9c9677989aa0d0450113264736f6c63430008130033","opcodes":"PUSH1 0xE0 PUSH1 0x40 MSTORE CALLVALUE DUP1 ISZERO PUSH3 0x11 JUMPI PUSH1 0x0 DUP1 REVERT JUMPDEST POP PUSH1 0x40 MLOAD PUSH3 0x4B96 CODESIZE SUB DUP1 PUSH3 0x4B96 DUP4 CODECOPY DUP2 DUP2 ADD PUSH1 0x40 MSTORE DUP2 ADD SWAP1 PUSH3 0x37 SWAP2 SWAP1 PUSH3 0x344 JUMP JUMPDEST DUP5 DUP1 PUSH3 0x59 PUSH3 0x4D PUSH3 0x184 PUSH1 0x20 SHL PUSH1 0x20 SHR JUMP JUMPDEST PUSH3 0x18C PUSH1 0x20 SHL PUSH1 0x20 SHR JUMP JUMPDEST DUP1 PUSH20 0xFFFFFFFFFFFFFFFFFFFFFFFFFFFFFFFFFFFFFFFF AND PUSH1 0x80 DUP2 PUSH20 0xFFFFFFFFFFFFFFFFFFFFFFFFFFFFFFFFFFFFFFFF AND DUP2 MSTORE POP POP POP POP DUP4 PUSH20 0xFFFFFFFFFFFFFFFFFFFFFFFFFFFFFFFFFFFFFFFF AND PUSH1 0xA0 DUP2 PUSH20 0xFFFFFFFFFFFFFFFFFFFFFFFFFFFFFFFFFFFFFFFF AND DUP2 MSTORE POP POP DUP3 PUSH1 0x7 PUSH1 0x0 PUSH2 0x100 EXP DUP2 SLOAD DUP2 PUSH20 0xFFFFFFFFFFFFFFFFFFFFFFFFFFFFFFFFFFFFFFFF MUL NOT AND SWAP1 DUP4 PUSH20 0xFFFFFFFFFFFFFFFFFFFFFFFFFFFFFFFFFFFFFFFF AND MUL OR SWAP1 SSTORE POP DUP2 PUSH1 0x8 PUSH1 0x0 PUSH2 0x100 EXP DUP2 SLOAD DUP2 PUSH20 0xFFFFFFFFFFFFFFFFFFFFFFFFFFFFFFFFFFFFFFFF MUL NOT AND SWAP1 DUP4 PUSH20 0xFFFFFFFFFFFFFFFFFFFFFFFFFFFFFFFFFFFFFFFF AND MUL OR SWAP1 SSTORE POP DUP1 PUSH20 0xFFFFFFFFFFFFFFFFFFFFFFFFFFFFFFFFFFFFFFFF AND PUSH1 0xC0 DUP2 PUSH20 0xFFFFFFFFFFFFFFFFFFFFFFFFFFFFFFFFFFFFFFFF AND DUP2 MSTORE POP POP POP POP POP POP POP PUSH3 0x3CC JUMP JUMPDEST PUSH1 0x0 CALLER SWAP1 POP SWAP1 JUMP JUMPDEST PUSH1 0x0 DUP1 PUSH1 0x0 SWAP1 SLOAD SWAP1 PUSH2 0x100 EXP SWAP1 DIV PUSH20 0xFFFFFFFFFFFFFFFFFFFFFFFFFFFFFFFFFFFFFFFF AND SWAP1 POP DUP2 PUSH1 0x0 DUP1 PUSH2 0x100 EXP DUP2 SLOAD DUP2 PUSH20 0xFFFFFFFFFFFFFFFFFFFFFFFFFFFFFFFFFFFFFFFF MUL NOT AND SWAP1 DUP4 PUSH20 0xFFFFFFFFFFFFFFFFFFFFFFFFFFFFFFFFFFFFFFFF AND MUL OR SWAP1 SSTORE POP DUP2 PUSH20 0xFFFFFFFFFFFFFFFFFFFFFFFFFFFFFFFFFFFFFFFF AND DUP2 PUSH20 0xFFFFFFFFFFFFFFFFFFFFFFFFFFFFFFFFFFFFFFFF AND PUSH32 0x8BE0079C531659141344CD1FD0A4F28419497F9722A3DAAFE3B4186F6B6457E0 PUSH1 0x40 MLOAD PUSH1 0x40 MLOAD DUP1 SWAP2 SUB SWAP1 LOG3 POP POP JUMP JUMPDEST PUSH1 0x0 DUP1 REVERT JUMPDEST PUSH1 0x0 PUSH20 0xFFFFFFFFFFFFFFFFFFFFFFFFFFFFFFFFFFFFFFFF DUP3 AND SWAP1 POP SWAP2 SWAP1 POP JUMP JUMPDEST PUSH1 0x0 PUSH3 0x282 DUP3 PUSH3 0x255 JUMP JUMPDEST SWAP1 POP SWAP2 SWAP1 POP JUMP JUMPDEST PUSH3 0x294 DUP2 PUSH3 0x275 JUMP JUMPDEST DUP2 EQ PUSH3 0x2A0 JUMPI PUSH1 0x0 DUP1 REVERT JUMPDEST POP JUMP JUMPDEST PUSH1 0x0 DUP2 MLOAD SWAP1 POP PUSH3 0x2B4 DUP2 PUSH3 0x289 JUMP JUMPDEST SWAP3 SWAP2 POP POP JUMP JUMPDEST PUSH1 0x0 PUSH3 0x2C7 DUP3 PUSH3 0x275 JUMP JUMPDEST SWAP1 POP SWAP2 SWAP1 POP JUMP JUMPDEST PUSH3 0x2D9 DUP2 PUSH3 0x2BA JUMP JUMPDEST DUP2 EQ PUSH3 0x2E5 JUMPI PUSH1 0x0 DUP1 REVERT JUMPDEST POP JUMP JUMPDEST PUSH1 0x0 DUP2 MLOAD SWAP1 POP PUSH3 0x2F9 DUP2 PUSH3 0x2CE JUMP JUMPDEST SWAP3 SWAP2 POP POP JUMP JUMPDEST PUSH1 0x0 PUSH3 0x30C DUP3 PUSH3 0x275 JUMP JUMPDEST SWAP1 POP SWAP2 SWAP1 POP JUMP JUMPDEST PUSH3 0x31E DUP2 PUSH3 0x2FF JUMP JUMPDEST DUP2 EQ PUSH3 0x32A JUMPI PUSH1 0x0 DUP1 REVERT JUMPDEST POP JUMP JUMPDEST PUSH1 0x0 DUP2 MLOAD SWAP1 POP PUSH3 0x33E DUP2 PUSH3 0x313 JUMP JUMPDEST SWAP3 SWAP2 POP POP JUMP JUMPDEST PUSH1 0x0 DUP1 PUSH1 0x0 DUP1 PUSH1 0x0 PUSH1 0xA0 DUP7 DUP9 SUB SLT ISZERO PUSH3 0x363 JUMPI PUSH3 0x362 PUSH3 0x250 JUMP JUMPDEST JUMPDEST PUSH1 0x0 PUSH3 0x373 DUP9 DUP3 DUP10 ADD PUSH3 0x2A3 JUMP JUMPDEST SWAP6 POP POP PUSH1 0x20 PUSH3 0x386 DUP9 DUP3 DUP10 ADD PUSH3 0x2E8 JUMP JUMPDEST SWAP5 POP POP PUSH1 0x40 PUSH3 0x399 DUP9 DUP3 DUP10 ADD PUSH3 0x2A3 JUMP JUMPDEST SWAP4 POP POP PUSH1 0x60 PUSH3 0x3AC DUP9 DUP3 DUP10 ADD PUSH3 0x2A3 JUMP JUMPDEST SWAP3 POP POP PUSH1 0x80 PUSH3 0x3BF DUP9 DUP3 DUP10 ADD PUSH3 0x32D JUMP JUMPDEST SWAP2 POP POP SWAP3 SWAP6 POP SWAP3 SWAP6 SWAP1 SWAP4 POP JUMP JUMPDEST PUSH1 0x80 MLOAD PUSH1 0xA0 MLOAD PUSH1 0xC0 MLOAD PUSH2 0x475B PUSH3 0x43B PUSH1 0x0 CODECOPY PUSH1 0x0 DUP2 DUP2 PUSH2 0xEBB ADD MSTORE PUSH2 0x1ADC ADD MSTORE PUSH1 0x0 DUP2 DUP2 PUSH2 0x13B4 ADD MSTORE PUSH2 0x259D ADD MSTORE PUSH1 0x0 DUP2 DUP2 PUSH2 0x7E0 ADD MSTORE DUP2 DUP2 PUSH2 0xA64 ADD MSTORE DUP2 DUP2 PUSH2 0xB26 ADD MSTORE DUP2 DUP2 PUSH2 0xD6A ADD MSTORE DUP2 DUP2 PUSH2 0x130D ADD MSTORE DUP2 DUP2 PUSH2 0x13E6 ADD MSTORE DUP2 DUP2 PUSH2 0x18B3 ADD MSTORE PUSH2 0x1F65 ADD MSTORE PUSH2 0x475B PUSH1 0x0 RETURN INVALID PUSH1 0x80 PUSH1 0x40 MSTORE PUSH1 0x4 CALLDATASIZE LT PUSH2 0x1FC JUMPI PUSH1 0x0 CALLDATALOAD PUSH1 0xE0 SHR DUP1 PUSH4 0x950C8A74 GT PUSH2 0x10D JUMPI DUP1 PUSH4 0xD1DEBA1F GT PUSH2 0xA0 JUMPI DUP1 PUSH4 0xE0ABCA0B GT PUSH2 0x6F JUMPI DUP1 PUSH4 0xE0ABCA0B EQ PUSH2 0x6F9 JUMPI DUP1 PUSH4 0xEB8D72B7 EQ PUSH2 0x724 JUMPI DUP1 PUSH4 0xF2FDE38B EQ PUSH2 0x74D JUMPI DUP1 PUSH4 0xF5ECBDBC EQ PUSH2 0x776 JUMPI DUP1 PUSH4 0xFB2134D9 EQ PUSH2 0x7B3 JUMPI PUSH2 0x203 JUMP JUMPDEST DUP1 PUSH4 0xD1DEBA1F EQ PUSH2 0x65E JUMPI DUP1 PUSH4 0xDD1B9C4A EQ PUSH2 0x67A JUMPI DUP1 PUSH4 0xDF2A5B3B EQ PUSH2 0x6A5 JUMPI DUP1 PUSH4 0xDFFC4BFC EQ PUSH2 0x6CE JUMPI PUSH2 0x203 JUMP JUMPDEST DUP1 PUSH4 0xBAF3292D GT PUSH2 0xDC JUMPI DUP1 PUSH4 0xBAF3292D EQ PUSH2 0x5B6 JUMPI DUP1 PUSH4 0xC31C9C07 EQ PUSH2 0x5DF JUMPI DUP1 PUSH4 0xC4461834 EQ PUSH2 0x60A JUMPI DUP1 PUSH4 0xCBED8B9C EQ PUSH2 0x635 JUMPI PUSH2 0x203 JUMP JUMPDEST DUP1 PUSH4 0x950C8A74 EQ PUSH2 0x4FA JUMPI DUP1 PUSH4 0x9F38369A EQ PUSH2 0x525 JUMPI DUP1 PUSH4 0xA6C3D165 EQ PUSH2 0x562 JUMPI DUP1 PUSH4 0xB353AAA7 EQ PUSH2 0x58B JUMPI PUSH2 0x203 JUMP JUMPDEST DUP1 PUSH4 0x42D65A8D GT PUSH2 0x190 JUMPI DUP1 PUSH4 0x66AD5C8A GT PUSH2 0x15F JUMPI DUP1 PUSH4 0x66AD5C8A EQ PUSH2 0x415 JUMPI DUP1 PUSH4 0x715018A6 EQ PUSH2 0x43E JUMPI DUP1 PUSH4 0x7533D788 EQ PUSH2 0x455 JUMPI DUP1 PUSH4 0x8CFD8F5C EQ PUSH2 0x492 JUMPI DUP1 PUSH4 0x8DA5CB5B EQ PUSH2 0x4CF JUMPI PUSH2 0x203 JUMP JUMPDEST DUP1 PUSH4 0x42D65A8D EQ PUSH2 0x36D JUMPI DUP1 PUSH4 0x50431CE4 EQ PUSH2 0x396 JUMPI DUP1 PUSH4 0x5B549182 EQ PUSH2 0x3AD JUMPI DUP1 PUSH4 0x5B8C41E6 EQ PUSH2 0x3D8 JUMPI PUSH2 0x203 JUMP JUMPDEST DUP1 PUSH4 0x10DDB137 GT PUSH2 0x1CC JUMPI DUP1 PUSH4 0x10DDB137 EQ PUSH2 0x2AE JUMPI DUP1 PUSH4 0x1B175C9C EQ PUSH2 0x2D7 JUMPI DUP1 PUSH4 0x3D8B38F6 EQ PUSH2 0x2F3 JUMPI DUP1 PUSH4 0x3F1F4FA4 EQ PUSH2 0x330 JUMPI PUSH2 0x203 JUMP JUMPDEST DUP1 PUSH3 0x1D3567 EQ PUSH2 0x208 JUMPI DUP1 PUSH4 0x563D1AC EQ PUSH2 0x231 JUMPI DUP1 PUSH4 0x7E0DB17 EQ PUSH2 0x25C JUMPI DUP1 PUSH4 0xDF37483 EQ PUSH2 0x285 JUMPI PUSH2 0x203 JUMP JUMPDEST CALLDATASIZE PUSH2 0x203 JUMPI STOP JUMPDEST PUSH1 0x0 DUP1 REVERT JUMPDEST CALLVALUE DUP1 ISZERO PUSH2 0x214 JUMPI PUSH1 0x0 DUP1 REVERT JUMPDEST POP PUSH2 0x22F PUSH1 0x4 DUP1 CALLDATASIZE SUB DUP2 ADD SWAP1 PUSH2 0x22A SWAP2 SWAP1 PUSH2 0x2733 JUMP JUMPDEST PUSH2 0x7DE JUMP JUMPDEST STOP JUMPDEST CALLVALUE DUP1 ISZERO PUSH2 0x23D JUMPI PUSH1 0x0 DUP1 REVERT JUMPDEST POP PUSH2 0x246 PUSH2 0xA34 JUMP JUMPDEST PUSH1 0x40 MLOAD PUSH2 0x253 SWAP2 SWAP1 PUSH2 0x281B JUMP JUMPDEST PUSH1 0x40 MLOAD DUP1 SWAP2 SUB SWAP1 RETURN JUMPDEST CALLVALUE DUP1 ISZERO PUSH2 0x268 JUMPI PUSH1 0x0 DUP1 REVERT JUMPDEST POP PUSH2 0x283 PUSH1 0x4 DUP1 CALLDATASIZE SUB DUP2 ADD SWAP1 PUSH2 0x27E SWAP2 SWAP1 PUSH2 0x2836 JUMP JUMPDEST PUSH2 0xA5A JUMP JUMPDEST STOP JUMPDEST CALLVALUE DUP1 ISZERO PUSH2 0x291 JUMPI PUSH1 0x0 DUP1 REVERT JUMPDEST POP PUSH2 0x2AC PUSH1 0x4 DUP1 CALLDATASIZE SUB DUP2 ADD SWAP1 PUSH2 0x2A7 SWAP2 SWAP1 PUSH2 0x2899 JUMP JUMPDEST PUSH2 0xAF0 JUMP JUMPDEST STOP JUMPDEST CALLVALUE DUP1 ISZERO PUSH2 0x2BA JUMPI PUSH1 0x0 DUP1 REVERT JUMPDEST POP PUSH2 0x2D5 PUSH1 0x4 DUP1 CALLDATASIZE SUB DUP2 ADD SWAP1 PUSH2 0x2D0 SWAP2 SWAP1 PUSH2 0x2836 JUMP JUMPDEST PUSH2 0xB1C JUMP JUMPDEST STOP JUMPDEST PUSH2 0x2F1 PUSH1 0x4 DUP1 CALLDATASIZE SUB DUP2 ADD SWAP1 PUSH2 0x2EC SWAP2 SWAP1 PUSH2 0x28D9 JUMP JUMPDEST PUSH2 0xBB2 JUMP JUMPDEST STOP JUMPDEST CALLVALUE DUP1 ISZERO PUSH2 0x2FF JUMPI PUSH1 0x0 DUP1 REVERT JUMPDEST POP PUSH2 0x31A PUSH1 0x4 DUP1 CALLDATASIZE SUB DUP2 ADD SWAP1 PUSH2 0x315 SWAP2 SWAP1 PUSH2 0x2919 JUMP JUMPDEST PUSH2 0xC74 JUMP JUMPDEST PUSH1 0x40 MLOAD PUSH2 0x327 SWAP2 SWAP1 PUSH2 0x2994 JUMP JUMPDEST PUSH1 0x40 MLOAD DUP1 SWAP2 SUB SWAP1 RETURN JUMPDEST CALLVALUE DUP1 ISZERO PUSH2 0x33C JUMPI PUSH1 0x0 DUP1 REVERT JUMPDEST POP PUSH2 0x357 PUSH1 0x4 DUP1 CALLDATASIZE SUB DUP2 ADD SWAP1 PUSH2 0x352 SWAP2 SWAP1 PUSH2 0x2836 JUMP JUMPDEST PUSH2 0xD48 JUMP JUMPDEST PUSH1 0x40 MLOAD PUSH2 0x364 SWAP2 SWAP1 PUSH2 0x29BE JUMP JUMPDEST PUSH1 0x40 MLOAD DUP1 SWAP2 SUB SWAP1 RETURN JUMPDEST CALLVALUE DUP1 ISZERO PUSH2 0x379 JUMPI PUSH1 0x0 DUP1 REVERT JUMPDEST POP PUSH2 0x394 PUSH1 0x4 DUP1 CALLDATASIZE SUB DUP2 ADD SWAP1 PUSH2 0x38F SWAP2 SWAP1 PUSH2 0x2919 JUMP JUMPDEST PUSH2 0xD60 JUMP JUMPDEST STOP JUMPDEST CALLVALUE DUP1 ISZERO PUSH2 0x3A2 JUMPI PUSH1 0x0 DUP1 REVERT JUMPDEST POP PUSH2 0x3AB PUSH2 0xDFC JUMP JUMPDEST STOP JUMPDEST CALLVALUE DUP1 ISZERO PUSH2 0x3B9 JUMPI PUSH1 0x0 DUP1 REVERT JUMPDEST POP PUSH2 0x3C2 PUSH2 0xEB9 JUMP JUMPDEST PUSH1 0x40 MLOAD PUSH2 0x3CF SWAP2 SWAP1 PUSH2 0x2A38 JUMP JUMPDEST PUSH1 0x40 MLOAD DUP1 SWAP2 SUB SWAP1 RETURN JUMPDEST CALLVALUE DUP1 ISZERO PUSH2 0x3E4 JUMPI PUSH1 0x0 DUP1 REVERT JUMPDEST POP PUSH2 0x3FF PUSH1 0x4 DUP1 CALLDATASIZE SUB DUP2 ADD SWAP1 PUSH2 0x3FA SWAP2 SWAP1 PUSH2 0x2B94 JUMP JUMPDEST PUSH2 0xEDD JUMP JUMPDEST PUSH1 0x40 MLOAD PUSH2 0x40C SWAP2 SWAP1 PUSH2 0x2C1C JUMP JUMPDEST PUSH1 0x40 MLOAD DUP1 SWAP2 SUB SWAP1 RETURN JUMPDEST CALLVALUE DUP1 ISZERO PUSH2 0x421 JUMPI PUSH1 0x0 DUP1 REVERT JUMPDEST POP PUSH2 0x43C PUSH1 0x4 DUP1 CALLDATASIZE SUB DUP2 ADD SWAP1 PUSH2 0x437 SWAP2 SWAP1 PUSH2 0x2733 JUMP JUMPDEST PUSH2 0xF25 JUMP JUMPDEST STOP JUMPDEST CALLVALUE DUP1 ISZERO PUSH2 0x44A JUMPI PUSH1 0x0 DUP1 REVERT JUMPDEST POP PUSH2 0x453 PUSH2 0x1036 JUMP JUMPDEST STOP JUMPDEST CALLVALUE DUP1 ISZERO PUSH2 0x461 JUMPI PUSH1 0x0 DUP1 REVERT JUMPDEST POP PUSH2 0x47C PUSH1 0x4 DUP1 CALLDATASIZE SUB DUP2 ADD SWAP1 PUSH2 0x477 SWAP2 SWAP1 PUSH2 0x2836 JUMP JUMPDEST PUSH2 0x104A JUMP JUMPDEST PUSH1 0x40 MLOAD PUSH2 0x489 SWAP2 SWAP1 PUSH2 0x2CB6 JUMP JUMPDEST PUSH1 0x40 MLOAD DUP1 SWAP2 SUB SWAP1 RETURN JUMPDEST CALLVALUE DUP1 ISZERO PUSH2 0x49E JUMPI PUSH1 0x0 DUP1 REVERT JUMPDEST POP PUSH2 0x4B9 PUSH1 0x4 DUP1 CALLDATASIZE SUB DUP2 ADD SWAP1 PUSH2 0x4B4 SWAP2 SWAP1 PUSH2 0x2CD8 JUMP JUMPDEST PUSH2 0x10EA JUMP JUMPDEST PUSH1 0x40 MLOAD PUSH2 0x4C6 SWAP2 SWAP1 PUSH2 0x29BE JUMP JUMPDEST PUSH1 0x40 MLOAD DUP1 SWAP2 SUB SWAP1 RETURN JUMPDEST CALLVALUE DUP1 ISZERO PUSH2 0x4DB JUMPI PUSH1 0x0 DUP1 REVERT JUMPDEST POP PUSH2 0x4E4 PUSH2 0x110F JUMP JUMPDEST PUSH1 0x40 MLOAD PUSH2 0x4F1 SWAP2 SWAP1 PUSH2 0x281B JUMP JUMPDEST PUSH1 0x40 MLOAD DUP1 SWAP2 SUB SWAP1 RETURN JUMPDEST CALLVALUE DUP1 ISZERO PUSH2 0x506 JUMPI PUSH1 0x0 DUP1 REVERT JUMPDEST POP PUSH2 0x50F PUSH2 0x1138 JUMP JUMPDEST PUSH1 0x40 MLOAD PUSH2 0x51C SWAP2 SWAP1 PUSH2 0x281B JUMP JUMPDEST PUSH1 0x40 MLOAD DUP1 SWAP2 SUB SWAP1 RETURN JUMPDEST CALLVALUE DUP1 ISZERO PUSH2 0x531 JUMPI PUSH1 0x0 DUP1 REVERT JUMPDEST POP PUSH2 0x54C PUSH1 0x4 DUP1 CALLDATASIZE SUB DUP2 ADD SWAP1 PUSH2 0x547 SWAP2 SWAP1 PUSH2 0x2836 JUMP JUMPDEST PUSH2 0x115E JUMP JUMPDEST PUSH1 0x40 MLOAD PUSH2 0x559 SWAP2 SWAP1 PUSH2 0x2CB6 JUMP JUMPDEST PUSH1 0x40 MLOAD DUP1 SWAP2 SUB SWAP1 RETURN JUMPDEST CALLVALUE DUP1 ISZERO PUSH2 0x56E JUMPI PUSH1 0x0 DUP1 REVERT JUMPDEST POP PUSH2 0x589 PUSH1 0x4 DUP1 CALLDATASIZE SUB DUP2 ADD SWAP1 PUSH2 0x584 SWAP2 SWAP1 PUSH2 0x2919 JUMP JUMPDEST PUSH2 0x1277 JUMP JUMPDEST STOP JUMPDEST CALLVALUE DUP1 ISZERO PUSH2 0x597 JUMPI PUSH1 0x0 DUP1 REVERT JUMPDEST POP PUSH2 0x5A0 PUSH2 0x130B JUMP JUMPDEST PUSH1 0x40 MLOAD PUSH2 0x5AD SWAP2 SWAP1 PUSH2 0x2D39 JUMP JUMPDEST PUSH1 0x40 MLOAD DUP1 SWAP2 SUB SWAP1 RETURN JUMPDEST CALLVALUE DUP1 ISZERO PUSH2 0x5C2 JUMPI PUSH1 0x0 DUP1 REVERT JUMPDEST POP PUSH2 0x5DD PUSH1 0x4 DUP1 CALLDATASIZE SUB DUP2 ADD SWAP1 PUSH2 0x5D8 SWAP2 SWAP1 PUSH2 0x2D80 JUMP JUMPDEST PUSH2 0x132F JUMP JUMPDEST STOP JUMPDEST CALLVALUE DUP1 ISZERO PUSH2 0x5EB JUMPI PUSH1 0x0 DUP1 REVERT JUMPDEST POP PUSH2 0x5F4 PUSH2 0x13B2 JUMP JUMPDEST PUSH1 0x40 MLOAD PUSH2 0x601 SWAP2 SWAP1 PUSH2 0x2DCE JUMP JUMPDEST PUSH1 0x40 MLOAD DUP1 SWAP2 SUB SWAP1 RETURN JUMPDEST CALLVALUE DUP1 ISZERO PUSH2 0x616 JUMPI PUSH1 0x0 DUP1 REVERT JUMPDEST POP PUSH2 0x61F PUSH2 0x13D6 JUMP JUMPDEST PUSH1 0x40 MLOAD PUSH2 0x62C SWAP2 SWAP1 PUSH2 0x29BE JUMP JUMPDEST PUSH1 0x40 MLOAD DUP1 SWAP2 SUB SWAP1 RETURN JUMPDEST CALLVALUE DUP1 ISZERO PUSH2 0x641 JUMPI PUSH1 0x0 DUP1 REVERT JUMPDEST POP PUSH2 0x65C PUSH1 0x4 DUP1 CALLDATASIZE SUB DUP2 ADD SWAP1 PUSH2 0x657 SWAP2 SWAP1 PUSH2 0x2DE9 JUMP JUMPDEST PUSH2 0x13DC JUMP JUMPDEST STOP JUMPDEST PUSH2 0x678 PUSH1 0x4 DUP1 CALLDATASIZE SUB DUP2 ADD SWAP1 PUSH2 0x673 SWAP2 SWAP1 PUSH2 0x2733 JUMP JUMPDEST PUSH2 0x147E JUMP JUMPDEST STOP JUMPDEST CALLVALUE DUP1 ISZERO PUSH2 0x686 JUMPI PUSH1 0x0 DUP1 REVERT JUMPDEST POP PUSH2 0x68F PUSH2 0x16C1 JUMP JUMPDEST PUSH1 0x40 MLOAD PUSH2 0x69C SWAP2 SWAP1 PUSH2 0x2E8F JUMP JUMPDEST PUSH1 0x40 MLOAD DUP1 SWAP2 SUB SWAP1 RETURN JUMPDEST CALLVALUE DUP1 ISZERO PUSH2 0x6B1 JUMPI PUSH1 0x0 DUP1 REVERT JUMPDEST POP PUSH2 0x6CC PUSH1 0x4 DUP1 CALLDATASIZE SUB DUP2 ADD SWAP1 PUSH2 0x6C7 SWAP2 SWAP1 PUSH2 0x2EAA JUMP JUMPDEST PUSH2 0x16C7 JUMP JUMPDEST STOP JUMPDEST CALLVALUE DUP1 ISZERO PUSH2 0x6DA JUMPI PUSH1 0x0 DUP1 REVERT JUMPDEST POP PUSH2 0x6E3 PUSH2 0x178B JUMP JUMPDEST PUSH1 0x40 MLOAD PUSH2 0x6F0 SWAP2 SWAP1 PUSH2 0x29BE JUMP JUMPDEST PUSH1 0x40 MLOAD DUP1 SWAP2 SUB SWAP1 RETURN JUMPDEST CALLVALUE DUP1 ISZERO PUSH2 0x705 JUMPI PUSH1 0x0 DUP1 REVERT JUMPDEST POP PUSH2 0x70E PUSH2 0x1793 JUMP JUMPDEST PUSH1 0x40 MLOAD PUSH2 0x71B SWAP2 SWAP1 PUSH2 0x281B JUMP JUMPDEST PUSH1 0x40 MLOAD DUP1 SWAP2 SUB SWAP1 RETURN JUMPDEST CALLVALUE DUP1 ISZERO PUSH2 0x730 JUMPI PUSH1 0x0 DUP1 REVERT JUMPDEST POP PUSH2 0x74B PUSH1 0x4 DUP1 CALLDATASIZE SUB DUP2 ADD SWAP1 PUSH2 0x746 SWAP2 SWAP1 PUSH2 0x2919 JUMP JUMPDEST PUSH2 0x17B9 JUMP JUMPDEST STOP JUMPDEST CALLVALUE DUP1 ISZERO PUSH2 0x759 JUMPI PUSH1 0x0 DUP1 REVERT JUMPDEST POP PUSH2 0x774 PUSH1 0x4 DUP1 CALLDATASIZE SUB DUP2 ADD SWAP1 PUSH2 0x76F SWAP2 SWAP1 PUSH2 0x2D80 JUMP JUMPDEST PUSH2 0x182C JUMP JUMPDEST STOP JUMPDEST CALLVALUE DUP1 ISZERO PUSH2 0x782 JUMPI PUSH1 0x0 DUP1 REVERT JUMPDEST POP PUSH2 0x79D PUSH1 0x4 DUP1 CALLDATASIZE SUB DUP2 ADD SWAP1 PUSH2 0x798 SWAP2 SWAP1 PUSH2 0x2EFD JUMP JUMPDEST PUSH2 0x18AF JUMP JUMPDEST PUSH1 0x40 MLOAD PUSH2 0x7AA SWAP2 SWAP1 PUSH2 0x2CB6 JUMP JUMPDEST PUSH1 0x40 MLOAD DUP1 SWAP2 SUB SWAP1 RETURN JUMPDEST CALLVALUE DUP1 ISZERO PUSH2 0x7BF JUMPI PUSH1 0x0 DUP1 REVERT JUMPDEST POP PUSH2 0x7C8 PUSH2 0x1960 JUMP JUMPDEST PUSH1 0x40 MLOAD PUSH2 0x7D5 SWAP2 SWAP1 PUSH2 0x281B JUMP JUMPDEST PUSH1 0x40 MLOAD DUP1 SWAP2 SUB SWAP1 RETURN JUMPDEST PUSH32 0x0 PUSH20 0xFFFFFFFFFFFFFFFFFFFFFFFFFFFFFFFFFFFFFFFF AND PUSH2 0x81D PUSH2 0x1986 JUMP JUMPDEST PUSH20 0xFFFFFFFFFFFFFFFFFFFFFFFFFFFFFFFFFFFFFFFF AND EQ PUSH2 0x873 JUMPI PUSH1 0x40 MLOAD PUSH32 0x8C379A000000000000000000000000000000000000000000000000000000000 DUP2 MSTORE PUSH1 0x4 ADD PUSH2 0x86A SWAP1 PUSH2 0x2FC1 JUMP JUMPDEST PUSH1 0x40 MLOAD DUP1 SWAP2 SUB SWAP1 REVERT JUMPDEST PUSH1 0x0 PUSH1 0x1 PUSH1 0x0 DUP9 PUSH2 0xFFFF AND PUSH2 0xFFFF AND DUP2 MSTORE PUSH1 0x20 ADD SWAP1 DUP2 MSTORE PUSH1 0x20 ADD PUSH1 0x0 KECCAK256 DUP1 SLOAD PUSH2 0x89B SWAP1 PUSH2 0x3010 JUMP JUMPDEST DUP1 PUSH1 0x1F ADD PUSH1 0x20 DUP1 SWAP2 DIV MUL PUSH1 0x20 ADD PUSH1 0x40 MLOAD SWAP1 DUP2 ADD PUSH1 0x40 MSTORE DUP1 SWAP3 SWAP2 SWAP1 DUP2 DUP2 MSTORE PUSH1 0x20 ADD DUP3 DUP1 SLOAD PUSH2 0x8C7 SWAP1 PUSH2 0x3010 JUMP JUMPDEST DUP1 ISZERO PUSH2 0x914 JUMPI DUP1 PUSH1 0x1F LT PUSH2 0x8E9 JUMPI PUSH2 0x100 DUP1 DUP4 SLOAD DIV MUL DUP4 MSTORE SWAP2 PUSH1 0x20 ADD SWAP2 PUSH2 0x914 JUMP JUMPDEST DUP3 ADD SWAP2 SWAP1 PUSH1 0x0 MSTORE PUSH1 0x20 PUSH1 0x0 KECCAK256 SWAP1 JUMPDEST DUP2 SLOAD DUP2 MSTORE SWAP1 PUSH1 0x1 ADD SWAP1 PUSH1 0x20 ADD DUP1 DUP4 GT PUSH2 0x8F7 JUMPI DUP3 SWAP1 SUB PUSH1 0x1F AND DUP3 ADD SWAP2 JUMPDEST POP POP POP POP POP SWAP1 POP DUP1 MLOAD DUP7 DUP7 SWAP1 POP EQ DUP1 ISZERO PUSH2 0x92F JUMPI POP PUSH1 0x0 DUP2 MLOAD GT JUMPDEST DUP1 ISZERO PUSH2 0x958 JUMPI POP DUP1 DUP1 MLOAD SWAP1 PUSH1 0x20 ADD KECCAK256 DUP7 DUP7 PUSH1 0x40 MLOAD PUSH2 0x94E SWAP3 SWAP2 SWAP1 PUSH2 0x3071 JUMP JUMPDEST PUSH1 0x40 MLOAD DUP1 SWAP2 SUB SWAP1 KECCAK256 EQ JUMPDEST PUSH2 0x997 JUMPI PUSH1 0x40 MLOAD PUSH32 0x8C379A000000000000000000000000000000000000000000000000000000000 DUP2 MSTORE PUSH1 0x4 ADD PUSH2 0x98E SWAP1 PUSH2 0x30FC JUMP JUMPDEST PUSH1 0x40 MLOAD DUP1 SWAP2 SUB SWAP1 REVERT JUMPDEST PUSH2 0xA2B DUP8 DUP8 DUP8 DUP1 DUP1 PUSH1 0x1F ADD PUSH1 0x20 DUP1 SWAP2 DIV MUL PUSH1 0x20 ADD PUSH1 0x40 MLOAD SWAP1 DUP2 ADD PUSH1 0x40 MSTORE DUP1 SWAP4 SWAP3 SWAP2 SWAP1 DUP2 DUP2 MSTORE PUSH1 0x20 ADD DUP4 DUP4 DUP1 DUP3 DUP5 CALLDATACOPY PUSH1 0x0 DUP2 DUP5 ADD MSTORE PUSH1 0x1F NOT PUSH1 0x1F DUP3 ADD AND SWAP1 POP DUP1 DUP4 ADD SWAP3 POP POP POP POP POP POP POP DUP7 DUP7 DUP7 DUP1 DUP1 PUSH1 0x1F ADD PUSH1 0x20 DUP1 SWAP2 DIV MUL PUSH1 0x20 ADD PUSH1 0x40 MLOAD SWAP1 DUP2 ADD PUSH1 0x40 MSTORE DUP1 SWAP4 SWAP3 SWAP2 SWAP1 DUP2 DUP2 MSTORE PUSH1 0x20 ADD DUP4 DUP4 DUP1 DUP3 DUP5 CALLDATACOPY PUSH1 0x0 DUP2 DUP5 ADD MSTORE PUSH1 0x1F NOT PUSH1 0x1F DUP3 ADD AND SWAP1 POP DUP1 DUP4 ADD SWAP3 POP POP POP POP POP POP POP PUSH2 0x198E JUMP JUMPDEST POP POP POP POP POP POP POP JUMP JUMPDEST PUSH1 0x8 PUSH1 0x0 SWAP1 SLOAD SWAP1 PUSH2 0x100 EXP SWAP1 DIV PUSH20 0xFFFFFFFFFFFFFFFFFFFFFFFFFFFFFFFFFFFFFFFF AND DUP2 JUMP JUMPDEST PUSH2 0xA62 PUSH2 0x1A59 JUMP JUMPDEST PUSH32 0x0 PUSH20 0xFFFFFFFFFFFFFFFFFFFFFFFFFFFFFFFFFFFFFFFF AND PUSH4 0x7E0DB17 DUP3 PUSH1 0x40 MLOAD DUP3 PUSH4 0xFFFFFFFF AND PUSH1 0xE0 SHL DUP2 MSTORE PUSH1 0x4 ADD PUSH2 0xABB SWAP2 SWAP1 PUSH2 0x312B JUMP JUMPDEST PUSH1 0x0 PUSH1 0x40 MLOAD DUP1 DUP4 SUB DUP2 PUSH1 0x0 DUP8 DUP1 EXTCODESIZE ISZERO DUP1 ISZERO PUSH2 0xAD5 JUMPI PUSH1 0x0 DUP1 REVERT JUMPDEST POP GAS CALL ISZERO DUP1 ISZERO PUSH2 0xAE9 JUMPI RETURNDATASIZE PUSH1 0x0 DUP1 RETURNDATACOPY RETURNDATASIZE PUSH1 0x0 REVERT JUMPDEST POP POP POP POP POP JUMP JUMPDEST PUSH2 0xAF8 PUSH2 0x1A59 JUMP JUMPDEST DUP1 PUSH1 0x3 PUSH1 0x0 DUP5 PUSH2 0xFFFF AND PUSH2 0xFFFF AND DUP2 MSTORE PUSH1 0x20 ADD SWAP1 DUP2 MSTORE PUSH1 0x20 ADD PUSH1 0x0 KECCAK256 DUP2 SWAP1 SSTORE POP POP POP JUMP JUMPDEST PUSH2 0xB24 PUSH2 0x1A59 JUMP JUMPDEST PUSH32 0x0 PUSH20 0xFFFFFFFFFFFFFFFFFFFFFFFFFFFFFFFFFFFFFFFF AND PUSH4 0x10DDB137 DUP3 PUSH1 0x40 MLOAD DUP3 PUSH4 0xFFFFFFFF AND PUSH1 0xE0 SHL DUP2 MSTORE PUSH1 0x4 ADD PUSH2 0xB7D SWAP2 SWAP1 PUSH2 0x312B JUMP JUMPDEST PUSH1 0x0 PUSH1 0x40 MLOAD DUP1 DUP4 SUB DUP2 PUSH1 0x0 DUP8 DUP1 EXTCODESIZE ISZERO DUP1 ISZERO PUSH2 0xB97 JUMPI PUSH1 0x0 DUP1 REVERT JUMPDEST POP GAS CALL ISZERO DUP1 ISZERO PUSH2 0xBAB JUMPI RETURNDATASIZE PUSH1 0x0 DUP1 RETURNDATACOPY RETURNDATASIZE PUSH1 0x0 REVERT JUMPDEST POP POP POP POP POP JUMP JUMPDEST DUP2 CALLVALUE LT ISZERO PUSH2 0xBF5 JUMPI PUSH1 0x40 MLOAD PUSH32 0x8C379A000000000000000000000000000000000000000000000000000000000 DUP2 MSTORE PUSH1 0x4 ADD PUSH2 0xBEC SWAP1 PUSH2 0x31B8 JUMP JUMPDEST PUSH1 0x40 MLOAD DUP1 SWAP2 SUB SWAP1 REVERT JUMPDEST PUSH1 0x0 PUSH2 0xC00 DUP4 PUSH2 0x1AD7 JUMP JUMPDEST SWAP1 POP PUSH1 0x0 DUP2 CALLER PUSH1 0x40 MLOAD PUSH1 0x20 ADD PUSH2 0xC17 SWAP3 SWAP2 SWAP1 PUSH2 0x3241 JUMP JUMPDEST PUSH1 0x40 MLOAD PUSH1 0x20 DUP2 DUP4 SUB SUB DUP2 MSTORE SWAP1 PUSH1 0x40 MSTORE SWAP1 POP PUSH1 0x0 PUSH1 0x1 SWAP1 POP PUSH1 0x0 PUSH3 0x55730 SWAP1 POP PUSH1 0x0 DUP3 DUP3 PUSH1 0x40 MLOAD PUSH1 0x20 ADD PUSH2 0xC4B SWAP3 SWAP2 SWAP1 PUSH2 0x32A3 JUMP JUMPDEST PUSH1 0x40 MLOAD PUSH1 0x20 DUP2 DUP4 SUB SUB DUP2 MSTORE SWAP1 PUSH1 0x40 MSTORE SWAP1 POP PUSH2 0xC6B DUP7 DUP6 ADDRESS PUSH1 0x0 DUP6 CALLVALUE PUSH2 0x1E6C JUMP JUMPDEST POP POP POP POP POP POP POP JUMP JUMPDEST PUSH1 0x0 DUP1 PUSH1 0x1 PUSH1 0x0 DUP7 PUSH2 0xFFFF AND PUSH2 0xFFFF AND DUP2 MSTORE PUSH1 0x20 ADD SWAP1 DUP2 MSTORE PUSH1 0x20 ADD PUSH1 0x0 KECCAK256 DUP1 SLOAD PUSH2 0xC9D SWAP1 PUSH2 0x3010 JUMP JUMPDEST DUP1 PUSH1 0x1F ADD PUSH1 0x20 DUP1 SWAP2 DIV MUL PUSH1 0x20 ADD PUSH1 0x40 MLOAD SWAP1 DUP2 ADD PUSH1 0x40 MSTORE DUP1 SWAP3 SWAP2 SWAP1 DUP2 DUP2 MSTORE PUSH1 0x20 ADD DUP3 DUP1 SLOAD PUSH2 0xCC9 SWAP1 PUSH2 0x3010 JUMP JUMPDEST DUP1 ISZERO PUSH2 0xD16 JUMPI DUP1 PUSH1 0x1F LT PUSH2 0xCEB JUMPI PUSH2 0x100 DUP1 DUP4 SLOAD DIV MUL DUP4 MSTORE SWAP2 PUSH1 0x20 ADD SWAP2 PUSH2 0xD16 JUMP JUMPDEST DUP3 ADD SWAP2 SWAP1 PUSH1 0x0 MSTORE PUSH1 0x20 PUSH1 0x0 KECCAK256 SWAP1 JUMPDEST DUP2 SLOAD DUP2 MSTORE SWAP1 PUSH1 0x1 ADD SWAP1 PUSH1 0x20 ADD DUP1 DUP4 GT PUSH2 0xCF9 JUMPI DUP3 SWAP1 SUB PUSH1 0x1F AND DUP3 ADD SWAP2 JUMPDEST POP POP POP POP POP SWAP1 POP DUP4 DUP4 PUSH1 0x40 MLOAD PUSH2 0xD2D SWAP3 SWAP2 SWAP1 PUSH2 0x3071 JUMP JUMPDEST PUSH1 0x40 MLOAD DUP1 SWAP2 SUB SWAP1 KECCAK256 DUP2 DUP1 MLOAD SWAP1 PUSH1 0x20 ADD KECCAK256 EQ SWAP2 POP POP SWAP4 SWAP3 POP POP POP JUMP JUMPDEST PUSH1 0x3 PUSH1 0x20 MSTORE DUP1 PUSH1 0x0 MSTORE PUSH1 0x40 PUSH1 0x0 KECCAK256 PUSH1 0x0 SWAP2 POP SWAP1 POP SLOAD DUP2 JUMP JUMPDEST PUSH2 0xD68 PUSH2 0x1A59 JUMP JUMPDEST PUSH32 0x0 PUSH20 0xFFFFFFFFFFFFFFFFFFFFFFFFFFFFFFFFFFFFFFFF AND PUSH4 0x42D65A8D DUP5 DUP5 DUP5 PUSH1 0x40 MLOAD DUP5 PUSH4 0xFFFFFFFF AND PUSH1 0xE0 SHL DUP2 MSTORE PUSH1 0x4 ADD PUSH2 0xDC5 SWAP4 SWAP3 SWAP2 SWAP1 PUSH2 0x32FC JUMP JUMPDEST PUSH1 0x0 PUSH1 0x40 MLOAD DUP1 DUP4 SUB DUP2 PUSH1 0x0 DUP8 DUP1 EXTCODESIZE ISZERO DUP1 ISZERO PUSH2 0xDDF JUMPI PUSH1 0x0 DUP1 REVERT JUMPDEST POP GAS CALL ISZERO DUP1 ISZERO PUSH2 0xDF3 JUMPI RETURNDATASIZE PUSH1 0x0 DUP1 RETURNDATACOPY RETURNDATASIZE PUSH1 0x0 REVERT JUMPDEST POP POP POP POP POP POP POP JUMP JUMPDEST PUSH2 0xE04 PUSH2 0x1A59 JUMP JUMPDEST PUSH1 0x0 SELFBALANCE SWAP1 POP PUSH1 0x0 CALLER PUSH20 0xFFFFFFFFFFFFFFFFFFFFFFFFFFFFFFFFFFFFFFFF AND DUP3 PUSH1 0x40 MLOAD PUSH2 0xE2F SWAP1 PUSH2 0x3354 JUMP JUMPDEST PUSH1 0x0 PUSH1 0x40 MLOAD DUP1 DUP4 SUB DUP2 DUP6 DUP8 GAS CALL SWAP3 POP POP POP RETURNDATASIZE DUP1 PUSH1 0x0 DUP2 EQ PUSH2 0xE6C JUMPI PUSH1 0x40 MLOAD SWAP2 POP PUSH1 0x1F NOT PUSH1 0x3F RETURNDATASIZE ADD AND DUP3 ADD PUSH1 0x40 MSTORE RETURNDATASIZE DUP3 MSTORE RETURNDATASIZE PUSH1 0x0 PUSH1 0x20 DUP5 ADD RETURNDATACOPY PUSH2 0xE71 JUMP JUMPDEST PUSH1 0x60 SWAP2 POP JUMPDEST POP POP SWAP1 POP DUP1 PUSH2 0xEB5 JUMPI PUSH1 0x40 MLOAD PUSH32 0x8C379A000000000000000000000000000000000000000000000000000000000 DUP2 MSTORE PUSH1 0x4 ADD PUSH2 0xEAC SWAP1 PUSH2 0x33B5 JUMP JUMPDEST PUSH1 0x40 MLOAD DUP1 SWAP2 SUB SWAP1 REVERT JUMPDEST POP POP JUMP JUMPDEST PUSH32 0x0 DUP2 JUMP JUMPDEST PUSH1 0x5 PUSH1 0x20 MSTORE DUP3 PUSH1 0x0 MSTORE PUSH1 0x40 PUSH1 0x0 KECCAK256 DUP3 DUP1 MLOAD PUSH1 0x20 DUP2 ADD DUP3 ADD DUP1 MLOAD DUP5 DUP3 MSTORE PUSH1 0x20 DUP4 ADD PUSH1 0x20 DUP6 ADD KECCAK256 DUP2 DUP4 MSTORE DUP1 SWAP6 POP POP POP POP POP POP PUSH1 0x20 MSTORE DUP1 PUSH1 0x0 MSTORE PUSH1 0x40 PUSH1 0x0 KECCAK256 PUSH1 0x0 SWAP3 POP SWAP3 POP POP POP SLOAD DUP2 JUMP JUMPDEST ADDRESS PUSH20 0xFFFFFFFFFFFFFFFFFFFFFFFFFFFFFFFFFFFFFFFF AND PUSH2 0xF44 PUSH2 0x1986 JUMP JUMPDEST PUSH20 0xFFFFFFFFFFFFFFFFFFFFFFFFFFFFFFFFFFFFFFFF AND EQ PUSH2 0xF9A JUMPI PUSH1 0x40 MLOAD PUSH32 0x8C379A000000000000000000000000000000000000000000000000000000000 DUP2 MSTORE PUSH1 0x4 ADD PUSH2 0xF91 SWAP1 PUSH2 0x3447 JUMP JUMPDEST PUSH1 0x40 MLOAD DUP1 SWAP2 SUB SWAP1 REVERT JUMPDEST PUSH2 0x102E DUP7 DUP7 DUP7 DUP1 DUP1 PUSH1 0x1F ADD PUSH1 0x20 DUP1 SWAP2 DIV MUL PUSH1 0x20 ADD PUSH1 0x40 MLOAD SWAP1 DUP2 ADD PUSH1 0x40 MSTORE DUP1 SWAP4 SWAP3 SWAP2 SWAP1 DUP2 DUP2 MSTORE PUSH1 0x20 ADD DUP4 DUP4 DUP1 DUP3 DUP5 CALLDATACOPY PUSH1 0x0 DUP2 DUP5 ADD MSTORE PUSH1 0x1F NOT PUSH1 0x1F DUP3 ADD AND SWAP1 POP DUP1 DUP4 ADD SWAP3 POP POP POP POP POP POP POP DUP6 DUP6 DUP6 DUP1 DUP1 PUSH1 0x1F ADD PUSH1 0x20 DUP1 SWAP2 DIV MUL PUSH1 0x20 ADD PUSH1 0x40 MLOAD SWAP1 DUP2 ADD PUSH1 0x40 MSTORE DUP1 SWAP4 SWAP3 SWAP2 SWAP1 DUP2 DUP2 MSTORE PUSH1 0x20 ADD DUP4 DUP4 DUP1 DUP3 DUP5 CALLDATACOPY PUSH1 0x0 DUP2 DUP5 ADD MSTORE PUSH1 0x1F NOT PUSH1 0x1F DUP3 ADD AND SWAP1 POP DUP1 DUP4 ADD SWAP3 POP POP POP POP POP POP POP PUSH2 0x2002 JUMP JUMPDEST POP POP POP POP POP POP JUMP JUMPDEST PUSH2 0x103E PUSH2 0x1A59 JUMP JUMPDEST PUSH2 0x1048 PUSH1 0x0 PUSH2 0x2040 JUMP JUMPDEST JUMP JUMPDEST PUSH1 0x1 PUSH1 0x20 MSTORE DUP1 PUSH1 0x0 MSTORE PUSH1 0x40 PUSH1 0x0 KECCAK256 PUSH1 0x0 SWAP2 POP SWAP1 POP DUP1 SLOAD PUSH2 0x1069 SWAP1 PUSH2 0x3010 JUMP JUMPDEST DUP1 PUSH1 0x1F ADD PUSH1 0x20 DUP1 SWAP2 DIV MUL PUSH1 0x20 ADD PUSH1 0x40 MLOAD SWAP1 DUP2 ADD PUSH1 0x40 MSTORE DUP1 SWAP3 SWAP2 SWAP1 DUP2 DUP2 MSTORE PUSH1 0x20 ADD DUP3 DUP1 SLOAD PUSH2 0x1095 SWAP1 PUSH2 0x3010 JUMP JUMPDEST DUP1 ISZERO PUSH2 0x10E2 JUMPI DUP1 PUSH1 0x1F LT PUSH2 0x10B7 JUMPI PUSH2 0x100 DUP1 DUP4 SLOAD DIV MUL DUP4 MSTORE SWAP2 PUSH1 0x20 ADD SWAP2 PUSH2 0x10E2 JUMP JUMPDEST DUP3 ADD SWAP2 SWAP1 PUSH1 0x0 MSTORE PUSH1 0x20 PUSH1 0x0 KECCAK256 SWAP1 JUMPDEST DUP2 SLOAD DUP2 MSTORE SWAP1 PUSH1 0x1 ADD SWAP1 PUSH1 0x20 ADD DUP1 DUP4 GT PUSH2 0x10C5 JUMPI DUP3 SWAP1 SUB PUSH1 0x1F AND DUP3 ADD SWAP2 JUMPDEST POP POP POP POP POP DUP2 JUMP JUMPDEST PUSH1 0x2 PUSH1 0x20 MSTORE DUP2 PUSH1 0x0 MSTORE PUSH1 0x40 PUSH1 0x0 KECCAK256 PUSH1 0x20 MSTORE DUP1 PUSH1 0x0 MSTORE PUSH1 0x40 PUSH1 0x0 KECCAK256 PUSH1 0x0 SWAP2 POP SWAP2 POP POP SLOAD DUP2 JUMP JUMPDEST PUSH1 0x0 DUP1 PUSH1 0x0 SWAP1 SLOAD SWAP1 PUSH2 0x100 EXP SWAP1 DIV PUSH20 0xFFFFFFFFFFFFFFFFFFFFFFFFFFFFFFFFFFFFFFFF AND SWAP1 POP SWAP1 JUMP JUMPDEST PUSH1 0x4 PUSH1 0x0 SWAP1 SLOAD SWAP1 PUSH2 0x100 EXP SWAP1 DIV PUSH20 0xFFFFFFFFFFFFFFFFFFFFFFFFFFFFFFFFFFFFFFFF AND DUP2 JUMP JUMPDEST PUSH1 0x60 PUSH1 0x0 PUSH1 0x1 PUSH1 0x0 DUP5 PUSH2 0xFFFF AND PUSH2 0xFFFF AND DUP2 MSTORE PUSH1 0x20 ADD SWAP1 DUP2 MSTORE PUSH1 0x20 ADD PUSH1 0x0 KECCAK256 DUP1 SLOAD PUSH2 0x1188 SWAP1 PUSH2 0x3010 JUMP JUMPDEST DUP1 PUSH1 0x1F ADD PUSH1 0x20 DUP1 SWAP2 DIV MUL PUSH1 0x20 ADD PUSH1 0x40 MLOAD SWAP1 DUP2 ADD PUSH1 0x40 MSTORE DUP1 SWAP3 SWAP2 SWAP1 DUP2 DUP2 MSTORE PUSH1 0x20 ADD DUP3 DUP1 SLOAD PUSH2 0x11B4 SWAP1 PUSH2 0x3010 JUMP JUMPDEST DUP1 ISZERO PUSH2 0x1201 JUMPI DUP1 PUSH1 0x1F LT PUSH2 0x11D6 JUMPI PUSH2 0x100 DUP1 DUP4 SLOAD DIV MUL DUP4 MSTORE SWAP2 PUSH1 0x20 ADD SWAP2 PUSH2 0x1201 JUMP JUMPDEST DUP3 ADD SWAP2 SWAP1 PUSH1 0x0 MSTORE PUSH1 0x20 PUSH1 0x0 KECCAK256 SWAP1 JUMPDEST DUP2 SLOAD DUP2 MSTORE SWAP1 PUSH1 0x1 ADD SWAP1 PUSH1 0x20 ADD DUP1 DUP4 GT PUSH2 0x11E4 JUMPI DUP3 SWAP1 SUB PUSH1 0x1F AND DUP3 ADD SWAP2 JUMPDEST POP POP POP POP POP SWAP1 POP PUSH1 0x0 DUP2 MLOAD SUB PUSH2 0x124C JUMPI PUSH1 0x40 MLOAD PUSH32 0x8C379A000000000000000000000000000000000000000000000000000000000 DUP2 MSTORE PUSH1 0x4 ADD PUSH2 0x1243 SWAP1 PUSH2 0x34B3 JUMP JUMPDEST PUSH1 0x40 MLOAD DUP1 SWAP2 SUB SWAP1 REVERT JUMPDEST PUSH2 0x126F PUSH1 0x0 PUSH1 0x14 DUP4 MLOAD PUSH2 0x125F SWAP2 SWAP1 PUSH2 0x3502 JUMP JUMPDEST DUP4 PUSH2 0x2104 SWAP1 SWAP3 SWAP2 SWAP1 PUSH4 0xFFFFFFFF AND JUMP JUMPDEST SWAP2 POP POP SWAP2 SWAP1 POP JUMP JUMPDEST PUSH2 0x127F PUSH2 0x1A59 JUMP JUMPDEST DUP2 DUP2 ADDRESS PUSH1 0x40 MLOAD PUSH1 0x20 ADD PUSH2 0x1294 SWAP4 SWAP3 SWAP2 SWAP1 PUSH2 0x3536 JUMP JUMPDEST PUSH1 0x40 MLOAD PUSH1 0x20 DUP2 DUP4 SUB SUB DUP2 MSTORE SWAP1 PUSH1 0x40 MSTORE PUSH1 0x1 PUSH1 0x0 DUP6 PUSH2 0xFFFF AND PUSH2 0xFFFF AND DUP2 MSTORE PUSH1 0x20 ADD SWAP1 DUP2 MSTORE PUSH1 0x20 ADD PUSH1 0x0 KECCAK256 SWAP1 DUP2 PUSH2 0x12CA SWAP2 SWAP1 PUSH2 0x3702 JUMP JUMPDEST POP PUSH32 0x8C0400CFE2D1199B1A725C78960BCC2A344D869B80590D0F2BD005DB15A572CE DUP4 DUP4 DUP4 PUSH1 0x40 MLOAD PUSH2 0x12FE SWAP4 SWAP3 SWAP2 SWAP1 PUSH2 0x32FC JUMP JUMPDEST PUSH1 0x40 MLOAD DUP1 SWAP2 SUB SWAP1 LOG1 POP POP POP JUMP JUMPDEST PUSH32 0x0 DUP2 JUMP JUMPDEST PUSH2 0x1337 PUSH2 0x1A59 JUMP JUMPDEST DUP1 PUSH1 0x4 PUSH1 0x0 PUSH2 0x100 EXP DUP2 SLOAD DUP2 PUSH20 0xFFFFFFFFFFFFFFFFFFFFFFFFFFFFFFFFFFFFFFFF MUL NOT AND SWAP1 DUP4 PUSH20 0xFFFFFFFFFFFFFFFFFFFFFFFFFFFFFFFFFFFFFFFF AND MUL OR SWAP1 SSTORE POP PUSH32 0x5DB758E995A17EC1AD84BDEF7E8C3293A0BD6179BCCE400DFF5D4C3D87DB726B DUP2 PUSH1 0x40 MLOAD PUSH2 0x13A7 SWAP2 SWAP1 PUSH2 0x281B JUMP JUMPDEST PUSH1 0x40 MLOAD DUP1 SWAP2 SUB SWAP1 LOG1 POP JUMP JUMPDEST PUSH32 0x0 DUP2 JUMP JUMPDEST PUSH2 0x2710 DUP2 JUMP JUMPDEST PUSH2 0x13E4 PUSH2 0x1A59 JUMP JUMPDEST PUSH32 0x0 PUSH20 0xFFFFFFFFFFFFFFFFFFFFFFFFFFFFFFFFFFFFFFFF AND PUSH4 0xCBED8B9C DUP7 DUP7 DUP7 DUP7 DUP7 PUSH1 0x40 MLOAD DUP7 PUSH4 0xFFFFFFFF AND PUSH1 0xE0 SHL DUP2 MSTORE PUSH1 0x4 ADD PUSH2 0x1445 SWAP6 SWAP5 SWAP4 SWAP3 SWAP2 SWAP1 PUSH2 0x37D4 JUMP JUMPDEST PUSH1 0x0 PUSH1 0x40 MLOAD DUP1 DUP4 SUB DUP2 PUSH1 0x0 DUP8 DUP1 EXTCODESIZE ISZERO DUP1 ISZERO PUSH2 0x145F JUMPI PUSH1 0x0 DUP1 REVERT JUMPDEST POP GAS CALL ISZERO DUP1 ISZERO PUSH2 0x1473 JUMPI RETURNDATASIZE PUSH1 0x0 DUP1 RETURNDATACOPY RETURNDATASIZE PUSH1 0x0 REVERT JUMPDEST POP POP POP POP POP POP POP POP POP JUMP JUMPDEST PUSH1 0x0 PUSH1 0x5 PUSH1 0x0 DUP9 PUSH2 0xFFFF AND PUSH2 0xFFFF AND DUP2 MSTORE PUSH1 0x20 ADD SWAP1 DUP2 MSTORE PUSH1 0x20 ADD PUSH1 0x0 KECCAK256 DUP7 DUP7 PUSH1 0x40 MLOAD PUSH2 0x14AB SWAP3 SWAP2 SWAP1 PUSH2 0x3071 JUMP JUMPDEST SWAP1 DUP2 MSTORE PUSH1 0x20 ADD PUSH1 0x40 MLOAD DUP1 SWAP2 SUB SWAP1 KECCAK256 PUSH1 0x0 DUP6 PUSH8 0xFFFFFFFFFFFFFFFF AND PUSH8 0xFFFFFFFFFFFFFFFF AND DUP2 MSTORE PUSH1 0x20 ADD SWAP1 DUP2 MSTORE PUSH1 0x20 ADD PUSH1 0x0 KECCAK256 SLOAD SWAP1 POP PUSH1 0x0 DUP1 SHL DUP2 SUB PUSH2 0x1526 JUMPI PUSH1 0x40 MLOAD PUSH32 0x8C379A000000000000000000000000000000000000000000000000000000000 DUP2 MSTORE PUSH1 0x4 ADD PUSH2 0x151D SWAP1 PUSH2 0x3894 JUMP JUMPDEST PUSH1 0x40 MLOAD DUP1 SWAP2 SUB SWAP1 REVERT JUMPDEST DUP1 DUP4 DUP4 PUSH1 0x40 MLOAD PUSH2 0x1537 SWAP3 SWAP2 SWAP1 PUSH2 0x3071 JUMP JUMPDEST PUSH1 0x40 MLOAD DUP1 SWAP2 SUB SWAP1 KECCAK256 EQ PUSH2 0x157F JUMPI PUSH1 0x40 MLOAD PUSH32 0x8C379A000000000000000000000000000000000000000000000000000000000 DUP2 MSTORE PUSH1 0x4 ADD PUSH2 0x1576 SWAP1 PUSH2 0x3926 JUMP JUMPDEST PUSH1 0x40 MLOAD DUP1 SWAP2 SUB SWAP1 REVERT JUMPDEST PUSH1 0x0 DUP1 SHL PUSH1 0x5 PUSH1 0x0 DUP10 PUSH2 0xFFFF AND PUSH2 0xFFFF AND DUP2 MSTORE PUSH1 0x20 ADD SWAP1 DUP2 MSTORE PUSH1 0x20 ADD PUSH1 0x0 KECCAK256 DUP8 DUP8 PUSH1 0x40 MLOAD PUSH2 0x15AE SWAP3 SWAP2 SWAP1 PUSH2 0x3071 JUMP JUMPDEST SWAP1 DUP2 MSTORE PUSH1 0x20 ADD PUSH1 0x40 MLOAD DUP1 SWAP2 SUB SWAP1 KECCAK256 PUSH1 0x0 DUP7 PUSH8 0xFFFFFFFFFFFFFFFF AND PUSH8 0xFFFFFFFFFFFFFFFF AND DUP2 MSTORE PUSH1 0x20 ADD SWAP1 DUP2 MSTORE PUSH1 0x20 ADD PUSH1 0x0 KECCAK256 DUP2 SWAP1 SSTORE POP PUSH2 0x1679 DUP8 DUP8 DUP8 DUP1 DUP1 PUSH1 0x1F ADD PUSH1 0x20 DUP1 SWAP2 DIV MUL PUSH1 0x20 ADD PUSH1 0x40 MLOAD SWAP1 DUP2 ADD PUSH1 0x40 MSTORE DUP1 SWAP4 SWAP3 SWAP2 SWAP1 DUP2 DUP2 MSTORE PUSH1 0x20 ADD DUP4 DUP4 DUP1 DUP3 DUP5 CALLDATACOPY PUSH1 0x0 DUP2 DUP5 ADD MSTORE PUSH1 0x1F NOT PUSH1 0x1F DUP3 ADD AND SWAP1 POP DUP1 DUP4 ADD SWAP3 POP POP POP POP POP POP POP DUP7 DUP7 DUP7 DUP1 DUP1 PUSH1 0x1F ADD PUSH1 0x20 DUP1 SWAP2 DIV MUL PUSH1 0x20 ADD PUSH1 0x40 MLOAD SWAP1 DUP2 ADD PUSH1 0x40 MSTORE DUP1 SWAP4 SWAP3 SWAP2 SWAP1 DUP2 DUP2 MSTORE PUSH1 0x20 ADD DUP4 DUP4 DUP1 DUP3 DUP5 CALLDATACOPY PUSH1 0x0 DUP2 DUP5 ADD MSTORE PUSH1 0x1F NOT PUSH1 0x1F DUP3 ADD AND SWAP1 POP DUP1 DUP4 ADD SWAP3 POP POP POP POP POP POP POP PUSH2 0x2002 JUMP JUMPDEST PUSH32 0xC264D91F3ADC5588250E1551F547752CA0CFA8F6B530D243B9F9F4CAB10EA8E5 DUP8 DUP8 DUP8 DUP8 DUP6 PUSH1 0x40 MLOAD PUSH2 0x16B0 SWAP6 SWAP5 SWAP4 SWAP3 SWAP2 SWAP1 PUSH2 0x3955 JUMP JUMPDEST PUSH1 0x40 MLOAD DUP1 SWAP2 SUB SWAP1 LOG1 POP POP POP POP POP POP POP JUMP JUMPDEST PUSH2 0xBB8 DUP2 JUMP JUMPDEST PUSH2 0x16CF PUSH2 0x1A59 JUMP JUMPDEST PUSH1 0x0 DUP2 GT PUSH2 0x1712 JUMPI PUSH1 0x40 MLOAD PUSH32 0x8C379A000000000000000000000000000000000000000000000000000000000 DUP2 MSTORE PUSH1 0x4 ADD PUSH2 0x1709 SWAP1 PUSH2 0x39EF JUMP JUMPDEST PUSH1 0x40 MLOAD DUP1 SWAP2 SUB SWAP1 REVERT JUMPDEST DUP1 PUSH1 0x2 PUSH1 0x0 DUP6 PUSH2 0xFFFF AND PUSH2 0xFFFF AND DUP2 MSTORE PUSH1 0x20 ADD SWAP1 DUP2 MSTORE PUSH1 0x20 ADD PUSH1 0x0 KECCAK256 PUSH1 0x0 DUP5 PUSH2 0xFFFF AND PUSH2 0xFFFF AND DUP2 MSTORE PUSH1 0x20 ADD SWAP1 DUP2 MSTORE PUSH1 0x20 ADD PUSH1 0x0 KECCAK256 DUP2 SWAP1 SSTORE POP PUSH32 0x9D5C7C0B934DA8FEFA9C7760C98383778A12DFBFC0C3B3106518F43FB9508AC0 DUP4 DUP4 DUP4 PUSH1 0x40 MLOAD PUSH2 0x177E SWAP4 SWAP3 SWAP2 SWAP1 PUSH2 0x3A0F JUMP JUMPDEST PUSH1 0x40 MLOAD DUP1 SWAP2 SUB SWAP1 LOG1 POP POP POP JUMP JUMPDEST PUSH1 0x0 SELFBALANCE SWAP1 POP SWAP1 JUMP JUMPDEST PUSH1 0x6 PUSH1 0x0 SWAP1 SLOAD SWAP1 PUSH2 0x100 EXP SWAP1 DIV PUSH20 0xFFFFFFFFFFFFFFFFFFFFFFFFFFFFFFFFFFFFFFFF AND DUP2 JUMP JUMPDEST PUSH2 0x17C1 PUSH2 0x1A59 JUMP JUMPDEST DUP2 DUP2 PUSH1 0x1 PUSH1 0x0 DUP7 PUSH2 0xFFFF AND PUSH2 0xFFFF AND DUP2 MSTORE PUSH1 0x20 ADD SWAP1 DUP2 MSTORE PUSH1 0x20 ADD PUSH1 0x0 KECCAK256 SWAP2 DUP3 PUSH2 0x17EB SWAP3 SWAP2 SWAP1 PUSH2 0x3A51 JUMP JUMPDEST POP PUSH32 0xFA41487AD5D6728F0B19276FA1EDDC16558578F5109FC39D2DC33C3230470DAB DUP4 DUP4 DUP4 PUSH1 0x40 MLOAD PUSH2 0x181F SWAP4 SWAP3 SWAP2 SWAP1 PUSH2 0x32FC JUMP JUMPDEST PUSH1 0x40 MLOAD DUP1 SWAP2 SUB SWAP1 LOG1 POP POP POP JUMP JUMPDEST PUSH2 0x1834 PUSH2 0x1A59 JUMP JUMPDEST PUSH1 0x0 PUSH20 0xFFFFFFFFFFFFFFFFFFFFFFFFFFFFFFFFFFFFFFFF AND DUP2 PUSH20 0xFFFFFFFFFFFFFFFFFFFFFFFFFFFFFFFFFFFFFFFF AND SUB PUSH2 0x18A3 JUMPI PUSH1 0x40 MLOAD PUSH32 0x8C379A000000000000000000000000000000000000000000000000000000000 DUP2 MSTORE PUSH1 0x4 ADD PUSH2 0x189A SWAP1 PUSH2 0x3B93 JUMP JUMPDEST PUSH1 0x40 MLOAD DUP1 SWAP2 SUB SWAP1 REVERT JUMPDEST PUSH2 0x18AC DUP2 PUSH2 0x2040 JUMP JUMPDEST POP JUMP JUMPDEST PUSH1 0x60 PUSH32 0x0 PUSH20 0xFFFFFFFFFFFFFFFFFFFFFFFFFFFFFFFFFFFFFFFF AND PUSH4 0xF5ECBDBC DUP7 DUP7 ADDRESS DUP7 PUSH1 0x40 MLOAD DUP6 PUSH4 0xFFFFFFFF AND PUSH1 0xE0 SHL DUP2 MSTORE PUSH1 0x4 ADD PUSH2 0x1910 SWAP5 SWAP4 SWAP3 SWAP2 SWAP1 PUSH2 0x3BB3 JUMP JUMPDEST PUSH1 0x0 PUSH1 0x40 MLOAD DUP1 DUP4 SUB DUP2 DUP7 GAS STATICCALL ISZERO DUP1 ISZERO PUSH2 0x192D JUMPI RETURNDATASIZE PUSH1 0x0 DUP1 RETURNDATACOPY RETURNDATASIZE PUSH1 0x0 REVERT JUMPDEST POP POP POP POP PUSH1 0x40 MLOAD RETURNDATASIZE PUSH1 0x0 DUP3 RETURNDATACOPY RETURNDATASIZE PUSH1 0x1F NOT PUSH1 0x1F DUP3 ADD AND DUP3 ADD DUP1 PUSH1 0x40 MSTORE POP DUP2 ADD SWAP1 PUSH2 0x1956 SWAP2 SWAP1 PUSH2 0x3C68 JUMP JUMPDEST SWAP1 POP SWAP5 SWAP4 POP POP POP POP JUMP JUMPDEST PUSH1 0x7 PUSH1 0x0 SWAP1 SLOAD SWAP1 PUSH2 0x100 EXP SWAP1 DIV PUSH20 0xFFFFFFFFFFFFFFFFFFFFFFFFFFFFFFFFFFFFFFFF AND DUP2 JUMP JUMPDEST PUSH1 0x0 CALLER SWAP1 POP SWAP1 JUMP JUMPDEST PUSH1 0x0 DUP1 PUSH2 0x1A3A GAS PUSH1 0x96 PUSH4 0x66AD5C8A PUSH1 0xE0 SHL DUP10 DUP10 DUP10 DUP10 PUSH1 0x40 MLOAD PUSH1 0x24 ADD PUSH2 0x19B6 SWAP5 SWAP4 SWAP3 SWAP2 SWAP1 PUSH2 0x3CB1 JUMP JUMPDEST PUSH1 0x40 MLOAD PUSH1 0x20 DUP2 DUP4 SUB SUB DUP2 MSTORE SWAP1 PUSH1 0x40 MSTORE SWAP1 PUSH28 0xFFFFFFFFFFFFFFFFFFFFFFFFFFFFFFFFFFFFFFFFFFFFFFFFFFFFFFFF NOT AND PUSH1 0x20 DUP3 ADD DUP1 MLOAD PUSH28 0xFFFFFFFFFFFFFFFFFFFFFFFFFFFFFFFFFFFFFFFFFFFFFFFFFFFFFFFF DUP4 DUP2 DUP4 AND OR DUP4 MSTORE POP POP POP POP ADDRESS PUSH20 0xFFFFFFFFFFFFFFFFFFFFFFFFFFFFFFFFFFFFFFFF AND PUSH2 0x2222 SWAP1 SWAP4 SWAP3 SWAP2 SWAP1 PUSH4 0xFFFFFFFF AND JUMP JUMPDEST SWAP2 POP SWAP2 POP DUP2 PUSH2 0x1A51 JUMPI PUSH2 0x1A50 DUP7 DUP7 DUP7 DUP7 DUP6 PUSH2 0x22BA JUMP JUMPDEST JUMPDEST POP POP POP POP POP POP JUMP JUMPDEST PUSH2 0x1A61 PUSH2 0x1986 JUMP JUMPDEST PUSH20 0xFFFFFFFFFFFFFFFFFFFFFFFFFFFFFFFFFFFFFFFF AND PUSH2 0x1A7F PUSH2 0x110F JUMP JUMPDEST PUSH20 0xFFFFFFFFFFFFFFFFFFFFFFFFFFFFFFFFFFFFFFFF AND EQ PUSH2 0x1AD5 JUMPI PUSH1 0x40 MLOAD PUSH32 0x8C379A000000000000000000000000000000000000000000000000000000000 DUP2 MSTORE PUSH1 0x4 ADD PUSH2 0x1ACC SWAP1 PUSH2 0x3D50 JUMP JUMPDEST PUSH1 0x40 MLOAD DUP1 SWAP2 SUB SWAP1 REVERT JUMPDEST JUMP JUMPDEST PUSH1 0x0 DUP1 PUSH32 0x0 PUSH20 0xFFFFFFFFFFFFFFFFFFFFFFFFFFFFFFFFFFFFFFFF AND PUSH4 0x1698EE82 PUSH1 0x7 PUSH1 0x0 SWAP1 SLOAD SWAP1 PUSH2 0x100 EXP SWAP1 DIV PUSH20 0xFFFFFFFFFFFFFFFFFFFFFFFFFFFFFFFFFFFFFFFF AND PUSH1 0x8 PUSH1 0x0 SWAP1 SLOAD SWAP1 PUSH2 0x100 EXP SWAP1 DIV PUSH20 0xFFFFFFFFFFFFFFFFFFFFFFFFFFFFFFFFFFFFFFFF AND PUSH2 0xBB8 PUSH1 0x40 MLOAD DUP5 PUSH4 0xFFFFFFFF AND PUSH1 0xE0 SHL DUP2 MSTORE PUSH1 0x4 ADD PUSH2 0x1B7D SWAP4 SWAP3 SWAP2 SWAP1 PUSH2 0x3D70 JUMP JUMPDEST PUSH1 0x20 PUSH1 0x40 MLOAD DUP1 DUP4 SUB DUP2 DUP7 GAS STATICCALL ISZERO DUP1 ISZERO PUSH2 0x1B9A JUMPI RETURNDATASIZE PUSH1 0x0 DUP1 RETURNDATACOPY RETURNDATASIZE PUSH1 0x0 REVERT JUMPDEST POP POP POP POP PUSH1 0x40 MLOAD RETURNDATASIZE PUSH1 0x1F NOT PUSH1 0x1F DUP3 ADD AND DUP3 ADD DUP1 PUSH1 0x40 MSTORE POP DUP2 ADD SWAP1 PUSH2 0x1BBE SWAP2 SWAP1 PUSH2 0x3DBC JUMP JUMPDEST SWAP1 POP PUSH1 0x0 DUP2 PUSH20 0xFFFFFFFFFFFFFFFFFFFFFFFFFFFFFFFFFFFFFFFF AND PUSH4 0x3850C7BD PUSH1 0x40 MLOAD DUP2 PUSH4 0xFFFFFFFF AND PUSH1 0xE0 SHL DUP2 MSTORE PUSH1 0x4 ADD PUSH1 0xE0 PUSH1 0x40 MLOAD DUP1 DUP4 SUB DUP2 DUP7 GAS STATICCALL ISZERO DUP1 ISZERO PUSH2 0x1C0D JUMPI RETURNDATASIZE PUSH1 0x0 DUP1 RETURNDATACOPY RETURNDATASIZE PUSH1 0x0 REVERT JUMPDEST POP POP POP POP PUSH1 0x40 MLOAD RETURNDATASIZE PUSH1 0x1F NOT PUSH1 0x1F DUP3 ADD AND DUP3 ADD DUP1 PUSH1 0x40 MSTORE POP DUP2 ADD SWAP1 PUSH2 0x1C31 SWAP2 SWAP1 PUSH2 0x3EC8 JUMP JUMPDEST POP POP POP POP POP POP SWAP1 POP PUSH1 0x0 PUSH2 0x1CE9 DUP4 PUSH20 0xFFFFFFFFFFFFFFFFFFFFFFFFFFFFFFFFFFFFFFFF AND PUSH4 0x1A686502 PUSH1 0x40 MLOAD DUP2 PUSH4 0xFFFFFFFF AND PUSH1 0xE0 SHL DUP2 MSTORE PUSH1 0x4 ADD PUSH1 0x20 PUSH1 0x40 MLOAD DUP1 DUP4 SUB DUP2 DUP7 GAS STATICCALL ISZERO DUP1 ISZERO PUSH2 0x1C89 JUMPI RETURNDATASIZE PUSH1 0x0 DUP1 RETURNDATACOPY RETURNDATASIZE PUSH1 0x0 REVERT JUMPDEST POP POP POP POP PUSH1 0x40 MLOAD RETURNDATASIZE PUSH1 0x1F NOT PUSH1 0x1F DUP3 ADD AND DUP3 ADD DUP1 PUSH1 0x40 MSTORE POP DUP2 ADD SWAP1 PUSH2 0x1CAD SWAP2 SWAP1 PUSH2 0x3FB2 JUMP JUMPDEST PUSH16 0xFFFFFFFFFFFFFFFFFFFFFFFFFFFFFFFF AND PUSH13 0x1000000000000000000000000 DUP5 PUSH20 0xFFFFFFFFFFFFFFFFFFFFFFFFFFFFFFFFFFFFFFFF AND PUSH2 0x2368 JUMP JUMPDEST SWAP1 POP PUSH1 0x0 PUSH2 0x1D9B DUP5 PUSH20 0xFFFFFFFFFFFFFFFFFFFFFFFFFFFFFFFFFFFFFFFF AND PUSH4 0x1A686502 PUSH1 0x40 MLOAD DUP2 PUSH4 0xFFFFFFFF AND PUSH1 0xE0 SHL DUP2 MSTORE PUSH1 0x4 ADD PUSH1 0x20 PUSH1 0x40 MLOAD DUP1 DUP4 SUB DUP2 DUP7 GAS STATICCALL ISZERO DUP1 ISZERO PUSH2 0x1D3B JUMPI RETURNDATASIZE PUSH1 0x0 DUP1 RETURNDATACOPY RETURNDATASIZE PUSH1 0x0 REVERT JUMPDEST POP POP POP POP PUSH1 0x40 MLOAD RETURNDATASIZE PUSH1 0x1F NOT PUSH1 0x1F DUP3 ADD AND DUP3 ADD DUP1 PUSH1 0x40 MSTORE POP DUP2 ADD SWAP1 PUSH2 0x1D5F SWAP2 SWAP1 PUSH2 0x3FB2 JUMP JUMPDEST PUSH16 0xFFFFFFFFFFFFFFFFFFFFFFFFFFFFFFFF AND DUP5 PUSH20 0xFFFFFFFFFFFFFFFFFFFFFFFFFFFFFFFFFFFFFFFF AND PUSH13 0x1000000000000000000000000 PUSH2 0x2368 JUMP JUMPDEST SWAP1 POP PUSH1 0x0 DUP3 PUSH1 0x7 PUSH1 0x0 SWAP1 SLOAD SWAP1 PUSH2 0x100 EXP SWAP1 DIV PUSH20 0xFFFFFFFFFFFFFFFFFFFFFFFFFFFFFFFFFFFFFFFF AND PUSH20 0xFFFFFFFFFFFFFFFFFFFFFFFFFFFFFFFFFFFFFFFF AND PUSH4 0x313CE567 PUSH1 0x40 MLOAD DUP2 PUSH4 0xFFFFFFFF AND PUSH1 0xE0 SHL DUP2 MSTORE PUSH1 0x4 ADD PUSH1 0x20 PUSH1 0x40 MLOAD DUP1 DUP4 SUB DUP2 DUP7 GAS STATICCALL ISZERO DUP1 ISZERO PUSH2 0x1E0D JUMPI RETURNDATASIZE PUSH1 0x0 DUP1 RETURNDATACOPY RETURNDATASIZE PUSH1 0x0 REVERT JUMPDEST POP POP POP POP PUSH1 0x40 MLOAD RETURNDATASIZE PUSH1 0x1F NOT PUSH1 0x1F DUP3 ADD AND DUP3 ADD DUP1 PUSH1 0x40 MSTORE POP DUP2 ADD SWAP1 PUSH2 0x1E31 SWAP2 SWAP1 PUSH2 0x3FDF JUMP JUMPDEST PUSH1 0xA PUSH2 0x1E3D SWAP2 SWAP1 PUSH2 0x413F JUMP JUMPDEST DUP4 PUSH2 0x1E48 SWAP2 SWAP1 PUSH2 0x418A JUMP JUMPDEST PUSH2 0x1E52 SWAP2 SWAP1 PUSH2 0x41FB JUMP JUMPDEST SWAP1 POP DUP1 DUP8 PUSH2 0x1E60 SWAP2 SWAP1 PUSH2 0x418A JUMP JUMPDEST SWAP6 POP POP POP POP POP POP SWAP2 SWAP1 POP JUMP JUMPDEST PUSH1 0x0 PUSH1 0x1 PUSH1 0x0 DUP9 PUSH2 0xFFFF AND PUSH2 0xFFFF AND DUP2 MSTORE PUSH1 0x20 ADD SWAP1 DUP2 MSTORE PUSH1 0x20 ADD PUSH1 0x0 KECCAK256 DUP1 SLOAD PUSH2 0x1E94 SWAP1 PUSH2 0x3010 JUMP JUMPDEST DUP1 PUSH1 0x1F ADD PUSH1 0x20 DUP1 SWAP2 DIV MUL PUSH1 0x20 ADD PUSH1 0x40 MLOAD SWAP1 DUP2 ADD PUSH1 0x40 MSTORE DUP1 SWAP3 SWAP2 SWAP1 DUP2 DUP2 MSTORE PUSH1 0x20 ADD DUP3 DUP1 SLOAD PUSH2 0x1EC0 SWAP1 PUSH2 0x3010 JUMP JUMPDEST DUP1 ISZERO PUSH2 0x1F0D JUMPI DUP1 PUSH1 0x1F LT PUSH2 0x1EE2 JUMPI PUSH2 0x100 DUP1 DUP4 SLOAD DIV MUL DUP4 MSTORE SWAP2 PUSH1 0x20 ADD SWAP2 PUSH2 0x1F0D JUMP JUMPDEST DUP3 ADD SWAP2 SWAP1 PUSH1 0x0 MSTORE PUSH1 0x20 PUSH1 0x0 KECCAK256 SWAP1 JUMPDEST DUP2 SLOAD DUP2 MSTORE SWAP1 PUSH1 0x1 ADD SWAP1 PUSH1 0x20 ADD DUP1 DUP4 GT PUSH2 0x1EF0 JUMPI DUP3 SWAP1 SUB PUSH1 0x1F AND DUP3 ADD SWAP2 JUMPDEST POP POP POP POP POP SWAP1 POP PUSH1 0x0 DUP2 MLOAD SUB PUSH2 0x1F58 JUMPI PUSH1 0x40 MLOAD PUSH32 0x8C379A000000000000000000000000000000000000000000000000000000000 DUP2 MSTORE PUSH1 0x4 ADD PUSH2 0x1F4F SWAP1 PUSH2 0x429E JUMP JUMPDEST PUSH1 0x40 MLOAD DUP1 SWAP2 SUB SWAP1 REVERT JUMPDEST PUSH2 0x1F63 DUP8 DUP8 MLOAD PUSH2 0x2441 JUMP JUMPDEST PUSH32 0x0 PUSH20 0xFFFFFFFFFFFFFFFFFFFFFFFFFFFFFFFFFFFFFFFF AND PUSH4 0xC5803100 DUP4 DUP10 DUP5 DUP11 DUP11 DUP11 DUP11 PUSH1 0x40 MLOAD DUP9 PUSH4 0xFFFFFFFF AND PUSH1 0xE0 SHL DUP2 MSTORE PUSH1 0x4 ADD PUSH2 0x1FC7 SWAP7 SWAP6 SWAP5 SWAP4 SWAP3 SWAP2 SWAP1 PUSH2 0x42DF JUMP JUMPDEST PUSH1 0x0 PUSH1 0x40 MLOAD DUP1 DUP4 SUB DUP2 DUP6 DUP9 DUP1 EXTCODESIZE ISZERO DUP1 ISZERO PUSH2 0x1FE0 JUMPI PUSH1 0x0 DUP1 REVERT JUMPDEST POP GAS CALL ISZERO DUP1 ISZERO PUSH2 0x1FF4 JUMPI RETURNDATASIZE PUSH1 0x0 DUP1 RETURNDATACOPY RETURNDATASIZE PUSH1 0x0 REVERT JUMPDEST POP POP POP POP POP POP POP POP POP POP POP POP JUMP JUMPDEST PUSH1 0x0 PUSH1 0x14 DUP5 ADD MLOAD SWAP1 POP PUSH1 0x0 DUP6 SWAP1 POP PUSH1 0x0 DUP1 DUP5 DUP1 PUSH1 0x20 ADD SWAP1 MLOAD DUP2 ADD SWAP1 PUSH2 0x2027 SWAP2 SWAP1 PUSH2 0x4396 JUMP JUMPDEST SWAP2 POP SWAP2 POP PUSH2 0x2035 DUP3 DUP3 PUSH2 0x24B7 JUMP JUMPDEST POP POP POP POP POP POP POP POP POP JUMP JUMPDEST PUSH1 0x0 DUP1 PUSH1 0x0 SWAP1 SLOAD SWAP1 PUSH2 0x100 EXP SWAP1 DIV PUSH20 0xFFFFFFFFFFFFFFFFFFFFFFFFFFFFFFFFFFFFFFFF AND SWAP1 POP DUP2 PUSH1 0x0 DUP1 PUSH2 0x100 EXP DUP2 SLOAD DUP2 PUSH20 0xFFFFFFFFFFFFFFFFFFFFFFFFFFFFFFFFFFFFFFFF MUL NOT AND SWAP1 DUP4 PUSH20 0xFFFFFFFFFFFFFFFFFFFFFFFFFFFFFFFFFFFFFFFF AND MUL OR SWAP1 SSTORE POP DUP2 PUSH20 0xFFFFFFFFFFFFFFFFFFFFFFFFFFFFFFFFFFFFFFFF AND DUP2 PUSH20 0xFFFFFFFFFFFFFFFFFFFFFFFFFFFFFFFFFFFFFFFF AND PUSH32 0x8BE0079C531659141344CD1FD0A4F28419497F9722A3DAAFE3B4186F6B6457E0 PUSH1 0x40 MLOAD PUSH1 0x40 MLOAD DUP1 SWAP2 SUB SWAP1 LOG3 POP POP JUMP JUMPDEST PUSH1 0x60 DUP2 PUSH1 0x1F DUP4 PUSH2 0x2114 SWAP2 SWAP1 PUSH2 0x43D6 JUMP JUMPDEST LT ISZERO PUSH2 0x2155 JUMPI PUSH1 0x40 MLOAD PUSH32 0x8C379A000000000000000000000000000000000000000000000000000000000 DUP2 MSTORE PUSH1 0x4 ADD PUSH2 0x214C SWAP1 PUSH2 0x4456 JUMP JUMPDEST PUSH1 0x40 MLOAD DUP1 SWAP2 SUB SWAP1 REVERT JUMPDEST DUP2 DUP4 PUSH2 0x2161 SWAP2 SWAP1 PUSH2 0x43D6 JUMP JUMPDEST DUP5 MLOAD LT ISZERO PUSH2 0x21A4 JUMPI PUSH1 0x40 MLOAD PUSH32 0x8C379A000000000000000000000000000000000000000000000000000000000 DUP2 MSTORE PUSH1 0x4 ADD PUSH2 0x219B SWAP1 PUSH2 0x44C2 JUMP JUMPDEST PUSH1 0x40 MLOAD DUP1 SWAP2 SUB SWAP1 REVERT JUMPDEST PUSH1 0x60 DUP3 ISZERO PUSH1 0x0 DUP2 EQ PUSH2 0x21C5 JUMPI PUSH1 0x40 MLOAD SWAP2 POP PUSH1 0x0 DUP3 MSTORE PUSH1 0x20 DUP3 ADD PUSH1 0x40 MSTORE PUSH2 0x2216 JUMP JUMPDEST PUSH1 0x40 MLOAD SWAP2 POP PUSH1 0x1F DUP5 AND DUP1 ISZERO PUSH1 0x20 MUL DUP2 DUP5 ADD ADD DUP6 DUP2 ADD DUP8 DUP4 ISZERO PUSH1 0x20 MUL DUP5 DUP12 ADD ADD ADD JUMPDEST DUP2 DUP4 LT ISZERO PUSH2 0x2203 JUMPI DUP1 MLOAD DUP4 MSTORE PUSH1 0x20 DUP4 ADD SWAP3 POP PUSH1 0x20 DUP2 ADD SWAP1 POP PUSH2 0x21E6 JUMP JUMPDEST POP DUP7 DUP6 MSTORE PUSH1 0x1F NOT PUSH1 0x1F DUP4 ADD AND PUSH1 0x40 MSTORE POP POP POP JUMPDEST POP DUP1 SWAP2 POP POP SWAP4 SWAP3 POP POP POP JUMP JUMPDEST PUSH1 0x0 PUSH1 0x60 PUSH1 0x0 DUP1 PUSH1 0x0 DUP7 PUSH2 0xFFFF AND PUSH8 0xFFFFFFFFFFFFFFFF DUP2 GT ISZERO PUSH2 0x2249 JUMPI PUSH2 0x2248 PUSH2 0x2A69 JUMP JUMPDEST JUMPDEST PUSH1 0x40 MLOAD SWAP1 DUP1 DUP3 MSTORE DUP1 PUSH1 0x1F ADD PUSH1 0x1F NOT AND PUSH1 0x20 ADD DUP3 ADD PUSH1 0x40 MSTORE DUP1 ISZERO PUSH2 0x227B JUMPI DUP2 PUSH1 0x20 ADD PUSH1 0x1 DUP3 MUL DUP1 CALLDATASIZE DUP4 CALLDATACOPY DUP1 DUP3 ADD SWAP2 POP POP SWAP1 POP JUMPDEST POP SWAP1 POP PUSH1 0x0 DUP1 DUP8 MLOAD PUSH1 0x20 DUP10 ADD PUSH1 0x0 DUP14 DUP14 CALL SWAP2 POP RETURNDATASIZE SWAP3 POP DUP7 DUP4 GT ISZERO PUSH2 0x229D JUMPI DUP7 SWAP3 POP JUMPDEST DUP3 DUP2 MSTORE DUP3 PUSH1 0x0 PUSH1 0x20 DUP4 ADD RETURNDATACOPY DUP2 DUP2 SWAP5 POP SWAP5 POP POP POP POP SWAP5 POP SWAP5 SWAP3 POP POP POP JUMP JUMPDEST DUP2 DUP1 MLOAD SWAP1 PUSH1 0x20 ADD KECCAK256 PUSH1 0x5 PUSH1 0x0 DUP8 PUSH2 0xFFFF AND PUSH2 0xFFFF AND DUP2 MSTORE PUSH1 0x20 ADD SWAP1 DUP2 MSTORE PUSH1 0x20 ADD PUSH1 0x0 KECCAK256 DUP6 PUSH1 0x40 MLOAD PUSH2 0x22EB SWAP2 SWAP1 PUSH2 0x4513 JUMP JUMPDEST SWAP1 DUP2 MSTORE PUSH1 0x20 ADD PUSH1 0x40 MLOAD DUP1 SWAP2 SUB SWAP1 KECCAK256 PUSH1 0x0 DUP6 PUSH8 0xFFFFFFFFFFFFFFFF AND PUSH8 0xFFFFFFFFFFFFFFFF AND DUP2 MSTORE PUSH1 0x20 ADD SWAP1 DUP2 MSTORE PUSH1 0x20 ADD PUSH1 0x0 KECCAK256 DUP2 SWAP1 SSTORE POP PUSH32 0xE183F33DE2837795525B4792CA4CD60535BD77C53B7E7030060BFCF5734D6B0C DUP6 DUP6 DUP6 DUP6 DUP6 PUSH1 0x40 MLOAD PUSH2 0x2359 SWAP6 SWAP5 SWAP4 SWAP3 SWAP2 SWAP1 PUSH2 0x452A JUMP JUMPDEST PUSH1 0x40 MLOAD DUP1 SWAP2 SUB SWAP1 LOG1 POP POP POP POP POP JUMP JUMPDEST PUSH1 0x0 DUP1 PUSH1 0x0 DUP1 NOT DUP6 DUP8 MULMOD DUP6 DUP8 MUL SWAP3 POP DUP3 DUP2 LT DUP4 DUP3 SUB SUB SWAP2 POP POP PUSH1 0x0 DUP2 SUB PUSH2 0x23A2 JUMPI PUSH1 0x0 DUP5 GT PUSH2 0x2396 JUMPI PUSH1 0x0 DUP1 REVERT JUMPDEST DUP4 DUP3 DIV SWAP3 POP POP POP PUSH2 0x243A JUMP JUMPDEST DUP1 DUP5 GT PUSH2 0x23AE JUMPI PUSH1 0x0 DUP1 REVERT JUMPDEST PUSH1 0x0 DUP5 DUP7 DUP9 MULMOD SWAP1 POP DUP3 DUP2 GT DUP3 SUB SWAP2 POP DUP1 DUP4 SUB SWAP3 POP PUSH1 0x0 DUP6 DUP7 PUSH1 0x0 SUB AND SWAP1 POP DUP1 DUP7 DIV SWAP6 POP DUP1 DUP5 DIV SWAP4 POP PUSH1 0x1 DUP2 DUP3 PUSH1 0x0 SUB DIV ADD SWAP1 POP DUP1 DUP4 MUL DUP5 OR SWAP4 POP PUSH1 0x0 PUSH1 0x2 DUP8 PUSH1 0x3 MUL XOR SWAP1 POP DUP1 DUP8 MUL PUSH1 0x2 SUB DUP2 MUL SWAP1 POP DUP1 DUP8 MUL PUSH1 0x2 SUB DUP2 MUL SWAP1 POP DUP1 DUP8 MUL PUSH1 0x2 SUB DUP2 MUL SWAP1 POP DUP1 DUP8 MUL PUSH1 0x2 SUB DUP2 MUL SWAP1 POP DUP1 DUP8 MUL PUSH1 0x2 SUB DUP2 MUL SWAP1 POP DUP1 DUP8 MUL PUSH1 0x2 SUB DUP2 MUL SWAP1 POP DUP1 DUP6 MUL SWAP6 POP POP POP POP POP POP JUMPDEST SWAP4 SWAP3 POP POP POP JUMP JUMPDEST PUSH1 0x0 PUSH1 0x3 PUSH1 0x0 DUP5 PUSH2 0xFFFF AND PUSH2 0xFFFF AND DUP2 MSTORE PUSH1 0x20 ADD SWAP1 DUP2 MSTORE PUSH1 0x20 ADD PUSH1 0x0 KECCAK256 SLOAD SWAP1 POP PUSH1 0x0 DUP2 SUB PUSH2 0x246F JUMPI PUSH2 0x2710 SWAP1 POP JUMPDEST DUP1 DUP3 GT ISZERO PUSH2 0x24B2 JUMPI PUSH1 0x40 MLOAD PUSH32 0x8C379A000000000000000000000000000000000000000000000000000000000 DUP2 MSTORE PUSH1 0x4 ADD PUSH2 0x24A9 SWAP1 PUSH2 0x45DE JUMP JUMPDEST PUSH1 0x40 MLOAD DUP1 SWAP2 SUB SWAP1 REVERT JUMPDEST POP POP POP JUMP JUMPDEST PUSH1 0x0 DUP1 PUSH1 0x40 MLOAD DUP1 PUSH2 0x100 ADD PUSH1 0x40 MSTORE DUP1 PUSH1 0x7 PUSH1 0x0 SWAP1 SLOAD SWAP1 PUSH2 0x100 EXP SWAP1 DIV PUSH20 0xFFFFFFFFFFFFFFFFFFFFFFFFFFFFFFFFFFFFFFFF AND PUSH20 0xFFFFFFFFFFFFFFFFFFFFFFFFFFFFFFFFFFFFFFFF AND DUP2 MSTORE PUSH1 0x20 ADD PUSH1 0x8 PUSH1 0x0 SWAP1 SLOAD SWAP1 PUSH2 0x100 EXP SWAP1 DIV PUSH20 0xFFFFFFFFFFFFFFFFFFFFFFFFFFFFFFFFFFFFFFFF AND PUSH20 0xFFFFFFFFFFFFFFFFFFFFFFFFFFFFFFFFFFFFFFFF AND DUP2 MSTORE PUSH1 0x20 ADD PUSH2 0xBB8 PUSH3 0xFFFFFF AND DUP2 MSTORE PUSH1 0x20 ADD DUP5 PUSH20 0xFFFFFFFFFFFFFFFFFFFFFFFFFFFFFFFFFFFFFFFF AND DUP2 MSTORE PUSH1 0x20 ADD TIMESTAMP DUP2 MSTORE PUSH1 0x20 ADD DUP6 DUP2 MSTORE PUSH1 0x20 ADD PUSH1 0x0 DUP2 MSTORE PUSH1 0x20 ADD PUSH1 0x0 PUSH20 0xFFFFFFFFFFFFFFFFFFFFFFFFFFFFFFFFFFFFFFFF AND DUP2 MSTORE POP SWAP1 POP PUSH32 0x0 PUSH20 0xFFFFFFFFFFFFFFFFFFFFFFFFFFFFFFFFFFFFFFFF AND PUSH4 0x414BF389 DUP3 PUSH1 0x40 MLOAD DUP3 PUSH4 0xFFFFFFFF AND PUSH1 0xE0 SHL DUP2 MSTORE PUSH1 0x4 ADD PUSH2 0x25F4 SWAP2 SWAP1 PUSH2 0x46DC JUMP JUMPDEST PUSH1 0x20 PUSH1 0x40 MLOAD DUP1 DUP4 SUB DUP2 PUSH1 0x0 DUP8 GAS CALL ISZERO DUP1 ISZERO PUSH2 0x2613 JUMPI RETURNDATASIZE PUSH1 0x0 DUP1 RETURNDATACOPY RETURNDATASIZE PUSH1 0x0 REVERT JUMPDEST POP POP POP POP PUSH1 0x40 MLOAD RETURNDATASIZE PUSH1 0x1F NOT PUSH1 0x1F DUP3 ADD AND DUP3 ADD DUP1 PUSH1 0x40 MSTORE POP DUP2 ADD SWAP1 PUSH2 0x2637 SWAP2 SWAP1 PUSH2 0x46F8 JUMP JUMPDEST SWAP2 POP POP SWAP3 SWAP2 POP POP JUMP JUMPDEST PUSH1 0x0 PUSH1 0x40 MLOAD SWAP1 POP SWAP1 JUMP JUMPDEST PUSH1 0x0 DUP1 REVERT JUMPDEST PUSH1 0x0 DUP1 REVERT JUMPDEST PUSH1 0x0 PUSH2 0xFFFF DUP3 AND SWAP1 POP SWAP2 SWAP1 POP JUMP JUMPDEST PUSH2 0x266B DUP2 PUSH2 0x2654 JUMP JUMPDEST DUP2 EQ PUSH2 0x2676 JUMPI PUSH1 0x0 DUP1 REVERT JUMPDEST POP JUMP JUMPDEST PUSH1 0x0 DUP2 CALLDATALOAD SWAP1 POP PUSH2 0x2688 DUP2 PUSH2 0x2662 JUMP JUMPDEST SWAP3 SWAP2 POP POP JUMP JUMPDEST PUSH1 0x0 DUP1 REVERT JUMPDEST PUSH1 0x0 DUP1 REVERT JUMPDEST PUSH1 0x0 DUP1 REVERT JUMPDEST PUSH1 0x0 DUP1 DUP4 PUSH1 0x1F DUP5 ADD SLT PUSH2 0x26B3 JUMPI PUSH2 0x26B2 PUSH2 0x268E JUMP JUMPDEST JUMPDEST DUP3 CALLDATALOAD SWAP1 POP PUSH8 0xFFFFFFFFFFFFFFFF DUP2 GT ISZERO PUSH2 0x26D0 JUMPI PUSH2 0x26CF PUSH2 0x2693 JUMP JUMPDEST JUMPDEST PUSH1 0x20 DUP4 ADD SWAP2 POP DUP4 PUSH1 0x1 DUP3 MUL DUP4 ADD GT ISZERO PUSH2 0x26EC JUMPI PUSH2 0x26EB PUSH2 0x2698 JUMP JUMPDEST JUMPDEST SWAP3 POP SWAP3 SWAP1 POP JUMP JUMPDEST PUSH1 0x0 PUSH8 0xFFFFFFFFFFFFFFFF DUP3 AND SWAP1 POP SWAP2 SWAP1 POP JUMP JUMPDEST PUSH2 0x2710 DUP2 PUSH2 0x26F3 JUMP JUMPDEST DUP2 EQ PUSH2 0x271B JUMPI PUSH1 0x0 DUP1 REVERT JUMPDEST POP JUMP JUMPDEST PUSH1 0x0 DUP2 CALLDATALOAD SWAP1 POP PUSH2 0x272D DUP2 PUSH2 0x2707 JUMP JUMPDEST SWAP3 SWAP2 POP POP JUMP JUMPDEST PUSH1 0x0 DUP1 PUSH1 0x0 DUP1 PUSH1 0x0 DUP1 PUSH1 0x80 DUP8 DUP10 SUB SLT ISZERO PUSH2 0x2750 JUMPI PUSH2 0x274F PUSH2 0x264A JUMP JUMPDEST JUMPDEST PUSH1 0x0 PUSH2 0x275E DUP10 DUP3 DUP11 ADD PUSH2 0x2679 JUMP JUMPDEST SWAP7 POP POP PUSH1 0x20 DUP8 ADD CALLDATALOAD PUSH8 0xFFFFFFFFFFFFFFFF DUP2 GT ISZERO PUSH2 0x277F JUMPI PUSH2 0x277E PUSH2 0x264F JUMP JUMPDEST JUMPDEST PUSH2 0x278B DUP10 DUP3 DUP11 ADD PUSH2 0x269D JUMP JUMPDEST SWAP6 POP SWAP6 POP POP PUSH1 0x40 PUSH2 0x279E DUP10 DUP3 DUP11 ADD PUSH2 0x271E JUMP JUMPDEST SWAP4 POP POP PUSH1 0x60 DUP8 ADD CALLDATALOAD PUSH8 0xFFFFFFFFFFFFFFFF DUP2 GT ISZERO PUSH2 0x27BF JUMPI PUSH2 0x27BE PUSH2 0x264F JUMP JUMPDEST JUMPDEST PUSH2 0x27CB DUP10 DUP3 DUP11 ADD PUSH2 0x269D JUMP JUMPDEST SWAP3 POP SWAP3 POP POP SWAP3 SWAP6 POP SWAP3 SWAP6 POP SWAP3 SWAP6 JUMP JUMPDEST PUSH1 0x0 PUSH20 0xFFFFFFFFFFFFFFFFFFFFFFFFFFFFFFFFFFFFFFFF DUP3 AND SWAP1 POP SWAP2 SWAP1 POP JUMP JUMPDEST PUSH1 0x0 PUSH2 0x2805 DUP3 PUSH2 0x27DA JUMP JUMPDEST SWAP1 POP SWAP2 SWAP1 POP JUMP JUMPDEST PUSH2 0x2815 DUP2 PUSH2 0x27FA JUMP JUMPDEST DUP3 MSTORE POP POP JUMP JUMPDEST PUSH1 0x0 PUSH1 0x20 DUP3 ADD SWAP1 POP PUSH2 0x2830 PUSH1 0x0 DUP4 ADD DUP5 PUSH2 0x280C JUMP JUMPDEST SWAP3 SWAP2 POP POP JUMP JUMPDEST PUSH1 0x0 PUSH1 0x20 DUP3 DUP5 SUB SLT ISZERO PUSH2 0x284C JUMPI PUSH2 0x284B PUSH2 0x264A JUMP JUMPDEST JUMPDEST PUSH1 0x0 PUSH2 0x285A DUP5 DUP3 DUP6 ADD PUSH2 0x2679 JUMP JUMPDEST SWAP2 POP POP SWAP3 SWAP2 POP POP JUMP JUMPDEST PUSH1 0x0 DUP2 SWAP1 POP SWAP2 SWAP1 POP JUMP JUMPDEST PUSH2 0x2876 DUP2 PUSH2 0x2863 JUMP JUMPDEST DUP2 EQ PUSH2 0x2881 JUMPI PUSH1 0x0 DUP1 REVERT JUMPDEST POP JUMP JUMPDEST PUSH1 0x0 DUP2 CALLDATALOAD SWAP1 POP PUSH2 0x2893 DUP2 PUSH2 0x286D JUMP JUMPDEST SWAP3 SWAP2 POP POP JUMP JUMPDEST PUSH1 0x0 DUP1 PUSH1 0x40 DUP4 DUP6 SUB SLT ISZERO PUSH2 0x28B0 JUMPI PUSH2 0x28AF PUSH2 0x264A JUMP JUMPDEST JUMPDEST PUSH1 0x0 PUSH2 0x28BE DUP6 DUP3 DUP7 ADD PUSH2 0x2679 JUMP JUMPDEST SWAP3 POP POP PUSH1 0x20 PUSH2 0x28CF DUP6 DUP3 DUP7 ADD PUSH2 0x2884 JUMP JUMPDEST SWAP2 POP POP SWAP3 POP SWAP3 SWAP1 POP JUMP JUMPDEST PUSH1 0x0 DUP1 PUSH1 0x40 DUP4 DUP6 SUB SLT ISZERO PUSH2 0x28F0 JUMPI PUSH2 0x28EF PUSH2 0x264A JUMP JUMPDEST JUMPDEST PUSH1 0x0 PUSH2 0x28FE DUP6 DUP3 DUP7 ADD PUSH2 0x2884 JUMP JUMPDEST SWAP3 POP POP PUSH1 0x20 PUSH2 0x290F DUP6 DUP3 DUP7 ADD PUSH2 0x2679 JUMP JUMPDEST SWAP2 POP POP SWAP3 POP SWAP3 SWAP1 POP JUMP JUMPDEST PUSH1 0x0 DUP1 PUSH1 0x0 PUSH1 0x40 DUP5 DUP7 SUB SLT ISZERO PUSH2 0x2932 JUMPI PUSH2 0x2931 PUSH2 0x264A JUMP JUMPDEST JUMPDEST PUSH1 0x0 PUSH2 0x2940 DUP7 DUP3 DUP8 ADD PUSH2 0x2679 JUMP JUMPDEST SWAP4 POP POP PUSH1 0x20 DUP5 ADD CALLDATALOAD PUSH8 0xFFFFFFFFFFFFFFFF DUP2 GT ISZERO PUSH2 0x2961 JUMPI PUSH2 0x2960 PUSH2 0x264F JUMP JUMPDEST JUMPDEST PUSH2 0x296D DUP7 DUP3 DUP8 ADD PUSH2 0x269D JUMP JUMPDEST SWAP3 POP SWAP3 POP POP SWAP3 POP SWAP3 POP SWAP3 JUMP JUMPDEST PUSH1 0x0 DUP2 ISZERO ISZERO SWAP1 POP SWAP2 SWAP1 POP JUMP JUMPDEST PUSH2 0x298E DUP2 PUSH2 0x2979 JUMP JUMPDEST DUP3 MSTORE POP POP JUMP JUMPDEST PUSH1 0x0 PUSH1 0x20 DUP3 ADD SWAP1 POP PUSH2 0x29A9 PUSH1 0x0 DUP4 ADD DUP5 PUSH2 0x2985 JUMP JUMPDEST SWAP3 SWAP2 POP POP JUMP JUMPDEST PUSH2 0x29B8 DUP2 PUSH2 0x2863 JUMP JUMPDEST DUP3 MSTORE POP POP JUMP JUMPDEST PUSH1 0x0 PUSH1 0x20 DUP3 ADD SWAP1 POP PUSH2 0x29D3 PUSH1 0x0 DUP4 ADD DUP5 PUSH2 0x29AF JUMP JUMPDEST SWAP3 SWAP2 POP POP JUMP JUMPDEST PUSH1 0x0 DUP2 SWAP1 POP SWAP2 SWAP1 POP JUMP JUMPDEST PUSH1 0x0 PUSH2 0x29FE PUSH2 0x29F9 PUSH2 0x29F4 DUP5 PUSH2 0x27DA JUMP JUMPDEST PUSH2 0x29D9 JUMP JUMPDEST PUSH2 0x27DA JUMP JUMPDEST SWAP1 POP SWAP2 SWAP1 POP JUMP JUMPDEST PUSH1 0x0 PUSH2 0x2A10 DUP3 PUSH2 0x29E3 JUMP JUMPDEST SWAP1 POP SWAP2 SWAP1 POP JUMP JUMPDEST PUSH1 0x0 PUSH2 0x2A22 DUP3 PUSH2 0x2A05 JUMP JUMPDEST SWAP1 POP SWAP2 SWAP1 POP JUMP JUMPDEST PUSH2 0x2A32 DUP2 PUSH2 0x2A17 JUMP JUMPDEST DUP3 MSTORE POP POP JUMP JUMPDEST PUSH1 0x0 PUSH1 0x20 DUP3 ADD SWAP1 POP PUSH2 0x2A4D PUSH1 0x0 DUP4 ADD DUP5 PUSH2 0x2A29 JUMP JUMPDEST SWAP3 SWAP2 POP POP JUMP JUMPDEST PUSH1 0x0 DUP1 REVERT JUMPDEST PUSH1 0x0 PUSH1 0x1F NOT PUSH1 0x1F DUP4 ADD AND SWAP1 POP SWAP2 SWAP1 POP JUMP JUMPDEST PUSH32 0x4E487B7100000000000000000000000000000000000000000000000000000000 PUSH1 0x0 MSTORE PUSH1 0x41 PUSH1 0x4 MSTORE PUSH1 0x24 PUSH1 0x0 REVERT JUMPDEST PUSH2 0x2AA1 DUP3 PUSH2 0x2A58 JUMP JUMPDEST DUP2 ADD DUP2 DUP2 LT PUSH8 0xFFFFFFFFFFFFFFFF DUP3 GT OR ISZERO PUSH2 0x2AC0 JUMPI PUSH2 0x2ABF PUSH2 0x2A69 JUMP JUMPDEST JUMPDEST DUP1 PUSH1 0x40 MSTORE POP POP POP JUMP JUMPDEST PUSH1 0x0 PUSH2 0x2AD3 PUSH2 0x2640 JUMP JUMPDEST SWAP1 POP PUSH2 0x2ADF DUP3 DUP3 PUSH2 0x2A98 JUMP JUMPDEST SWAP2 SWAP1 POP JUMP JUMPDEST PUSH1 0x0 PUSH8 0xFFFFFFFFFFFFFFFF DUP3 GT ISZERO PUSH2 0x2AFF JUMPI PUSH2 0x2AFE PUSH2 0x2A69 JUMP JUMPDEST JUMPDEST PUSH2 0x2B08 DUP3 PUSH2 0x2A58 JUMP JUMPDEST SWAP1 POP PUSH1 0x20 DUP2 ADD SWAP1 POP SWAP2 SWAP1 POP JUMP JUMPDEST DUP3 DUP2 DUP4 CALLDATACOPY PUSH1 0x0 DUP4 DUP4 ADD MSTORE POP POP POP JUMP JUMPDEST PUSH1 0x0 PUSH2 0x2B37 PUSH2 0x2B32 DUP5 PUSH2 0x2AE4 JUMP JUMPDEST PUSH2 0x2AC9 JUMP JUMPDEST SWAP1 POP DUP3 DUP2 MSTORE PUSH1 0x20 DUP2 ADD DUP5 DUP5 DUP5 ADD GT ISZERO PUSH2 0x2B53 JUMPI PUSH2 0x2B52 PUSH2 0x2A53 JUMP JUMPDEST JUMPDEST PUSH2 0x2B5E DUP5 DUP3 DUP6 PUSH2 0x2B15 JUMP JUMPDEST POP SWAP4 SWAP3 POP POP POP JUMP JUMPDEST PUSH1 0x0 DUP3 PUSH1 0x1F DUP4 ADD SLT PUSH2 0x2B7B JUMPI PUSH2 0x2B7A PUSH2 0x268E JUMP JUMPDEST JUMPDEST DUP2 CALLDATALOAD PUSH2 0x2B8B DUP5 DUP3 PUSH1 0x20 DUP7 ADD PUSH2 0x2B24 JUMP JUMPDEST SWAP2 POP POP SWAP3 SWAP2 POP POP JUMP JUMPDEST PUSH1 0x0 DUP1 PUSH1 0x0 PUSH1 0x60 DUP5 DUP7 SUB SLT ISZERO PUSH2 0x2BAD JUMPI PUSH2 0x2BAC PUSH2 0x264A JUMP JUMPDEST JUMPDEST PUSH1 0x0 PUSH2 0x2BBB DUP7 DUP3 DUP8 ADD PUSH2 0x2679 JUMP JUMPDEST SWAP4 POP POP PUSH1 0x20 DUP5 ADD CALLDATALOAD PUSH8 0xFFFFFFFFFFFFFFFF DUP2 GT ISZERO PUSH2 0x2BDC JUMPI PUSH2 0x2BDB PUSH2 0x264F JUMP JUMPDEST JUMPDEST PUSH2 0x2BE8 DUP7 DUP3 DUP8 ADD PUSH2 0x2B66 JUMP JUMPDEST SWAP3 POP POP PUSH1 0x40 PUSH2 0x2BF9 DUP7 DUP3 DUP8 ADD PUSH2 0x271E JUMP JUMPDEST SWAP2 POP POP SWAP3 POP SWAP3 POP SWAP3 JUMP JUMPDEST PUSH1 0x0 DUP2 SWAP1 POP SWAP2 SWAP1 POP JUMP JUMPDEST PUSH2 0x2C16 DUP2 PUSH2 0x2C03 JUMP JUMPDEST DUP3 MSTORE POP POP JUMP JUMPDEST PUSH1 0x0 PUSH1 0x20 DUP3 ADD SWAP1 POP PUSH2 0x2C31 PUSH1 0x0 DUP4 ADD DUP5 PUSH2 0x2C0D JUMP JUMPDEST SWAP3 SWAP2 POP POP JUMP JUMPDEST PUSH1 0x0 DUP2 MLOAD SWAP1 POP SWAP2 SWAP1 POP JUMP JUMPDEST PUSH1 0x0 DUP3 DUP3 MSTORE PUSH1 0x20 DUP3 ADD SWAP1 POP SWAP3 SWAP2 POP POP JUMP JUMPDEST PUSH1 0x0 JUMPDEST DUP4 DUP2 LT ISZERO PUSH2 0x2C71 JUMPI DUP1 DUP3 ADD MLOAD DUP2 DUP5 ADD MSTORE PUSH1 0x20 DUP2 ADD SWAP1 POP PUSH2 0x2C56 JUMP JUMPDEST PUSH1 0x0 DUP5 DUP5 ADD MSTORE POP POP POP POP JUMP JUMPDEST PUSH1 0x0 PUSH2 0x2C88 DUP3 PUSH2 0x2C37 JUMP JUMPDEST PUSH2 0x2C92 DUP2 DUP6 PUSH2 0x2C42 JUMP JUMPDEST SWAP4 POP PUSH2 0x2CA2 DUP2 DUP6 PUSH1 0x20 DUP7 ADD PUSH2 0x2C53 JUMP JUMPDEST PUSH2 0x2CAB DUP2 PUSH2 0x2A58 JUMP JUMPDEST DUP5 ADD SWAP2 POP POP SWAP3 SWAP2 POP POP JUMP JUMPDEST PUSH1 0x0 PUSH1 0x20 DUP3 ADD SWAP1 POP DUP2 DUP2 SUB PUSH1 0x0 DUP4 ADD MSTORE PUSH2 0x2CD0 DUP2 DUP5 PUSH2 0x2C7D JUMP JUMPDEST SWAP1 POP SWAP3 SWAP2 POP POP JUMP JUMPDEST PUSH1 0x0 DUP1 PUSH1 0x40 DUP4 DUP6 SUB SLT ISZERO PUSH2 0x2CEF JUMPI PUSH2 0x2CEE PUSH2 0x264A JUMP JUMPDEST JUMPDEST PUSH1 0x0 PUSH2 0x2CFD DUP6 DUP3 DUP7 ADD PUSH2 0x2679 JUMP JUMPDEST SWAP3 POP POP PUSH1 0x20 PUSH2 0x2D0E DUP6 DUP3 DUP7 ADD PUSH2 0x2679 JUMP JUMPDEST SWAP2 POP POP SWAP3 POP SWAP3 SWAP1 POP JUMP JUMPDEST PUSH1 0x0 PUSH2 0x2D23 DUP3 PUSH2 0x2A05 JUMP JUMPDEST SWAP1 POP SWAP2 SWAP1 POP JUMP JUMPDEST PUSH2 0x2D33 DUP2 PUSH2 0x2D18 JUMP JUMPDEST DUP3 MSTORE POP POP JUMP JUMPDEST PUSH1 0x0 PUSH1 0x20 DUP3 ADD SWAP1 POP PUSH2 0x2D4E PUSH1 0x0 DUP4 ADD DUP5 PUSH2 0x2D2A JUMP JUMPDEST SWAP3 SWAP2 POP POP JUMP JUMPDEST PUSH2 0x2D5D DUP2 PUSH2 0x27FA JUMP JUMPDEST DUP2 EQ PUSH2 0x2D68 JUMPI PUSH1 0x0 DUP1 REVERT JUMPDEST POP JUMP JUMPDEST PUSH1 0x0 DUP2 CALLDATALOAD SWAP1 POP PUSH2 0x2D7A DUP2 PUSH2 0x2D54 JUMP JUMPDEST SWAP3 SWAP2 POP POP JUMP JUMPDEST PUSH1 0x0 PUSH1 0x20 DUP3 DUP5 SUB SLT ISZERO PUSH2 0x2D96 JUMPI PUSH2 0x2D95 PUSH2 0x264A JUMP JUMPDEST JUMPDEST PUSH1 0x0 PUSH2 0x2DA4 DUP5 DUP3 DUP6 ADD PUSH2 0x2D6B JUMP JUMPDEST SWAP2 POP POP SWAP3 SWAP2 POP POP JUMP JUMPDEST PUSH1 0x0 PUSH2 0x2DB8 DUP3 PUSH2 0x2A05 JUMP JUMPDEST SWAP1 POP SWAP2 SWAP1 POP JUMP JUMPDEST PUSH2 0x2DC8 DUP2 PUSH2 0x2DAD JUMP JUMPDEST DUP3 MSTORE POP POP JUMP JUMPDEST PUSH1 0x0 PUSH1 0x20 DUP3 ADD SWAP1 POP PUSH2 0x2DE3 PUSH1 0x0 DUP4 ADD DUP5 PUSH2 0x2DBF JUMP JUMPDEST SWAP3 SWAP2 POP POP JUMP JUMPDEST PUSH1 0x0 DUP1 PUSH1 0x0 DUP1 PUSH1 0x0 PUSH1 0x80 DUP7 DUP9 SUB SLT ISZERO PUSH2 0x2E05 JUMPI PUSH2 0x2E04 PUSH2 0x264A JUMP JUMPDEST JUMPDEST PUSH1 0x0 PUSH2 0x2E13 DUP9 DUP3 DUP10 ADD PUSH2 0x2679 JUMP JUMPDEST SWAP6 POP POP PUSH1 0x20 PUSH2 0x2E24 DUP9 DUP3 DUP10 ADD PUSH2 0x2679 JUMP JUMPDEST SWAP5 POP POP PUSH1 0x40 PUSH2 0x2E35 DUP9 DUP3 DUP10 ADD PUSH2 0x2884 JUMP JUMPDEST SWAP4 POP POP PUSH1 0x60 DUP7 ADD CALLDATALOAD PUSH8 0xFFFFFFFFFFFFFFFF DUP2 GT ISZERO PUSH2 0x2E56 JUMPI PUSH2 0x2E55 PUSH2 0x264F JUMP JUMPDEST JUMPDEST PUSH2 0x2E62 DUP9 DUP3 DUP10 ADD PUSH2 0x269D JUMP JUMPDEST SWAP3 POP SWAP3 POP POP SWAP3 SWAP6 POP SWAP3 SWAP6 SWAP1 SWAP4 POP JUMP JUMPDEST PUSH1 0x0 PUSH3 0xFFFFFF DUP3 AND SWAP1 POP SWAP2 SWAP1 POP JUMP JUMPDEST PUSH2 0x2E89 DUP2 PUSH2 0x2E71 JUMP JUMPDEST DUP3 MSTORE POP POP JUMP JUMPDEST PUSH1 0x0 PUSH1 0x20 DUP3 ADD SWAP1 POP PUSH2 0x2EA4 PUSH1 0x0 DUP4 ADD DUP5 PUSH2 0x2E80 JUMP JUMPDEST SWAP3 SWAP2 POP POP JUMP JUMPDEST PUSH1 0x0 DUP1 PUSH1 0x0 PUSH1 0x60 DUP5 DUP7 SUB SLT ISZERO PUSH2 0x2EC3 JUMPI PUSH2 0x2EC2 PUSH2 0x264A JUMP JUMPDEST JUMPDEST PUSH1 0x0 PUSH2 0x2ED1 DUP7 DUP3 DUP8 ADD PUSH2 0x2679 JUMP JUMPDEST SWAP4 POP POP PUSH1 0x20 PUSH2 0x2EE2 DUP7 DUP3 DUP8 ADD PUSH2 0x2679 JUMP JUMPDEST SWAP3 POP POP PUSH1 0x40 PUSH2 0x2EF3 DUP7 DUP3 DUP8 ADD PUSH2 0x2884 JUMP JUMPDEST SWAP2 POP POP SWAP3 POP SWAP3 POP SWAP3 JUMP JUMPDEST PUSH1 0x0 DUP1 PUSH1 0x0 DUP1 PUSH1 0x80 DUP6 DUP8 SUB SLT ISZERO PUSH2 0x2F17 JUMPI PUSH2 0x2F16 PUSH2 0x264A JUMP JUMPDEST JUMPDEST PUSH1 0x0 PUSH2 0x2F25 DUP8 DUP3 DUP9 ADD PUSH2 0x2679 JUMP JUMPDEST SWAP5 POP POP PUSH1 0x20 PUSH2 0x2F36 DUP8 DUP3 DUP9 ADD PUSH2 0x2679 JUMP JUMPDEST SWAP4 POP POP PUSH1 0x40 PUSH2 0x2F47 DUP8 DUP3 DUP9 ADD PUSH2 0x2D6B JUMP JUMPDEST SWAP3 POP POP PUSH1 0x60 PUSH2 0x2F58 DUP8 DUP3 DUP9 ADD PUSH2 0x2884 JUMP JUMPDEST SWAP2 POP POP SWAP3 SWAP6 SWAP2 SWAP5 POP SWAP3 POP JUMP JUMPDEST PUSH1 0x0 DUP3 DUP3 MSTORE PUSH1 0x20 DUP3 ADD SWAP1 POP SWAP3 SWAP2 POP POP JUMP JUMPDEST PUSH32 0x4C7A4170703A20696E76616C696420656E64706F696E742063616C6C65720000 PUSH1 0x0 DUP3 ADD MSTORE POP JUMP JUMPDEST PUSH1 0x0 PUSH2 0x2FAB PUSH1 0x1E DUP4 PUSH2 0x2F64 JUMP JUMPDEST SWAP2 POP PUSH2 0x2FB6 DUP3 PUSH2 0x2F75 JUMP JUMPDEST PUSH1 0x20 DUP3 ADD SWAP1 POP SWAP2 SWAP1 POP JUMP JUMPDEST PUSH1 0x0 PUSH1 0x20 DUP3 ADD SWAP1 POP DUP2 DUP2 SUB PUSH1 0x0 DUP4 ADD MSTORE PUSH2 0x2FDA DUP2 PUSH2 0x2F9E JUMP JUMPDEST SWAP1 POP SWAP2 SWAP1 POP JUMP JUMPDEST PUSH32 0x4E487B7100000000000000000000000000000000000000000000000000000000 PUSH1 0x0 MSTORE PUSH1 0x22 PUSH1 0x4 MSTORE PUSH1 0x24 PUSH1 0x0 REVERT JUMPDEST PUSH1 0x0 PUSH1 0x2 DUP3 DIV SWAP1 POP PUSH1 0x1 DUP3 AND DUP1 PUSH2 0x3028 JUMPI PUSH1 0x7F DUP3 AND SWAP2 POP JUMPDEST PUSH1 0x20 DUP3 LT DUP2 SUB PUSH2 0x303B JUMPI PUSH2 0x303A PUSH2 0x2FE1 JUMP JUMPDEST JUMPDEST POP SWAP2 SWAP1 POP JUMP JUMPDEST PUSH1 0x0 DUP2 SWAP1 POP SWAP3 SWAP2 POP POP JUMP JUMPDEST PUSH1 0x0 PUSH2 0x3058 DUP4 DUP6 PUSH2 0x3041 JUMP JUMPDEST SWAP4 POP PUSH2 0x3065 DUP4 DUP6 DUP5 PUSH2 0x2B15 JUMP JUMPDEST DUP3 DUP5 ADD SWAP1 POP SWAP4 SWAP3 POP POP POP JUMP JUMPDEST PUSH1 0x0 PUSH2 0x307E DUP3 DUP5 DUP7 PUSH2 0x304C JUMP JUMPDEST SWAP2 POP DUP2 SWAP1 POP SWAP4 SWAP3 POP POP POP JUMP JUMPDEST PUSH32 0x4C7A4170703A20696E76616C696420736F757263652073656E64696E6720636F PUSH1 0x0 DUP3 ADD MSTORE PUSH32 0x6E74726163740000000000000000000000000000000000000000000000000000 PUSH1 0x20 DUP3 ADD MSTORE POP JUMP JUMPDEST PUSH1 0x0 PUSH2 0x30E6 PUSH1 0x26 DUP4 PUSH2 0x2F64 JUMP JUMPDEST SWAP2 POP PUSH2 0x30F1 DUP3 PUSH2 0x308A JUMP JUMPDEST PUSH1 0x40 DUP3 ADD SWAP1 POP SWAP2 SWAP1 POP JUMP JUMPDEST PUSH1 0x0 PUSH1 0x20 DUP3 ADD SWAP1 POP DUP2 DUP2 SUB PUSH1 0x0 DUP4 ADD MSTORE PUSH2 0x3115 DUP2 PUSH2 0x30D9 JUMP JUMPDEST SWAP1 POP SWAP2 SWAP1 POP JUMP JUMPDEST PUSH2 0x3125 DUP2 PUSH2 0x2654 JUMP JUMPDEST DUP3 MSTORE POP POP JUMP JUMPDEST PUSH1 0x0 PUSH1 0x20 DUP3 ADD SWAP1 POP PUSH2 0x3140 PUSH1 0x0 DUP4 ADD DUP5 PUSH2 0x311C JUMP JUMPDEST SWAP3 SWAP2 POP POP JUMP JUMPDEST PUSH32 0x596F75206E65656420746F2073656E642074686520657861637420616D6F756E PUSH1 0x0 DUP3 ADD MSTORE PUSH32 0x74206F6620746F6B656E73202121000000000000000000000000000000000000 PUSH1 0x20 DUP3 ADD MSTORE POP JUMP JUMPDEST PUSH1 0x0 PUSH2 0x31A2 PUSH1 0x2E DUP4 PUSH2 0x2F64 JUMP JUMPDEST SWAP2 POP PUSH2 0x31AD DUP3 PUSH2 0x3146 JUMP JUMPDEST PUSH1 0x40 DUP3 ADD SWAP1 POP SWAP2 SWAP1 POP JUMP JUMPDEST PUSH1 0x0 PUSH1 0x20 DUP3 ADD SWAP1 POP DUP2 DUP2 SUB PUSH1 0x0 DUP4 ADD MSTORE PUSH2 0x31D1 DUP2 PUSH2 0x3195 JUMP JUMPDEST SWAP1 POP SWAP2 SWAP1 POP JUMP JUMPDEST PUSH1 0x0 DUP2 SWAP1 POP SWAP2 SWAP1 POP JUMP JUMPDEST PUSH2 0x31F3 PUSH2 0x31EE DUP3 PUSH2 0x2863 JUMP JUMPDEST PUSH2 0x31D8 JUMP JUMPDEST DUP3 MSTORE POP POP JUMP JUMPDEST PUSH1 0x0 DUP2 PUSH1 0x60 SHL SWAP1 POP SWAP2 SWAP1 POP JUMP JUMPDEST PUSH1 0x0 PUSH2 0x3211 DUP3 PUSH2 0x31F9 JUMP JUMPDEST SWAP1 POP SWAP2 SWAP1 POP JUMP JUMPDEST PUSH1 0x0 PUSH2 0x3223 DUP3 PUSH2 0x3206 JUMP JUMPDEST SWAP1 POP SWAP2 SWAP1 POP JUMP JUMPDEST PUSH2 0x323B PUSH2 0x3236 DUP3 PUSH2 0x27FA JUMP JUMPDEST PUSH2 0x3218 JUMP JUMPDEST DUP3 MSTORE POP POP JUMP JUMPDEST PUSH1 0x0 PUSH2 0x324D DUP3 DUP6 PUSH2 0x31E2 JUMP JUMPDEST PUSH1 0x20 DUP3 ADD SWAP2 POP PUSH2 0x325D DUP3 DUP5 PUSH2 0x322A JUMP JUMPDEST PUSH1 0x14 DUP3 ADD SWAP2 POP DUP2 SWAP1 POP SWAP4 SWAP3 POP POP POP JUMP JUMPDEST PUSH1 0x0 DUP2 PUSH1 0xF0 SHL SWAP1 POP SWAP2 SWAP1 POP JUMP JUMPDEST PUSH1 0x0 PUSH2 0x3285 DUP3 PUSH2 0x326D JUMP JUMPDEST SWAP1 POP SWAP2 SWAP1 POP JUMP JUMPDEST PUSH2 0x329D PUSH2 0x3298 DUP3 PUSH2 0x2654 JUMP JUMPDEST PUSH2 0x327A JUMP JUMPDEST DUP3 MSTORE POP POP JUMP JUMPDEST PUSH1 0x0 PUSH2 0x32AF DUP3 DUP6 PUSH2 0x328C JUMP JUMPDEST PUSH1 0x2 DUP3 ADD SWAP2 POP PUSH2 0x32BF DUP3 DUP5 PUSH2 0x31E2 JUMP JUMPDEST PUSH1 0x20 DUP3 ADD SWAP2 POP DUP2 SWAP1 POP SWAP4 SWAP3 POP POP POP JUMP JUMPDEST PUSH1 0x0 PUSH2 0x32DB DUP4 DUP6 PUSH2 0x2C42 JUMP JUMPDEST SWAP4 POP PUSH2 0x32E8 DUP4 DUP6 DUP5 PUSH2 0x2B15 JUMP JUMPDEST PUSH2 0x32F1 DUP4 PUSH2 0x2A58 JUMP JUMPDEST DUP5 ADD SWAP1 POP SWAP4 SWAP3 POP POP POP JUMP JUMPDEST PUSH1 0x0 PUSH1 0x40 DUP3 ADD SWAP1 POP PUSH2 0x3311 PUSH1 0x0 DUP4 ADD DUP7 PUSH2 0x311C JUMP JUMPDEST DUP2 DUP2 SUB PUSH1 0x20 DUP4 ADD MSTORE PUSH2 0x3324 DUP2 DUP5 DUP7 PUSH2 0x32CF JUMP JUMPDEST SWAP1 POP SWAP5 SWAP4 POP POP POP POP JUMP JUMPDEST POP JUMP JUMPDEST PUSH1 0x0 PUSH2 0x333E PUSH1 0x0 DUP4 PUSH2 0x3041 JUMP JUMPDEST SWAP2 POP PUSH2 0x3349 DUP3 PUSH2 0x332E JUMP JUMPDEST PUSH1 0x0 DUP3 ADD SWAP1 POP SWAP2 SWAP1 POP JUMP JUMPDEST PUSH1 0x0 PUSH2 0x335F DUP3 PUSH2 0x3331 JUMP JUMPDEST SWAP2 POP DUP2 SWAP1 POP SWAP2 SWAP1 POP JUMP JUMPDEST PUSH32 0x5769746864726177204661696C65642021212100000000000000000000000000 PUSH1 0x0 DUP3 ADD MSTORE POP JUMP JUMPDEST PUSH1 0x0 PUSH2 0x339F PUSH1 0x13 DUP4 PUSH2 0x2F64 JUMP JUMPDEST SWAP2 POP PUSH2 0x33AA DUP3 PUSH2 0x3369 JUMP JUMPDEST PUSH1 0x20 DUP3 ADD SWAP1 POP SWAP2 SWAP1 POP JUMP JUMPDEST PUSH1 0x0 PUSH1 0x20 DUP3 ADD SWAP1 POP DUP2 DUP2 SUB PUSH1 0x0 DUP4 ADD MSTORE PUSH2 0x33CE DUP2 PUSH2 0x3392 JUMP JUMPDEST SWAP1 POP SWAP2 SWAP1 POP JUMP JUMPDEST PUSH32 0x4E6F6E626C6F636B696E674C7A4170703A2063616C6C6572206D757374206265 PUSH1 0x0 DUP3 ADD MSTORE PUSH32 0x204C7A4170700000000000000000000000000000000000000000000000000000 PUSH1 0x20 DUP3 ADD MSTORE POP JUMP JUMPDEST PUSH1 0x0 PUSH2 0x3431 PUSH1 0x26 DUP4 PUSH2 0x2F64 JUMP JUMPDEST SWAP2 POP PUSH2 0x343C DUP3 PUSH2 0x33D5 JUMP JUMPDEST PUSH1 0x40 DUP3 ADD SWAP1 POP SWAP2 SWAP1 POP JUMP JUMPDEST PUSH1 0x0 PUSH1 0x20 DUP3 ADD SWAP1 POP DUP2 DUP2 SUB PUSH1 0x0 DUP4 ADD MSTORE PUSH2 0x3460 DUP2 PUSH2 0x3424 JUMP JUMPDEST SWAP1 POP SWAP2 SWAP1 POP JUMP JUMPDEST PUSH32 0x4C7A4170703A206E6F20747275737465642070617468207265636F7264000000 PUSH1 0x0 DUP3 ADD MSTORE POP JUMP JUMPDEST PUSH1 0x0 PUSH2 0x349D PUSH1 0x1D DUP4 PUSH2 0x2F64 JUMP JUMPDEST SWAP2 POP PUSH2 0x34A8 DUP3 PUSH2 0x3467 JUMP JUMPDEST PUSH1 0x20 DUP3 ADD SWAP1 POP SWAP2 SWAP1 POP JUMP JUMPDEST PUSH1 0x0 PUSH1 0x20 DUP3 ADD SWAP1 POP DUP2 DUP2 SUB PUSH1 0x0 DUP4 ADD MSTORE PUSH2 0x34CC DUP2 PUSH2 0x3490 JUMP JUMPDEST SWAP1 POP SWAP2 SWAP1 POP JUMP JUMPDEST PUSH32 0x4E487B7100000000000000000000000000000000000000000000000000000000 PUSH1 0x0 MSTORE PUSH1 0x11 PUSH1 0x4 MSTORE PUSH1 0x24 PUSH1 0x0 REVERT JUMPDEST PUSH1 0x0 PUSH2 0x350D DUP3 PUSH2 0x2863 JUMP JUMPDEST SWAP2 POP PUSH2 0x3518 DUP4 PUSH2 0x2863 JUMP JUMPDEST SWAP3 POP DUP3 DUP3 SUB SWAP1 POP DUP2 DUP2 GT ISZERO PUSH2 0x3530 JUMPI PUSH2 0x352F PUSH2 0x34D3 JUMP JUMPDEST JUMPDEST SWAP3 SWAP2 POP POP JUMP JUMPDEST PUSH1 0x0 PUSH2 0x3543 DUP3 DUP6 DUP8 PUSH2 0x304C JUMP JUMPDEST SWAP2 POP PUSH2 0x354F DUP3 DUP5 PUSH2 0x322A JUMP JUMPDEST PUSH1 0x14 DUP3 ADD SWAP2 POP DUP2 SWAP1 POP SWAP5 SWAP4 POP POP POP POP JUMP JUMPDEST PUSH1 0x0 DUP2 SWAP1 POP DUP2 PUSH1 0x0 MSTORE PUSH1 0x20 PUSH1 0x0 KECCAK256 SWAP1 POP SWAP2 SWAP1 POP JUMP JUMPDEST PUSH1 0x0 PUSH1 0x20 PUSH1 0x1F DUP4 ADD DIV SWAP1 POP SWAP2 SWAP1 POP JUMP JUMPDEST PUSH1 0x0 DUP3 DUP3 SHL SWAP1 POP SWAP3 SWAP2 POP POP JUMP JUMPDEST PUSH1 0x0 PUSH1 0x8 DUP4 MUL PUSH2 0x35C2 PUSH32 0xFFFFFFFFFFFFFFFFFFFFFFFFFFFFFFFFFFFFFFFFFFFFFFFFFFFFFFFFFFFFFFFF DUP3 PUSH2 0x3585 JUMP JUMPDEST PUSH2 0x35CC DUP7 DUP4 PUSH2 0x3585 JUMP JUMPDEST SWAP6 POP DUP1 NOT DUP5 AND SWAP4 POP DUP1 DUP7 AND DUP5 OR SWAP3 POP POP POP SWAP4 SWAP3 POP POP POP JUMP JUMPDEST PUSH1 0x0 PUSH2 0x35FF PUSH2 0x35FA PUSH2 0x35F5 DUP5 PUSH2 0x2863 JUMP JUMPDEST PUSH2 0x29D9 JUMP JUMPDEST PUSH2 0x2863 JUMP JUMPDEST SWAP1 POP SWAP2 SWAP1 POP JUMP JUMPDEST PUSH1 0x0 DUP2 SWAP1 POP SWAP2 SWAP1 POP JUMP JUMPDEST PUSH2 0x3619 DUP4 PUSH2 0x35E4 JUMP JUMPDEST PUSH2 0x362D PUSH2 0x3625 DUP3 PUSH2 0x3606 JUMP JUMPDEST DUP5 DUP5 SLOAD PUSH2 0x3592 JUMP JUMPDEST DUP3 SSTORE POP POP POP POP JUMP JUMPDEST PUSH1 0x0 SWAP1 JUMP JUMPDEST PUSH2 0x3642 PUSH2 0x3635 JUMP JUMPDEST PUSH2 0x364D DUP2 DUP5 DUP5 PUSH2 0x3610 JUMP JUMPDEST POP POP POP JUMP JUMPDEST JUMPDEST DUP2 DUP2 LT ISZERO PUSH2 0x3671 JUMPI PUSH2 0x3666 PUSH1 0x0 DUP3 PUSH2 0x363A JUMP JUMPDEST PUSH1 0x1 DUP2 ADD SWAP1 POP PUSH2 0x3653 JUMP JUMPDEST POP POP JUMP JUMPDEST PUSH1 0x1F DUP3 GT ISZERO PUSH2 0x36B6 JUMPI PUSH2 0x3687 DUP2 PUSH2 0x3560 JUMP JUMPDEST PUSH2 0x3690 DUP5 PUSH2 0x3575 JUMP JUMPDEST DUP2 ADD PUSH1 0x20 DUP6 LT ISZERO PUSH2 0x369F JUMPI DUP2 SWAP1 POP JUMPDEST PUSH2 0x36B3 PUSH2 0x36AB DUP6 PUSH2 0x3575 JUMP JUMPDEST DUP4 ADD DUP3 PUSH2 0x3652 JUMP JUMPDEST POP POP JUMPDEST POP POP POP JUMP JUMPDEST PUSH1 0x0 DUP3 DUP3 SHR SWAP1 POP SWAP3 SWAP2 POP POP JUMP JUMPDEST PUSH1 0x0 PUSH2 0x36D9 PUSH1 0x0 NOT DUP5 PUSH1 0x8 MUL PUSH2 0x36BB JUMP JUMPDEST NOT DUP1 DUP4 AND SWAP2 POP POP SWAP3 SWAP2 POP POP JUMP JUMPDEST PUSH1 0x0 PUSH2 0x36F2 DUP4 DUP4 PUSH2 0x36C8 JUMP JUMPDEST SWAP2 POP DUP3 PUSH1 0x2 MUL DUP3 OR SWAP1 POP SWAP3 SWAP2 POP POP JUMP JUMPDEST PUSH2 0x370B DUP3 PUSH2 0x2C37 JUMP JUMPDEST PUSH8 0xFFFFFFFFFFFFFFFF DUP2 GT ISZERO PUSH2 0x3724 JUMPI PUSH2 0x3723 PUSH2 0x2A69 JUMP JUMPDEST JUMPDEST PUSH2 0x372E DUP3 SLOAD PUSH2 0x3010 JUMP JUMPDEST PUSH2 0x3739 DUP3 DUP3 DUP6 PUSH2 0x3675 JUMP JUMPDEST PUSH1 0x0 PUSH1 0x20 SWAP1 POP PUSH1 0x1F DUP4 GT PUSH1 0x1 DUP2 EQ PUSH2 0x376C JUMPI PUSH1 0x0 DUP5 ISZERO PUSH2 0x375A JUMPI DUP3 DUP8 ADD MLOAD SWAP1 POP JUMPDEST PUSH2 0x3764 DUP6 DUP3 PUSH2 0x36E6 JUMP JUMPDEST DUP7 SSTORE POP PUSH2 0x37CC JUMP JUMPDEST PUSH1 0x1F NOT DUP5 AND PUSH2 0x377A DUP7 PUSH2 0x3560 JUMP JUMPDEST PUSH1 0x0 JUMPDEST DUP3 DUP2 LT ISZERO PUSH2 0x37A2 JUMPI DUP5 DUP10 ADD MLOAD DUP3 SSTORE PUSH1 0x1 DUP3 ADD SWAP2 POP PUSH1 0x20 DUP6 ADD SWAP5 POP PUSH1 0x20 DUP2 ADD SWAP1 POP PUSH2 0x377D JUMP JUMPDEST DUP7 DUP4 LT ISZERO PUSH2 0x37BF JUMPI DUP5 DUP10 ADD MLOAD PUSH2 0x37BB PUSH1 0x1F DUP10 AND DUP3 PUSH2 0x36C8 JUMP JUMPDEST DUP4 SSTORE POP JUMPDEST PUSH1 0x1 PUSH1 0x2 DUP9 MUL ADD DUP9 SSTORE POP POP POP JUMPDEST POP POP POP POP POP POP JUMP JUMPDEST PUSH1 0x0 PUSH1 0x80 DUP3 ADD SWAP1 POP PUSH2 0x37E9 PUSH1 0x0 DUP4 ADD DUP9 PUSH2 0x311C JUMP JUMPDEST PUSH2 0x37F6 PUSH1 0x20 DUP4 ADD DUP8 PUSH2 0x311C JUMP JUMPDEST PUSH2 0x3803 PUSH1 0x40 DUP4 ADD DUP7 PUSH2 0x29AF JUMP JUMPDEST DUP2 DUP2 SUB PUSH1 0x60 DUP4 ADD MSTORE PUSH2 0x3816 DUP2 DUP5 DUP7 PUSH2 0x32CF JUMP JUMPDEST SWAP1 POP SWAP7 SWAP6 POP POP POP POP POP POP JUMP JUMPDEST PUSH32 0x4E6F6E626C6F636B696E674C7A4170703A206E6F2073746F726564206D657373 PUSH1 0x0 DUP3 ADD MSTORE PUSH32 0x6167650000000000000000000000000000000000000000000000000000000000 PUSH1 0x20 DUP3 ADD MSTORE POP JUMP JUMPDEST PUSH1 0x0 PUSH2 0x387E PUSH1 0x23 DUP4 PUSH2 0x2F64 JUMP JUMPDEST SWAP2 POP PUSH2 0x3889 DUP3 PUSH2 0x3822 JUMP JUMPDEST PUSH1 0x40 DUP3 ADD SWAP1 POP SWAP2 SWAP1 POP JUMP JUMPDEST PUSH1 0x0 PUSH1 0x20 DUP3 ADD SWAP1 POP DUP2 DUP2 SUB PUSH1 0x0 DUP4 ADD MSTORE PUSH2 0x38AD DUP2 PUSH2 0x3871 JUMP JUMPDEST SWAP1 POP SWAP2 SWAP1 POP JUMP JUMPDEST PUSH32 0x4E6F6E626C6F636B696E674C7A4170703A20696E76616C6964207061796C6F61 PUSH1 0x0 DUP3 ADD MSTORE PUSH32 0x6400000000000000000000000000000000000000000000000000000000000000 PUSH1 0x20 DUP3 ADD MSTORE POP JUMP JUMPDEST PUSH1 0x0 PUSH2 0x3910 PUSH1 0x21 DUP4 PUSH2 0x2F64 JUMP JUMPDEST SWAP2 POP PUSH2 0x391B DUP3 PUSH2 0x38B4 JUMP JUMPDEST PUSH1 0x40 DUP3 ADD SWAP1 POP SWAP2 SWAP1 POP JUMP JUMPDEST PUSH1 0x0 PUSH1 0x20 DUP3 ADD SWAP1 POP DUP2 DUP2 SUB PUSH1 0x0 DUP4 ADD MSTORE PUSH2 0x393F DUP2 PUSH2 0x3903 JUMP JUMPDEST SWAP1 POP SWAP2 SWAP1 POP JUMP JUMPDEST PUSH2 0x394F DUP2 PUSH2 0x26F3 JUMP JUMPDEST DUP3 MSTORE POP POP JUMP JUMPDEST PUSH1 0x0 PUSH1 0x80 DUP3 ADD SWAP1 POP PUSH2 0x396A PUSH1 0x0 DUP4 ADD DUP9 PUSH2 0x311C JUMP JUMPDEST DUP2 DUP2 SUB PUSH1 0x20 DUP4 ADD MSTORE PUSH2 0x397D DUP2 DUP7 DUP9 PUSH2 0x32CF JUMP JUMPDEST SWAP1 POP PUSH2 0x398C PUSH1 0x40 DUP4 ADD DUP6 PUSH2 0x3946 JUMP JUMPDEST PUSH2 0x3999 PUSH1 0x60 DUP4 ADD DUP5 PUSH2 0x2C0D JUMP JUMPDEST SWAP7 SWAP6 POP POP POP POP POP POP JUMP JUMPDEST PUSH32 0x4C7A4170703A20696E76616C6964206D696E4761730000000000000000000000 PUSH1 0x0 DUP3 ADD MSTORE POP JUMP JUMPDEST PUSH1 0x0 PUSH2 0x39D9 PUSH1 0x15 DUP4 PUSH2 0x2F64 JUMP JUMPDEST SWAP2 POP PUSH2 0x39E4 DUP3 PUSH2 0x39A3 JUMP JUMPDEST PUSH1 0x20 DUP3 ADD SWAP1 POP SWAP2 SWAP1 POP JUMP JUMPDEST PUSH1 0x0 PUSH1 0x20 DUP3 ADD SWAP1 POP DUP2 DUP2 SUB PUSH1 0x0 DUP4 ADD MSTORE PUSH2 0x3A08 DUP2 PUSH2 0x39CC JUMP JUMPDEST SWAP1 POP SWAP2 SWAP1 POP JUMP JUMPDEST PUSH1 0x0 PUSH1 0x60 DUP3 ADD SWAP1 POP PUSH2 0x3A24 PUSH1 0x0 DUP4 ADD DUP7 PUSH2 0x311C JUMP JUMPDEST PUSH2 0x3A31 PUSH1 0x20 DUP4 ADD DUP6 PUSH2 0x311C JUMP JUMPDEST PUSH2 0x3A3E PUSH1 0x40 DUP4 ADD DUP5 PUSH2 0x29AF JUMP JUMPDEST SWAP5 SWAP4 POP POP POP POP JUMP JUMPDEST PUSH1 0x0 DUP3 SWAP1 POP SWAP3 SWAP2 POP POP JUMP JUMPDEST PUSH2 0x3A5B DUP4 DUP4 PUSH2 0x3A46 JUMP JUMPDEST PUSH8 0xFFFFFFFFFFFFFFFF DUP2 GT ISZERO PUSH2 0x3A74 JUMPI PUSH2 0x3A73 PUSH2 0x2A69 JUMP JUMPDEST JUMPDEST PUSH2 0x3A7E DUP3 SLOAD PUSH2 0x3010 JUMP JUMPDEST PUSH2 0x3A89 DUP3 DUP3 DUP6 PUSH2 0x3675 JUMP JUMPDEST PUSH1 0x0 PUSH1 0x1F DUP4 GT PUSH1 0x1 DUP2 EQ PUSH2 0x3AB8 JUMPI PUSH1 0x0 DUP5 ISZERO PUSH2 0x3AA6 JUMPI DUP3 DUP8 ADD CALLDATALOAD SWAP1 POP JUMPDEST PUSH2 0x3AB0 DUP6 DUP3 PUSH2 0x36E6 JUMP JUMPDEST DUP7 SSTORE POP PUSH2 0x3B18 JUMP JUMPDEST PUSH1 0x1F NOT DUP5 AND PUSH2 0x3AC6 DUP7 PUSH2 0x3560 JUMP JUMPDEST PUSH1 0x0 JUMPDEST DUP3 DUP2 LT ISZERO PUSH2 0x3AEE JUMPI DUP5 DUP10 ADD CALLDATALOAD DUP3 SSTORE PUSH1 0x1 DUP3 ADD SWAP2 POP PUSH1 0x20 DUP6 ADD SWAP5 POP PUSH1 0x20 DUP2 ADD SWAP1 POP PUSH2 0x3AC9 JUMP JUMPDEST DUP7 DUP4 LT ISZERO PUSH2 0x3B0B JUMPI DUP5 DUP10 ADD CALLDATALOAD PUSH2 0x3B07 PUSH1 0x1F DUP10 AND DUP3 PUSH2 0x36C8 JUMP JUMPDEST DUP4 SSTORE POP JUMPDEST PUSH1 0x1 PUSH1 0x2 DUP9 MUL ADD DUP9 SSTORE POP POP POP JUMPDEST POP POP POP POP POP POP POP JUMP JUMPDEST PUSH32 0x4F776E61626C653A206E6577206F776E657220697320746865207A65726F2061 PUSH1 0x0 DUP3 ADD MSTORE PUSH32 0x6464726573730000000000000000000000000000000000000000000000000000 PUSH1 0x20 DUP3 ADD MSTORE POP JUMP JUMPDEST PUSH1 0x0 PUSH2 0x3B7D PUSH1 0x26 DUP4 PUSH2 0x2F64 JUMP JUMPDEST SWAP2 POP PUSH2 0x3B88 DUP3 PUSH2 0x3B21 JUMP JUMPDEST PUSH1 0x40 DUP3 ADD SWAP1 POP SWAP2 SWAP1 POP JUMP JUMPDEST PUSH1 0x0 PUSH1 0x20 DUP3 ADD SWAP1 POP DUP2 DUP2 SUB PUSH1 0x0 DUP4 ADD MSTORE PUSH2 0x3BAC DUP2 PUSH2 0x3B70 JUMP JUMPDEST SWAP1 POP SWAP2 SWAP1 POP JUMP JUMPDEST PUSH1 0x0 PUSH1 0x80 DUP3 ADD SWAP1 POP PUSH2 0x3BC8 PUSH1 0x0 DUP4 ADD DUP8 PUSH2 0x311C JUMP JUMPDEST PUSH2 0x3BD5 PUSH1 0x20 DUP4 ADD DUP7 PUSH2 0x311C JUMP JUMPDEST PUSH2 0x3BE2 PUSH1 0x40 DUP4 ADD DUP6 PUSH2 0x280C JUMP JUMPDEST PUSH2 0x3BEF PUSH1 0x60 DUP4 ADD DUP5 PUSH2 0x29AF JUMP JUMPDEST SWAP6 SWAP5 POP POP POP POP POP JUMP JUMPDEST PUSH1 0x0 PUSH2 0x3C0B PUSH2 0x3C06 DUP5 PUSH2 0x2AE4 JUMP JUMPDEST PUSH2 0x2AC9 JUMP JUMPDEST SWAP1 POP DUP3 DUP2 MSTORE PUSH1 0x20 DUP2 ADD DUP5 DUP5 DUP5 ADD GT ISZERO PUSH2 0x3C27 JUMPI PUSH2 0x3C26 PUSH2 0x2A53 JUMP JUMPDEST JUMPDEST PUSH2 0x3C32 DUP5 DUP3 DUP6 PUSH2 0x2C53 JUMP JUMPDEST POP SWAP4 SWAP3 POP POP POP JUMP JUMPDEST PUSH1 0x0 DUP3 PUSH1 0x1F DUP4 ADD SLT PUSH2 0x3C4F JUMPI PUSH2 0x3C4E PUSH2 0x268E JUMP JUMPDEST JUMPDEST DUP2 MLOAD PUSH2 0x3C5F DUP5 DUP3 PUSH1 0x20 DUP7 ADD PUSH2 0x3BF8 JUMP JUMPDEST SWAP2 POP POP SWAP3 SWAP2 POP POP JUMP JUMPDEST PUSH1 0x0 PUSH1 0x20 DUP3 DUP5 SUB SLT ISZERO PUSH2 0x3C7E JUMPI PUSH2 0x3C7D PUSH2 0x264A JUMP JUMPDEST JUMPDEST PUSH1 0x0 DUP3 ADD MLOAD PUSH8 0xFFFFFFFFFFFFFFFF DUP2 GT ISZERO PUSH2 0x3C9C JUMPI PUSH2 0x3C9B PUSH2 0x264F JUMP JUMPDEST JUMPDEST PUSH2 0x3CA8 DUP5 DUP3 DUP6 ADD PUSH2 0x3C3A JUMP JUMPDEST SWAP2 POP POP SWAP3 SWAP2 POP POP JUMP JUMPDEST PUSH1 0x0 PUSH1 0x80 DUP3 ADD SWAP1 POP PUSH2 0x3CC6 PUSH1 0x0 DUP4 ADD DUP8 PUSH2 0x311C JUMP JUMPDEST DUP2 DUP2 SUB PUSH1 0x20 DUP4 ADD MSTORE PUSH2 0x3CD8 DUP2 DUP7 PUSH2 0x2C7D JUMP JUMPDEST SWAP1 POP PUSH2 0x3CE7 PUSH1 0x40 DUP4 ADD DUP6 PUSH2 0x3946 JUMP JUMPDEST DUP2 DUP2 SUB PUSH1 0x60 DUP4 ADD MSTORE PUSH2 0x3CF9 DUP2 DUP5 PUSH2 0x2C7D JUMP JUMPDEST SWAP1 POP SWAP6 SWAP5 POP POP POP POP POP JUMP JUMPDEST PUSH32 0x4F776E61626C653A2063616C6C6572206973206E6F7420746865206F776E6572 PUSH1 0x0 DUP3 ADD MSTORE POP JUMP JUMPDEST PUSH1 0x0 PUSH2 0x3D3A PUSH1 0x20 DUP4 PUSH2 0x2F64 JUMP JUMPDEST SWAP2 POP PUSH2 0x3D45 DUP3 PUSH2 0x3D04 JUMP JUMPDEST PUSH1 0x20 DUP3 ADD SWAP1 POP SWAP2 SWAP1 POP JUMP JUMPDEST PUSH1 0x0 PUSH1 0x20 DUP3 ADD SWAP1 POP DUP2 DUP2 SUB PUSH1 0x0 DUP4 ADD MSTORE PUSH2 0x3D69 DUP2 PUSH2 0x3D2D JUMP JUMPDEST SWAP1 POP SWAP2 SWAP1 POP JUMP JUMPDEST PUSH1 0x0 PUSH1 0x60 DUP3 ADD SWAP1 POP PUSH2 0x3D85 PUSH1 0x0 DUP4 ADD DUP7 PUSH2 0x280C JUMP JUMPDEST PUSH2 0x3D92 PUSH1 0x20 DUP4 ADD DUP6 PUSH2 0x280C JUMP JUMPDEST PUSH2 0x3D9F PUSH1 0x40 DUP4 ADD DUP5 PUSH2 0x2E80 JUMP JUMPDEST SWAP5 SWAP4 POP POP POP POP JUMP JUMPDEST PUSH1 0x0 DUP2 MLOAD SWAP1 POP PUSH2 0x3DB6 DUP2 PUSH2 0x2D54 JUMP JUMPDEST SWAP3 SWAP2 POP POP JUMP JUMPDEST PUSH1 0x0 PUSH1 0x20 DUP3 DUP5 SUB SLT ISZERO PUSH2 0x3DD2 JUMPI PUSH2 0x3DD1 PUSH2 0x264A JUMP JUMPDEST JUMPDEST PUSH1 0x0 PUSH2 0x3DE0 DUP5 DUP3 DUP6 ADD PUSH2 0x3DA7 JUMP JUMPDEST SWAP2 POP POP SWAP3 SWAP2 POP POP JUMP JUMPDEST PUSH2 0x3DF2 DUP2 PUSH2 0x27DA JUMP JUMPDEST DUP2 EQ PUSH2 0x3DFD JUMPI PUSH1 0x0 DUP1 REVERT JUMPDEST POP JUMP JUMPDEST PUSH1 0x0 DUP2 MLOAD SWAP1 POP PUSH2 0x3E0F DUP2 PUSH2 0x3DE9 JUMP JUMPDEST SWAP3 SWAP2 POP POP JUMP JUMPDEST PUSH1 0x0 DUP2 PUSH1 0x2 SIGNEXTEND SWAP1 POP SWAP2 SWAP1 POP JUMP JUMPDEST PUSH2 0x3E2B DUP2 PUSH2 0x3E15 JUMP JUMPDEST DUP2 EQ PUSH2 0x3E36 JUMPI PUSH1 0x0 DUP1 REVERT JUMPDEST POP JUMP JUMPDEST PUSH1 0x0 DUP2 MLOAD SWAP1 POP PUSH2 0x3E48 DUP2 PUSH2 0x3E22 JUMP JUMPDEST SWAP3 SWAP2 POP POP JUMP JUMPDEST PUSH1 0x0 DUP2 MLOAD SWAP1 POP PUSH2 0x3E5D DUP2 PUSH2 0x2662 JUMP JUMPDEST SWAP3 SWAP2 POP POP JUMP JUMPDEST PUSH1 0x0 PUSH1 0xFF DUP3 AND SWAP1 POP SWAP2 SWAP1 POP JUMP JUMPDEST PUSH2 0x3E79 DUP2 PUSH2 0x3E63 JUMP JUMPDEST DUP2 EQ PUSH2 0x3E84 JUMPI PUSH1 0x0 DUP1 REVERT JUMPDEST POP JUMP JUMPDEST PUSH1 0x0 DUP2 MLOAD SWAP1 POP PUSH2 0x3E96 DUP2 PUSH2 0x3E70 JUMP JUMPDEST SWAP3 SWAP2 POP POP JUMP JUMPDEST PUSH2 0x3EA5 DUP2 PUSH2 0x2979 JUMP JUMPDEST DUP2 EQ PUSH2 0x3EB0 JUMPI PUSH1 0x0 DUP1 REVERT JUMPDEST POP JUMP JUMPDEST PUSH1 0x0 DUP2 MLOAD SWAP1 POP PUSH2 0x3EC2 DUP2 PUSH2 0x3E9C JUMP JUMPDEST SWAP3 SWAP2 POP POP JUMP JUMPDEST PUSH1 0x0 DUP1 PUSH1 0x0 DUP1 PUSH1 0x0 DUP1 PUSH1 0x0 PUSH1 0xE0 DUP9 DUP11 SUB SLT ISZERO PUSH2 0x3EE7 JUMPI PUSH2 0x3EE6 PUSH2 0x264A JUMP JUMPDEST JUMPDEST PUSH1 0x0 PUSH2 0x3EF5 DUP11 DUP3 DUP12 ADD PUSH2 0x3E00 JUMP JUMPDEST SWAP8 POP POP PUSH1 0x20 PUSH2 0x3F06 DUP11 DUP3 DUP12 ADD PUSH2 0x3E39 JUMP JUMPDEST SWAP7 POP POP PUSH1 0x40 PUSH2 0x3F17 DUP11 DUP3 DUP12 ADD PUSH2 0x3E4E JUMP JUMPDEST SWAP6 POP POP PUSH1 0x60 PUSH2 0x3F28 DUP11 DUP3 DUP12 ADD PUSH2 0x3E4E JUMP JUMPDEST SWAP5 POP POP PUSH1 0x80 PUSH2 0x3F39 DUP11 DUP3 DUP12 ADD PUSH2 0x3E4E JUMP JUMPDEST SWAP4 POP POP PUSH1 0xA0 PUSH2 0x3F4A DUP11 DUP3 DUP12 ADD PUSH2 0x3E87 JUMP JUMPDEST SWAP3 POP POP PUSH1 0xC0 PUSH2 0x3F5B DUP11 DUP3 DUP12 ADD PUSH2 0x3EB3 JUMP JUMPDEST SWAP2 POP POP SWAP3 SWAP6 SWAP9 SWAP2 SWAP5 SWAP8 POP SWAP3 SWAP6 POP JUMP JUMPDEST PUSH1 0x0 PUSH16 0xFFFFFFFFFFFFFFFFFFFFFFFFFFFFFFFF DUP3 AND SWAP1 POP SWAP2 SWAP1 POP JUMP JUMPDEST PUSH2 0x3F8F DUP2 PUSH2 0x3F6A JUMP JUMPDEST DUP2 EQ PUSH2 0x3F9A JUMPI PUSH1 0x0 DUP1 REVERT JUMPDEST POP JUMP JUMPDEST PUSH1 0x0 DUP2 MLOAD SWAP1 POP PUSH2 0x3FAC DUP2 PUSH2 0x3F86 JUMP JUMPDEST SWAP3 SWAP2 POP POP JUMP JUMPDEST PUSH1 0x0 PUSH1 0x20 DUP3 DUP5 SUB SLT ISZERO PUSH2 0x3FC8 JUMPI PUSH2 0x3FC7 PUSH2 0x264A JUMP JUMPDEST JUMPDEST PUSH1 0x0 PUSH2 0x3FD6 DUP5 DUP3 DUP6 ADD PUSH2 0x3F9D JUMP JUMPDEST SWAP2 POP POP SWAP3 SWAP2 POP POP JUMP JUMPDEST PUSH1 0x0 PUSH1 0x20 DUP3 DUP5 SUB SLT ISZERO PUSH2 0x3FF5 JUMPI PUSH2 0x3FF4 PUSH2 0x264A JUMP JUMPDEST JUMPDEST PUSH1 0x0 PUSH2 0x4003 DUP5 DUP3 DUP6 ADD PUSH2 0x3E87 JUMP JUMPDEST SWAP2 POP POP SWAP3 SWAP2 POP POP JUMP JUMPDEST PUSH1 0x0 DUP2 PUSH1 0x1 SHR SWAP1 POP SWAP2 SWAP1 POP JUMP JUMPDEST PUSH1 0x0 DUP1 DUP3 SWAP2 POP DUP4 SWAP1 POP JUMPDEST PUSH1 0x1 DUP6 GT ISZERO PUSH2 0x4063 JUMPI DUP1 DUP7 DIV DUP2 GT ISZERO PUSH2 0x403F JUMPI PUSH2 0x403E PUSH2 0x34D3 JUMP JUMPDEST JUMPDEST PUSH1 0x1 DUP6 AND ISZERO PUSH2 0x404E JUMPI DUP1 DUP3 MUL SWAP2 POP JUMPDEST DUP1 DUP2 MUL SWAP1 POP PUSH2 0x405C DUP6 PUSH2 0x400C JUMP JUMPDEST SWAP5 POP PUSH2 0x4023 JUMP JUMPDEST SWAP5 POP SWAP5 SWAP3 POP POP POP JUMP JUMPDEST PUSH1 0x0 DUP3 PUSH2 0x407C JUMPI PUSH1 0x1 SWAP1 POP PUSH2 0x4138 JUMP JUMPDEST DUP2 PUSH2 0x408A JUMPI PUSH1 0x0 SWAP1 POP PUSH2 0x4138 JUMP JUMPDEST DUP2 PUSH1 0x1 DUP2 EQ PUSH2 0x40A0 JUMPI PUSH1 0x2 DUP2 EQ PUSH2 0x40AA JUMPI PUSH2 0x40D9 JUMP JUMPDEST PUSH1 0x1 SWAP2 POP POP PUSH2 0x4138 JUMP JUMPDEST PUSH1 0xFF DUP5 GT ISZERO PUSH2 0x40BC JUMPI PUSH2 0x40BB PUSH2 0x34D3 JUMP JUMPDEST JUMPDEST DUP4 PUSH1 0x2 EXP SWAP2 POP DUP5 DUP3 GT ISZERO PUSH2 0x40D3 JUMPI PUSH2 0x40D2 PUSH2 0x34D3 JUMP JUMPDEST JUMPDEST POP PUSH2 0x4138 JUMP JUMPDEST POP PUSH1 0x20 DUP4 LT PUSH2 0x133 DUP4 LT AND PUSH1 0x4E DUP5 LT PUSH1 0xB DUP5 LT AND OR ISZERO PUSH2 0x410E JUMPI DUP3 DUP3 EXP SWAP1 POP DUP4 DUP2 GT ISZERO PUSH2 0x4109 JUMPI PUSH2 0x4108 PUSH2 0x34D3 JUMP JUMPDEST JUMPDEST PUSH2 0x4138 JUMP JUMPDEST PUSH2 0x411B DUP5 DUP5 DUP5 PUSH1 0x1 PUSH2 0x4019 JUMP JUMPDEST SWAP3 POP SWAP1 POP DUP2 DUP5 DIV DUP2 GT ISZERO PUSH2 0x4132 JUMPI PUSH2 0x4131 PUSH2 0x34D3 JUMP JUMPDEST JUMPDEST DUP2 DUP2 MUL SWAP1 POP JUMPDEST SWAP4 SWAP3 POP POP POP JUMP JUMPDEST PUSH1 0x0 PUSH2 0x414A DUP3 PUSH2 0x2863 JUMP JUMPDEST SWAP2 POP PUSH2 0x4155 DUP4 PUSH2 0x3E63 JUMP JUMPDEST SWAP3 POP PUSH2 0x4182 PUSH32 0xFFFFFFFFFFFFFFFFFFFFFFFFFFFFFFFFFFFFFFFFFFFFFFFFFFFFFFFFFFFFFFFF DUP5 DUP5 PUSH2 0x406C JUMP JUMPDEST SWAP1 POP SWAP3 SWAP2 POP POP JUMP JUMPDEST PUSH1 0x0 PUSH2 0x4195 DUP3 PUSH2 0x2863 JUMP JUMPDEST SWAP2 POP PUSH2 0x41A0 DUP4 PUSH2 0x2863 JUMP JUMPDEST SWAP3 POP DUP3 DUP3 MUL PUSH2 0x41AE DUP2 PUSH2 0x2863 JUMP JUMPDEST SWAP2 POP DUP3 DUP3 DIV DUP5 EQ DUP4 ISZERO OR PUSH2 0x41C5 JUMPI PUSH2 0x41C4 PUSH2 0x34D3 JUMP JUMPDEST JUMPDEST POP SWAP3 SWAP2 POP POP JUMP JUMPDEST PUSH32 0x4E487B7100000000000000000000000000000000000000000000000000000000 PUSH1 0x0 MSTORE PUSH1 0x12 PUSH1 0x4 MSTORE PUSH1 0x24 PUSH1 0x0 REVERT JUMPDEST PUSH1 0x0 PUSH2 0x4206 DUP3 PUSH2 0x2863 JUMP JUMPDEST SWAP2 POP PUSH2 0x4211 DUP4 PUSH2 0x2863 JUMP JUMPDEST SWAP3 POP DUP3 PUSH2 0x4221 JUMPI PUSH2 0x4220 PUSH2 0x41CC JUMP JUMPDEST JUMPDEST DUP3 DUP3 DIV SWAP1 POP SWAP3 SWAP2 POP POP JUMP JUMPDEST PUSH32 0x4C7A4170703A2064657374696E6174696F6E20636861696E206973206E6F7420 PUSH1 0x0 DUP3 ADD MSTORE PUSH32 0x61207472757374656420736F7572636500000000000000000000000000000000 PUSH1 0x20 DUP3 ADD MSTORE POP JUMP JUMPDEST PUSH1 0x0 PUSH2 0x4288 PUSH1 0x30 DUP4 PUSH2 0x2F64 JUMP JUMPDEST SWAP2 POP PUSH2 0x4293 DUP3 PUSH2 0x422C JUMP JUMPDEST PUSH1 0x40 DUP3 ADD SWAP1 POP SWAP2 SWAP1 POP JUMP JUMPDEST PUSH1 0x0 PUSH1 0x20 DUP3 ADD SWAP1 POP DUP2 DUP2 SUB PUSH1 0x0 DUP4 ADD MSTORE PUSH2 0x42B7 DUP2 PUSH2 0x427B JUMP JUMPDEST SWAP1 POP SWAP2 SWAP1 POP JUMP JUMPDEST PUSH1 0x0 PUSH2 0x42C9 DUP3 PUSH2 0x27DA JUMP JUMPDEST SWAP1 POP SWAP2 SWAP1 POP JUMP JUMPDEST PUSH2 0x42D9 DUP2 PUSH2 0x42BE JUMP JUMPDEST DUP3 MSTORE POP POP JUMP JUMPDEST PUSH1 0x0 PUSH1 0xC0 DUP3 ADD SWAP1 POP PUSH2 0x42F4 PUSH1 0x0 DUP4 ADD DUP10 PUSH2 0x311C JUMP JUMPDEST DUP2 DUP2 SUB PUSH1 0x20 DUP4 ADD MSTORE PUSH2 0x4306 DUP2 DUP9 PUSH2 0x2C7D JUMP JUMPDEST SWAP1 POP DUP2 DUP2 SUB PUSH1 0x40 DUP4 ADD MSTORE PUSH2 0x431A DUP2 DUP8 PUSH2 0x2C7D JUMP JUMPDEST SWAP1 POP PUSH2 0x4329 PUSH1 0x60 DUP4 ADD DUP7 PUSH2 0x42D0 JUMP JUMPDEST PUSH2 0x4336 PUSH1 0x80 DUP4 ADD DUP6 PUSH2 0x280C JUMP JUMPDEST DUP2 DUP2 SUB PUSH1 0xA0 DUP4 ADD MSTORE PUSH2 0x4348 DUP2 DUP5 PUSH2 0x2C7D JUMP JUMPDEST SWAP1 POP SWAP8 SWAP7 POP POP POP POP POP POP POP JUMP JUMPDEST PUSH1 0x0 DUP2 MLOAD SWAP1 POP PUSH2 0x4364 DUP2 PUSH2 0x286D JUMP JUMPDEST SWAP3 SWAP2 POP POP JUMP JUMPDEST PUSH2 0x4373 DUP2 PUSH2 0x42BE JUMP JUMPDEST DUP2 EQ PUSH2 0x437E JUMPI PUSH1 0x0 DUP1 REVERT JUMPDEST POP JUMP JUMPDEST PUSH1 0x0 DUP2 MLOAD SWAP1 POP PUSH2 0x4390 DUP2 PUSH2 0x436A JUMP JUMPDEST SWAP3 SWAP2 POP POP JUMP JUMPDEST PUSH1 0x0 DUP1 PUSH1 0x40 DUP4 DUP6 SUB SLT ISZERO PUSH2 0x43AD JUMPI PUSH2 0x43AC PUSH2 0x264A JUMP JUMPDEST JUMPDEST PUSH1 0x0 PUSH2 0x43BB DUP6 DUP3 DUP7 ADD PUSH2 0x4355 JUMP JUMPDEST SWAP3 POP POP PUSH1 0x20 PUSH2 0x43CC DUP6 DUP3 DUP7 ADD PUSH2 0x4381 JUMP JUMPDEST SWAP2 POP POP SWAP3 POP SWAP3 SWAP1 POP JUMP JUMPDEST PUSH1 0x0 PUSH2 0x43E1 DUP3 PUSH2 0x2863 JUMP JUMPDEST SWAP2 POP PUSH2 0x43EC DUP4 PUSH2 0x2863 JUMP JUMPDEST SWAP3 POP DUP3 DUP3 ADD SWAP1 POP DUP1 DUP3 GT ISZERO PUSH2 0x4404 JUMPI PUSH2 0x4403 PUSH2 0x34D3 JUMP JUMPDEST JUMPDEST SWAP3 SWAP2 POP POP JUMP JUMPDEST PUSH32 0x736C6963655F6F766572666C6F77000000000000000000000000000000000000 PUSH1 0x0 DUP3 ADD MSTORE POP JUMP JUMPDEST PUSH1 0x0 PUSH2 0x4440 PUSH1 0xE DUP4 PUSH2 0x2F64 JUMP JUMPDEST SWAP2 POP PUSH2 0x444B DUP3 PUSH2 0x440A JUMP JUMPDEST PUSH1 0x20 DUP3 ADD SWAP1 POP SWAP2 SWAP1 POP JUMP JUMPDEST PUSH1 0x0 PUSH1 0x20 DUP3 ADD SWAP1 POP DUP2 DUP2 SUB PUSH1 0x0 DUP4 ADD MSTORE PUSH2 0x446F DUP2 PUSH2 0x4433 JUMP JUMPDEST SWAP1 POP SWAP2 SWAP1 POP JUMP JUMPDEST PUSH32 0x736C6963655F6F75744F66426F756E6473000000000000000000000000000000 PUSH1 0x0 DUP3 ADD MSTORE POP JUMP JUMPDEST PUSH1 0x0 PUSH2 0x44AC PUSH1 0x11 DUP4 PUSH2 0x2F64 JUMP JUMPDEST SWAP2 POP PUSH2 0x44B7 DUP3 PUSH2 0x4476 JUMP JUMPDEST PUSH1 0x20 DUP3 ADD SWAP1 POP SWAP2 SWAP1 POP JUMP JUMPDEST PUSH1 0x0 PUSH1 0x20 DUP3 ADD SWAP1 POP DUP2 DUP2 SUB PUSH1 0x0 DUP4 ADD MSTORE PUSH2 0x44DB DUP2 PUSH2 0x449F JUMP JUMPDEST SWAP1 POP SWAP2 SWAP1 POP JUMP JUMPDEST PUSH1 0x0 PUSH2 0x44ED DUP3 PUSH2 0x2C37 JUMP JUMPDEST PUSH2 0x44F7 DUP2 DUP6 PUSH2 0x3041 JUMP JUMPDEST SWAP4 POP PUSH2 0x4507 DUP2 DUP6 PUSH1 0x20 DUP7 ADD PUSH2 0x2C53 JUMP JUMPDEST DUP1 DUP5 ADD SWAP2 POP POP SWAP3 SWAP2 POP POP JUMP JUMPDEST PUSH1 0x0 PUSH2 0x451F DUP3 DUP5 PUSH2 0x44E2 JUMP JUMPDEST SWAP2 POP DUP2 SWAP1 POP SWAP3 SWAP2 POP POP JUMP JUMPDEST PUSH1 0x0 PUSH1 0xA0 DUP3 ADD SWAP1 POP PUSH2 0x453F PUSH1 0x0 DUP4 ADD DUP9 PUSH2 0x311C JUMP JUMPDEST DUP2 DUP2 SUB PUSH1 0x20 DUP4 ADD MSTORE PUSH2 0x4551 DUP2 DUP8 PUSH2 0x2C7D JUMP JUMPDEST SWAP1 POP PUSH2 0x4560 PUSH1 0x40 DUP4 ADD DUP7 PUSH2 0x3946 JUMP JUMPDEST DUP2 DUP2 SUB PUSH1 0x60 DUP4 ADD MSTORE PUSH2 0x4572 DUP2 DUP6 PUSH2 0x2C7D JUMP JUMPDEST SWAP1 POP DUP2 DUP2 SUB PUSH1 0x80 DUP4 ADD MSTORE PUSH2 0x4586 DUP2 DUP5 PUSH2 0x2C7D JUMP JUMPDEST SWAP1 POP SWAP7 SWAP6 POP POP POP POP POP POP JUMP JUMPDEST PUSH32 0x4C7A4170703A207061796C6F61642073697A6520697320746F6F206C61726765 PUSH1 0x0 DUP3 ADD MSTORE POP JUMP JUMPDEST PUSH1 0x0 PUSH2 0x45C8 PUSH1 0x20 DUP4 PUSH2 0x2F64 JUMP JUMPDEST SWAP2 POP PUSH2 0x45D3 DUP3 PUSH2 0x4592 JUMP JUMPDEST PUSH1 0x20 DUP3 ADD SWAP1 POP SWAP2 SWAP1 POP JUMP JUMPDEST PUSH1 0x0 PUSH1 0x20 DUP3 ADD SWAP1 POP DUP2 DUP2 SUB PUSH1 0x0 DUP4 ADD MSTORE PUSH2 0x45F7 DUP2 PUSH2 0x45BB JUMP JUMPDEST SWAP1 POP SWAP2 SWAP1 POP JUMP JUMPDEST PUSH2 0x4607 DUP2 PUSH2 0x27FA JUMP JUMPDEST DUP3 MSTORE POP POP JUMP JUMPDEST PUSH2 0x4616 DUP2 PUSH2 0x2E71 JUMP JUMPDEST DUP3 MSTORE POP POP JUMP JUMPDEST PUSH2 0x4625 DUP2 PUSH2 0x2863 JUMP JUMPDEST DUP3 MSTORE POP POP JUMP JUMPDEST PUSH2 0x4634 DUP2 PUSH2 0x27DA JUMP JUMPDEST DUP3 MSTORE POP POP JUMP JUMPDEST PUSH2 0x100 DUP3 ADD PUSH1 0x0 DUP3 ADD MLOAD PUSH2 0x4651 PUSH1 0x0 DUP6 ADD DUP3 PUSH2 0x45FE JUMP JUMPDEST POP PUSH1 0x20 DUP3 ADD MLOAD PUSH2 0x4664 PUSH1 0x20 DUP6 ADD DUP3 PUSH2 0x45FE JUMP JUMPDEST POP PUSH1 0x40 DUP3 ADD MLOAD PUSH2 0x4677 PUSH1 0x40 DUP6 ADD DUP3 PUSH2 0x460D JUMP JUMPDEST POP PUSH1 0x60 DUP3 ADD MLOAD PUSH2 0x468A PUSH1 0x60 DUP6 ADD DUP3 PUSH2 0x45FE JUMP JUMPDEST POP PUSH1 0x80 DUP3 ADD MLOAD PUSH2 0x469D PUSH1 0x80 DUP6 ADD DUP3 PUSH2 0x461C JUMP JUMPDEST POP PUSH1 0xA0 DUP3 ADD MLOAD PUSH2 0x46B0 PUSH1 0xA0 DUP6 ADD DUP3 PUSH2 0x461C JUMP JUMPDEST POP PUSH1 0xC0 DUP3 ADD MLOAD PUSH2 0x46C3 PUSH1 0xC0 DUP6 ADD DUP3 PUSH2 0x461C JUMP JUMPDEST POP PUSH1 0xE0 DUP3 ADD MLOAD PUSH2 0x46D6 PUSH1 0xE0 DUP6 ADD DUP3 PUSH2 0x462B JUMP JUMPDEST POP POP POP POP JUMP JUMPDEST PUSH1 0x0 PUSH2 0x100 DUP3 ADD SWAP1 POP PUSH2 0x46F2 PUSH1 0x0 DUP4 ADD DUP5 PUSH2 0x463A JUMP JUMPDEST SWAP3 SWAP2 POP POP JUMP JUMPDEST PUSH1 0x0 PUSH1 0x20 DUP3 DUP5 SUB SLT ISZERO PUSH2 0x470E JUMPI PUSH2 0x470D PUSH2 0x264A JUMP JUMPDEST JUMPDEST PUSH1 0x0 PUSH2 0x471C DUP5 DUP3 DUP6 ADD PUSH2 0x4355 JUMP JUMPDEST SWAP2 POP POP SWAP3 SWAP2 POP POP JUMP INVALID LOG2 PUSH5 0x6970667358 0x22 SLT KECCAK256 0xA8 0xDE 0xEF 0x28 0x2E SELFBALANCE 0x5D ORIGIN PUSH1 0x25 0xCA SHR 0xCD 0xB2 PUSH16 0x3CD5A71519DE9C9677989AA0D045011 ORIGIN PUSH5 0x736F6C6343 STOP ADDMOD SGT STOP CALLER "},"methodIdentifiers":{"DEFAULT_PAYLOAD_SIZE_LIMIT()":"c4461834","POOL_FEE()":"dd1b9c4a","bridgeToken(uint256,uint16)":"1b175c9c","failedMessages(uint16,bytes,uint64)":"5b8c41e6","forceResumeReceive(uint16,bytes)":"42d65a8d","getConfig(uint16,uint16,address,uint256)":"f5ecbdbc","getContractBalanceNatve()":"dffc4bfc","getTrustedRemoteAddress(uint16)":"9f38369a","isTrustedRemote(uint16,bytes)":"3d8b38f6","lzEndpoint()":"b353aaa7","lzReceive(uint16,bytes,uint64,bytes)":"001d3567","minDstGasLookup(uint16,uint16)":"8cfd8f5c","nonblockingLzReceive(uint16,bytes,uint64,bytes)":"66ad5c8a","owner()":"8da5cb5b","payloadSizeLimitLookup(uint16)":"3f1f4fa4","precrime()":"950c8a74","priceFeedAddress()":"e0abca0b","renounceOwnership()":"715018a6","retryMessage(uint16,bytes,uint64,bytes)":"d1deba1f","setConfig(uint16,uint16,uint256,bytes)":"cbed8b9c","setMinDstGas(uint16,uint16,uint256)":"df2a5b3b","setPayloadSizeLimit(uint16,uint256)":"0df37483","setPrecrime(address)":"baf3292d","setReceiveVersion(uint16)":"10ddb137","setSendVersion(uint16)":"07e0db17","setTrustedRemote(uint16,bytes)":"eb8d72b7","setTrustedRemoteAddress(uint16,bytes)":"a6c3d165","stableAssetAddressUSDC()":"fb2134d9","swapRouter()":"c31c9c07","transferOwnership(address)":"f2fde38b","trustedRemoteLookup(uint16)":"7533d788","uniswapV3Factory()":"5b549182","withdrawNative()":"50431ce4","wrappedAssetAddressNative()":"0563d1ac"}}}}}