{"contracts/TokenBridgeHyper.sol":{"TokenBridgeHyper":{"abi":[{"inputs":[{"internalType":"address","name":"_endpoint","type":"address"},{"internalType":"contract ISwapRouter","name":"_swapRouter","type":"address"},{"internalType":"contract IUniswapV2Router01","name":"_swapRouter2","type":"address"},{"internalType":"address","name":"_stableAssetAddressUSDC","type":"address"},{"internalType":"address","name":"_wrappedAssetAddressNative","type":"address"},{"internalType":"contract IUniswapV3Factory","name":"_uniswapV3Factory","type":"address"}],"stateMutability":"nonpayable","type":"constructor"},{"anonymous":false,"inputs":[{"indexed":false,"internalType":"uint16","name":"_srcChainId","type":"uint16"},{"indexed":false,"internalType":"bytes","name":"_srcAddress","type":"bytes"},{"indexed":false,"internalType":"uint64","name":"_nonce","type":"uint64"},{"indexed":false,"internalType":"bytes","name":"_payload","type":"bytes"},{"indexed":false,"internalType":"bytes","name":"_reason","type":"bytes"}],"name":"MessageFailed","type":"event"},{"anonymous":false,"inputs":[{"indexed":true,"internalType":"address","name":"previousOwner","type":"address"},{"indexed":true,"internalType":"address","name":"newOwner","type":"address"}],"name":"OwnershipTransferred","type":"event"},{"anonymous":false,"inputs":[{"indexed":false,"internalType":"uint16","name":"_srcChainId","type":"uint16"},{"indexed":false,"internalType":"bytes","name":"_srcAddress","type":"bytes"},{"indexed":false,"internalType":"uint64","name":"_nonce","type":"uint64"},{"indexed":false,"internalType":"bytes32","name":"_payloadHash","type":"bytes32"}],"name":"RetryMessageSuccess","type":"event"},{"anonymous":false,"inputs":[{"indexed":false,"internalType":"uint16","name":"_dstChainId","type":"uint16"},{"indexed":false,"internalType":"uint16","name":"_type","type":"uint16"},{"indexed":false,"internalType":"uint256","name":"_minDstGas","type":"uint256"}],"name":"SetMinDstGas","type":"event"},{"anonymous":false,"inputs":[{"indexed":false,"internalType":"address","name":"precrime","type":"address"}],"name":"SetPrecrime","type":"event"},{"anonymous":false,"inputs":[{"indexed":false,"internalType":"uint16","name":"_remoteChainId","type":"uint16"},{"indexed":false,"internalType":"bytes","name":"_path","type":"bytes"}],"name":"SetTrustedRemote","type":"event"},{"anonymous":false,"inputs":[{"indexed":false,"internalType":"uint16","name":"_remoteChainId","type":"uint16"},{"indexed":false,"internalType":"bytes","name":"_remoteAddress","type":"bytes"}],"name":"SetTrustedRemoteAddress","type":"event"},{"inputs":[],"name":"DEFAULT_PAYLOAD_SIZE_LIMIT","outputs":[{"internalType":"uint256","name":"","type":"uint256"}],"stateMutability":"view","type":"function"},{"inputs":[],"name":"POOL_FEE","outputs":[{"internalType":"uint24","name":"","type":"uint24"}],"stateMutability":"view","type":"function"},{"inputs":[{"internalType":"uint256","name":"_amount","type":"uint256"},{"internalType":"uint16","name":"_dstChainId","type":"uint16"}],"name":"bridgeToken","outputs":[],"stateMutability":"payable","type":"function"},{"inputs":[{"internalType":"uint16","name":"","type":"uint16"},{"internalType":"bytes","name":"","type":"bytes"},{"internalType":"uint64","name":"","type":"uint64"}],"name":"failedMessages","outputs":[{"internalType":"bytes32","name":"","type":"bytes32"}],"stateMutability":"view","type":"function"},{"inputs":[{"internalType":"uint16","name":"_srcChainId","type":"uint16"},{"internalType":"bytes","name":"_srcAddress","type":"bytes"}],"name":"forceResumeReceive","outputs":[],"stateMutability":"nonpayable","type":"function"},{"inputs":[{"internalType":"uint16","name":"_version","type":"uint16"},{"internalType":"uint16","name":"_chainId","type":"uint16"},{"internalType":"address","name":"","type":"address"},{"internalType":"uint256","name":"_configType","type":"uint256"}],"name":"getConfig","outputs":[{"internalType":"bytes","name":"","type":"bytes"}],"stateMutability":"view","type":"function"},{"inputs":[],"name":"getContractBalanceNatve","outputs":[{"internalType":"uint256","name":"","type":"uint256"}],"stateMutability":"view","type":"function"},{"inputs":[{"internalType":"uint16","name":"_remoteChainId","type":"uint16"}],"name":"getTrustedRemoteAddress","outputs":[{"internalType":"bytes","name":"","type":"bytes"}],"stateMutability":"view","type":"function"},{"inputs":[{"internalType":"uint16","name":"_srcChainId","type":"uint16"},{"internalType":"bytes","name":"_srcAddress","type":"bytes"}],"name":"isTrustedRemote","outputs":[{"internalType":"bool","name":"","type":"bool"}],"stateMutability":"view","type":"function"},{"inputs":[],"name":"lzEndpoint","outputs":[{"internalType":"contract ILayerZeroEndpoint","name":"","type":"address"}],"stateMutability":"view","type":"function"},{"inputs":[{"internalType":"uint16","name":"_srcChainId","type":"uint16"},{"internalType":"bytes","name":"_srcAddress","type":"bytes"},{"internalType":"uint64","name":"_nonce","type":"uint64"},{"internalType":"bytes","name":"_payload","type":"bytes"}],"name":"lzReceive","outputs":[],"stateMutability":"nonpayable","type":"function"},{"inputs":[{"internalType":"uint16","name":"","type":"uint16"},{"internalType":"uint16","name":"","type":"uint16"}],"name":"minDstGasLookup","outputs":[{"internalType":"uint256","name":"","type":"uint256"}],"stateMutability":"view","type":"function"},{"inputs":[{"internalType":"uint16","name":"_srcChainId","type":"uint16"},{"internalType":"bytes","name":"_srcAddress","type":"bytes"},{"internalType":"uint64","name":"_nonce","type":"uint64"},{"internalType":"bytes","name":"_payload","type":"bytes"}],"name":"nonblockingLzReceive","outputs":[],"stateMutability":"nonpayable","type":"function"},{"inputs":[],"name":"owner","outputs":[{"internalType":"address","name":"","type":"address"}],"stateMutability":"view","type":"function"},{"inputs":[{"internalType":"uint16","name":"","type":"uint16"}],"name":"payloadSizeLimitLookup","outputs":[{"internalType":"uint256","name":"","type":"uint256"}],"stateMutability":"view","type":"function"},{"inputs":[],"name":"precrime","outputs":[{"internalType":"address","name":"","type":"address"}],"stateMutability":"view","type":"function"},{"inputs":[],"name":"priceFeedAddress","outputs":[{"internalType":"address","name":"","type":"address"}],"stateMutability":"view","type":"function"},{"inputs":[],"name":"renounceOwnership","outputs":[],"stateMutability":"nonpayable","type":"function"},{"inputs":[{"internalType":"uint16","name":"_srcChainId","type":"uint16"},{"internalType":"bytes","name":"_srcAddress","type":"bytes"},{"internalType":"uint64","name":"_nonce","type":"uint64"},{"internalType":"bytes","name":"_payload","type":"bytes"}],"name":"retryMessage","outputs":[],"stateMutability":"payable","type":"function"},{"inputs":[{"internalType":"uint16","name":"_version","type":"uint16"},{"internalType":"uint16","name":"_chainId","type":"uint16"},{"internalType":"uint256","name":"_configType","type":"uint256"},{"internalType":"bytes","name":"_config","type":"bytes"}],"name":"setConfig","outputs":[],"stateMutability":"nonpayable","type":"function"},{"inputs":[{"internalType":"uint16","name":"_dstChainId","type":"uint16"},{"internalType":"uint16","name":"_packetType","type":"uint16"},{"internalType":"uint256","name":"_minGas","type":"uint256"}],"name":"setMinDstGas","outputs":[],"stateMutability":"nonpayable","type":"function"},{"inputs":[{"internalType":"uint16","name":"_dstChainId","type":"uint16"},{"internalType":"uint256","name":"_size","type":"uint256"}],"name":"setPayloadSizeLimit","outputs":[],"stateMutability":"nonpayable","type":"function"},{"inputs":[{"internalType":"address","name":"_precrime","type":"address"}],"name":"setPrecrime","outputs":[],"stateMutability":"nonpayable","type":"function"},{"inputs":[{"internalType":"uint16","name":"_version","type":"uint16"}],"name":"setReceiveVersion","outputs":[],"stateMutability":"nonpayable","type":"function"},{"inputs":[{"internalType":"uint16","name":"_version","type":"uint16"}],"name":"setSendVersion","outputs":[],"stateMutability":"nonpayable","type":"function"},{"inputs":[{"internalType":"uint16","name":"_remoteChainId","type":"uint16"},{"internalType":"bytes","name":"_path","type":"bytes"}],"name":"setTrustedRemote","outputs":[],"stateMutability":"nonpayable","type":"function"},{"inputs":[{"internalType":"uint16","name":"_remoteChainId","type":"uint16"},{"internalType":"bytes","name":"_remoteAddress","type":"bytes"}],"name":"setTrustedRemoteAddress","outputs":[],"stateMutability":"nonpayable","type":"function"},{"inputs":[],"name":"stableAssetAddressUSDC","outputs":[{"internalType":"address","name":"","type":"address"}],"stateMutability":"view","type":"function"},{"inputs":[],"name":"swapRouter","outputs":[{"internalType":"contract ISwapRouter","name":"","type":"address"}],"stateMutability":"view","type":"function"},{"inputs":[],"name":"swapRouter2","outputs":[{"internalType":"contract IUniswapV2Router01","name":"","type":"address"}],"stateMutability":"view","type":"function"},{"inputs":[{"internalType":"address","name":"newOwner","type":"address"}],"name":"transferOwnership","outputs":[],"stateMutability":"nonpayable","type":"function"},{"inputs":[{"internalType":"uint16","name":"","type":"uint16"}],"name":"trustedRemoteLookup","outputs":[{"internalType":"bytes","name":"","type":"bytes"}],"stateMutability":"view","type":"function"},{"inputs":[],"name":"uniswapV3Factory","outputs":[{"internalType":"contract IUniswapV3Factory","name":"","type":"address"}],"stateMutability":"view","type":"function"},{"inputs":[],"name":"withdrawNative","outputs":[],"stateMutability":"nonpayable","type":"function"},{"inputs":[],"name":"wrappedAssetAddressNative","outputs":[{"internalType":"address","name":"","type":"address"}],"stateMutability":"view","type":"function"},{"stateMutability":"payable","type":"receive"}],"evm":{"bytecode":{"linkReferences":{},"object":"6101006040523480156200001257600080fd5b50604051620041fb380380620041fb8339818101604052810190620000389190620003bf565b85806200005a6200004e620001ba60201b60201c565b620001c260201b60201c565b8073ffffffffffffffffffffffffffffffffffffffff1660808173ffffffffffffffffffffffffffffffffffffffff168152505050508473ffffffffffffffffffffffffffffffffffffffff1660a08173ffffffffffffffffffffffffffffffffffffffff16815250508373ffffffffffffffffffffffffffffffffffffffff1660c08173ffffffffffffffffffffffffffffffffffffffff168152505082600760006101000a81548173ffffffffffffffffffffffffffffffffffffffff021916908373ffffffffffffffffffffffffffffffffffffffff16021790555081600860006101000a81548173ffffffffffffffffffffffffffffffffffffffff021916908373ffffffffffffffffffffffffffffffffffffffff1602179055508073ffffffffffffffffffffffffffffffffffffffff1660e08173ffffffffffffffffffffffffffffffffffffffff16815250505050505050506200045b565b600033905090565b60008060009054906101000a900473ffffffffffffffffffffffffffffffffffffffff169050816000806101000a81548173ffffffffffffffffffffffffffffffffffffffff021916908373ffffffffffffffffffffffffffffffffffffffff1602179055508173ffffffffffffffffffffffffffffffffffffffff168173ffffffffffffffffffffffffffffffffffffffff167f8be0079c531659141344cd1fd0a4f28419497f9722a3daafe3b4186f6b6457e060405160405180910390a35050565b600080fd5b600073ffffffffffffffffffffffffffffffffffffffff82169050919050565b6000620002b8826200028b565b9050919050565b620002ca81620002ab565b8114620002d657600080fd5b50565b600081519050620002ea81620002bf565b92915050565b6000620002fd82620002ab565b9050919050565b6200030f81620002f0565b81146200031b57600080fd5b50565b6000815190506200032f8162000304565b92915050565b60006200034282620002ab565b9050919050565b620003548162000335565b81146200036057600080fd5b50565b600081519050620003748162000349565b92915050565b60006200038782620002ab565b9050919050565b62000399816200037a565b8114620003a557600080fd5b50565b600081519050620003b9816200038e565b92915050565b60008060008060008060c08789031215620003df57620003de62000286565b5b6000620003ef89828a01620002d9565b96505060206200040289828a016200031e565b95505060406200041589828a0162000363565b94505060606200042889828a01620002d9565b93505060806200043b89828a01620002d9565b92505060a06200044e89828a01620003a8565b9150509295509295509295565b60805160a05160c05160e051613d35620004c66000396000610ee90152600061140c015260006113e201526000818161081601528181610a9a01528181610b5c01528181610d980152818161133b01528181611438015281816119050152611c220152613d356000f3fe6080604052600436106102075760003560e01c8063950c8a7411610118578063d1deba1f116100a0578063e0abca0b1161006f578063e0abca0b1461072f578063eb8d72b71461075a578063f2fde38b14610783578063f5ecbdbc146107ac578063fb2134d9146107e95761020e565b8063d1deba1f14610694578063dd1b9c4a146106b0578063df2a5b3b146106db578063dffc4bfc146107045761020e565b8063baf3292d116100e7578063baf3292d146105c1578063c31c9c07146105ea578063c446183414610615578063cb35118814610640578063cbed8b9c1461066b5761020e565b8063950c8a74146105055780639f38369a14610530578063a6c3d1651461056d578063b353aaa7146105965761020e565b806342d65a8d1161019b57806366ad5c8a1161016a57806366ad5c8a14610420578063715018a6146104495780637533d788146104605780638cfd8f5c1461049d5780638da5cb5b146104da5761020e565b806342d65a8d1461037857806350431ce4146103a15780635b549182146103b85780635b8c41e6146103e35761020e565b806310ddb137116101d757806310ddb137146102b95780631b175c9c146102e25780633d8b38f6146102fe5780633f1f4fa41461033b5761020e565b80621d3567146102135780630563d1ac1461023c57806307e0db17146102675780630df37483146102905761020e565b3661020e57005b600080fd5b34801561021f57600080fd5b5061023a60048036038101906102359190612232565b610814565b005b34801561024857600080fd5b50610251610a6a565b60405161025e919061231a565b60405180910390f35b34801561027357600080fd5b5061028e60048036038101906102899190612335565b610a90565b005b34801561029c57600080fd5b506102b760048036038101906102b29190612398565b610b26565b005b3480156102c557600080fd5b506102e060048036038101906102db9190612335565b610b52565b005b6102fc60048036038101906102f791906123d8565b610be8565b005b34801561030a57600080fd5b5061032560048036038101906103209190612418565b610ca2565b6040516103329190612493565b60405180910390f35b34801561034757600080fd5b50610362600480360381019061035d9190612335565b610d76565b60405161036f91906124bd565b60405180910390f35b34801561038457600080fd5b5061039f600480360381019061039a9190612418565b610d8e565b005b3480156103ad57600080fd5b506103b6610e2a565b005b3480156103c457600080fd5b506103cd610ee7565b6040516103da9190612537565b60405180910390f35b3480156103ef57600080fd5b5061040a60048036038101906104059190612693565b610f0b565b604051610417919061271b565b60405180910390f35b34801561042c57600080fd5b5061044760048036038101906104429190612232565b610f53565b005b34801561045557600080fd5b5061045e611064565b005b34801561046c57600080fd5b5061048760048036038101906104829190612335565b611078565b60405161049491906127b5565b60405180910390f35b3480156104a957600080fd5b506104c460048036038101906104bf91906127d7565b611118565b6040516104d191906124bd565b60405180910390f35b3480156104e657600080fd5b506104ef61113d565b6040516104fc919061231a565b60405180910390f35b34801561051157600080fd5b5061051a611166565b604051610527919061231a565b60405180910390f35b34801561053c57600080fd5b5061055760048036038101906105529190612335565b61118c565b60405161056491906127b5565b60405180910390f35b34801561057957600080fd5b50610594600480360381019061058f9190612418565b6112a5565b005b3480156105a257600080fd5b506105ab611339565b6040516105b89190612838565b60405180910390f35b3480156105cd57600080fd5b506105e860048036038101906105e3919061287f565b61135d565b005b3480156105f657600080fd5b506105ff6113e0565b60405161060c91906128cd565b60405180910390f35b34801561062157600080fd5b5061062a611404565b60405161063791906124bd565b60405180910390f35b34801561064c57600080fd5b5061065561140a565b6040516106629190612909565b60405180910390f35b34801561067757600080fd5b50610692600480360381019061068d9190612924565b61142e565b005b6106ae60048036038101906106a99190612232565b6114d0565b005b3480156106bc57600080fd5b506106c5611713565b6040516106d291906129ca565b60405180910390f35b3480156106e757600080fd5b5061070260048036038101906106fd91906129e5565b611719565b005b34801561071057600080fd5b506107196117dd565b60405161072691906124bd565b60405180910390f35b34801561073b57600080fd5b506107446117e5565b604051610751919061231a565b60405180910390f35b34801561076657600080fd5b50610781600480360381019061077c9190612418565b61180b565b005b34801561078f57600080fd5b506107aa60048036038101906107a5919061287f565b61187e565b005b3480156107b857600080fd5b506107d360048036038101906107ce9190612a38565b611901565b6040516107e091906127b5565b60405180910390f35b3480156107f557600080fd5b506107fe6119b2565b60405161080b919061231a565b60405180910390f35b7f000000000000000000000000000000000000000000000000000000000000000073ffffffffffffffffffffffffffffffffffffffff166108536119d8565b73ffffffffffffffffffffffffffffffffffffffff16146108a9576040517f08c379a00000000000000000000000000000000000000000000000000000000081526004016108a090612afc565b60405180910390fd5b6000600160008861ffff1661ffff16815260200190815260200160002080546108d190612b4b565b80601f01602080910402602001604051908101604052809291908181526020018280546108fd90612b4b565b801561094a5780601f1061091f5761010080835404028352916020019161094a565b820191906000526020600020905b81548152906001019060200180831161092d57829003601f168201915b50505050509050805186869050148015610965575060008151115b801561098e575080805190602001208686604051610984929190612bac565b6040518091039020145b6109cd576040517f08c379a00000000000000000000000000000000000000000000000000000000081526004016109c490612c37565b60405180910390fd5b610a618787878080601f016020809104026020016040519081016040528093929190818152602001838380828437600081840152601f19601f820116905080830192505050505050508686868080601f016020809104026020016040519081016040528093929190818152602001838380828437600081840152601f19601f820116905080830192505050505050506119e0565b50505050505050565b600860009054906101000a900473ffffffffffffffffffffffffffffffffffffffff1681565b610a98611aab565b7f000000000000000000000000000000000000000000000000000000000000000073ffffffffffffffffffffffffffffffffffffffff166307e0db17826040518263ffffffff1660e01b8152600401610af19190612c66565b600060405180830381600087803b158015610b0b57600080fd5b505af1158015610b1f573d6000803e3d6000fd5b5050505050565b610b2e611aab565b80600360008461ffff1661ffff168152602001908152602001600020819055505050565b610b5a611aab565b7f000000000000000000000000000000000000000000000000000000000000000073ffffffffffffffffffffffffffffffffffffffff166310ddb137826040518263ffffffff1660e01b8152600401610bb39190612c66565b600060405180830381600087803b158015610bcd57600080fd5b505af1158015610be1573d6000803e3d6000fd5b5050505050565b81341015610c2b576040517f08c379a0000000000000000000000000000000000000000000000000000000008152600401610c2290612cf3565b60405180910390fd5b600082905060008133604051602001610c45929190612d7c565b6040516020818303038152906040529050600060019050600062055730905060008282604051602001610c79929190612dde565b6040516020818303038152906040529050610c9986853060008534611b29565b50505050505050565b600080600160008661ffff1661ffff1681526020019081526020016000208054610ccb90612b4b565b80601f0160208091040260200160405190810160405280929190818152602001828054610cf790612b4b565b8015610d445780601f10610d1957610100808354040283529160200191610d44565b820191906000526020600020905b815481529060010190602001808311610d2757829003601f168201915b505050505090508383604051610d5b929190612bac565b60405180910390208180519060200120149150509392505050565b60036020528060005260406000206000915090505481565b610d96611aab565b7f000000000000000000000000000000000000000000000000000000000000000073ffffffffffffffffffffffffffffffffffffffff166342d65a8d8484846040518463ffffffff1660e01b8152600401610df393929190612e37565b600060405180830381600087803b158015610e0d57600080fd5b505af1158015610e21573d6000803e3d6000fd5b50505050505050565b610e32611aab565b600047905060003373ffffffffffffffffffffffffffffffffffffffff1682604051610e5d90612e8f565b60006040518083038185875af1925050503d8060008114610e9a576040519150601f19603f3d011682016040523d82523d6000602084013e610e9f565b606091505b5050905080610ee3576040517f08c379a0000000000000000000000000000000000000000000000000000000008152600401610eda90612ef0565b60405180910390fd5b5050565b7f000000000000000000000000000000000000000000000000000000000000000081565b60056020528260005260406000208280516020810182018051848252602083016020850120818352809550505050505060205280600052604060002060009250925050505481565b3073ffffffffffffffffffffffffffffffffffffffff16610f726119d8565b73ffffffffffffffffffffffffffffffffffffffff1614610fc8576040517f08c379a0000000000000000000000000000000000000000000000000000000008152600401610fbf90612f82565b60405180910390fd5b61105c8686868080601f016020809104026020016040519081016040528093929190818152602001838380828437600081840152601f19601f820116905080830192505050505050508585858080601f016020809104026020016040519081016040528093929190818152602001838380828437600081840152601f19601f82011690508083019250505050505050611cbf565b505050505050565b61106c611aab565b6110766000611cfc565b565b6001602052806000526040600020600091509050805461109790612b4b565b80601f01602080910402602001604051908101604052809291908181526020018280546110c390612b4b565b80156111105780601f106110e557610100808354040283529160200191611110565b820191906000526020600020905b8154815290600101906020018083116110f357829003601f168201915b505050505081565b6002602052816000526040600020602052806000526040600020600091509150505481565b60008060009054906101000a900473ffffffffffffffffffffffffffffffffffffffff16905090565b600460009054906101000a900473ffffffffffffffffffffffffffffffffffffffff1681565b60606000600160008461ffff1661ffff16815260200190815260200160002080546111b690612b4b565b80601f01602080910402602001604051908101604052809291908181526020018280546111e290612b4b565b801561122f5780601f106112045761010080835404028352916020019161122f565b820191906000526020600020905b81548152906001019060200180831161121257829003601f168201915b50505050509050600081510361127a576040517f08c379a000000000000000000000000000000000000000000000000000000000815260040161127190612fee565b60405180910390fd5b61129d60006014835161128d919061303d565b83611dc09092919063ffffffff16565b915050919050565b6112ad611aab565b8181306040516020016112c293929190613071565b604051602081830303815290604052600160008561ffff1661ffff16815260200190815260200160002090816112f8919061323d565b507f8c0400cfe2d1199b1a725c78960bcc2a344d869b80590d0f2bd005db15a572ce83838360405161132c93929190612e37565b60405180910390a1505050565b7f000000000000000000000000000000000000000000000000000000000000000081565b611365611aab565b80600460006101000a81548173ffffffffffffffffffffffffffffffffffffffff021916908373ffffffffffffffffffffffffffffffffffffffff1602179055507f5db758e995a17ec1ad84bdef7e8c3293a0bd6179bcce400dff5d4c3d87db726b816040516113d5919061231a565b60405180910390a150565b7f000000000000000000000000000000000000000000000000000000000000000081565b61271081565b7f000000000000000000000000000000000000000000000000000000000000000081565b611436611aab565b7f000000000000000000000000000000000000000000000000000000000000000073ffffffffffffffffffffffffffffffffffffffff1663cbed8b9c86868686866040518663ffffffff1660e01b815260040161149795949392919061330f565b600060405180830381600087803b1580156114b157600080fd5b505af11580156114c5573d6000803e3d6000fd5b505050505050505050565b6000600560008861ffff1661ffff16815260200190815260200160002086866040516114fd929190612bac565b908152602001604051809103902060008567ffffffffffffffff1667ffffffffffffffff1681526020019081526020016000205490506000801b8103611578576040517f08c379a000000000000000000000000000000000000000000000000000000000815260040161156f906133cf565b60405180910390fd5b808383604051611589929190612bac565b6040518091039020146115d1576040517f08c379a00000000000000000000000000000000000000000000000000000000081526004016115c890613461565b60405180910390fd5b6000801b600560008961ffff1661ffff1681526020019081526020016000208787604051611600929190612bac565b908152602001604051809103902060008667ffffffffffffffff1667ffffffffffffffff168152602001908152602001600020819055506116cb8787878080601f016020809104026020016040519081016040528093929190818152602001838380828437600081840152601f19601f820116905080830192505050505050508686868080601f016020809104026020016040519081016040528093929190818152602001838380828437600081840152601f19601f82011690508083019250505050505050611cbf565b7fc264d91f3adc5588250e1551f547752ca0cfa8f6b530d243b9f9f4cab10ea8e58787878785604051611702959493929190613490565b60405180910390a150505050505050565b6101f481565b611721611aab565b60008111611764576040517f08c379a000000000000000000000000000000000000000000000000000000000815260040161175b9061352a565b60405180910390fd5b80600260008561ffff1661ffff16815260200190815260200160002060008461ffff1661ffff168152602001908152602001600020819055507f9d5c7c0b934da8fefa9c7760c98383778a12dfbfc0c3b3106518f43fb9508ac08383836040516117d09392919061354a565b60405180910390a1505050565b600047905090565b600660009054906101000a900473ffffffffffffffffffffffffffffffffffffffff1681565b611813611aab565b8181600160008661ffff1661ffff168152602001908152602001600020918261183d92919061358c565b507ffa41487ad5d6728f0b19276fa1eddc16558578f5109fc39d2dc33c3230470dab83838360405161187193929190612e37565b60405180910390a1505050565b611886611aab565b600073ffffffffffffffffffffffffffffffffffffffff168173ffffffffffffffffffffffffffffffffffffffff16036118f5576040517f08c379a00000000000000000000000000000000000000000000000000000000081526004016118ec906136ce565b60405180910390fd5b6118fe81611cfc565b50565b60607f000000000000000000000000000000000000000000000000000000000000000073ffffffffffffffffffffffffffffffffffffffff1663f5ecbdbc868630866040518563ffffffff1660e01b815260040161196294939291906136ee565b600060405180830381865afa15801561197f573d6000803e3d6000fd5b505050506040513d6000823e3d601f19601f820116820180604052508101906119a891906137a3565b9050949350505050565b600760009054906101000a900473ffffffffffffffffffffffffffffffffffffffff1681565b600033905090565b600080611a8c5a60966366ad5c8a60e01b89898989604051602401611a0894939291906137ec565b604051602081830303815290604052907bffffffffffffffffffffffffffffffffffffffffffffffffffffffff19166020820180517bffffffffffffffffffffffffffffffffffffffffffffffffffffffff83818316178352505050503073ffffffffffffffffffffffffffffffffffffffff16611ede909392919063ffffffff16565b9150915081611aa357611aa28686868685611f76565b5b505050505050565b611ab36119d8565b73ffffffffffffffffffffffffffffffffffffffff16611ad161113d565b73ffffffffffffffffffffffffffffffffffffffff1614611b27576040517f08c379a0000000000000000000000000000000000000000000000000000000008152600401611b1e9061388b565b60405180910390fd5b565b6000600160008861ffff1661ffff1681526020019081526020016000208054611b5190612b4b565b80601f0160208091040260200160405190810160405280929190818152602001828054611b7d90612b4b565b8015611bca5780601f10611b9f57610100808354040283529160200191611bca565b820191906000526020600020905b815481529060010190602001808311611bad57829003601f168201915b505050505090506000815103611c15576040517f08c379a0000000000000000000000000000000000000000000000000000000008152600401611c0c9061391d565b60405180910390fd5b611c20878751612024565b7f000000000000000000000000000000000000000000000000000000000000000073ffffffffffffffffffffffffffffffffffffffff1663c58031008389848a8a8a8a6040518863ffffffff1660e01b8152600401611c849695949392919061395e565b6000604051808303818588803b158015611c9d57600080fd5b505af1158015611cb1573d6000803e3d6000fd5b505050505050505050505050565b600060148401519050600085905060008084806020019051810190611ce49190613a15565b91509150611cf2828261209a565b5050505050505050565b60008060009054906101000a900473ffffffffffffffffffffffffffffffffffffffff169050816000806101000a81548173ffffffffffffffffffffffffffffffffffffffff021916908373ffffffffffffffffffffffffffffffffffffffff1602179055508173ffffffffffffffffffffffffffffffffffffffff168173ffffffffffffffffffffffffffffffffffffffff167f8be0079c531659141344cd1fd0a4f28419497f9722a3daafe3b4186f6b6457e060405160405180910390a35050565b606081601f83611dd09190613a55565b1015611e11576040517f08c379a0000000000000000000000000000000000000000000000000000000008152600401611e0890613ad5565b60405180910390fd5b8183611e1d9190613a55565b84511015611e60576040517f08c379a0000000000000000000000000000000000000000000000000000000008152600401611e5790613b41565b60405180910390fd5b6060821560008114611e815760405191506000825260208201604052611ed2565b6040519150601f8416801560200281840101858101878315602002848b0101015b81831015611ebf5780518352602083019250602081019050611ea2565b50868552601f19601f8301166040525050505b50809150509392505050565b6000606060008060008661ffff1667ffffffffffffffff811115611f0557611f04612568565b5b6040519080825280601f01601f191660200182016040528015611f375781602001600182028036833780820191505090505b50905060008087516020890160008d8df191503d925086831115611f59578692505b828152826000602083013e81819450945050505094509492505050565b8180519060200120600560008761ffff1661ffff16815260200190815260200160002085604051611fa79190613b92565b908152602001604051809103902060008567ffffffffffffffff1667ffffffffffffffff168152602001908152602001600020819055507fe183f33de2837795525b4792ca4cd60535bd77c53b7e7030060bfcf5734d6b0c8585858585604051612015959493929190613ba9565b60405180910390a15050505050565b6000600360008461ffff1661ffff168152602001908152602001600020549050600081036120525761271090505b80821115612095576040517f08c379a000000000000000000000000000000000000000000000000000000000815260040161208c90613c5d565b60405180910390fd5b505050565b600860009054906101000a900473ffffffffffffffffffffffffffffffffffffffff1673ffffffffffffffffffffffffffffffffffffffff1663a9059cbb82846040518363ffffffff1660e01b81526004016120f7929190613c7d565b6020604051808303816000875af1158015612116573d6000803e3d6000fd5b505050506040513d601f19601f8201168201806040525081019061213a9190613cd2565b505050565b6000604051905090565b600080fd5b600080fd5b600061ffff82169050919050565b61216a81612153565b811461217557600080fd5b50565b60008135905061218781612161565b92915050565b600080fd5b600080fd5b600080fd5b60008083601f8401126121b2576121b161218d565b5b8235905067ffffffffffffffff8111156121cf576121ce612192565b5b6020830191508360018202830111156121eb576121ea612197565b5b9250929050565b600067ffffffffffffffff82169050919050565b61220f816121f2565b811461221a57600080fd5b50565b60008135905061222c81612206565b92915050565b6000806000806000806080878903121561224f5761224e612149565b5b600061225d89828a01612178565b965050602087013567ffffffffffffffff81111561227e5761227d61214e565b5b61228a89828a0161219c565b9550955050604061229d89828a0161221d565b935050606087013567ffffffffffffffff8111156122be576122bd61214e565b5b6122ca89828a0161219c565b92509250509295509295509295565b600073ffffffffffffffffffffffffffffffffffffffff82169050919050565b6000612304826122d9565b9050919050565b612314816122f9565b82525050565b600060208201905061232f600083018461230b565b92915050565b60006020828403121561234b5761234a612149565b5b600061235984828501612178565b91505092915050565b6000819050919050565b61237581612362565b811461238057600080fd5b50565b6000813590506123928161236c565b92915050565b600080604083850312156123af576123ae612149565b5b60006123bd85828601612178565b92505060206123ce85828601612383565b9150509250929050565b600080604083850312156123ef576123ee612149565b5b60006123fd85828601612383565b925050602061240e85828601612178565b9150509250929050565b60008060006040848603121561243157612430612149565b5b600061243f86828701612178565b935050602084013567ffffffffffffffff8111156124605761245f61214e565b5b61246c8682870161219c565b92509250509250925092565b60008115159050919050565b61248d81612478565b82525050565b60006020820190506124a86000830184612484565b92915050565b6124b781612362565b82525050565b60006020820190506124d260008301846124ae565b92915050565b6000819050919050565b60006124fd6124f86124f3846122d9565b6124d8565b6122d9565b9050919050565b600061250f826124e2565b9050919050565b600061252182612504565b9050919050565b61253181612516565b82525050565b600060208201905061254c6000830184612528565b92915050565b600080fd5b6000601f19601f8301169050919050565b7f4e487b7100000000000000000000000000000000000000000000000000000000600052604160045260246000fd5b6125a082612557565b810181811067ffffffffffffffff821117156125bf576125be612568565b5b80604052505050565b60006125d261213f565b90506125de8282612597565b919050565b600067ffffffffffffffff8211156125fe576125fd612568565b5b61260782612557565b9050602081019050919050565b82818337600083830152505050565b6000612636612631846125e3565b6125c8565b90508281526020810184848401111561265257612651612552565b5b61265d848285612614565b509392505050565b600082601f83011261267a5761267961218d565b5b813561268a848260208601612623565b91505092915050565b6000806000606084860312156126ac576126ab612149565b5b60006126ba86828701612178565b935050602084013567ffffffffffffffff8111156126db576126da61214e565b5b6126e786828701612665565b92505060406126f88682870161221d565b9150509250925092565b6000819050919050565b61271581612702565b82525050565b6000602082019050612730600083018461270c565b92915050565b600081519050919050565b600082825260208201905092915050565b60005b83811015612770578082015181840152602081019050612755565b60008484015250505050565b600061278782612736565b6127918185612741565b93506127a1818560208601612752565b6127aa81612557565b840191505092915050565b600060208201905081810360008301526127cf818461277c565b905092915050565b600080604083850312156127ee576127ed612149565b5b60006127fc85828601612178565b925050602061280d85828601612178565b9150509250929050565b600061282282612504565b9050919050565b61283281612817565b82525050565b600060208201905061284d6000830184612829565b92915050565b61285c816122f9565b811461286757600080fd5b50565b60008135905061287981612853565b92915050565b60006020828403121561289557612894612149565b5b60006128a38482850161286a565b91505092915050565b60006128b782612504565b9050919050565b6128c7816128ac565b82525050565b60006020820190506128e260008301846128be565b92915050565b60006128f382612504565b9050919050565b612903816128e8565b82525050565b600060208201905061291e60008301846128fa565b92915050565b6000806000806000608086880312156129405761293f612149565b5b600061294e88828901612178565b955050602061295f88828901612178565b945050604061297088828901612383565b935050606086013567ffffffffffffffff8111156129915761299061214e565b5b61299d8882890161219c565b92509250509295509295909350565b600062ffffff82169050919050565b6129c4816129ac565b82525050565b60006020820190506129df60008301846129bb565b92915050565b6000806000606084860312156129fe576129fd612149565b5b6000612a0c86828701612178565b9350506020612a1d86828701612178565b9250506040612a2e86828701612383565b9150509250925092565b60008060008060808587031215612a5257612a51612149565b5b6000612a6087828801612178565b9450506020612a7187828801612178565b9350506040612a828782880161286a565b9250506060612a9387828801612383565b91505092959194509250565b600082825260208201905092915050565b7f4c7a4170703a20696e76616c696420656e64706f696e742063616c6c65720000600082015250565b6000612ae6601e83612a9f565b9150612af182612ab0565b602082019050919050565b60006020820190508181036000830152612b1581612ad9565b9050919050565b7f4e487b7100000000000000000000000000000000000000000000000000000000600052602260045260246000fd5b60006002820490506001821680612b6357607f821691505b602082108103612b7657612b75612b1c565b5b50919050565b600081905092915050565b6000612b938385612b7c565b9350612ba0838584612614565b82840190509392505050565b6000612bb9828486612b87565b91508190509392505050565b7f4c7a4170703a20696e76616c696420736f757263652073656e64696e6720636f60008201527f6e74726163740000000000000000000000000000000000000000000000000000602082015250565b6000612c21602683612a9f565b9150612c2c82612bc5565b604082019050919050565b60006020820190508181036000830152612c5081612c14565b9050919050565b612c6081612153565b82525050565b6000602082019050612c7b6000830184612c57565b92915050565b7f596f75206e65656420746f2073656e642074686520657861637420616d6f756e60008201527f74206f6620746f6b656e73202121000000000000000000000000000000000000602082015250565b6000612cdd602e83612a9f565b9150612ce882612c81565b604082019050919050565b60006020820190508181036000830152612d0c81612cd0565b9050919050565b6000819050919050565b612d2e612d2982612362565b612d13565b82525050565b60008160601b9050919050565b6000612d4c82612d34565b9050919050565b6000612d5e82612d41565b9050919050565b612d76612d71826122f9565b612d53565b82525050565b6000612d888285612d1d565b602082019150612d988284612d65565b6014820191508190509392505050565b60008160f01b9050919050565b6000612dc082612da8565b9050919050565b612dd8612dd382612153565b612db5565b82525050565b6000612dea8285612dc7565b600282019150612dfa8284612d1d565b6020820191508190509392505050565b6000612e168385612741565b9350612e23838584612614565b612e2c83612557565b840190509392505050565b6000604082019050612e4c6000830186612c57565b8181036020830152612e5f818486612e0a565b9050949350505050565b50565b6000612e79600083612b7c565b9150612e8482612e69565b600082019050919050565b6000612e9a82612e6c565b9150819050919050565b7f5769746864726177204661696c65642021212100000000000000000000000000600082015250565b6000612eda601383612a9f565b9150612ee582612ea4565b602082019050919050565b60006020820190508181036000830152612f0981612ecd565b9050919050565b7f4e6f6e626c6f636b696e674c7a4170703a2063616c6c6572206d75737420626560008201527f204c7a4170700000000000000000000000000000000000000000000000000000602082015250565b6000612f6c602683612a9f565b9150612f7782612f10565b604082019050919050565b60006020820190508181036000830152612f9b81612f5f565b9050919050565b7f4c7a4170703a206e6f20747275737465642070617468207265636f7264000000600082015250565b6000612fd8601d83612a9f565b9150612fe382612fa2565b602082019050919050565b6000602082019050818103600083015261300781612fcb565b9050919050565b7f4e487b7100000000000000000000000000000000000000000000000000000000600052601160045260246000fd5b600061304882612362565b915061305383612362565b925082820390508181111561306b5761306a61300e565b5b92915050565b600061307e828587612b87565b915061308a8284612d65565b601482019150819050949350505050565b60008190508160005260206000209050919050565b60006020601f8301049050919050565b600082821b905092915050565b6000600883026130fd7fffffffffffffffffffffffffffffffffffffffffffffffffffffffffffffffff826130c0565b61310786836130c0565b95508019841693508086168417925050509392505050565b600061313a61313561313084612362565b6124d8565b612362565b9050919050565b6000819050919050565b6131548361311f565b61316861316082613141565b8484546130cd565b825550505050565b600090565b61317d613170565b61318881848461314b565b505050565b5b818110156131ac576131a1600082613175565b60018101905061318e565b5050565b601f8211156131f1576131c28161309b565b6131cb846130b0565b810160208510156131da578190505b6131ee6131e6856130b0565b83018261318d565b50505b505050565b600082821c905092915050565b6000613214600019846008026131f6565b1980831691505092915050565b600061322d8383613203565b9150826002028217905092915050565b61324682612736565b67ffffffffffffffff81111561325f5761325e612568565b5b6132698254612b4b565b6132748282856131b0565b600060209050601f8311600181146132a75760008415613295578287015190505b61329f8582613221565b865550613307565b601f1984166132b58661309b565b60005b828110156132dd578489015182556001820191506020850194506020810190506132b8565b868310156132fa57848901516132f6601f891682613203565b8355505b6001600288020188555050505b505050505050565b60006080820190506133246000830188612c57565b6133316020830187612c57565b61333e60408301866124ae565b8181036060830152613351818486612e0a565b90509695505050505050565b7f4e6f6e626c6f636b696e674c7a4170703a206e6f2073746f726564206d65737360008201527f6167650000000000000000000000000000000000000000000000000000000000602082015250565b60006133b9602383612a9f565b91506133c48261335d565b604082019050919050565b600060208201905081810360008301526133e8816133ac565b9050919050565b7f4e6f6e626c6f636b696e674c7a4170703a20696e76616c6964207061796c6f6160008201527f6400000000000000000000000000000000000000000000000000000000000000602082015250565b600061344b602183612a9f565b9150613456826133ef565b604082019050919050565b6000602082019050818103600083015261347a8161343e565b9050919050565b61348a816121f2565b82525050565b60006080820190506134a56000830188612c57565b81810360208301526134b8818688612e0a565b90506134c76040830185613481565b6134d4606083018461270c565b9695505050505050565b7f4c7a4170703a20696e76616c6964206d696e4761730000000000000000000000600082015250565b6000613514601583612a9f565b915061351f826134de565b602082019050919050565b6000602082019050818103600083015261354381613507565b9050919050565b600060608201905061355f6000830186612c57565b61356c6020830185612c57565b61357960408301846124ae565b949350505050565b600082905092915050565b6135968383613581565b67ffffffffffffffff8111156135af576135ae612568565b5b6135b98254612b4b565b6135c48282856131b0565b6000601f8311600181146135f357600084156135e1578287013590505b6135eb8582613221565b865550613653565b601f1984166136018661309b565b60005b8281101561362957848901358255600182019150602085019450602081019050613604565b868310156136465784890135613642601f891682613203565b8355505b6001600288020188555050505b50505050505050565b7f4f776e61626c653a206e6577206f776e657220697320746865207a65726f206160008201527f6464726573730000000000000000000000000000000000000000000000000000602082015250565b60006136b8602683612a9f565b91506136c38261365c565b604082019050919050565b600060208201905081810360008301526136e7816136ab565b9050919050565b60006080820190506137036000830187612c57565b6137106020830186612c57565b61371d604083018561230b565b61372a60608301846124ae565b95945050505050565b6000613746613741846125e3565b6125c8565b90508281526020810184848401111561376257613761612552565b5b61376d848285612752565b509392505050565b600082601f83011261378a5761378961218d565b5b815161379a848260208601613733565b91505092915050565b6000602082840312156137b9576137b8612149565b5b600082015167ffffffffffffffff8111156137d7576137d661214e565b5b6137e384828501613775565b91505092915050565b60006080820190506138016000830187612c57565b8181036020830152613813818661277c565b90506138226040830185613481565b8181036060830152613834818461277c565b905095945050505050565b7f4f776e61626c653a2063616c6c6572206973206e6f7420746865206f776e6572600082015250565b6000613875602083612a9f565b91506138808261383f565b602082019050919050565b600060208201905081810360008301526138a481613868565b9050919050565b7f4c7a4170703a2064657374696e6174696f6e20636861696e206973206e6f742060008201527f61207472757374656420736f7572636500000000000000000000000000000000602082015250565b6000613907603083612a9f565b9150613912826138ab565b604082019050919050565b60006020820190508181036000830152613936816138fa565b9050919050565b6000613948826122d9565b9050919050565b6139588161393d565b82525050565b600060c0820190506139736000830189612c57565b8181036020830152613985818861277c565b90508181036040830152613999818761277c565b90506139a8606083018661394f565b6139b5608083018561230b565b81810360a08301526139c7818461277c565b9050979650505050505050565b6000815190506139e38161236c565b92915050565b6139f28161393d565b81146139fd57600080fd5b50565b600081519050613a0f816139e9565b92915050565b60008060408385031215613a2c57613a2b612149565b5b6000613a3a858286016139d4565b9250506020613a4b85828601613a00565b9150509250929050565b6000613a6082612362565b9150613a6b83612362565b9250828201905080821115613a8357613a8261300e565b5b92915050565b7f736c6963655f6f766572666c6f77000000000000000000000000000000000000600082015250565b6000613abf600e83612a9f565b9150613aca82613a89565b602082019050919050565b60006020820190508181036000830152613aee81613ab2565b9050919050565b7f736c6963655f6f75744f66426f756e6473000000000000000000000000000000600082015250565b6000613b2b601183612a9f565b9150613b3682613af5565b602082019050919050565b60006020820190508181036000830152613b5a81613b1e565b9050919050565b6000613b6c82612736565b613b768185612b7c565b9350613b86818560208601612752565b80840191505092915050565b6000613b9e8284613b61565b915081905092915050565b600060a082019050613bbe6000830188612c57565b8181036020830152613bd0818761277c565b9050613bdf6040830186613481565b8181036060830152613bf1818561277c565b90508181036080830152613c05818461277c565b90509695505050505050565b7f4c7a4170703a207061796c6f61642073697a6520697320746f6f206c61726765600082015250565b6000613c47602083612a9f565b9150613c5282613c11565b602082019050919050565b60006020820190508181036000830152613c7681613c3a565b9050919050565b6000604082019050613c92600083018561230b565b613c9f60208301846124ae565b9392505050565b613caf81612478565b8114613cba57600080fd5b50565b600081519050613ccc81613ca6565b92915050565b600060208284031215613ce857613ce7612149565b5b6000613cf684828501613cbd565b9150509291505056fea2646970667358221220d1c3920023a98c1ab77bd0d03d22552d449e446ac19f14532735d3d45f7f5dc764736f6c63430008130033","opcodes":"PUSH2 0x100 PUSH1 0x40 MSTORE CALLVALUE DUP1 ISZERO PUSH3 0x12 JUMPI PUSH1 0x0 DUP1 REVERT JUMPDEST POP PUSH1 0x40 MLOAD PUSH3 0x41FB CODESIZE SUB DUP1 PUSH3 0x41FB DUP4 CODECOPY DUP2 DUP2 ADD PUSH1 0x40 MSTORE DUP2 ADD SWAP1 PUSH3 0x38 SWAP2 SWAP1 PUSH3 0x3BF JUMP JUMPDEST DUP6 DUP1 PUSH3 0x5A PUSH3 0x4E PUSH3 0x1BA PUSH1 0x20 SHL PUSH1 0x20 SHR JUMP JUMPDEST PUSH3 0x1C2 PUSH1 0x20 SHL PUSH1 0x20 SHR JUMP JUMPDEST DUP1 PUSH20 0xFFFFFFFFFFFFFFFFFFFFFFFFFFFFFFFFFFFFFFFF AND PUSH1 0x80 DUP2 PUSH20 0xFFFFFFFFFFFFFFFFFFFFFFFFFFFFFFFFFFFFFFFF AND DUP2 MSTORE POP POP POP POP DUP5 PUSH20 0xFFFFFFFFFFFFFFFFFFFFFFFFFFFFFFFFFFFFFFFF AND PUSH1 0xA0 DUP2 PUSH20 0xFFFFFFFFFFFFFFFFFFFFFFFFFFFFFFFFFFFFFFFF AND DUP2 MSTORE POP POP DUP4 PUSH20 0xFFFFFFFFFFFFFFFFFFFFFFFFFFFFFFFFFFFFFFFF AND PUSH1 0xC0 DUP2 PUSH20 0xFFFFFFFFFFFFFFFFFFFFFFFFFFFFFFFFFFFFFFFF AND DUP2 MSTORE POP POP DUP3 PUSH1 0x7 PUSH1 0x0 PUSH2 0x100 EXP DUP2 SLOAD DUP2 PUSH20 0xFFFFFFFFFFFFFFFFFFFFFFFFFFFFFFFFFFFFFFFF MUL NOT AND SWAP1 DUP4 PUSH20 0xFFFFFFFFFFFFFFFFFFFFFFFFFFFFFFFFFFFFFFFF AND MUL OR SWAP1 SSTORE POP DUP2 PUSH1 0x8 PUSH1 0x0 PUSH2 0x100 EXP DUP2 SLOAD DUP2 PUSH20 0xFFFFFFFFFFFFFFFFFFFFFFFFFFFFFFFFFFFFFFFF MUL NOT AND SWAP1 DUP4 PUSH20 0xFFFFFFFFFFFFFFFFFFFFFFFFFFFFFFFFFFFFFFFF AND MUL OR SWAP1 SSTORE POP DUP1 PUSH20 0xFFFFFFFFFFFFFFFFFFFFFFFFFFFFFFFFFFFFFFFF AND PUSH1 0xE0 DUP2 PUSH20 0xFFFFFFFFFFFFFFFFFFFFFFFFFFFFFFFFFFFFFFFF AND DUP2 MSTORE POP POP POP POP POP POP POP POP PUSH3 0x45B JUMP JUMPDEST PUSH1 0x0 CALLER SWAP1 POP SWAP1 JUMP JUMPDEST PUSH1 0x0 DUP1 PUSH1 0x0 SWAP1 SLOAD SWAP1 PUSH2 0x100 EXP SWAP1 DIV PUSH20 0xFFFFFFFFFFFFFFFFFFFFFFFFFFFFFFFFFFFFFFFF AND SWAP1 POP DUP2 PUSH1 0x0 DUP1 PUSH2 0x100 EXP DUP2 SLOAD DUP2 PUSH20 0xFFFFFFFFFFFFFFFFFFFFFFFFFFFFFFFFFFFFFFFF MUL NOT AND SWAP1 DUP4 PUSH20 0xFFFFFFFFFFFFFFFFFFFFFFFFFFFFFFFFFFFFFFFF AND MUL OR SWAP1 SSTORE POP DUP2 PUSH20 0xFFFFFFFFFFFFFFFFFFFFFFFFFFFFFFFFFFFFFFFF AND DUP2 PUSH20 0xFFFFFFFFFFFFFFFFFFFFFFFFFFFFFFFFFFFFFFFF AND PUSH32 0x8BE0079C531659141344CD1FD0A4F28419497F9722A3DAAFE3B4186F6B6457E0 PUSH1 0x40 MLOAD PUSH1 0x40 MLOAD DUP1 SWAP2 SUB SWAP1 LOG3 POP POP JUMP JUMPDEST PUSH1 0x0 DUP1 REVERT JUMPDEST PUSH1 0x0 PUSH20 0xFFFFFFFFFFFFFFFFFFFFFFFFFFFFFFFFFFFFFFFF DUP3 AND SWAP1 POP SWAP2 SWAP1 POP JUMP JUMPDEST PUSH1 0x0 PUSH3 0x2B8 DUP3 PUSH3 0x28B JUMP JUMPDEST SWAP1 POP SWAP2 SWAP1 POP JUMP JUMPDEST PUSH3 0x2CA DUP2 PUSH3 0x2AB JUMP JUMPDEST DUP2 EQ PUSH3 0x2D6 JUMPI PUSH1 0x0 DUP1 REVERT JUMPDEST POP JUMP JUMPDEST PUSH1 0x0 DUP2 MLOAD SWAP1 POP PUSH3 0x2EA DUP2 PUSH3 0x2BF JUMP JUMPDEST SWAP3 SWAP2 POP POP JUMP JUMPDEST PUSH1 0x0 PUSH3 0x2FD DUP3 PUSH3 0x2AB JUMP JUMPDEST SWAP1 POP SWAP2 SWAP1 POP JUMP JUMPDEST PUSH3 0x30F DUP2 PUSH3 0x2F0 JUMP JUMPDEST DUP2 EQ PUSH3 0x31B JUMPI PUSH1 0x0 DUP1 REVERT JUMPDEST POP JUMP JUMPDEST PUSH1 0x0 DUP2 MLOAD SWAP1 POP PUSH3 0x32F DUP2 PUSH3 0x304 JUMP JUMPDEST SWAP3 SWAP2 POP POP JUMP JUMPDEST PUSH1 0x0 PUSH3 0x342 DUP3 PUSH3 0x2AB JUMP JUMPDEST SWAP1 POP SWAP2 SWAP1 POP JUMP JUMPDEST PUSH3 0x354 DUP2 PUSH3 0x335 JUMP JUMPDEST DUP2 EQ PUSH3 0x360 JUMPI PUSH1 0x0 DUP1 REVERT JUMPDEST POP JUMP JUMPDEST PUSH1 0x0 DUP2 MLOAD SWAP1 POP PUSH3 0x374 DUP2 PUSH3 0x349 JUMP JUMPDEST SWAP3 SWAP2 POP POP JUMP JUMPDEST PUSH1 0x0 PUSH3 0x387 DUP3 PUSH3 0x2AB JUMP JUMPDEST SWAP1 POP SWAP2 SWAP1 POP JUMP JUMPDEST PUSH3 0x399 DUP2 PUSH3 0x37A JUMP JUMPDEST DUP2 EQ PUSH3 0x3A5 JUMPI PUSH1 0x0 DUP1 REVERT JUMPDEST POP JUMP JUMPDEST PUSH1 0x0 DUP2 MLOAD SWAP1 POP PUSH3 0x3B9 DUP2 PUSH3 0x38E JUMP JUMPDEST SWAP3 SWAP2 POP POP JUMP JUMPDEST PUSH1 0x0 DUP1 PUSH1 0x0 DUP1 PUSH1 0x0 DUP1 PUSH1 0xC0 DUP8 DUP10 SUB SLT ISZERO PUSH3 0x3DF JUMPI PUSH3 0x3DE PUSH3 0x286 JUMP JUMPDEST JUMPDEST PUSH1 0x0 PUSH3 0x3EF DUP10 DUP3 DUP11 ADD PUSH3 0x2D9 JUMP JUMPDEST SWAP7 POP POP PUSH1 0x20 PUSH3 0x402 DUP10 DUP3 DUP11 ADD PUSH3 0x31E JUMP JUMPDEST SWAP6 POP POP PUSH1 0x40 PUSH3 0x415 DUP10 DUP3 DUP11 ADD PUSH3 0x363 JUMP JUMPDEST SWAP5 POP POP PUSH1 0x60 PUSH3 0x428 DUP10 DUP3 DUP11 ADD PUSH3 0x2D9 JUMP JUMPDEST SWAP4 POP POP PUSH1 0x80 PUSH3 0x43B DUP10 DUP3 DUP11 ADD PUSH3 0x2D9 JUMP JUMPDEST SWAP3 POP POP PUSH1 0xA0 PUSH3 0x44E DUP10 DUP3 DUP11 ADD PUSH3 0x3A8 JUMP JUMPDEST SWAP2 POP POP SWAP3 SWAP6 POP SWAP3 SWAP6 POP SWAP3 SWAP6 JUMP JUMPDEST PUSH1 0x80 MLOAD PUSH1 0xA0 MLOAD PUSH1 0xC0 MLOAD PUSH1 0xE0 MLOAD PUSH2 0x3D35 PUSH3 0x4C6 PUSH1 0x0 CODECOPY PUSH1 0x0 PUSH2 0xEE9 ADD MSTORE PUSH1 0x0 PUSH2 0x140C ADD MSTORE PUSH1 0x0 PUSH2 0x13E2 ADD MSTORE PUSH1 0x0 DUP2 DUP2 PUSH2 0x816 ADD MSTORE DUP2 DUP2 PUSH2 0xA9A ADD MSTORE DUP2 DUP2 PUSH2 0xB5C ADD MSTORE DUP2 DUP2 PUSH2 0xD98 ADD MSTORE DUP2 DUP2 PUSH2 0x133B ADD MSTORE DUP2 DUP2 PUSH2 0x1438 ADD MSTORE DUP2 DUP2 PUSH2 0x1905 ADD MSTORE PUSH2 0x1C22 ADD MSTORE PUSH2 0x3D35 PUSH1 0x0 RETURN INVALID PUSH1 0x80 PUSH1 0x40 MSTORE PUSH1 0x4 CALLDATASIZE LT PUSH2 0x207 JUMPI PUSH1 0x0 CALLDATALOAD PUSH1 0xE0 SHR DUP1 PUSH4 0x950C8A74 GT PUSH2 0x118 JUMPI DUP1 PUSH4 0xD1DEBA1F GT PUSH2 0xA0 JUMPI DUP1 PUSH4 0xE0ABCA0B GT PUSH2 0x6F JUMPI DUP1 PUSH4 0xE0ABCA0B EQ PUSH2 0x72F JUMPI DUP1 PUSH4 0xEB8D72B7 EQ PUSH2 0x75A JUMPI DUP1 PUSH4 0xF2FDE38B EQ PUSH2 0x783 JUMPI DUP1 PUSH4 0xF5ECBDBC EQ PUSH2 0x7AC JUMPI DUP1 PUSH4 0xFB2134D9 EQ PUSH2 0x7E9 JUMPI PUSH2 0x20E JUMP JUMPDEST DUP1 PUSH4 0xD1DEBA1F EQ PUSH2 0x694 JUMPI DUP1 PUSH4 0xDD1B9C4A EQ PUSH2 0x6B0 JUMPI DUP1 PUSH4 0xDF2A5B3B EQ PUSH2 0x6DB JUMPI DUP1 PUSH4 0xDFFC4BFC EQ PUSH2 0x704 JUMPI PUSH2 0x20E JUMP JUMPDEST DUP1 PUSH4 0xBAF3292D GT PUSH2 0xE7 JUMPI DUP1 PUSH4 0xBAF3292D EQ PUSH2 0x5C1 JUMPI DUP1 PUSH4 0xC31C9C07 EQ PUSH2 0x5EA JUMPI DUP1 PUSH4 0xC4461834 EQ PUSH2 0x615 JUMPI DUP1 PUSH4 0xCB351188 EQ PUSH2 0x640 JUMPI DUP1 PUSH4 0xCBED8B9C EQ PUSH2 0x66B JUMPI PUSH2 0x20E JUMP JUMPDEST DUP1 PUSH4 0x950C8A74 EQ PUSH2 0x505 JUMPI DUP1 PUSH4 0x9F38369A EQ PUSH2 0x530 JUMPI DUP1 PUSH4 0xA6C3D165 EQ PUSH2 0x56D JUMPI DUP1 PUSH4 0xB353AAA7 EQ PUSH2 0x596 JUMPI PUSH2 0x20E JUMP JUMPDEST DUP1 PUSH4 0x42D65A8D GT PUSH2 0x19B JUMPI DUP1 PUSH4 0x66AD5C8A GT PUSH2 0x16A JUMPI DUP1 PUSH4 0x66AD5C8A EQ PUSH2 0x420 JUMPI DUP1 PUSH4 0x715018A6 EQ PUSH2 0x449 JUMPI DUP1 PUSH4 0x7533D788 EQ PUSH2 0x460 JUMPI DUP1 PUSH4 0x8CFD8F5C EQ PUSH2 0x49D JUMPI DUP1 PUSH4 0x8DA5CB5B EQ PUSH2 0x4DA JUMPI PUSH2 0x20E JUMP JUMPDEST DUP1 PUSH4 0x42D65A8D EQ PUSH2 0x378 JUMPI DUP1 PUSH4 0x50431CE4 EQ PUSH2 0x3A1 JUMPI DUP1 PUSH4 0x5B549182 EQ PUSH2 0x3B8 JUMPI DUP1 PUSH4 0x5B8C41E6 EQ PUSH2 0x3E3 JUMPI PUSH2 0x20E JUMP JUMPDEST DUP1 PUSH4 0x10DDB137 GT PUSH2 0x1D7 JUMPI DUP1 PUSH4 0x10DDB137 EQ PUSH2 0x2B9 JUMPI DUP1 PUSH4 0x1B175C9C EQ PUSH2 0x2E2 JUMPI DUP1 PUSH4 0x3D8B38F6 EQ PUSH2 0x2FE JUMPI DUP1 PUSH4 0x3F1F4FA4 EQ PUSH2 0x33B JUMPI PUSH2 0x20E JUMP JUMPDEST DUP1 PUSH3 0x1D3567 EQ PUSH2 0x213 JUMPI DUP1 PUSH4 0x563D1AC EQ PUSH2 0x23C JUMPI DUP1 PUSH4 0x7E0DB17 EQ PUSH2 0x267 JUMPI DUP1 PUSH4 0xDF37483 EQ PUSH2 0x290 JUMPI PUSH2 0x20E JUMP JUMPDEST CALLDATASIZE PUSH2 0x20E JUMPI STOP JUMPDEST PUSH1 0x0 DUP1 REVERT JUMPDEST CALLVALUE DUP1 ISZERO PUSH2 0x21F JUMPI PUSH1 0x0 DUP1 REVERT JUMPDEST POP PUSH2 0x23A PUSH1 0x4 DUP1 CALLDATASIZE SUB DUP2 ADD SWAP1 PUSH2 0x235 SWAP2 SWAP1 PUSH2 0x2232 JUMP JUMPDEST PUSH2 0x814 JUMP JUMPDEST STOP JUMPDEST CALLVALUE DUP1 ISZERO PUSH2 0x248 JUMPI PUSH1 0x0 DUP1 REVERT JUMPDEST POP PUSH2 0x251 PUSH2 0xA6A JUMP JUMPDEST PUSH1 0x40 MLOAD PUSH2 0x25E SWAP2 SWAP1 PUSH2 0x231A JUMP JUMPDEST PUSH1 0x40 MLOAD DUP1 SWAP2 SUB SWAP1 RETURN JUMPDEST CALLVALUE DUP1 ISZERO PUSH2 0x273 JUMPI PUSH1 0x0 DUP1 REVERT JUMPDEST POP PUSH2 0x28E PUSH1 0x4 DUP1 CALLDATASIZE SUB DUP2 ADD SWAP1 PUSH2 0x289 SWAP2 SWAP1 PUSH2 0x2335 JUMP JUMPDEST PUSH2 0xA90 JUMP JUMPDEST STOP JUMPDEST CALLVALUE DUP1 ISZERO PUSH2 0x29C JUMPI PUSH1 0x0 DUP1 REVERT JUMPDEST POP PUSH2 0x2B7 PUSH1 0x4 DUP1 CALLDATASIZE SUB DUP2 ADD SWAP1 PUSH2 0x2B2 SWAP2 SWAP1 PUSH2 0x2398 JUMP JUMPDEST PUSH2 0xB26 JUMP JUMPDEST STOP JUMPDEST CALLVALUE DUP1 ISZERO PUSH2 0x2C5 JUMPI PUSH1 0x0 DUP1 REVERT JUMPDEST POP PUSH2 0x2E0 PUSH1 0x4 DUP1 CALLDATASIZE SUB DUP2 ADD SWAP1 PUSH2 0x2DB SWAP2 SWAP1 PUSH2 0x2335 JUMP JUMPDEST PUSH2 0xB52 JUMP JUMPDEST STOP JUMPDEST PUSH2 0x2FC PUSH1 0x4 DUP1 CALLDATASIZE SUB DUP2 ADD SWAP1 PUSH2 0x2F7 SWAP2 SWAP1 PUSH2 0x23D8 JUMP JUMPDEST PUSH2 0xBE8 JUMP JUMPDEST STOP JUMPDEST CALLVALUE DUP1 ISZERO PUSH2 0x30A JUMPI PUSH1 0x0 DUP1 REVERT JUMPDEST POP PUSH2 0x325 PUSH1 0x4 DUP1 CALLDATASIZE SUB DUP2 ADD SWAP1 PUSH2 0x320 SWAP2 SWAP1 PUSH2 0x2418 JUMP JUMPDEST PUSH2 0xCA2 JUMP JUMPDEST PUSH1 0x40 MLOAD PUSH2 0x332 SWAP2 SWAP1 PUSH2 0x2493 JUMP JUMPDEST PUSH1 0x40 MLOAD DUP1 SWAP2 SUB SWAP1 RETURN JUMPDEST CALLVALUE DUP1 ISZERO PUSH2 0x347 JUMPI PUSH1 0x0 DUP1 REVERT JUMPDEST POP PUSH2 0x362 PUSH1 0x4 DUP1 CALLDATASIZE SUB DUP2 ADD SWAP1 PUSH2 0x35D SWAP2 SWAP1 PUSH2 0x2335 JUMP JUMPDEST PUSH2 0xD76 JUMP JUMPDEST PUSH1 0x40 MLOAD PUSH2 0x36F SWAP2 SWAP1 PUSH2 0x24BD JUMP JUMPDEST PUSH1 0x40 MLOAD DUP1 SWAP2 SUB SWAP1 RETURN JUMPDEST CALLVALUE DUP1 ISZERO PUSH2 0x384 JUMPI PUSH1 0x0 DUP1 REVERT JUMPDEST POP PUSH2 0x39F PUSH1 0x4 DUP1 CALLDATASIZE SUB DUP2 ADD SWAP1 PUSH2 0x39A SWAP2 SWAP1 PUSH2 0x2418 JUMP JUMPDEST PUSH2 0xD8E JUMP JUMPDEST STOP JUMPDEST CALLVALUE DUP1 ISZERO PUSH2 0x3AD JUMPI PUSH1 0x0 DUP1 REVERT JUMPDEST POP PUSH2 0x3B6 PUSH2 0xE2A JUMP JUMPDEST STOP JUMPDEST CALLVALUE DUP1 ISZERO PUSH2 0x3C4 JUMPI PUSH1 0x0 DUP1 REVERT JUMPDEST POP PUSH2 0x3CD PUSH2 0xEE7 JUMP JUMPDEST PUSH1 0x40 MLOAD PUSH2 0x3DA SWAP2 SWAP1 PUSH2 0x2537 JUMP JUMPDEST PUSH1 0x40 MLOAD DUP1 SWAP2 SUB SWAP1 RETURN JUMPDEST CALLVALUE DUP1 ISZERO PUSH2 0x3EF JUMPI PUSH1 0x0 DUP1 REVERT JUMPDEST POP PUSH2 0x40A PUSH1 0x4 DUP1 CALLDATASIZE SUB DUP2 ADD SWAP1 PUSH2 0x405 SWAP2 SWAP1 PUSH2 0x2693 JUMP JUMPDEST PUSH2 0xF0B JUMP JUMPDEST PUSH1 0x40 MLOAD PUSH2 0x417 SWAP2 SWAP1 PUSH2 0x271B JUMP JUMPDEST PUSH1 0x40 MLOAD DUP1 SWAP2 SUB SWAP1 RETURN JUMPDEST CALLVALUE DUP1 ISZERO PUSH2 0x42C JUMPI PUSH1 0x0 DUP1 REVERT JUMPDEST POP PUSH2 0x447 PUSH1 0x4 DUP1 CALLDATASIZE SUB DUP2 ADD SWAP1 PUSH2 0x442 SWAP2 SWAP1 PUSH2 0x2232 JUMP JUMPDEST PUSH2 0xF53 JUMP JUMPDEST STOP JUMPDEST CALLVALUE DUP1 ISZERO PUSH2 0x455 JUMPI PUSH1 0x0 DUP1 REVERT JUMPDEST POP PUSH2 0x45E PUSH2 0x1064 JUMP JUMPDEST STOP JUMPDEST CALLVALUE DUP1 ISZERO PUSH2 0x46C JUMPI PUSH1 0x0 DUP1 REVERT JUMPDEST POP PUSH2 0x487 PUSH1 0x4 DUP1 CALLDATASIZE SUB DUP2 ADD SWAP1 PUSH2 0x482 SWAP2 SWAP1 PUSH2 0x2335 JUMP JUMPDEST PUSH2 0x1078 JUMP JUMPDEST PUSH1 0x40 MLOAD PUSH2 0x494 SWAP2 SWAP1 PUSH2 0x27B5 JUMP JUMPDEST PUSH1 0x40 MLOAD DUP1 SWAP2 SUB SWAP1 RETURN JUMPDEST CALLVALUE DUP1 ISZERO PUSH2 0x4A9 JUMPI PUSH1 0x0 DUP1 REVERT JUMPDEST POP PUSH2 0x4C4 PUSH1 0x4 DUP1 CALLDATASIZE SUB DUP2 ADD SWAP1 PUSH2 0x4BF SWAP2 SWAP1 PUSH2 0x27D7 JUMP JUMPDEST PUSH2 0x1118 JUMP JUMPDEST PUSH1 0x40 MLOAD PUSH2 0x4D1 SWAP2 SWAP1 PUSH2 0x24BD JUMP JUMPDEST PUSH1 0x40 MLOAD DUP1 SWAP2 SUB SWAP1 RETURN JUMPDEST CALLVALUE DUP1 ISZERO PUSH2 0x4E6 JUMPI PUSH1 0x0 DUP1 REVERT JUMPDEST POP PUSH2 0x4EF PUSH2 0x113D JUMP JUMPDEST PUSH1 0x40 MLOAD PUSH2 0x4FC SWAP2 SWAP1 PUSH2 0x231A JUMP JUMPDEST PUSH1 0x40 MLOAD DUP1 SWAP2 SUB SWAP1 RETURN JUMPDEST CALLVALUE DUP1 ISZERO PUSH2 0x511 JUMPI PUSH1 0x0 DUP1 REVERT JUMPDEST POP PUSH2 0x51A PUSH2 0x1166 JUMP JUMPDEST PUSH1 0x40 MLOAD PUSH2 0x527 SWAP2 SWAP1 PUSH2 0x231A JUMP JUMPDEST PUSH1 0x40 MLOAD DUP1 SWAP2 SUB SWAP1 RETURN JUMPDEST CALLVALUE DUP1 ISZERO PUSH2 0x53C JUMPI PUSH1 0x0 DUP1 REVERT JUMPDEST POP PUSH2 0x557 PUSH1 0x4 DUP1 CALLDATASIZE SUB DUP2 ADD SWAP1 PUSH2 0x552 SWAP2 SWAP1 PUSH2 0x2335 JUMP JUMPDEST PUSH2 0x118C JUMP JUMPDEST PUSH1 0x40 MLOAD PUSH2 0x564 SWAP2 SWAP1 PUSH2 0x27B5 JUMP JUMPDEST PUSH1 0x40 MLOAD DUP1 SWAP2 SUB SWAP1 RETURN JUMPDEST CALLVALUE DUP1 ISZERO PUSH2 0x579 JUMPI PUSH1 0x0 DUP1 REVERT JUMPDEST POP PUSH2 0x594 PUSH1 0x4 DUP1 CALLDATASIZE SUB DUP2 ADD SWAP1 PUSH2 0x58F SWAP2 SWAP1 PUSH2 0x2418 JUMP JUMPDEST PUSH2 0x12A5 JUMP JUMPDEST STOP JUMPDEST CALLVALUE DUP1 ISZERO PUSH2 0x5A2 JUMPI PUSH1 0x0 DUP1 REVERT JUMPDEST POP PUSH2 0x5AB PUSH2 0x1339 JUMP JUMPDEST PUSH1 0x40 MLOAD PUSH2 0x5B8 SWAP2 SWAP1 PUSH2 0x2838 JUMP JUMPDEST PUSH1 0x40 MLOAD DUP1 SWAP2 SUB SWAP1 RETURN JUMPDEST CALLVALUE DUP1 ISZERO PUSH2 0x5CD JUMPI PUSH1 0x0 DUP1 REVERT JUMPDEST POP PUSH2 0x5E8 PUSH1 0x4 DUP1 CALLDATASIZE SUB DUP2 ADD SWAP1 PUSH2 0x5E3 SWAP2 SWAP1 PUSH2 0x287F JUMP JUMPDEST PUSH2 0x135D JUMP JUMPDEST STOP JUMPDEST CALLVALUE DUP1 ISZERO PUSH2 0x5F6 JUMPI PUSH1 0x0 DUP1 REVERT JUMPDEST POP PUSH2 0x5FF PUSH2 0x13E0 JUMP JUMPDEST PUSH1 0x40 MLOAD PUSH2 0x60C SWAP2 SWAP1 PUSH2 0x28CD JUMP JUMPDEST PUSH1 0x40 MLOAD DUP1 SWAP2 SUB SWAP1 RETURN JUMPDEST CALLVALUE DUP1 ISZERO PUSH2 0x621 JUMPI PUSH1 0x0 DUP1 REVERT JUMPDEST POP PUSH2 0x62A PUSH2 0x1404 JUMP JUMPDEST PUSH1 0x40 MLOAD PUSH2 0x637 SWAP2 SWAP1 PUSH2 0x24BD JUMP JUMPDEST PUSH1 0x40 MLOAD DUP1 SWAP2 SUB SWAP1 RETURN JUMPDEST CALLVALUE DUP1 ISZERO PUSH2 0x64C JUMPI PUSH1 0x0 DUP1 REVERT JUMPDEST POP PUSH2 0x655 PUSH2 0x140A JUMP JUMPDEST PUSH1 0x40 MLOAD PUSH2 0x662 SWAP2 SWAP1 PUSH2 0x2909 JUMP JUMPDEST PUSH1 0x40 MLOAD DUP1 SWAP2 SUB SWAP1 RETURN JUMPDEST CALLVALUE DUP1 ISZERO PUSH2 0x677 JUMPI PUSH1 0x0 DUP1 REVERT JUMPDEST POP PUSH2 0x692 PUSH1 0x4 DUP1 CALLDATASIZE SUB DUP2 ADD SWAP1 PUSH2 0x68D SWAP2 SWAP1 PUSH2 0x2924 JUMP JUMPDEST PUSH2 0x142E JUMP JUMPDEST STOP JUMPDEST PUSH2 0x6AE PUSH1 0x4 DUP1 CALLDATASIZE SUB DUP2 ADD SWAP1 PUSH2 0x6A9 SWAP2 SWAP1 PUSH2 0x2232 JUMP JUMPDEST PUSH2 0x14D0 JUMP JUMPDEST STOP JUMPDEST CALLVALUE DUP1 ISZERO PUSH2 0x6BC JUMPI PUSH1 0x0 DUP1 REVERT JUMPDEST POP PUSH2 0x6C5 PUSH2 0x1713 JUMP JUMPDEST PUSH1 0x40 MLOAD PUSH2 0x6D2 SWAP2 SWAP1 PUSH2 0x29CA JUMP JUMPDEST PUSH1 0x40 MLOAD DUP1 SWAP2 SUB SWAP1 RETURN JUMPDEST CALLVALUE DUP1 ISZERO PUSH2 0x6E7 JUMPI PUSH1 0x0 DUP1 REVERT JUMPDEST POP PUSH2 0x702 PUSH1 0x4 DUP1 CALLDATASIZE SUB DUP2 ADD SWAP1 PUSH2 0x6FD SWAP2 SWAP1 PUSH2 0x29E5 JUMP JUMPDEST PUSH2 0x1719 JUMP JUMPDEST STOP JUMPDEST CALLVALUE DUP1 ISZERO PUSH2 0x710 JUMPI PUSH1 0x0 DUP1 REVERT JUMPDEST POP PUSH2 0x719 PUSH2 0x17DD JUMP JUMPDEST PUSH1 0x40 MLOAD PUSH2 0x726 SWAP2 SWAP1 PUSH2 0x24BD JUMP JUMPDEST PUSH1 0x40 MLOAD DUP1 SWAP2 SUB SWAP1 RETURN JUMPDEST CALLVALUE DUP1 ISZERO PUSH2 0x73B JUMPI PUSH1 0x0 DUP1 REVERT JUMPDEST POP PUSH2 0x744 PUSH2 0x17E5 JUMP JUMPDEST PUSH1 0x40 MLOAD PUSH2 0x751 SWAP2 SWAP1 PUSH2 0x231A JUMP JUMPDEST PUSH1 0x40 MLOAD DUP1 SWAP2 SUB SWAP1 RETURN JUMPDEST CALLVALUE DUP1 ISZERO PUSH2 0x766 JUMPI PUSH1 0x0 DUP1 REVERT JUMPDEST POP PUSH2 0x781 PUSH1 0x4 DUP1 CALLDATASIZE SUB DUP2 ADD SWAP1 PUSH2 0x77C SWAP2 SWAP1 PUSH2 0x2418 JUMP JUMPDEST PUSH2 0x180B JUMP JUMPDEST STOP JUMPDEST CALLVALUE DUP1 ISZERO PUSH2 0x78F JUMPI PUSH1 0x0 DUP1 REVERT JUMPDEST POP PUSH2 0x7AA PUSH1 0x4 DUP1 CALLDATASIZE SUB DUP2 ADD SWAP1 PUSH2 0x7A5 SWAP2 SWAP1 PUSH2 0x287F JUMP JUMPDEST PUSH2 0x187E JUMP JUMPDEST STOP JUMPDEST CALLVALUE DUP1 ISZERO PUSH2 0x7B8 JUMPI PUSH1 0x0 DUP1 REVERT JUMPDEST POP PUSH2 0x7D3 PUSH1 0x4 DUP1 CALLDATASIZE SUB DUP2 ADD SWAP1 PUSH2 0x7CE SWAP2 SWAP1 PUSH2 0x2A38 JUMP JUMPDEST PUSH2 0x1901 JUMP JUMPDEST PUSH1 0x40 MLOAD PUSH2 0x7E0 SWAP2 SWAP1 PUSH2 0x27B5 JUMP JUMPDEST PUSH1 0x40 MLOAD DUP1 SWAP2 SUB SWAP1 RETURN JUMPDEST CALLVALUE DUP1 ISZERO PUSH2 0x7F5 JUMPI PUSH1 0x0 DUP1 REVERT JUMPDEST POP PUSH2 0x7FE PUSH2 0x19B2 JUMP JUMPDEST PUSH1 0x40 MLOAD PUSH2 0x80B SWAP2 SWAP1 PUSH2 0x231A JUMP JUMPDEST PUSH1 0x40 MLOAD DUP1 SWAP2 SUB SWAP1 RETURN JUMPDEST PUSH32 0x0 PUSH20 0xFFFFFFFFFFFFFFFFFFFFFFFFFFFFFFFFFFFFFFFF AND PUSH2 0x853 PUSH2 0x19D8 JUMP JUMPDEST PUSH20 0xFFFFFFFFFFFFFFFFFFFFFFFFFFFFFFFFFFFFFFFF AND EQ PUSH2 0x8A9 JUMPI PUSH1 0x40 MLOAD PUSH32 0x8C379A000000000000000000000000000000000000000000000000000000000 DUP2 MSTORE PUSH1 0x4 ADD PUSH2 0x8A0 SWAP1 PUSH2 0x2AFC JUMP JUMPDEST PUSH1 0x40 MLOAD DUP1 SWAP2 SUB SWAP1 REVERT JUMPDEST PUSH1 0x0 PUSH1 0x1 PUSH1 0x0 DUP9 PUSH2 0xFFFF AND PUSH2 0xFFFF AND DUP2 MSTORE PUSH1 0x20 ADD SWAP1 DUP2 MSTORE PUSH1 0x20 ADD PUSH1 0x0 KECCAK256 DUP1 SLOAD PUSH2 0x8D1 SWAP1 PUSH2 0x2B4B JUMP JUMPDEST DUP1 PUSH1 0x1F ADD PUSH1 0x20 DUP1 SWAP2 DIV MUL PUSH1 0x20 ADD PUSH1 0x40 MLOAD SWAP1 DUP2 ADD PUSH1 0x40 MSTORE DUP1 SWAP3 SWAP2 SWAP1 DUP2 DUP2 MSTORE PUSH1 0x20 ADD DUP3 DUP1 SLOAD PUSH2 0x8FD SWAP1 PUSH2 0x2B4B JUMP JUMPDEST DUP1 ISZERO PUSH2 0x94A JUMPI DUP1 PUSH1 0x1F LT PUSH2 0x91F JUMPI PUSH2 0x100 DUP1 DUP4 SLOAD DIV MUL DUP4 MSTORE SWAP2 PUSH1 0x20 ADD SWAP2 PUSH2 0x94A JUMP JUMPDEST DUP3 ADD SWAP2 SWAP1 PUSH1 0x0 MSTORE PUSH1 0x20 PUSH1 0x0 KECCAK256 SWAP1 JUMPDEST DUP2 SLOAD DUP2 MSTORE SWAP1 PUSH1 0x1 ADD SWAP1 PUSH1 0x20 ADD DUP1 DUP4 GT PUSH2 0x92D JUMPI DUP3 SWAP1 SUB PUSH1 0x1F AND DUP3 ADD SWAP2 JUMPDEST POP POP POP POP POP SWAP1 POP DUP1 MLOAD DUP7 DUP7 SWAP1 POP EQ DUP1 ISZERO PUSH2 0x965 JUMPI POP PUSH1 0x0 DUP2 MLOAD GT JUMPDEST DUP1 ISZERO PUSH2 0x98E JUMPI POP DUP1 DUP1 MLOAD SWAP1 PUSH1 0x20 ADD KECCAK256 DUP7 DUP7 PUSH1 0x40 MLOAD PUSH2 0x984 SWAP3 SWAP2 SWAP1 PUSH2 0x2BAC JUMP JUMPDEST PUSH1 0x40 MLOAD DUP1 SWAP2 SUB SWAP1 KECCAK256 EQ JUMPDEST PUSH2 0x9CD JUMPI PUSH1 0x40 MLOAD PUSH32 0x8C379A000000000000000000000000000000000000000000000000000000000 DUP2 MSTORE PUSH1 0x4 ADD PUSH2 0x9C4 SWAP1 PUSH2 0x2C37 JUMP JUMPDEST PUSH1 0x40 MLOAD DUP1 SWAP2 SUB SWAP1 REVERT JUMPDEST PUSH2 0xA61 DUP8 DUP8 DUP8 DUP1 DUP1 PUSH1 0x1F ADD PUSH1 0x20 DUP1 SWAP2 DIV MUL PUSH1 0x20 ADD PUSH1 0x40 MLOAD SWAP1 DUP2 ADD PUSH1 0x40 MSTORE DUP1 SWAP4 SWAP3 SWAP2 SWAP1 DUP2 DUP2 MSTORE PUSH1 0x20 ADD DUP4 DUP4 DUP1 DUP3 DUP5 CALLDATACOPY PUSH1 0x0 DUP2 DUP5 ADD MSTORE PUSH1 0x1F NOT PUSH1 0x1F DUP3 ADD AND SWAP1 POP DUP1 DUP4 ADD SWAP3 POP POP POP POP POP POP POP DUP7 DUP7 DUP7 DUP1 DUP1 PUSH1 0x1F ADD PUSH1 0x20 DUP1 SWAP2 DIV MUL PUSH1 0x20 ADD PUSH1 0x40 MLOAD SWAP1 DUP2 ADD PUSH1 0x40 MSTORE DUP1 SWAP4 SWAP3 SWAP2 SWAP1 DUP2 DUP2 MSTORE PUSH1 0x20 ADD DUP4 DUP4 DUP1 DUP3 DUP5 CALLDATACOPY PUSH1 0x0 DUP2 DUP5 ADD MSTORE PUSH1 0x1F NOT PUSH1 0x1F DUP3 ADD AND SWAP1 POP DUP1 DUP4 ADD SWAP3 POP POP POP POP POP POP POP PUSH2 0x19E0 JUMP JUMPDEST POP POP POP POP POP POP POP JUMP JUMPDEST PUSH1 0x8 PUSH1 0x0 SWAP1 SLOAD SWAP1 PUSH2 0x100 EXP SWAP1 DIV PUSH20 0xFFFFFFFFFFFFFFFFFFFFFFFFFFFFFFFFFFFFFFFF AND DUP2 JUMP JUMPDEST PUSH2 0xA98 PUSH2 0x1AAB JUMP JUMPDEST PUSH32 0x0 PUSH20 0xFFFFFFFFFFFFFFFFFFFFFFFFFFFFFFFFFFFFFFFF AND PUSH4 0x7E0DB17 DUP3 PUSH1 0x40 MLOAD DUP3 PUSH4 0xFFFFFFFF AND PUSH1 0xE0 SHL DUP2 MSTORE PUSH1 0x4 ADD PUSH2 0xAF1 SWAP2 SWAP1 PUSH2 0x2C66 JUMP JUMPDEST PUSH1 0x0 PUSH1 0x40 MLOAD DUP1 DUP4 SUB DUP2 PUSH1 0x0 DUP8 DUP1 EXTCODESIZE ISZERO DUP1 ISZERO PUSH2 0xB0B JUMPI PUSH1 0x0 DUP1 REVERT JUMPDEST POP GAS CALL ISZERO DUP1 ISZERO PUSH2 0xB1F JUMPI RETURNDATASIZE PUSH1 0x0 DUP1 RETURNDATACOPY RETURNDATASIZE PUSH1 0x0 REVERT JUMPDEST POP POP POP POP POP JUMP JUMPDEST PUSH2 0xB2E PUSH2 0x1AAB JUMP JUMPDEST DUP1 PUSH1 0x3 PUSH1 0x0 DUP5 PUSH2 0xFFFF AND PUSH2 0xFFFF AND DUP2 MSTORE PUSH1 0x20 ADD SWAP1 DUP2 MSTORE PUSH1 0x20 ADD PUSH1 0x0 KECCAK256 DUP2 SWAP1 SSTORE POP POP POP JUMP JUMPDEST PUSH2 0xB5A PUSH2 0x1AAB JUMP JUMPDEST PUSH32 0x0 PUSH20 0xFFFFFFFFFFFFFFFFFFFFFFFFFFFFFFFFFFFFFFFF AND PUSH4 0x10DDB137 DUP3 PUSH1 0x40 MLOAD DUP3 PUSH4 0xFFFFFFFF AND PUSH1 0xE0 SHL DUP2 MSTORE PUSH1 0x4 ADD PUSH2 0xBB3 SWAP2 SWAP1 PUSH2 0x2C66 JUMP JUMPDEST PUSH1 0x0 PUSH1 0x40 MLOAD DUP1 DUP4 SUB DUP2 PUSH1 0x0 DUP8 DUP1 EXTCODESIZE ISZERO DUP1 ISZERO PUSH2 0xBCD JUMPI PUSH1 0x0 DUP1 REVERT JUMPDEST POP GAS CALL ISZERO DUP1 ISZERO PUSH2 0xBE1 JUMPI RETURNDATASIZE PUSH1 0x0 DUP1 RETURNDATACOPY RETURNDATASIZE PUSH1 0x0 REVERT JUMPDEST POP POP POP POP POP JUMP JUMPDEST DUP2 CALLVALUE LT ISZERO PUSH2 0xC2B JUMPI PUSH1 0x40 MLOAD PUSH32 0x8C379A000000000000000000000000000000000000000000000000000000000 DUP2 MSTORE PUSH1 0x4 ADD PUSH2 0xC22 SWAP1 PUSH2 0x2CF3 JUMP JUMPDEST PUSH1 0x40 MLOAD DUP1 SWAP2 SUB SWAP1 REVERT JUMPDEST PUSH1 0x0 DUP3 SWAP1 POP PUSH1 0x0 DUP2 CALLER PUSH1 0x40 MLOAD PUSH1 0x20 ADD PUSH2 0xC45 SWAP3 SWAP2 SWAP1 PUSH2 0x2D7C JUMP JUMPDEST PUSH1 0x40 MLOAD PUSH1 0x20 DUP2 DUP4 SUB SUB DUP2 MSTORE SWAP1 PUSH1 0x40 MSTORE SWAP1 POP PUSH1 0x0 PUSH1 0x1 SWAP1 POP PUSH1 0x0 PUSH3 0x55730 SWAP1 POP PUSH1 0x0 DUP3 DUP3 PUSH1 0x40 MLOAD PUSH1 0x20 ADD PUSH2 0xC79 SWAP3 SWAP2 SWAP1 PUSH2 0x2DDE JUMP JUMPDEST PUSH1 0x40 MLOAD PUSH1 0x20 DUP2 DUP4 SUB SUB DUP2 MSTORE SWAP1 PUSH1 0x40 MSTORE SWAP1 POP PUSH2 0xC99 DUP7 DUP6 ADDRESS PUSH1 0x0 DUP6 CALLVALUE PUSH2 0x1B29 JUMP JUMPDEST POP POP POP POP POP POP POP JUMP JUMPDEST PUSH1 0x0 DUP1 PUSH1 0x1 PUSH1 0x0 DUP7 PUSH2 0xFFFF AND PUSH2 0xFFFF AND DUP2 MSTORE PUSH1 0x20 ADD SWAP1 DUP2 MSTORE PUSH1 0x20 ADD PUSH1 0x0 KECCAK256 DUP1 SLOAD PUSH2 0xCCB SWAP1 PUSH2 0x2B4B JUMP JUMPDEST DUP1 PUSH1 0x1F ADD PUSH1 0x20 DUP1 SWAP2 DIV MUL PUSH1 0x20 ADD PUSH1 0x40 MLOAD SWAP1 DUP2 ADD PUSH1 0x40 MSTORE DUP1 SWAP3 SWAP2 SWAP1 DUP2 DUP2 MSTORE PUSH1 0x20 ADD DUP3 DUP1 SLOAD PUSH2 0xCF7 SWAP1 PUSH2 0x2B4B JUMP JUMPDEST DUP1 ISZERO PUSH2 0xD44 JUMPI DUP1 PUSH1 0x1F LT PUSH2 0xD19 JUMPI PUSH2 0x100 DUP1 DUP4 SLOAD DIV MUL DUP4 MSTORE SWAP2 PUSH1 0x20 ADD SWAP2 PUSH2 0xD44 JUMP JUMPDEST DUP3 ADD SWAP2 SWAP1 PUSH1 0x0 MSTORE PUSH1 0x20 PUSH1 0x0 KECCAK256 SWAP1 JUMPDEST DUP2 SLOAD DUP2 MSTORE SWAP1 PUSH1 0x1 ADD SWAP1 PUSH1 0x20 ADD DUP1 DUP4 GT PUSH2 0xD27 JUMPI DUP3 SWAP1 SUB PUSH1 0x1F AND DUP3 ADD SWAP2 JUMPDEST POP POP POP POP POP SWAP1 POP DUP4 DUP4 PUSH1 0x40 MLOAD PUSH2 0xD5B SWAP3 SWAP2 SWAP1 PUSH2 0x2BAC JUMP JUMPDEST PUSH1 0x40 MLOAD DUP1 SWAP2 SUB SWAP1 KECCAK256 DUP2 DUP1 MLOAD SWAP1 PUSH1 0x20 ADD KECCAK256 EQ SWAP2 POP POP SWAP4 SWAP3 POP POP POP JUMP JUMPDEST PUSH1 0x3 PUSH1 0x20 MSTORE DUP1 PUSH1 0x0 MSTORE PUSH1 0x40 PUSH1 0x0 KECCAK256 PUSH1 0x0 SWAP2 POP SWAP1 POP SLOAD DUP2 JUMP JUMPDEST PUSH2 0xD96 PUSH2 0x1AAB JUMP JUMPDEST PUSH32 0x0 PUSH20 0xFFFFFFFFFFFFFFFFFFFFFFFFFFFFFFFFFFFFFFFF AND PUSH4 0x42D65A8D DUP5 DUP5 DUP5 PUSH1 0x40 MLOAD DUP5 PUSH4 0xFFFFFFFF AND PUSH1 0xE0 SHL DUP2 MSTORE PUSH1 0x4 ADD PUSH2 0xDF3 SWAP4 SWAP3 SWAP2 SWAP1 PUSH2 0x2E37 JUMP JUMPDEST PUSH1 0x0 PUSH1 0x40 MLOAD DUP1 DUP4 SUB DUP2 PUSH1 0x0 DUP8 DUP1 EXTCODESIZE ISZERO DUP1 ISZERO PUSH2 0xE0D JUMPI PUSH1 0x0 DUP1 REVERT JUMPDEST POP GAS CALL ISZERO DUP1 ISZERO PUSH2 0xE21 JUMPI RETURNDATASIZE PUSH1 0x0 DUP1 RETURNDATACOPY RETURNDATASIZE PUSH1 0x0 REVERT JUMPDEST POP POP POP POP POP POP POP JUMP JUMPDEST PUSH2 0xE32 PUSH2 0x1AAB JUMP JUMPDEST PUSH1 0x0 SELFBALANCE SWAP1 POP PUSH1 0x0 CALLER PUSH20 0xFFFFFFFFFFFFFFFFFFFFFFFFFFFFFFFFFFFFFFFF AND DUP3 PUSH1 0x40 MLOAD PUSH2 0xE5D SWAP1 PUSH2 0x2E8F JUMP JUMPDEST PUSH1 0x0 PUSH1 0x40 MLOAD DUP1 DUP4 SUB DUP2 DUP6 DUP8 GAS CALL SWAP3 POP POP POP RETURNDATASIZE DUP1 PUSH1 0x0 DUP2 EQ PUSH2 0xE9A JUMPI PUSH1 0x40 MLOAD SWAP2 POP PUSH1 0x1F NOT PUSH1 0x3F RETURNDATASIZE ADD AND DUP3 ADD PUSH1 0x40 MSTORE RETURNDATASIZE DUP3 MSTORE RETURNDATASIZE PUSH1 0x0 PUSH1 0x20 DUP5 ADD RETURNDATACOPY PUSH2 0xE9F JUMP JUMPDEST PUSH1 0x60 SWAP2 POP JUMPDEST POP POP SWAP1 POP DUP1 PUSH2 0xEE3 JUMPI PUSH1 0x40 MLOAD PUSH32 0x8C379A000000000000000000000000000000000000000000000000000000000 DUP2 MSTORE PUSH1 0x4 ADD PUSH2 0xEDA SWAP1 PUSH2 0x2EF0 JUMP JUMPDEST PUSH1 0x40 MLOAD DUP1 SWAP2 SUB SWAP1 REVERT JUMPDEST POP POP JUMP JUMPDEST PUSH32 0x0 DUP2 JUMP JUMPDEST PUSH1 0x5 PUSH1 0x20 MSTORE DUP3 PUSH1 0x0 MSTORE PUSH1 0x40 PUSH1 0x0 KECCAK256 DUP3 DUP1 MLOAD PUSH1 0x20 DUP2 ADD DUP3 ADD DUP1 MLOAD DUP5 DUP3 MSTORE PUSH1 0x20 DUP4 ADD PUSH1 0x20 DUP6 ADD KECCAK256 DUP2 DUP4 MSTORE DUP1 SWAP6 POP POP POP POP POP POP PUSH1 0x20 MSTORE DUP1 PUSH1 0x0 MSTORE PUSH1 0x40 PUSH1 0x0 KECCAK256 PUSH1 0x0 SWAP3 POP SWAP3 POP POP POP SLOAD DUP2 JUMP JUMPDEST ADDRESS PUSH20 0xFFFFFFFFFFFFFFFFFFFFFFFFFFFFFFFFFFFFFFFF AND PUSH2 0xF72 PUSH2 0x19D8 JUMP JUMPDEST PUSH20 0xFFFFFFFFFFFFFFFFFFFFFFFFFFFFFFFFFFFFFFFF AND EQ PUSH2 0xFC8 JUMPI PUSH1 0x40 MLOAD PUSH32 0x8C379A000000000000000000000000000000000000000000000000000000000 DUP2 MSTORE PUSH1 0x4 ADD PUSH2 0xFBF SWAP1 PUSH2 0x2F82 JUMP JUMPDEST PUSH1 0x40 MLOAD DUP1 SWAP2 SUB SWAP1 REVERT JUMPDEST PUSH2 0x105C DUP7 DUP7 DUP7 DUP1 DUP1 PUSH1 0x1F ADD PUSH1 0x20 DUP1 SWAP2 DIV MUL PUSH1 0x20 ADD PUSH1 0x40 MLOAD SWAP1 DUP2 ADD PUSH1 0x40 MSTORE DUP1 SWAP4 SWAP3 SWAP2 SWAP1 DUP2 DUP2 MSTORE PUSH1 0x20 ADD DUP4 DUP4 DUP1 DUP3 DUP5 CALLDATACOPY PUSH1 0x0 DUP2 DUP5 ADD MSTORE PUSH1 0x1F NOT PUSH1 0x1F DUP3 ADD AND SWAP1 POP DUP1 DUP4 ADD SWAP3 POP POP POP POP POP POP POP DUP6 DUP6 DUP6 DUP1 DUP1 PUSH1 0x1F ADD PUSH1 0x20 DUP1 SWAP2 DIV MUL PUSH1 0x20 ADD PUSH1 0x40 MLOAD SWAP1 DUP2 ADD PUSH1 0x40 MSTORE DUP1 SWAP4 SWAP3 SWAP2 SWAP1 DUP2 DUP2 MSTORE PUSH1 0x20 ADD DUP4 DUP4 DUP1 DUP3 DUP5 CALLDATACOPY PUSH1 0x0 DUP2 DUP5 ADD MSTORE PUSH1 0x1F NOT PUSH1 0x1F DUP3 ADD AND SWAP1 POP DUP1 DUP4 ADD SWAP3 POP POP POP POP POP POP POP PUSH2 0x1CBF JUMP JUMPDEST POP POP POP POP POP POP JUMP JUMPDEST PUSH2 0x106C PUSH2 0x1AAB JUMP JUMPDEST PUSH2 0x1076 PUSH1 0x0 PUSH2 0x1CFC JUMP JUMPDEST JUMP JUMPDEST PUSH1 0x1 PUSH1 0x20 MSTORE DUP1 PUSH1 0x0 MSTORE PUSH1 0x40 PUSH1 0x0 KECCAK256 PUSH1 0x0 SWAP2 POP SWAP1 POP DUP1 SLOAD PUSH2 0x1097 SWAP1 PUSH2 0x2B4B JUMP JUMPDEST DUP1 PUSH1 0x1F ADD PUSH1 0x20 DUP1 SWAP2 DIV MUL PUSH1 0x20 ADD PUSH1 0x40 MLOAD SWAP1 DUP2 ADD PUSH1 0x40 MSTORE DUP1 SWAP3 SWAP2 SWAP1 DUP2 DUP2 MSTORE PUSH1 0x20 ADD DUP3 DUP1 SLOAD PUSH2 0x10C3 SWAP1 PUSH2 0x2B4B JUMP JUMPDEST DUP1 ISZERO PUSH2 0x1110 JUMPI DUP1 PUSH1 0x1F LT PUSH2 0x10E5 JUMPI PUSH2 0x100 DUP1 DUP4 SLOAD DIV MUL DUP4 MSTORE SWAP2 PUSH1 0x20 ADD SWAP2 PUSH2 0x1110 JUMP JUMPDEST DUP3 ADD SWAP2 SWAP1 PUSH1 0x0 MSTORE PUSH1 0x20 PUSH1 0x0 KECCAK256 SWAP1 JUMPDEST DUP2 SLOAD DUP2 MSTORE SWAP1 PUSH1 0x1 ADD SWAP1 PUSH1 0x20 ADD DUP1 DUP4 GT PUSH2 0x10F3 JUMPI DUP3 SWAP1 SUB PUSH1 0x1F AND DUP3 ADD SWAP2 JUMPDEST POP POP POP POP POP DUP2 JUMP JUMPDEST PUSH1 0x2 PUSH1 0x20 MSTORE DUP2 PUSH1 0x0 MSTORE PUSH1 0x40 PUSH1 0x0 KECCAK256 PUSH1 0x20 MSTORE DUP1 PUSH1 0x0 MSTORE PUSH1 0x40 PUSH1 0x0 KECCAK256 PUSH1 0x0 SWAP2 POP SWAP2 POP POP SLOAD DUP2 JUMP JUMPDEST PUSH1 0x0 DUP1 PUSH1 0x0 SWAP1 SLOAD SWAP1 PUSH2 0x100 EXP SWAP1 DIV PUSH20 0xFFFFFFFFFFFFFFFFFFFFFFFFFFFFFFFFFFFFFFFF AND SWAP1 POP SWAP1 JUMP JUMPDEST PUSH1 0x4 PUSH1 0x0 SWAP1 SLOAD SWAP1 PUSH2 0x100 EXP SWAP1 DIV PUSH20 0xFFFFFFFFFFFFFFFFFFFFFFFFFFFFFFFFFFFFFFFF AND DUP2 JUMP JUMPDEST PUSH1 0x60 PUSH1 0x0 PUSH1 0x1 PUSH1 0x0 DUP5 PUSH2 0xFFFF AND PUSH2 0xFFFF AND DUP2 MSTORE PUSH1 0x20 ADD SWAP1 DUP2 MSTORE PUSH1 0x20 ADD PUSH1 0x0 KECCAK256 DUP1 SLOAD PUSH2 0x11B6 SWAP1 PUSH2 0x2B4B JUMP JUMPDEST DUP1 PUSH1 0x1F ADD PUSH1 0x20 DUP1 SWAP2 DIV MUL PUSH1 0x20 ADD PUSH1 0x40 MLOAD SWAP1 DUP2 ADD PUSH1 0x40 MSTORE DUP1 SWAP3 SWAP2 SWAP1 DUP2 DUP2 MSTORE PUSH1 0x20 ADD DUP3 DUP1 SLOAD PUSH2 0x11E2 SWAP1 PUSH2 0x2B4B JUMP JUMPDEST DUP1 ISZERO PUSH2 0x122F JUMPI DUP1 PUSH1 0x1F LT PUSH2 0x1204 JUMPI PUSH2 0x100 DUP1 DUP4 SLOAD DIV MUL DUP4 MSTORE SWAP2 PUSH1 0x20 ADD SWAP2 PUSH2 0x122F JUMP JUMPDEST DUP3 ADD SWAP2 SWAP1 PUSH1 0x0 MSTORE PUSH1 0x20 PUSH1 0x0 KECCAK256 SWAP1 JUMPDEST DUP2 SLOAD DUP2 MSTORE SWAP1 PUSH1 0x1 ADD SWAP1 PUSH1 0x20 ADD DUP1 DUP4 GT PUSH2 0x1212 JUMPI DUP3 SWAP1 SUB PUSH1 0x1F AND DUP3 ADD SWAP2 JUMPDEST POP POP POP POP POP SWAP1 POP PUSH1 0x0 DUP2 MLOAD SUB PUSH2 0x127A JUMPI PUSH1 0x40 MLOAD PUSH32 0x8C379A000000000000000000000000000000000000000000000000000000000 DUP2 MSTORE PUSH1 0x4 ADD PUSH2 0x1271 SWAP1 PUSH2 0x2FEE JUMP JUMPDEST PUSH1 0x40 MLOAD DUP1 SWAP2 SUB SWAP1 REVERT JUMPDEST PUSH2 0x129D PUSH1 0x0 PUSH1 0x14 DUP4 MLOAD PUSH2 0x128D SWAP2 SWAP1 PUSH2 0x303D JUMP JUMPDEST DUP4 PUSH2 0x1DC0 SWAP1 SWAP3 SWAP2 SWAP1 PUSH4 0xFFFFFFFF AND JUMP JUMPDEST SWAP2 POP POP SWAP2 SWAP1 POP JUMP JUMPDEST PUSH2 0x12AD PUSH2 0x1AAB JUMP JUMPDEST DUP2 DUP2 ADDRESS PUSH1 0x40 MLOAD PUSH1 0x20 ADD PUSH2 0x12C2 SWAP4 SWAP3 SWAP2 SWAP1 PUSH2 0x3071 JUMP JUMPDEST PUSH1 0x40 MLOAD PUSH1 0x20 DUP2 DUP4 SUB SUB DUP2 MSTORE SWAP1 PUSH1 0x40 MSTORE PUSH1 0x1 PUSH1 0x0 DUP6 PUSH2 0xFFFF AND PUSH2 0xFFFF AND DUP2 MSTORE PUSH1 0x20 ADD SWAP1 DUP2 MSTORE PUSH1 0x20 ADD PUSH1 0x0 KECCAK256 SWAP1 DUP2 PUSH2 0x12F8 SWAP2 SWAP1 PUSH2 0x323D JUMP JUMPDEST POP PUSH32 0x8C0400CFE2D1199B1A725C78960BCC2A344D869B80590D0F2BD005DB15A572CE DUP4 DUP4 DUP4 PUSH1 0x40 MLOAD PUSH2 0x132C SWAP4 SWAP3 SWAP2 SWAP1 PUSH2 0x2E37 JUMP JUMPDEST PUSH1 0x40 MLOAD DUP1 SWAP2 SUB SWAP1 LOG1 POP POP POP JUMP JUMPDEST PUSH32 0x0 DUP2 JUMP JUMPDEST PUSH2 0x1365 PUSH2 0x1AAB JUMP JUMPDEST DUP1 PUSH1 0x4 PUSH1 0x0 PUSH2 0x100 EXP DUP2 SLOAD DUP2 PUSH20 0xFFFFFFFFFFFFFFFFFFFFFFFFFFFFFFFFFFFFFFFF MUL NOT AND SWAP1 DUP4 PUSH20 0xFFFFFFFFFFFFFFFFFFFFFFFFFFFFFFFFFFFFFFFF AND MUL OR SWAP1 SSTORE POP PUSH32 0x5DB758E995A17EC1AD84BDEF7E8C3293A0BD6179BCCE400DFF5D4C3D87DB726B DUP2 PUSH1 0x40 MLOAD PUSH2 0x13D5 SWAP2 SWAP1 PUSH2 0x231A JUMP JUMPDEST PUSH1 0x40 MLOAD DUP1 SWAP2 SUB SWAP1 LOG1 POP JUMP JUMPDEST PUSH32 0x0 DUP2 JUMP JUMPDEST PUSH2 0x2710 DUP2 JUMP JUMPDEST PUSH32 0x0 DUP2 JUMP JUMPDEST PUSH2 0x1436 PUSH2 0x1AAB JUMP JUMPDEST PUSH32 0x0 PUSH20 0xFFFFFFFFFFFFFFFFFFFFFFFFFFFFFFFFFFFFFFFF AND PUSH4 0xCBED8B9C DUP7 DUP7 DUP7 DUP7 DUP7 PUSH1 0x40 MLOAD DUP7 PUSH4 0xFFFFFFFF AND PUSH1 0xE0 SHL DUP2 MSTORE PUSH1 0x4 ADD PUSH2 0x1497 SWAP6 SWAP5 SWAP4 SWAP3 SWAP2 SWAP1 PUSH2 0x330F JUMP JUMPDEST PUSH1 0x0 PUSH1 0x40 MLOAD DUP1 DUP4 SUB DUP2 PUSH1 0x0 DUP8 DUP1 EXTCODESIZE ISZERO DUP1 ISZERO PUSH2 0x14B1 JUMPI PUSH1 0x0 DUP1 REVERT JUMPDEST POP GAS CALL ISZERO DUP1 ISZERO PUSH2 0x14C5 JUMPI RETURNDATASIZE PUSH1 0x0 DUP1 RETURNDATACOPY RETURNDATASIZE PUSH1 0x0 REVERT JUMPDEST POP POP POP POP POP POP POP POP POP JUMP JUMPDEST PUSH1 0x0 PUSH1 0x5 PUSH1 0x0 DUP9 PUSH2 0xFFFF AND PUSH2 0xFFFF AND DUP2 MSTORE PUSH1 0x20 ADD SWAP1 DUP2 MSTORE PUSH1 0x20 ADD PUSH1 0x0 KECCAK256 DUP7 DUP7 PUSH1 0x40 MLOAD PUSH2 0x14FD SWAP3 SWAP2 SWAP1 PUSH2 0x2BAC JUMP JUMPDEST SWAP1 DUP2 MSTORE PUSH1 0x20 ADD PUSH1 0x40 MLOAD DUP1 SWAP2 SUB SWAP1 KECCAK256 PUSH1 0x0 DUP6 PUSH8 0xFFFFFFFFFFFFFFFF AND PUSH8 0xFFFFFFFFFFFFFFFF AND DUP2 MSTORE PUSH1 0x20 ADD SWAP1 DUP2 MSTORE PUSH1 0x20 ADD PUSH1 0x0 KECCAK256 SLOAD SWAP1 POP PUSH1 0x0 DUP1 SHL DUP2 SUB PUSH2 0x1578 JUMPI PUSH1 0x40 MLOAD PUSH32 0x8C379A000000000000000000000000000000000000000000000000000000000 DUP2 MSTORE PUSH1 0x4 ADD PUSH2 0x156F SWAP1 PUSH2 0x33CF JUMP JUMPDEST PUSH1 0x40 MLOAD DUP1 SWAP2 SUB SWAP1 REVERT JUMPDEST DUP1 DUP4 DUP4 PUSH1 0x40 MLOAD PUSH2 0x1589 SWAP3 SWAP2 SWAP1 PUSH2 0x2BAC JUMP JUMPDEST PUSH1 0x40 MLOAD DUP1 SWAP2 SUB SWAP1 KECCAK256 EQ PUSH2 0x15D1 JUMPI PUSH1 0x40 MLOAD PUSH32 0x8C379A000000000000000000000000000000000000000000000000000000000 DUP2 MSTORE PUSH1 0x4 ADD PUSH2 0x15C8 SWAP1 PUSH2 0x3461 JUMP JUMPDEST PUSH1 0x40 MLOAD DUP1 SWAP2 SUB SWAP1 REVERT JUMPDEST PUSH1 0x0 DUP1 SHL PUSH1 0x5 PUSH1 0x0 DUP10 PUSH2 0xFFFF AND PUSH2 0xFFFF AND DUP2 MSTORE PUSH1 0x20 ADD SWAP1 DUP2 MSTORE PUSH1 0x20 ADD PUSH1 0x0 KECCAK256 DUP8 DUP8 PUSH1 0x40 MLOAD PUSH2 0x1600 SWAP3 SWAP2 SWAP1 PUSH2 0x2BAC JUMP JUMPDEST SWAP1 DUP2 MSTORE PUSH1 0x20 ADD PUSH1 0x40 MLOAD DUP1 SWAP2 SUB SWAP1 KECCAK256 PUSH1 0x0 DUP7 PUSH8 0xFFFFFFFFFFFFFFFF AND PUSH8 0xFFFFFFFFFFFFFFFF AND DUP2 MSTORE PUSH1 0x20 ADD SWAP1 DUP2 MSTORE PUSH1 0x20 ADD PUSH1 0x0 KECCAK256 DUP2 SWAP1 SSTORE POP PUSH2 0x16CB DUP8 DUP8 DUP8 DUP1 DUP1 PUSH1 0x1F ADD PUSH1 0x20 DUP1 SWAP2 DIV MUL PUSH1 0x20 ADD PUSH1 0x40 MLOAD SWAP1 DUP2 ADD PUSH1 0x40 MSTORE DUP1 SWAP4 SWAP3 SWAP2 SWAP1 DUP2 DUP2 MSTORE PUSH1 0x20 ADD DUP4 DUP4 DUP1 DUP3 DUP5 CALLDATACOPY PUSH1 0x0 DUP2 DUP5 ADD MSTORE PUSH1 0x1F NOT PUSH1 0x1F DUP3 ADD AND SWAP1 POP DUP1 DUP4 ADD SWAP3 POP POP POP POP POP POP POP DUP7 DUP7 DUP7 DUP1 DUP1 PUSH1 0x1F ADD PUSH1 0x20 DUP1 SWAP2 DIV MUL PUSH1 0x20 ADD PUSH1 0x40 MLOAD SWAP1 DUP2 ADD PUSH1 0x40 MSTORE DUP1 SWAP4 SWAP3 SWAP2 SWAP1 DUP2 DUP2 MSTORE PUSH1 0x20 ADD DUP4 DUP4 DUP1 DUP3 DUP5 CALLDATACOPY PUSH1 0x0 DUP2 DUP5 ADD MSTORE PUSH1 0x1F NOT PUSH1 0x1F DUP3 ADD AND SWAP1 POP DUP1 DUP4 ADD SWAP3 POP POP POP POP POP POP POP PUSH2 0x1CBF JUMP JUMPDEST PUSH32 0xC264D91F3ADC5588250E1551F547752CA0CFA8F6B530D243B9F9F4CAB10EA8E5 DUP8 DUP8 DUP8 DUP8 DUP6 PUSH1 0x40 MLOAD PUSH2 0x1702 SWAP6 SWAP5 SWAP4 SWAP3 SWAP2 SWAP1 PUSH2 0x3490 JUMP JUMPDEST PUSH1 0x40 MLOAD DUP1 SWAP2 SUB SWAP1 LOG1 POP POP POP POP POP POP POP JUMP JUMPDEST PUSH2 0x1F4 DUP2 JUMP JUMPDEST PUSH2 0x1721 PUSH2 0x1AAB JUMP JUMPDEST PUSH1 0x0 DUP2 GT PUSH2 0x1764 JUMPI PUSH1 0x40 MLOAD PUSH32 0x8C379A000000000000000000000000000000000000000000000000000000000 DUP2 MSTORE PUSH1 0x4 ADD PUSH2 0x175B SWAP1 PUSH2 0x352A JUMP JUMPDEST PUSH1 0x40 MLOAD DUP1 SWAP2 SUB SWAP1 REVERT JUMPDEST DUP1 PUSH1 0x2 PUSH1 0x0 DUP6 PUSH2 0xFFFF AND PUSH2 0xFFFF AND DUP2 MSTORE PUSH1 0x20 ADD SWAP1 DUP2 MSTORE PUSH1 0x20 ADD PUSH1 0x0 KECCAK256 PUSH1 0x0 DUP5 PUSH2 0xFFFF AND PUSH2 0xFFFF AND DUP2 MSTORE PUSH1 0x20 ADD SWAP1 DUP2 MSTORE PUSH1 0x20 ADD PUSH1 0x0 KECCAK256 DUP2 SWAP1 SSTORE POP PUSH32 0x9D5C7C0B934DA8FEFA9C7760C98383778A12DFBFC0C3B3106518F43FB9508AC0 DUP4 DUP4 DUP4 PUSH1 0x40 MLOAD PUSH2 0x17D0 SWAP4 SWAP3 SWAP2 SWAP1 PUSH2 0x354A JUMP JUMPDEST PUSH1 0x40 MLOAD DUP1 SWAP2 SUB SWAP1 LOG1 POP POP POP JUMP JUMPDEST PUSH1 0x0 SELFBALANCE SWAP1 POP SWAP1 JUMP JUMPDEST PUSH1 0x6 PUSH1 0x0 SWAP1 SLOAD SWAP1 PUSH2 0x100 EXP SWAP1 DIV PUSH20 0xFFFFFFFFFFFFFFFFFFFFFFFFFFFFFFFFFFFFFFFF AND DUP2 JUMP JUMPDEST PUSH2 0x1813 PUSH2 0x1AAB JUMP JUMPDEST DUP2 DUP2 PUSH1 0x1 PUSH1 0x0 DUP7 PUSH2 0xFFFF AND PUSH2 0xFFFF AND DUP2 MSTORE PUSH1 0x20 ADD SWAP1 DUP2 MSTORE PUSH1 0x20 ADD PUSH1 0x0 KECCAK256 SWAP2 DUP3 PUSH2 0x183D SWAP3 SWAP2 SWAP1 PUSH2 0x358C JUMP JUMPDEST POP PUSH32 0xFA41487AD5D6728F0B19276FA1EDDC16558578F5109FC39D2DC33C3230470DAB DUP4 DUP4 DUP4 PUSH1 0x40 MLOAD PUSH2 0x1871 SWAP4 SWAP3 SWAP2 SWAP1 PUSH2 0x2E37 JUMP JUMPDEST PUSH1 0x40 MLOAD DUP1 SWAP2 SUB SWAP1 LOG1 POP POP POP JUMP JUMPDEST PUSH2 0x1886 PUSH2 0x1AAB JUMP JUMPDEST PUSH1 0x0 PUSH20 0xFFFFFFFFFFFFFFFFFFFFFFFFFFFFFFFFFFFFFFFF AND DUP2 PUSH20 0xFFFFFFFFFFFFFFFFFFFFFFFFFFFFFFFFFFFFFFFF AND SUB PUSH2 0x18F5 JUMPI PUSH1 0x40 MLOAD PUSH32 0x8C379A000000000000000000000000000000000000000000000000000000000 DUP2 MSTORE PUSH1 0x4 ADD PUSH2 0x18EC SWAP1 PUSH2 0x36CE JUMP JUMPDEST PUSH1 0x40 MLOAD DUP1 SWAP2 SUB SWAP1 REVERT JUMPDEST PUSH2 0x18FE DUP2 PUSH2 0x1CFC JUMP JUMPDEST POP JUMP JUMPDEST PUSH1 0x60 PUSH32 0x0 PUSH20 0xFFFFFFFFFFFFFFFFFFFFFFFFFFFFFFFFFFFFFFFF AND PUSH4 0xF5ECBDBC DUP7 DUP7 ADDRESS DUP7 PUSH1 0x40 MLOAD DUP6 PUSH4 0xFFFFFFFF AND PUSH1 0xE0 SHL DUP2 MSTORE PUSH1 0x4 ADD PUSH2 0x1962 SWAP5 SWAP4 SWAP3 SWAP2 SWAP1 PUSH2 0x36EE JUMP JUMPDEST PUSH1 0x0 PUSH1 0x40 MLOAD DUP1 DUP4 SUB DUP2 DUP7 GAS STATICCALL ISZERO DUP1 ISZERO PUSH2 0x197F JUMPI RETURNDATASIZE PUSH1 0x0 DUP1 RETURNDATACOPY RETURNDATASIZE PUSH1 0x0 REVERT JUMPDEST POP POP POP POP PUSH1 0x40 MLOAD RETURNDATASIZE PUSH1 0x0 DUP3 RETURNDATACOPY RETURNDATASIZE PUSH1 0x1F NOT PUSH1 0x1F DUP3 ADD AND DUP3 ADD DUP1 PUSH1 0x40 MSTORE POP DUP2 ADD SWAP1 PUSH2 0x19A8 SWAP2 SWAP1 PUSH2 0x37A3 JUMP JUMPDEST SWAP1 POP SWAP5 SWAP4 POP POP POP POP JUMP JUMPDEST PUSH1 0x7 PUSH1 0x0 SWAP1 SLOAD SWAP1 PUSH2 0x100 EXP SWAP1 DIV PUSH20 0xFFFFFFFFFFFFFFFFFFFFFFFFFFFFFFFFFFFFFFFF AND DUP2 JUMP JUMPDEST PUSH1 0x0 CALLER SWAP1 POP SWAP1 JUMP JUMPDEST PUSH1 0x0 DUP1 PUSH2 0x1A8C GAS PUSH1 0x96 PUSH4 0x66AD5C8A PUSH1 0xE0 SHL DUP10 DUP10 DUP10 DUP10 PUSH1 0x40 MLOAD PUSH1 0x24 ADD PUSH2 0x1A08 SWAP5 SWAP4 SWAP3 SWAP2 SWAP1 PUSH2 0x37EC JUMP JUMPDEST PUSH1 0x40 MLOAD PUSH1 0x20 DUP2 DUP4 SUB SUB DUP2 MSTORE SWAP1 PUSH1 0x40 MSTORE SWAP1 PUSH28 0xFFFFFFFFFFFFFFFFFFFFFFFFFFFFFFFFFFFFFFFFFFFFFFFFFFFFFFFF NOT AND PUSH1 0x20 DUP3 ADD DUP1 MLOAD PUSH28 0xFFFFFFFFFFFFFFFFFFFFFFFFFFFFFFFFFFFFFFFFFFFFFFFFFFFFFFFF DUP4 DUP2 DUP4 AND OR DUP4 MSTORE POP POP POP POP ADDRESS PUSH20 0xFFFFFFFFFFFFFFFFFFFFFFFFFFFFFFFFFFFFFFFF AND PUSH2 0x1EDE SWAP1 SWAP4 SWAP3 SWAP2 SWAP1 PUSH4 0xFFFFFFFF AND JUMP JUMPDEST SWAP2 POP SWAP2 POP DUP2 PUSH2 0x1AA3 JUMPI PUSH2 0x1AA2 DUP7 DUP7 DUP7 DUP7 DUP6 PUSH2 0x1F76 JUMP JUMPDEST JUMPDEST POP POP POP POP POP POP JUMP JUMPDEST PUSH2 0x1AB3 PUSH2 0x19D8 JUMP JUMPDEST PUSH20 0xFFFFFFFFFFFFFFFFFFFFFFFFFFFFFFFFFFFFFFFF AND PUSH2 0x1AD1 PUSH2 0x113D JUMP JUMPDEST PUSH20 0xFFFFFFFFFFFFFFFFFFFFFFFFFFFFFFFFFFFFFFFF AND EQ PUSH2 0x1B27 JUMPI PUSH1 0x40 MLOAD PUSH32 0x8C379A000000000000000000000000000000000000000000000000000000000 DUP2 MSTORE PUSH1 0x4 ADD PUSH2 0x1B1E SWAP1 PUSH2 0x388B JUMP JUMPDEST PUSH1 0x40 MLOAD DUP1 SWAP2 SUB SWAP1 REVERT JUMPDEST JUMP JUMPDEST PUSH1 0x0 PUSH1 0x1 PUSH1 0x0 DUP9 PUSH2 0xFFFF AND PUSH2 0xFFFF AND DUP2 MSTORE PUSH1 0x20 ADD SWAP1 DUP2 MSTORE PUSH1 0x20 ADD PUSH1 0x0 KECCAK256 DUP1 SLOAD PUSH2 0x1B51 SWAP1 PUSH2 0x2B4B JUMP JUMPDEST DUP1 PUSH1 0x1F ADD PUSH1 0x20 DUP1 SWAP2 DIV MUL PUSH1 0x20 ADD PUSH1 0x40 MLOAD SWAP1 DUP2 ADD PUSH1 0x40 MSTORE DUP1 SWAP3 SWAP2 SWAP1 DUP2 DUP2 MSTORE PUSH1 0x20 ADD DUP3 DUP1 SLOAD PUSH2 0x1B7D SWAP1 PUSH2 0x2B4B JUMP JUMPDEST DUP1 ISZERO PUSH2 0x1BCA JUMPI DUP1 PUSH1 0x1F LT PUSH2 0x1B9F JUMPI PUSH2 0x100 DUP1 DUP4 SLOAD DIV MUL DUP4 MSTORE SWAP2 PUSH1 0x20 ADD SWAP2 PUSH2 0x1BCA JUMP JUMPDEST DUP3 ADD SWAP2 SWAP1 PUSH1 0x0 MSTORE PUSH1 0x20 PUSH1 0x0 KECCAK256 SWAP1 JUMPDEST DUP2 SLOAD DUP2 MSTORE SWAP1 PUSH1 0x1 ADD SWAP1 PUSH1 0x20 ADD DUP1 DUP4 GT PUSH2 0x1BAD JUMPI DUP3 SWAP1 SUB PUSH1 0x1F AND DUP3 ADD SWAP2 JUMPDEST POP POP POP POP POP SWAP1 POP PUSH1 0x0 DUP2 MLOAD SUB PUSH2 0x1C15 JUMPI PUSH1 0x40 MLOAD PUSH32 0x8C379A000000000000000000000000000000000000000000000000000000000 DUP2 MSTORE PUSH1 0x4 ADD PUSH2 0x1C0C SWAP1 PUSH2 0x391D JUMP JUMPDEST PUSH1 0x40 MLOAD DUP1 SWAP2 SUB SWAP1 REVERT JUMPDEST PUSH2 0x1C20 DUP8 DUP8 MLOAD PUSH2 0x2024 JUMP JUMPDEST PUSH32 0x0 PUSH20 0xFFFFFFFFFFFFFFFFFFFFFFFFFFFFFFFFFFFFFFFF AND PUSH4 0xC5803100 DUP4 DUP10 DUP5 DUP11 DUP11 DUP11 DUP11 PUSH1 0x40 MLOAD DUP9 PUSH4 0xFFFFFFFF AND PUSH1 0xE0 SHL DUP2 MSTORE PUSH1 0x4 ADD PUSH2 0x1C84 SWAP7 SWAP6 SWAP5 SWAP4 SWAP3 SWAP2 SWAP1 PUSH2 0x395E JUMP JUMPDEST PUSH1 0x0 PUSH1 0x40 MLOAD DUP1 DUP4 SUB DUP2 DUP6 DUP9 DUP1 EXTCODESIZE ISZERO DUP1 ISZERO PUSH2 0x1C9D JUMPI PUSH1 0x0 DUP1 REVERT JUMPDEST POP GAS CALL ISZERO DUP1 ISZERO PUSH2 0x1CB1 JUMPI RETURNDATASIZE PUSH1 0x0 DUP1 RETURNDATACOPY RETURNDATASIZE PUSH1 0x0 REVERT JUMPDEST POP POP POP POP POP POP POP POP POP POP POP POP JUMP JUMPDEST PUSH1 0x0 PUSH1 0x14 DUP5 ADD MLOAD SWAP1 POP PUSH1 0x0 DUP6 SWAP1 POP PUSH1 0x0 DUP1 DUP5 DUP1 PUSH1 0x20 ADD SWAP1 MLOAD DUP2 ADD SWAP1 PUSH2 0x1CE4 SWAP2 SWAP1 PUSH2 0x3A15 JUMP JUMPDEST SWAP2 POP SWAP2 POP PUSH2 0x1CF2 DUP3 DUP3 PUSH2 0x209A JUMP JUMPDEST POP POP POP POP POP POP POP POP JUMP JUMPDEST PUSH1 0x0 DUP1 PUSH1 0x0 SWAP1 SLOAD SWAP1 PUSH2 0x100 EXP SWAP1 DIV PUSH20 0xFFFFFFFFFFFFFFFFFFFFFFFFFFFFFFFFFFFFFFFF AND SWAP1 POP DUP2 PUSH1 0x0 DUP1 PUSH2 0x100 EXP DUP2 SLOAD DUP2 PUSH20 0xFFFFFFFFFFFFFFFFFFFFFFFFFFFFFFFFFFFFFFFF MUL NOT AND SWAP1 DUP4 PUSH20 0xFFFFFFFFFFFFFFFFFFFFFFFFFFFFFFFFFFFFFFFF AND MUL OR SWAP1 SSTORE POP DUP2 PUSH20 0xFFFFFFFFFFFFFFFFFFFFFFFFFFFFFFFFFFFFFFFF AND DUP2 PUSH20 0xFFFFFFFFFFFFFFFFFFFFFFFFFFFFFFFFFFFFFFFF AND PUSH32 0x8BE0079C531659141344CD1FD0A4F28419497F9722A3DAAFE3B4186F6B6457E0 PUSH1 0x40 MLOAD PUSH1 0x40 MLOAD DUP1 SWAP2 SUB SWAP1 LOG3 POP POP JUMP JUMPDEST PUSH1 0x60 DUP2 PUSH1 0x1F DUP4 PUSH2 0x1DD0 SWAP2 SWAP1 PUSH2 0x3A55 JUMP JUMPDEST LT ISZERO PUSH2 0x1E11 JUMPI PUSH1 0x40 MLOAD PUSH32 0x8C379A000000000000000000000000000000000000000000000000000000000 DUP2 MSTORE PUSH1 0x4 ADD PUSH2 0x1E08 SWAP1 PUSH2 0x3AD5 JUMP JUMPDEST PUSH1 0x40 MLOAD DUP1 SWAP2 SUB SWAP1 REVERT JUMPDEST DUP2 DUP4 PUSH2 0x1E1D SWAP2 SWAP1 PUSH2 0x3A55 JUMP JUMPDEST DUP5 MLOAD LT ISZERO PUSH2 0x1E60 JUMPI PUSH1 0x40 MLOAD PUSH32 0x8C379A000000000000000000000000000000000000000000000000000000000 DUP2 MSTORE PUSH1 0x4 ADD PUSH2 0x1E57 SWAP1 PUSH2 0x3B41 JUMP JUMPDEST PUSH1 0x40 MLOAD DUP1 SWAP2 SUB SWAP1 REVERT JUMPDEST PUSH1 0x60 DUP3 ISZERO PUSH1 0x0 DUP2 EQ PUSH2 0x1E81 JUMPI PUSH1 0x40 MLOAD SWAP2 POP PUSH1 0x0 DUP3 MSTORE PUSH1 0x20 DUP3 ADD PUSH1 0x40 MSTORE PUSH2 0x1ED2 JUMP JUMPDEST PUSH1 0x40 MLOAD SWAP2 POP PUSH1 0x1F DUP5 AND DUP1 ISZERO PUSH1 0x20 MUL DUP2 DUP5 ADD ADD DUP6 DUP2 ADD DUP8 DUP4 ISZERO PUSH1 0x20 MUL DUP5 DUP12 ADD ADD ADD JUMPDEST DUP2 DUP4 LT ISZERO PUSH2 0x1EBF JUMPI DUP1 MLOAD DUP4 MSTORE PUSH1 0x20 DUP4 ADD SWAP3 POP PUSH1 0x20 DUP2 ADD SWAP1 POP PUSH2 0x1EA2 JUMP JUMPDEST POP DUP7 DUP6 MSTORE PUSH1 0x1F NOT PUSH1 0x1F DUP4 ADD AND PUSH1 0x40 MSTORE POP POP POP JUMPDEST POP DUP1 SWAP2 POP POP SWAP4 SWAP3 POP POP POP JUMP JUMPDEST PUSH1 0x0 PUSH1 0x60 PUSH1 0x0 DUP1 PUSH1 0x0 DUP7 PUSH2 0xFFFF AND PUSH8 0xFFFFFFFFFFFFFFFF DUP2 GT ISZERO PUSH2 0x1F05 JUMPI PUSH2 0x1F04 PUSH2 0x2568 JUMP JUMPDEST JUMPDEST PUSH1 0x40 MLOAD SWAP1 DUP1 DUP3 MSTORE DUP1 PUSH1 0x1F ADD PUSH1 0x1F NOT AND PUSH1 0x20 ADD DUP3 ADD PUSH1 0x40 MSTORE DUP1 ISZERO PUSH2 0x1F37 JUMPI DUP2 PUSH1 0x20 ADD PUSH1 0x1 DUP3 MUL DUP1 CALLDATASIZE DUP4 CALLDATACOPY DUP1 DUP3 ADD SWAP2 POP POP SWAP1 POP JUMPDEST POP SWAP1 POP PUSH1 0x0 DUP1 DUP8 MLOAD PUSH1 0x20 DUP10 ADD PUSH1 0x0 DUP14 DUP14 CALL SWAP2 POP RETURNDATASIZE SWAP3 POP DUP7 DUP4 GT ISZERO PUSH2 0x1F59 JUMPI DUP7 SWAP3 POP JUMPDEST DUP3 DUP2 MSTORE DUP3 PUSH1 0x0 PUSH1 0x20 DUP4 ADD RETURNDATACOPY DUP2 DUP2 SWAP5 POP SWAP5 POP POP POP POP SWAP5 POP SWAP5 SWAP3 POP POP POP JUMP JUMPDEST DUP2 DUP1 MLOAD SWAP1 PUSH1 0x20 ADD KECCAK256 PUSH1 0x5 PUSH1 0x0 DUP8 PUSH2 0xFFFF AND PUSH2 0xFFFF AND DUP2 MSTORE PUSH1 0x20 ADD SWAP1 DUP2 MSTORE PUSH1 0x20 ADD PUSH1 0x0 KECCAK256 DUP6 PUSH1 0x40 MLOAD PUSH2 0x1FA7 SWAP2 SWAP1 PUSH2 0x3B92 JUMP JUMPDEST SWAP1 DUP2 MSTORE PUSH1 0x20 ADD PUSH1 0x40 MLOAD DUP1 SWAP2 SUB SWAP1 KECCAK256 PUSH1 0x0 DUP6 PUSH8 0xFFFFFFFFFFFFFFFF AND PUSH8 0xFFFFFFFFFFFFFFFF AND DUP2 MSTORE PUSH1 0x20 ADD SWAP1 DUP2 MSTORE PUSH1 0x20 ADD PUSH1 0x0 KECCAK256 DUP2 SWAP1 SSTORE POP PUSH32 0xE183F33DE2837795525B4792CA4CD60535BD77C53B7E7030060BFCF5734D6B0C DUP6 DUP6 DUP6 DUP6 DUP6 PUSH1 0x40 MLOAD PUSH2 0x2015 SWAP6 SWAP5 SWAP4 SWAP3 SWAP2 SWAP1 PUSH2 0x3BA9 JUMP JUMPDEST PUSH1 0x40 MLOAD DUP1 SWAP2 SUB SWAP1 LOG1 POP POP POP POP POP JUMP JUMPDEST PUSH1 0x0 PUSH1 0x3 PUSH1 0x0 DUP5 PUSH2 0xFFFF AND PUSH2 0xFFFF AND DUP2 MSTORE PUSH1 0x20 ADD SWAP1 DUP2 MSTORE PUSH1 0x20 ADD PUSH1 0x0 KECCAK256 SLOAD SWAP1 POP PUSH1 0x0 DUP2 SUB PUSH2 0x2052 JUMPI PUSH2 0x2710 SWAP1 POP JUMPDEST DUP1 DUP3 GT ISZERO PUSH2 0x2095 JUMPI PUSH1 0x40 MLOAD PUSH32 0x8C379A000000000000000000000000000000000000000000000000000000000 DUP2 MSTORE PUSH1 0x4 ADD PUSH2 0x208C SWAP1 PUSH2 0x3C5D JUMP JUMPDEST PUSH1 0x40 MLOAD DUP1 SWAP2 SUB SWAP1 REVERT JUMPDEST POP POP POP JUMP JUMPDEST PUSH1 0x8 PUSH1 0x0 SWAP1 SLOAD SWAP1 PUSH2 0x100 EXP SWAP1 DIV PUSH20 0xFFFFFFFFFFFFFFFFFFFFFFFFFFFFFFFFFFFFFFFF AND PUSH20 0xFFFFFFFFFFFFFFFFFFFFFFFFFFFFFFFFFFFFFFFF AND PUSH4 0xA9059CBB DUP3 DUP5 PUSH1 0x40 MLOAD DUP4 PUSH4 0xFFFFFFFF AND PUSH1 0xE0 SHL DUP2 MSTORE PUSH1 0x4 ADD PUSH2 0x20F7 SWAP3 SWAP2 SWAP1 PUSH2 0x3C7D JUMP JUMPDEST PUSH1 0x20 PUSH1 0x40 MLOAD DUP1 DUP4 SUB DUP2 PUSH1 0x0 DUP8 GAS CALL ISZERO DUP1 ISZERO PUSH2 0x2116 JUMPI RETURNDATASIZE PUSH1 0x0 DUP1 RETURNDATACOPY RETURNDATASIZE PUSH1 0x0 REVERT JUMPDEST POP POP POP POP PUSH1 0x40 MLOAD RETURNDATASIZE PUSH1 0x1F NOT PUSH1 0x1F DUP3 ADD AND DUP3 ADD DUP1 PUSH1 0x40 MSTORE POP DUP2 ADD SWAP1 PUSH2 0x213A SWAP2 SWAP1 PUSH2 0x3CD2 JUMP JUMPDEST POP POP POP JUMP JUMPDEST PUSH1 0x0 PUSH1 0x40 MLOAD SWAP1 POP SWAP1 JUMP JUMPDEST PUSH1 0x0 DUP1 REVERT JUMPDEST PUSH1 0x0 DUP1 REVERT JUMPDEST PUSH1 0x0 PUSH2 0xFFFF DUP3 AND SWAP1 POP SWAP2 SWAP1 POP JUMP JUMPDEST PUSH2 0x216A DUP2 PUSH2 0x2153 JUMP JUMPDEST DUP2 EQ PUSH2 0x2175 JUMPI PUSH1 0x0 DUP1 REVERT JUMPDEST POP JUMP JUMPDEST PUSH1 0x0 DUP2 CALLDATALOAD SWAP1 POP PUSH2 0x2187 DUP2 PUSH2 0x2161 JUMP JUMPDEST SWAP3 SWAP2 POP POP JUMP JUMPDEST PUSH1 0x0 DUP1 REVERT JUMPDEST PUSH1 0x0 DUP1 REVERT JUMPDEST PUSH1 0x0 DUP1 REVERT JUMPDEST PUSH1 0x0 DUP1 DUP4 PUSH1 0x1F DUP5 ADD SLT PUSH2 0x21B2 JUMPI PUSH2 0x21B1 PUSH2 0x218D JUMP JUMPDEST JUMPDEST DUP3 CALLDATALOAD SWAP1 POP PUSH8 0xFFFFFFFFFFFFFFFF DUP2 GT ISZERO PUSH2 0x21CF JUMPI PUSH2 0x21CE PUSH2 0x2192 JUMP JUMPDEST JUMPDEST PUSH1 0x20 DUP4 ADD SWAP2 POP DUP4 PUSH1 0x1 DUP3 MUL DUP4 ADD GT ISZERO PUSH2 0x21EB JUMPI PUSH2 0x21EA PUSH2 0x2197 JUMP JUMPDEST JUMPDEST SWAP3 POP SWAP3 SWAP1 POP JUMP JUMPDEST PUSH1 0x0 PUSH8 0xFFFFFFFFFFFFFFFF DUP3 AND SWAP1 POP SWAP2 SWAP1 POP JUMP JUMPDEST PUSH2 0x220F DUP2 PUSH2 0x21F2 JUMP JUMPDEST DUP2 EQ PUSH2 0x221A JUMPI PUSH1 0x0 DUP1 REVERT JUMPDEST POP JUMP JUMPDEST PUSH1 0x0 DUP2 CALLDATALOAD SWAP1 POP PUSH2 0x222C DUP2 PUSH2 0x2206 JUMP JUMPDEST SWAP3 SWAP2 POP POP JUMP JUMPDEST PUSH1 0x0 DUP1 PUSH1 0x0 DUP1 PUSH1 0x0 DUP1 PUSH1 0x80 DUP8 DUP10 SUB SLT ISZERO PUSH2 0x224F JUMPI PUSH2 0x224E PUSH2 0x2149 JUMP JUMPDEST JUMPDEST PUSH1 0x0 PUSH2 0x225D DUP10 DUP3 DUP11 ADD PUSH2 0x2178 JUMP JUMPDEST SWAP7 POP POP PUSH1 0x20 DUP8 ADD CALLDATALOAD PUSH8 0xFFFFFFFFFFFFFFFF DUP2 GT ISZERO PUSH2 0x227E JUMPI PUSH2 0x227D PUSH2 0x214E JUMP JUMPDEST JUMPDEST PUSH2 0x228A DUP10 DUP3 DUP11 ADD PUSH2 0x219C JUMP JUMPDEST SWAP6 POP SWAP6 POP POP PUSH1 0x40 PUSH2 0x229D DUP10 DUP3 DUP11 ADD PUSH2 0x221D JUMP JUMPDEST SWAP4 POP POP PUSH1 0x60 DUP8 ADD CALLDATALOAD PUSH8 0xFFFFFFFFFFFFFFFF DUP2 GT ISZERO PUSH2 0x22BE JUMPI PUSH2 0x22BD PUSH2 0x214E JUMP JUMPDEST JUMPDEST PUSH2 0x22CA DUP10 DUP3 DUP11 ADD PUSH2 0x219C JUMP JUMPDEST SWAP3 POP SWAP3 POP POP SWAP3 SWAP6 POP SWAP3 SWAP6 POP SWAP3 SWAP6 JUMP JUMPDEST PUSH1 0x0 PUSH20 0xFFFFFFFFFFFFFFFFFFFFFFFFFFFFFFFFFFFFFFFF DUP3 AND SWAP1 POP SWAP2 SWAP1 POP JUMP JUMPDEST PUSH1 0x0 PUSH2 0x2304 DUP3 PUSH2 0x22D9 JUMP JUMPDEST SWAP1 POP SWAP2 SWAP1 POP JUMP JUMPDEST PUSH2 0x2314 DUP2 PUSH2 0x22F9 JUMP JUMPDEST DUP3 MSTORE POP POP JUMP JUMPDEST PUSH1 0x0 PUSH1 0x20 DUP3 ADD SWAP1 POP PUSH2 0x232F PUSH1 0x0 DUP4 ADD DUP5 PUSH2 0x230B JUMP JUMPDEST SWAP3 SWAP2 POP POP JUMP JUMPDEST PUSH1 0x0 PUSH1 0x20 DUP3 DUP5 SUB SLT ISZERO PUSH2 0x234B JUMPI PUSH2 0x234A PUSH2 0x2149 JUMP JUMPDEST JUMPDEST PUSH1 0x0 PUSH2 0x2359 DUP5 DUP3 DUP6 ADD PUSH2 0x2178 JUMP JUMPDEST SWAP2 POP POP SWAP3 SWAP2 POP POP JUMP JUMPDEST PUSH1 0x0 DUP2 SWAP1 POP SWAP2 SWAP1 POP JUMP JUMPDEST PUSH2 0x2375 DUP2 PUSH2 0x2362 JUMP JUMPDEST DUP2 EQ PUSH2 0x2380 JUMPI PUSH1 0x0 DUP1 REVERT JUMPDEST POP JUMP JUMPDEST PUSH1 0x0 DUP2 CALLDATALOAD SWAP1 POP PUSH2 0x2392 DUP2 PUSH2 0x236C JUMP JUMPDEST SWAP3 SWAP2 POP POP JUMP JUMPDEST PUSH1 0x0 DUP1 PUSH1 0x40 DUP4 DUP6 SUB SLT ISZERO PUSH2 0x23AF JUMPI PUSH2 0x23AE PUSH2 0x2149 JUMP JUMPDEST JUMPDEST PUSH1 0x0 PUSH2 0x23BD DUP6 DUP3 DUP7 ADD PUSH2 0x2178 JUMP JUMPDEST SWAP3 POP POP PUSH1 0x20 PUSH2 0x23CE DUP6 DUP3 DUP7 ADD PUSH2 0x2383 JUMP JUMPDEST SWAP2 POP POP SWAP3 POP SWAP3 SWAP1 POP JUMP JUMPDEST PUSH1 0x0 DUP1 PUSH1 0x40 DUP4 DUP6 SUB SLT ISZERO PUSH2 0x23EF JUMPI PUSH2 0x23EE PUSH2 0x2149 JUMP JUMPDEST JUMPDEST PUSH1 0x0 PUSH2 0x23FD DUP6 DUP3 DUP7 ADD PUSH2 0x2383 JUMP JUMPDEST SWAP3 POP POP PUSH1 0x20 PUSH2 0x240E DUP6 DUP3 DUP7 ADD PUSH2 0x2178 JUMP JUMPDEST SWAP2 POP POP SWAP3 POP SWAP3 SWAP1 POP JUMP JUMPDEST PUSH1 0x0 DUP1 PUSH1 0x0 PUSH1 0x40 DUP5 DUP7 SUB SLT ISZERO PUSH2 0x2431 JUMPI PUSH2 0x2430 PUSH2 0x2149 JUMP JUMPDEST JUMPDEST PUSH1 0x0 PUSH2 0x243F DUP7 DUP3 DUP8 ADD PUSH2 0x2178 JUMP JUMPDEST SWAP4 POP POP PUSH1 0x20 DUP5 ADD CALLDATALOAD PUSH8 0xFFFFFFFFFFFFFFFF DUP2 GT ISZERO PUSH2 0x2460 JUMPI PUSH2 0x245F PUSH2 0x214E JUMP JUMPDEST JUMPDEST PUSH2 0x246C DUP7 DUP3 DUP8 ADD PUSH2 0x219C JUMP JUMPDEST SWAP3 POP SWAP3 POP POP SWAP3 POP SWAP3 POP SWAP3 JUMP JUMPDEST PUSH1 0x0 DUP2 ISZERO ISZERO SWAP1 POP SWAP2 SWAP1 POP JUMP JUMPDEST PUSH2 0x248D DUP2 PUSH2 0x2478 JUMP JUMPDEST DUP3 MSTORE POP POP JUMP JUMPDEST PUSH1 0x0 PUSH1 0x20 DUP3 ADD SWAP1 POP PUSH2 0x24A8 PUSH1 0x0 DUP4 ADD DUP5 PUSH2 0x2484 JUMP JUMPDEST SWAP3 SWAP2 POP POP JUMP JUMPDEST PUSH2 0x24B7 DUP2 PUSH2 0x2362 JUMP JUMPDEST DUP3 MSTORE POP POP JUMP JUMPDEST PUSH1 0x0 PUSH1 0x20 DUP3 ADD SWAP1 POP PUSH2 0x24D2 PUSH1 0x0 DUP4 ADD DUP5 PUSH2 0x24AE JUMP JUMPDEST SWAP3 SWAP2 POP POP JUMP JUMPDEST PUSH1 0x0 DUP2 SWAP1 POP SWAP2 SWAP1 POP JUMP JUMPDEST PUSH1 0x0 PUSH2 0x24FD PUSH2 0x24F8 PUSH2 0x24F3 DUP5 PUSH2 0x22D9 JUMP JUMPDEST PUSH2 0x24D8 JUMP JUMPDEST PUSH2 0x22D9 JUMP JUMPDEST SWAP1 POP SWAP2 SWAP1 POP JUMP JUMPDEST PUSH1 0x0 PUSH2 0x250F DUP3 PUSH2 0x24E2 JUMP JUMPDEST SWAP1 POP SWAP2 SWAP1 POP JUMP JUMPDEST PUSH1 0x0 PUSH2 0x2521 DUP3 PUSH2 0x2504 JUMP JUMPDEST SWAP1 POP SWAP2 SWAP1 POP JUMP JUMPDEST PUSH2 0x2531 DUP2 PUSH2 0x2516 JUMP JUMPDEST DUP3 MSTORE POP POP JUMP JUMPDEST PUSH1 0x0 PUSH1 0x20 DUP3 ADD SWAP1 POP PUSH2 0x254C PUSH1 0x0 DUP4 ADD DUP5 PUSH2 0x2528 JUMP JUMPDEST SWAP3 SWAP2 POP POP JUMP JUMPDEST PUSH1 0x0 DUP1 REVERT JUMPDEST PUSH1 0x0 PUSH1 0x1F NOT PUSH1 0x1F DUP4 ADD AND SWAP1 POP SWAP2 SWAP1 POP JUMP JUMPDEST PUSH32 0x4E487B7100000000000000000000000000000000000000000000000000000000 PUSH1 0x0 MSTORE PUSH1 0x41 PUSH1 0x4 MSTORE PUSH1 0x24 PUSH1 0x0 REVERT JUMPDEST PUSH2 0x25A0 DUP3 PUSH2 0x2557 JUMP JUMPDEST DUP2 ADD DUP2 DUP2 LT PUSH8 0xFFFFFFFFFFFFFFFF DUP3 GT OR ISZERO PUSH2 0x25BF JUMPI PUSH2 0x25BE PUSH2 0x2568 JUMP JUMPDEST JUMPDEST DUP1 PUSH1 0x40 MSTORE POP POP POP JUMP JUMPDEST PUSH1 0x0 PUSH2 0x25D2 PUSH2 0x213F JUMP JUMPDEST SWAP1 POP PUSH2 0x25DE DUP3 DUP3 PUSH2 0x2597 JUMP JUMPDEST SWAP2 SWAP1 POP JUMP JUMPDEST PUSH1 0x0 PUSH8 0xFFFFFFFFFFFFFFFF DUP3 GT ISZERO PUSH2 0x25FE JUMPI PUSH2 0x25FD PUSH2 0x2568 JUMP JUMPDEST JUMPDEST PUSH2 0x2607 DUP3 PUSH2 0x2557 JUMP JUMPDEST SWAP1 POP PUSH1 0x20 DUP2 ADD SWAP1 POP SWAP2 SWAP1 POP JUMP JUMPDEST DUP3 DUP2 DUP4 CALLDATACOPY PUSH1 0x0 DUP4 DUP4 ADD MSTORE POP POP POP JUMP JUMPDEST PUSH1 0x0 PUSH2 0x2636 PUSH2 0x2631 DUP5 PUSH2 0x25E3 JUMP JUMPDEST PUSH2 0x25C8 JUMP JUMPDEST SWAP1 POP DUP3 DUP2 MSTORE PUSH1 0x20 DUP2 ADD DUP5 DUP5 DUP5 ADD GT ISZERO PUSH2 0x2652 JUMPI PUSH2 0x2651 PUSH2 0x2552 JUMP JUMPDEST JUMPDEST PUSH2 0x265D DUP5 DUP3 DUP6 PUSH2 0x2614 JUMP JUMPDEST POP SWAP4 SWAP3 POP POP POP JUMP JUMPDEST PUSH1 0x0 DUP3 PUSH1 0x1F DUP4 ADD SLT PUSH2 0x267A JUMPI PUSH2 0x2679 PUSH2 0x218D JUMP JUMPDEST JUMPDEST DUP2 CALLDATALOAD PUSH2 0x268A DUP5 DUP3 PUSH1 0x20 DUP7 ADD PUSH2 0x2623 JUMP JUMPDEST SWAP2 POP POP SWAP3 SWAP2 POP POP JUMP JUMPDEST PUSH1 0x0 DUP1 PUSH1 0x0 PUSH1 0x60 DUP5 DUP7 SUB SLT ISZERO PUSH2 0x26AC JUMPI PUSH2 0x26AB PUSH2 0x2149 JUMP JUMPDEST JUMPDEST PUSH1 0x0 PUSH2 0x26BA DUP7 DUP3 DUP8 ADD PUSH2 0x2178 JUMP JUMPDEST SWAP4 POP POP PUSH1 0x20 DUP5 ADD CALLDATALOAD PUSH8 0xFFFFFFFFFFFFFFFF DUP2 GT ISZERO PUSH2 0x26DB JUMPI PUSH2 0x26DA PUSH2 0x214E JUMP JUMPDEST JUMPDEST PUSH2 0x26E7 DUP7 DUP3 DUP8 ADD PUSH2 0x2665 JUMP JUMPDEST SWAP3 POP POP PUSH1 0x40 PUSH2 0x26F8 DUP7 DUP3 DUP8 ADD PUSH2 0x221D JUMP JUMPDEST SWAP2 POP POP SWAP3 POP SWAP3 POP SWAP3 JUMP JUMPDEST PUSH1 0x0 DUP2 SWAP1 POP SWAP2 SWAP1 POP JUMP JUMPDEST PUSH2 0x2715 DUP2 PUSH2 0x2702 JUMP JUMPDEST DUP3 MSTORE POP POP JUMP JUMPDEST PUSH1 0x0 PUSH1 0x20 DUP3 ADD SWAP1 POP PUSH2 0x2730 PUSH1 0x0 DUP4 ADD DUP5 PUSH2 0x270C JUMP JUMPDEST SWAP3 SWAP2 POP POP JUMP JUMPDEST PUSH1 0x0 DUP2 MLOAD SWAP1 POP SWAP2 SWAP1 POP JUMP JUMPDEST PUSH1 0x0 DUP3 DUP3 MSTORE PUSH1 0x20 DUP3 ADD SWAP1 POP SWAP3 SWAP2 POP POP JUMP JUMPDEST PUSH1 0x0 JUMPDEST DUP4 DUP2 LT ISZERO PUSH2 0x2770 JUMPI DUP1 DUP3 ADD MLOAD DUP2 DUP5 ADD MSTORE PUSH1 0x20 DUP2 ADD SWAP1 POP PUSH2 0x2755 JUMP JUMPDEST PUSH1 0x0 DUP5 DUP5 ADD MSTORE POP POP POP POP JUMP JUMPDEST PUSH1 0x0 PUSH2 0x2787 DUP3 PUSH2 0x2736 JUMP JUMPDEST PUSH2 0x2791 DUP2 DUP6 PUSH2 0x2741 JUMP JUMPDEST SWAP4 POP PUSH2 0x27A1 DUP2 DUP6 PUSH1 0x20 DUP7 ADD PUSH2 0x2752 JUMP JUMPDEST PUSH2 0x27AA DUP2 PUSH2 0x2557 JUMP JUMPDEST DUP5 ADD SWAP2 POP POP SWAP3 SWAP2 POP POP JUMP JUMPDEST PUSH1 0x0 PUSH1 0x20 DUP3 ADD SWAP1 POP DUP2 DUP2 SUB PUSH1 0x0 DUP4 ADD MSTORE PUSH2 0x27CF DUP2 DUP5 PUSH2 0x277C JUMP JUMPDEST SWAP1 POP SWAP3 SWAP2 POP POP JUMP JUMPDEST PUSH1 0x0 DUP1 PUSH1 0x40 DUP4 DUP6 SUB SLT ISZERO PUSH2 0x27EE JUMPI PUSH2 0x27ED PUSH2 0x2149 JUMP JUMPDEST JUMPDEST PUSH1 0x0 PUSH2 0x27FC DUP6 DUP3 DUP7 ADD PUSH2 0x2178 JUMP JUMPDEST SWAP3 POP POP PUSH1 0x20 PUSH2 0x280D DUP6 DUP3 DUP7 ADD PUSH2 0x2178 JUMP JUMPDEST SWAP2 POP POP SWAP3 POP SWAP3 SWAP1 POP JUMP JUMPDEST PUSH1 0x0 PUSH2 0x2822 DUP3 PUSH2 0x2504 JUMP JUMPDEST SWAP1 POP SWAP2 SWAP1 POP JUMP JUMPDEST PUSH2 0x2832 DUP2 PUSH2 0x2817 JUMP JUMPDEST DUP3 MSTORE POP POP JUMP JUMPDEST PUSH1 0x0 PUSH1 0x20 DUP3 ADD SWAP1 POP PUSH2 0x284D PUSH1 0x0 DUP4 ADD DUP5 PUSH2 0x2829 JUMP JUMPDEST SWAP3 SWAP2 POP POP JUMP JUMPDEST PUSH2 0x285C DUP2 PUSH2 0x22F9 JUMP JUMPDEST DUP2 EQ PUSH2 0x2867 JUMPI PUSH1 0x0 DUP1 REVERT JUMPDEST POP JUMP JUMPDEST PUSH1 0x0 DUP2 CALLDATALOAD SWAP1 POP PUSH2 0x2879 DUP2 PUSH2 0x2853 JUMP JUMPDEST SWAP3 SWAP2 POP POP JUMP JUMPDEST PUSH1 0x0 PUSH1 0x20 DUP3 DUP5 SUB SLT ISZERO PUSH2 0x2895 JUMPI PUSH2 0x2894 PUSH2 0x2149 JUMP JUMPDEST JUMPDEST PUSH1 0x0 PUSH2 0x28A3 DUP5 DUP3 DUP6 ADD PUSH2 0x286A JUMP JUMPDEST SWAP2 POP POP SWAP3 SWAP2 POP POP JUMP JUMPDEST PUSH1 0x0 PUSH2 0x28B7 DUP3 PUSH2 0x2504 JUMP JUMPDEST SWAP1 POP SWAP2 SWAP1 POP JUMP JUMPDEST PUSH2 0x28C7 DUP2 PUSH2 0x28AC JUMP JUMPDEST DUP3 MSTORE POP POP JUMP JUMPDEST PUSH1 0x0 PUSH1 0x20 DUP3 ADD SWAP1 POP PUSH2 0x28E2 PUSH1 0x0 DUP4 ADD DUP5 PUSH2 0x28BE JUMP JUMPDEST SWAP3 SWAP2 POP POP JUMP JUMPDEST PUSH1 0x0 PUSH2 0x28F3 DUP3 PUSH2 0x2504 JUMP JUMPDEST SWAP1 POP SWAP2 SWAP1 POP JUMP JUMPDEST PUSH2 0x2903 DUP2 PUSH2 0x28E8 JUMP JUMPDEST DUP3 MSTORE POP POP JUMP JUMPDEST PUSH1 0x0 PUSH1 0x20 DUP3 ADD SWAP1 POP PUSH2 0x291E PUSH1 0x0 DUP4 ADD DUP5 PUSH2 0x28FA JUMP JUMPDEST SWAP3 SWAP2 POP POP JUMP JUMPDEST PUSH1 0x0 DUP1 PUSH1 0x0 DUP1 PUSH1 0x0 PUSH1 0x80 DUP7 DUP9 SUB SLT ISZERO PUSH2 0x2940 JUMPI PUSH2 0x293F PUSH2 0x2149 JUMP JUMPDEST JUMPDEST PUSH1 0x0 PUSH2 0x294E DUP9 DUP3 DUP10 ADD PUSH2 0x2178 JUMP JUMPDEST SWAP6 POP POP PUSH1 0x20 PUSH2 0x295F DUP9 DUP3 DUP10 ADD PUSH2 0x2178 JUMP JUMPDEST SWAP5 POP POP PUSH1 0x40 PUSH2 0x2970 DUP9 DUP3 DUP10 ADD PUSH2 0x2383 JUMP JUMPDEST SWAP4 POP POP PUSH1 0x60 DUP7 ADD CALLDATALOAD PUSH8 0xFFFFFFFFFFFFFFFF DUP2 GT ISZERO PUSH2 0x2991 JUMPI PUSH2 0x2990 PUSH2 0x214E JUMP JUMPDEST JUMPDEST PUSH2 0x299D DUP9 DUP3 DUP10 ADD PUSH2 0x219C JUMP JUMPDEST SWAP3 POP SWAP3 POP POP SWAP3 SWAP6 POP SWAP3 SWAP6 SWAP1 SWAP4 POP JUMP JUMPDEST PUSH1 0x0 PUSH3 0xFFFFFF DUP3 AND SWAP1 POP SWAP2 SWAP1 POP JUMP JUMPDEST PUSH2 0x29C4 DUP2 PUSH2 0x29AC JUMP JUMPDEST DUP3 MSTORE POP POP JUMP JUMPDEST PUSH1 0x0 PUSH1 0x20 DUP3 ADD SWAP1 POP PUSH2 0x29DF PUSH1 0x0 DUP4 ADD DUP5 PUSH2 0x29BB JUMP JUMPDEST SWAP3 SWAP2 POP POP JUMP JUMPDEST PUSH1 0x0 DUP1 PUSH1 0x0 PUSH1 0x60 DUP5 DUP7 SUB SLT ISZERO PUSH2 0x29FE JUMPI PUSH2 0x29FD PUSH2 0x2149 JUMP JUMPDEST JUMPDEST PUSH1 0x0 PUSH2 0x2A0C DUP7 DUP3 DUP8 ADD PUSH2 0x2178 JUMP JUMPDEST SWAP4 POP POP PUSH1 0x20 PUSH2 0x2A1D DUP7 DUP3 DUP8 ADD PUSH2 0x2178 JUMP JUMPDEST SWAP3 POP POP PUSH1 0x40 PUSH2 0x2A2E DUP7 DUP3 DUP8 ADD PUSH2 0x2383 JUMP JUMPDEST SWAP2 POP POP SWAP3 POP SWAP3 POP SWAP3 JUMP JUMPDEST PUSH1 0x0 DUP1 PUSH1 0x0 DUP1 PUSH1 0x80 DUP6 DUP8 SUB SLT ISZERO PUSH2 0x2A52 JUMPI PUSH2 0x2A51 PUSH2 0x2149 JUMP JUMPDEST JUMPDEST PUSH1 0x0 PUSH2 0x2A60 DUP8 DUP3 DUP9 ADD PUSH2 0x2178 JUMP JUMPDEST SWAP5 POP POP PUSH1 0x20 PUSH2 0x2A71 DUP8 DUP3 DUP9 ADD PUSH2 0x2178 JUMP JUMPDEST SWAP4 POP POP PUSH1 0x40 PUSH2 0x2A82 DUP8 DUP3 DUP9 ADD PUSH2 0x286A JUMP JUMPDEST SWAP3 POP POP PUSH1 0x60 PUSH2 0x2A93 DUP8 DUP3 DUP9 ADD PUSH2 0x2383 JUMP JUMPDEST SWAP2 POP POP SWAP3 SWAP6 SWAP2 SWAP5 POP SWAP3 POP JUMP JUMPDEST PUSH1 0x0 DUP3 DUP3 MSTORE PUSH1 0x20 DUP3 ADD SWAP1 POP SWAP3 SWAP2 POP POP JUMP JUMPDEST PUSH32 0x4C7A4170703A20696E76616C696420656E64706F696E742063616C6C65720000 PUSH1 0x0 DUP3 ADD MSTORE POP JUMP JUMPDEST PUSH1 0x0 PUSH2 0x2AE6 PUSH1 0x1E DUP4 PUSH2 0x2A9F JUMP JUMPDEST SWAP2 POP PUSH2 0x2AF1 DUP3 PUSH2 0x2AB0 JUMP JUMPDEST PUSH1 0x20 DUP3 ADD SWAP1 POP SWAP2 SWAP1 POP JUMP JUMPDEST PUSH1 0x0 PUSH1 0x20 DUP3 ADD SWAP1 POP DUP2 DUP2 SUB PUSH1 0x0 DUP4 ADD MSTORE PUSH2 0x2B15 DUP2 PUSH2 0x2AD9 JUMP JUMPDEST SWAP1 POP SWAP2 SWAP1 POP JUMP JUMPDEST PUSH32 0x4E487B7100000000000000000000000000000000000000000000000000000000 PUSH1 0x0 MSTORE PUSH1 0x22 PUSH1 0x4 MSTORE PUSH1 0x24 PUSH1 0x0 REVERT JUMPDEST PUSH1 0x0 PUSH1 0x2 DUP3 DIV SWAP1 POP PUSH1 0x1 DUP3 AND DUP1 PUSH2 0x2B63 JUMPI PUSH1 0x7F DUP3 AND SWAP2 POP JUMPDEST PUSH1 0x20 DUP3 LT DUP2 SUB PUSH2 0x2B76 JUMPI PUSH2 0x2B75 PUSH2 0x2B1C JUMP JUMPDEST JUMPDEST POP SWAP2 SWAP1 POP JUMP JUMPDEST PUSH1 0x0 DUP2 SWAP1 POP SWAP3 SWAP2 POP POP JUMP JUMPDEST PUSH1 0x0 PUSH2 0x2B93 DUP4 DUP6 PUSH2 0x2B7C JUMP JUMPDEST SWAP4 POP PUSH2 0x2BA0 DUP4 DUP6 DUP5 PUSH2 0x2614 JUMP JUMPDEST DUP3 DUP5 ADD SWAP1 POP SWAP4 SWAP3 POP POP POP JUMP JUMPDEST PUSH1 0x0 PUSH2 0x2BB9 DUP3 DUP5 DUP7 PUSH2 0x2B87 JUMP JUMPDEST SWAP2 POP DUP2 SWAP1 POP SWAP4 SWAP3 POP POP POP JUMP JUMPDEST PUSH32 0x4C7A4170703A20696E76616C696420736F757263652073656E64696E6720636F PUSH1 0x0 DUP3 ADD MSTORE PUSH32 0x6E74726163740000000000000000000000000000000000000000000000000000 PUSH1 0x20 DUP3 ADD MSTORE POP JUMP JUMPDEST PUSH1 0x0 PUSH2 0x2C21 PUSH1 0x26 DUP4 PUSH2 0x2A9F JUMP JUMPDEST SWAP2 POP PUSH2 0x2C2C DUP3 PUSH2 0x2BC5 JUMP JUMPDEST PUSH1 0x40 DUP3 ADD SWAP1 POP SWAP2 SWAP1 POP JUMP JUMPDEST PUSH1 0x0 PUSH1 0x20 DUP3 ADD SWAP1 POP DUP2 DUP2 SUB PUSH1 0x0 DUP4 ADD MSTORE PUSH2 0x2C50 DUP2 PUSH2 0x2C14 JUMP JUMPDEST SWAP1 POP SWAP2 SWAP1 POP JUMP JUMPDEST PUSH2 0x2C60 DUP2 PUSH2 0x2153 JUMP JUMPDEST DUP3 MSTORE POP POP JUMP JUMPDEST PUSH1 0x0 PUSH1 0x20 DUP3 ADD SWAP1 POP PUSH2 0x2C7B PUSH1 0x0 DUP4 ADD DUP5 PUSH2 0x2C57 JUMP JUMPDEST SWAP3 SWAP2 POP POP JUMP JUMPDEST PUSH32 0x596F75206E65656420746F2073656E642074686520657861637420616D6F756E PUSH1 0x0 DUP3 ADD MSTORE PUSH32 0x74206F6620746F6B656E73202121000000000000000000000000000000000000 PUSH1 0x20 DUP3 ADD MSTORE POP JUMP JUMPDEST PUSH1 0x0 PUSH2 0x2CDD PUSH1 0x2E DUP4 PUSH2 0x2A9F JUMP JUMPDEST SWAP2 POP PUSH2 0x2CE8 DUP3 PUSH2 0x2C81 JUMP JUMPDEST PUSH1 0x40 DUP3 ADD SWAP1 POP SWAP2 SWAP1 POP JUMP JUMPDEST PUSH1 0x0 PUSH1 0x20 DUP3 ADD SWAP1 POP DUP2 DUP2 SUB PUSH1 0x0 DUP4 ADD MSTORE PUSH2 0x2D0C DUP2 PUSH2 0x2CD0 JUMP JUMPDEST SWAP1 POP SWAP2 SWAP1 POP JUMP JUMPDEST PUSH1 0x0 DUP2 SWAP1 POP SWAP2 SWAP1 POP JUMP JUMPDEST PUSH2 0x2D2E PUSH2 0x2D29 DUP3 PUSH2 0x2362 JUMP JUMPDEST PUSH2 0x2D13 JUMP JUMPDEST DUP3 MSTORE POP POP JUMP JUMPDEST PUSH1 0x0 DUP2 PUSH1 0x60 SHL SWAP1 POP SWAP2 SWAP1 POP JUMP JUMPDEST PUSH1 0x0 PUSH2 0x2D4C DUP3 PUSH2 0x2D34 JUMP JUMPDEST SWAP1 POP SWAP2 SWAP1 POP JUMP JUMPDEST PUSH1 0x0 PUSH2 0x2D5E DUP3 PUSH2 0x2D41 JUMP JUMPDEST SWAP1 POP SWAP2 SWAP1 POP JUMP JUMPDEST PUSH2 0x2D76 PUSH2 0x2D71 DUP3 PUSH2 0x22F9 JUMP JUMPDEST PUSH2 0x2D53 JUMP JUMPDEST DUP3 MSTORE POP POP JUMP JUMPDEST PUSH1 0x0 PUSH2 0x2D88 DUP3 DUP6 PUSH2 0x2D1D JUMP JUMPDEST PUSH1 0x20 DUP3 ADD SWAP2 POP PUSH2 0x2D98 DUP3 DUP5 PUSH2 0x2D65 JUMP JUMPDEST PUSH1 0x14 DUP3 ADD SWAP2 POP DUP2 SWAP1 POP SWAP4 SWAP3 POP POP POP JUMP JUMPDEST PUSH1 0x0 DUP2 PUSH1 0xF0 SHL SWAP1 POP SWAP2 SWAP1 POP JUMP JUMPDEST PUSH1 0x0 PUSH2 0x2DC0 DUP3 PUSH2 0x2DA8 JUMP JUMPDEST SWAP1 POP SWAP2 SWAP1 POP JUMP JUMPDEST PUSH2 0x2DD8 PUSH2 0x2DD3 DUP3 PUSH2 0x2153 JUMP JUMPDEST PUSH2 0x2DB5 JUMP JUMPDEST DUP3 MSTORE POP POP JUMP JUMPDEST PUSH1 0x0 PUSH2 0x2DEA DUP3 DUP6 PUSH2 0x2DC7 JUMP JUMPDEST PUSH1 0x2 DUP3 ADD SWAP2 POP PUSH2 0x2DFA DUP3 DUP5 PUSH2 0x2D1D JUMP JUMPDEST PUSH1 0x20 DUP3 ADD SWAP2 POP DUP2 SWAP1 POP SWAP4 SWAP3 POP POP POP JUMP JUMPDEST PUSH1 0x0 PUSH2 0x2E16 DUP4 DUP6 PUSH2 0x2741 JUMP JUMPDEST SWAP4 POP PUSH2 0x2E23 DUP4 DUP6 DUP5 PUSH2 0x2614 JUMP JUMPDEST PUSH2 0x2E2C DUP4 PUSH2 0x2557 JUMP JUMPDEST DUP5 ADD SWAP1 POP SWAP4 SWAP3 POP POP POP JUMP JUMPDEST PUSH1 0x0 PUSH1 0x40 DUP3 ADD SWAP1 POP PUSH2 0x2E4C PUSH1 0x0 DUP4 ADD DUP7 PUSH2 0x2C57 JUMP JUMPDEST DUP2 DUP2 SUB PUSH1 0x20 DUP4 ADD MSTORE PUSH2 0x2E5F DUP2 DUP5 DUP7 PUSH2 0x2E0A JUMP JUMPDEST SWAP1 POP SWAP5 SWAP4 POP POP POP POP JUMP JUMPDEST POP JUMP JUMPDEST PUSH1 0x0 PUSH2 0x2E79 PUSH1 0x0 DUP4 PUSH2 0x2B7C JUMP JUMPDEST SWAP2 POP PUSH2 0x2E84 DUP3 PUSH2 0x2E69 JUMP JUMPDEST PUSH1 0x0 DUP3 ADD SWAP1 POP SWAP2 SWAP1 POP JUMP JUMPDEST PUSH1 0x0 PUSH2 0x2E9A DUP3 PUSH2 0x2E6C JUMP JUMPDEST SWAP2 POP DUP2 SWAP1 POP SWAP2 SWAP1 POP JUMP JUMPDEST PUSH32 0x5769746864726177204661696C65642021212100000000000000000000000000 PUSH1 0x0 DUP3 ADD MSTORE POP JUMP JUMPDEST PUSH1 0x0 PUSH2 0x2EDA PUSH1 0x13 DUP4 PUSH2 0x2A9F JUMP JUMPDEST SWAP2 POP PUSH2 0x2EE5 DUP3 PUSH2 0x2EA4 JUMP JUMPDEST PUSH1 0x20 DUP3 ADD SWAP1 POP SWAP2 SWAP1 POP JUMP JUMPDEST PUSH1 0x0 PUSH1 0x20 DUP3 ADD SWAP1 POP DUP2 DUP2 SUB PUSH1 0x0 DUP4 ADD MSTORE PUSH2 0x2F09 DUP2 PUSH2 0x2ECD JUMP JUMPDEST SWAP1 POP SWAP2 SWAP1 POP JUMP JUMPDEST PUSH32 0x4E6F6E626C6F636B696E674C7A4170703A2063616C6C6572206D757374206265 PUSH1 0x0 DUP3 ADD MSTORE PUSH32 0x204C7A4170700000000000000000000000000000000000000000000000000000 PUSH1 0x20 DUP3 ADD MSTORE POP JUMP JUMPDEST PUSH1 0x0 PUSH2 0x2F6C PUSH1 0x26 DUP4 PUSH2 0x2A9F JUMP JUMPDEST SWAP2 POP PUSH2 0x2F77 DUP3 PUSH2 0x2F10 JUMP JUMPDEST PUSH1 0x40 DUP3 ADD SWAP1 POP SWAP2 SWAP1 POP JUMP JUMPDEST PUSH1 0x0 PUSH1 0x20 DUP3 ADD SWAP1 POP DUP2 DUP2 SUB PUSH1 0x0 DUP4 ADD MSTORE PUSH2 0x2F9B DUP2 PUSH2 0x2F5F JUMP JUMPDEST SWAP1 POP SWAP2 SWAP1 POP JUMP JUMPDEST PUSH32 0x4C7A4170703A206E6F20747275737465642070617468207265636F7264000000 PUSH1 0x0 DUP3 ADD MSTORE POP JUMP JUMPDEST PUSH1 0x0 PUSH2 0x2FD8 PUSH1 0x1D DUP4 PUSH2 0x2A9F JUMP JUMPDEST SWAP2 POP PUSH2 0x2FE3 DUP3 PUSH2 0x2FA2 JUMP JUMPDEST PUSH1 0x20 DUP3 ADD SWAP1 POP SWAP2 SWAP1 POP JUMP JUMPDEST PUSH1 0x0 PUSH1 0x20 DUP3 ADD SWAP1 POP DUP2 DUP2 SUB PUSH1 0x0 DUP4 ADD MSTORE PUSH2 0x3007 DUP2 PUSH2 0x2FCB JUMP JUMPDEST SWAP1 POP SWAP2 SWAP1 POP JUMP JUMPDEST PUSH32 0x4E487B7100000000000000000000000000000000000000000000000000000000 PUSH1 0x0 MSTORE PUSH1 0x11 PUSH1 0x4 MSTORE PUSH1 0x24 PUSH1 0x0 REVERT JUMPDEST PUSH1 0x0 PUSH2 0x3048 DUP3 PUSH2 0x2362 JUMP JUMPDEST SWAP2 POP PUSH2 0x3053 DUP4 PUSH2 0x2362 JUMP JUMPDEST SWAP3 POP DUP3 DUP3 SUB SWAP1 POP DUP2 DUP2 GT ISZERO PUSH2 0x306B JUMPI PUSH2 0x306A PUSH2 0x300E JUMP JUMPDEST JUMPDEST SWAP3 SWAP2 POP POP JUMP JUMPDEST PUSH1 0x0 PUSH2 0x307E DUP3 DUP6 DUP8 PUSH2 0x2B87 JUMP JUMPDEST SWAP2 POP PUSH2 0x308A DUP3 DUP5 PUSH2 0x2D65 JUMP JUMPDEST PUSH1 0x14 DUP3 ADD SWAP2 POP DUP2 SWAP1 POP SWAP5 SWAP4 POP POP POP POP JUMP JUMPDEST PUSH1 0x0 DUP2 SWAP1 POP DUP2 PUSH1 0x0 MSTORE PUSH1 0x20 PUSH1 0x0 KECCAK256 SWAP1 POP SWAP2 SWAP1 POP JUMP JUMPDEST PUSH1 0x0 PUSH1 0x20 PUSH1 0x1F DUP4 ADD DIV SWAP1 POP SWAP2 SWAP1 POP JUMP JUMPDEST PUSH1 0x0 DUP3 DUP3 SHL SWAP1 POP SWAP3 SWAP2 POP POP JUMP JUMPDEST PUSH1 0x0 PUSH1 0x8 DUP4 MUL PUSH2 0x30FD PUSH32 0xFFFFFFFFFFFFFFFFFFFFFFFFFFFFFFFFFFFFFFFFFFFFFFFFFFFFFFFFFFFFFFFF DUP3 PUSH2 0x30C0 JUMP JUMPDEST PUSH2 0x3107 DUP7 DUP4 PUSH2 0x30C0 JUMP JUMPDEST SWAP6 POP DUP1 NOT DUP5 AND SWAP4 POP DUP1 DUP7 AND DUP5 OR SWAP3 POP POP POP SWAP4 SWAP3 POP POP POP JUMP JUMPDEST PUSH1 0x0 PUSH2 0x313A PUSH2 0x3135 PUSH2 0x3130 DUP5 PUSH2 0x2362 JUMP JUMPDEST PUSH2 0x24D8 JUMP JUMPDEST PUSH2 0x2362 JUMP JUMPDEST SWAP1 POP SWAP2 SWAP1 POP JUMP JUMPDEST PUSH1 0x0 DUP2 SWAP1 POP SWAP2 SWAP1 POP JUMP JUMPDEST PUSH2 0x3154 DUP4 PUSH2 0x311F JUMP JUMPDEST PUSH2 0x3168 PUSH2 0x3160 DUP3 PUSH2 0x3141 JUMP JUMPDEST DUP5 DUP5 SLOAD PUSH2 0x30CD JUMP JUMPDEST DUP3 SSTORE POP POP POP POP JUMP JUMPDEST PUSH1 0x0 SWAP1 JUMP JUMPDEST PUSH2 0x317D PUSH2 0x3170 JUMP JUMPDEST PUSH2 0x3188 DUP2 DUP5 DUP5 PUSH2 0x314B JUMP JUMPDEST POP POP POP JUMP JUMPDEST JUMPDEST DUP2 DUP2 LT ISZERO PUSH2 0x31AC JUMPI PUSH2 0x31A1 PUSH1 0x0 DUP3 PUSH2 0x3175 JUMP JUMPDEST PUSH1 0x1 DUP2 ADD SWAP1 POP PUSH2 0x318E JUMP JUMPDEST POP POP JUMP JUMPDEST PUSH1 0x1F DUP3 GT ISZERO PUSH2 0x31F1 JUMPI PUSH2 0x31C2 DUP2 PUSH2 0x309B JUMP JUMPDEST PUSH2 0x31CB DUP5 PUSH2 0x30B0 JUMP JUMPDEST DUP2 ADD PUSH1 0x20 DUP6 LT ISZERO PUSH2 0x31DA JUMPI DUP2 SWAP1 POP JUMPDEST PUSH2 0x31EE PUSH2 0x31E6 DUP6 PUSH2 0x30B0 JUMP JUMPDEST DUP4 ADD DUP3 PUSH2 0x318D JUMP JUMPDEST POP POP JUMPDEST POP POP POP JUMP JUMPDEST PUSH1 0x0 DUP3 DUP3 SHR SWAP1 POP SWAP3 SWAP2 POP POP JUMP JUMPDEST PUSH1 0x0 PUSH2 0x3214 PUSH1 0x0 NOT DUP5 PUSH1 0x8 MUL PUSH2 0x31F6 JUMP JUMPDEST NOT DUP1 DUP4 AND SWAP2 POP POP SWAP3 SWAP2 POP POP JUMP JUMPDEST PUSH1 0x0 PUSH2 0x322D DUP4 DUP4 PUSH2 0x3203 JUMP JUMPDEST SWAP2 POP DUP3 PUSH1 0x2 MUL DUP3 OR SWAP1 POP SWAP3 SWAP2 POP POP JUMP JUMPDEST PUSH2 0x3246 DUP3 PUSH2 0x2736 JUMP JUMPDEST PUSH8 0xFFFFFFFFFFFFFFFF DUP2 GT ISZERO PUSH2 0x325F JUMPI PUSH2 0x325E PUSH2 0x2568 JUMP JUMPDEST JUMPDEST PUSH2 0x3269 DUP3 SLOAD PUSH2 0x2B4B JUMP JUMPDEST PUSH2 0x3274 DUP3 DUP3 DUP6 PUSH2 0x31B0 JUMP JUMPDEST PUSH1 0x0 PUSH1 0x20 SWAP1 POP PUSH1 0x1F DUP4 GT PUSH1 0x1 DUP2 EQ PUSH2 0x32A7 JUMPI PUSH1 0x0 DUP5 ISZERO PUSH2 0x3295 JUMPI DUP3 DUP8 ADD MLOAD SWAP1 POP JUMPDEST PUSH2 0x329F DUP6 DUP3 PUSH2 0x3221 JUMP JUMPDEST DUP7 SSTORE POP PUSH2 0x3307 JUMP JUMPDEST PUSH1 0x1F NOT DUP5 AND PUSH2 0x32B5 DUP7 PUSH2 0x309B JUMP JUMPDEST PUSH1 0x0 JUMPDEST DUP3 DUP2 LT ISZERO PUSH2 0x32DD JUMPI DUP5 DUP10 ADD MLOAD DUP3 SSTORE PUSH1 0x1 DUP3 ADD SWAP2 POP PUSH1 0x20 DUP6 ADD SWAP5 POP PUSH1 0x20 DUP2 ADD SWAP1 POP PUSH2 0x32B8 JUMP JUMPDEST DUP7 DUP4 LT ISZERO PUSH2 0x32FA JUMPI DUP5 DUP10 ADD MLOAD PUSH2 0x32F6 PUSH1 0x1F DUP10 AND DUP3 PUSH2 0x3203 JUMP JUMPDEST DUP4 SSTORE POP JUMPDEST PUSH1 0x1 PUSH1 0x2 DUP9 MUL ADD DUP9 SSTORE POP POP POP JUMPDEST POP POP POP POP POP POP JUMP JUMPDEST PUSH1 0x0 PUSH1 0x80 DUP3 ADD SWAP1 POP PUSH2 0x3324 PUSH1 0x0 DUP4 ADD DUP9 PUSH2 0x2C57 JUMP JUMPDEST PUSH2 0x3331 PUSH1 0x20 DUP4 ADD DUP8 PUSH2 0x2C57 JUMP JUMPDEST PUSH2 0x333E PUSH1 0x40 DUP4 ADD DUP7 PUSH2 0x24AE JUMP JUMPDEST DUP2 DUP2 SUB PUSH1 0x60 DUP4 ADD MSTORE PUSH2 0x3351 DUP2 DUP5 DUP7 PUSH2 0x2E0A JUMP JUMPDEST SWAP1 POP SWAP7 SWAP6 POP POP POP POP POP POP JUMP JUMPDEST PUSH32 0x4E6F6E626C6F636B696E674C7A4170703A206E6F2073746F726564206D657373 PUSH1 0x0 DUP3 ADD MSTORE PUSH32 0x6167650000000000000000000000000000000000000000000000000000000000 PUSH1 0x20 DUP3 ADD MSTORE POP JUMP JUMPDEST PUSH1 0x0 PUSH2 0x33B9 PUSH1 0x23 DUP4 PUSH2 0x2A9F JUMP JUMPDEST SWAP2 POP PUSH2 0x33C4 DUP3 PUSH2 0x335D JUMP JUMPDEST PUSH1 0x40 DUP3 ADD SWAP1 POP SWAP2 SWAP1 POP JUMP JUMPDEST PUSH1 0x0 PUSH1 0x20 DUP3 ADD SWAP1 POP DUP2 DUP2 SUB PUSH1 0x0 DUP4 ADD MSTORE PUSH2 0x33E8 DUP2 PUSH2 0x33AC JUMP JUMPDEST SWAP1 POP SWAP2 SWAP1 POP JUMP JUMPDEST PUSH32 0x4E6F6E626C6F636B696E674C7A4170703A20696E76616C6964207061796C6F61 PUSH1 0x0 DUP3 ADD MSTORE PUSH32 0x6400000000000000000000000000000000000000000000000000000000000000 PUSH1 0x20 DUP3 ADD MSTORE POP JUMP JUMPDEST PUSH1 0x0 PUSH2 0x344B PUSH1 0x21 DUP4 PUSH2 0x2A9F JUMP JUMPDEST SWAP2 POP PUSH2 0x3456 DUP3 PUSH2 0x33EF JUMP JUMPDEST PUSH1 0x40 DUP3 ADD SWAP1 POP SWAP2 SWAP1 POP JUMP JUMPDEST PUSH1 0x0 PUSH1 0x20 DUP3 ADD SWAP1 POP DUP2 DUP2 SUB PUSH1 0x0 DUP4 ADD MSTORE PUSH2 0x347A DUP2 PUSH2 0x343E JUMP JUMPDEST SWAP1 POP SWAP2 SWAP1 POP JUMP JUMPDEST PUSH2 0x348A DUP2 PUSH2 0x21F2 JUMP JUMPDEST DUP3 MSTORE POP POP JUMP JUMPDEST PUSH1 0x0 PUSH1 0x80 DUP3 ADD SWAP1 POP PUSH2 0x34A5 PUSH1 0x0 DUP4 ADD DUP9 PUSH2 0x2C57 JUMP JUMPDEST DUP2 DUP2 SUB PUSH1 0x20 DUP4 ADD MSTORE PUSH2 0x34B8 DUP2 DUP7 DUP9 PUSH2 0x2E0A JUMP JUMPDEST SWAP1 POP PUSH2 0x34C7 PUSH1 0x40 DUP4 ADD DUP6 PUSH2 0x3481 JUMP JUMPDEST PUSH2 0x34D4 PUSH1 0x60 DUP4 ADD DUP5 PUSH2 0x270C JUMP JUMPDEST SWAP7 SWAP6 POP POP POP POP POP POP JUMP JUMPDEST PUSH32 0x4C7A4170703A20696E76616C6964206D696E4761730000000000000000000000 PUSH1 0x0 DUP3 ADD MSTORE POP JUMP JUMPDEST PUSH1 0x0 PUSH2 0x3514 PUSH1 0x15 DUP4 PUSH2 0x2A9F JUMP JUMPDEST SWAP2 POP PUSH2 0x351F DUP3 PUSH2 0x34DE JUMP JUMPDEST PUSH1 0x20 DUP3 ADD SWAP1 POP SWAP2 SWAP1 POP JUMP JUMPDEST PUSH1 0x0 PUSH1 0x20 DUP3 ADD SWAP1 POP DUP2 DUP2 SUB PUSH1 0x0 DUP4 ADD MSTORE PUSH2 0x3543 DUP2 PUSH2 0x3507 JUMP JUMPDEST SWAP1 POP SWAP2 SWAP1 POP JUMP JUMPDEST PUSH1 0x0 PUSH1 0x60 DUP3 ADD SWAP1 POP PUSH2 0x355F PUSH1 0x0 DUP4 ADD DUP7 PUSH2 0x2C57 JUMP JUMPDEST PUSH2 0x356C PUSH1 0x20 DUP4 ADD DUP6 PUSH2 0x2C57 JUMP JUMPDEST PUSH2 0x3579 PUSH1 0x40 DUP4 ADD DUP5 PUSH2 0x24AE JUMP JUMPDEST SWAP5 SWAP4 POP POP POP POP JUMP JUMPDEST PUSH1 0x0 DUP3 SWAP1 POP SWAP3 SWAP2 POP POP JUMP JUMPDEST PUSH2 0x3596 DUP4 DUP4 PUSH2 0x3581 JUMP JUMPDEST PUSH8 0xFFFFFFFFFFFFFFFF DUP2 GT ISZERO PUSH2 0x35AF JUMPI PUSH2 0x35AE PUSH2 0x2568 JUMP JUMPDEST JUMPDEST PUSH2 0x35B9 DUP3 SLOAD PUSH2 0x2B4B JUMP JUMPDEST PUSH2 0x35C4 DUP3 DUP3 DUP6 PUSH2 0x31B0 JUMP JUMPDEST PUSH1 0x0 PUSH1 0x1F DUP4 GT PUSH1 0x1 DUP2 EQ PUSH2 0x35F3 JUMPI PUSH1 0x0 DUP5 ISZERO PUSH2 0x35E1 JUMPI DUP3 DUP8 ADD CALLDATALOAD SWAP1 POP JUMPDEST PUSH2 0x35EB DUP6 DUP3 PUSH2 0x3221 JUMP JUMPDEST DUP7 SSTORE POP PUSH2 0x3653 JUMP JUMPDEST PUSH1 0x1F NOT DUP5 AND PUSH2 0x3601 DUP7 PUSH2 0x309B JUMP JUMPDEST PUSH1 0x0 JUMPDEST DUP3 DUP2 LT ISZERO PUSH2 0x3629 JUMPI DUP5 DUP10 ADD CALLDATALOAD DUP3 SSTORE PUSH1 0x1 DUP3 ADD SWAP2 POP PUSH1 0x20 DUP6 ADD SWAP5 POP PUSH1 0x20 DUP2 ADD SWAP1 POP PUSH2 0x3604 JUMP JUMPDEST DUP7 DUP4 LT ISZERO PUSH2 0x3646 JUMPI DUP5 DUP10 ADD CALLDATALOAD PUSH2 0x3642 PUSH1 0x1F DUP10 AND DUP3 PUSH2 0x3203 JUMP JUMPDEST DUP4 SSTORE POP JUMPDEST PUSH1 0x1 PUSH1 0x2 DUP9 MUL ADD DUP9 SSTORE POP POP POP JUMPDEST POP POP POP POP POP POP POP JUMP JUMPDEST PUSH32 0x4F776E61626C653A206E6577206F776E657220697320746865207A65726F2061 PUSH1 0x0 DUP3 ADD MSTORE PUSH32 0x6464726573730000000000000000000000000000000000000000000000000000 PUSH1 0x20 DUP3 ADD MSTORE POP JUMP JUMPDEST PUSH1 0x0 PUSH2 0x36B8 PUSH1 0x26 DUP4 PUSH2 0x2A9F JUMP JUMPDEST SWAP2 POP PUSH2 0x36C3 DUP3 PUSH2 0x365C JUMP JUMPDEST PUSH1 0x40 DUP3 ADD SWAP1 POP SWAP2 SWAP1 POP JUMP JUMPDEST PUSH1 0x0 PUSH1 0x20 DUP3 ADD SWAP1 POP DUP2 DUP2 SUB PUSH1 0x0 DUP4 ADD MSTORE PUSH2 0x36E7 DUP2 PUSH2 0x36AB JUMP JUMPDEST SWAP1 POP SWAP2 SWAP1 POP JUMP JUMPDEST PUSH1 0x0 PUSH1 0x80 DUP3 ADD SWAP1 POP PUSH2 0x3703 PUSH1 0x0 DUP4 ADD DUP8 PUSH2 0x2C57 JUMP JUMPDEST PUSH2 0x3710 PUSH1 0x20 DUP4 ADD DUP7 PUSH2 0x2C57 JUMP JUMPDEST PUSH2 0x371D PUSH1 0x40 DUP4 ADD DUP6 PUSH2 0x230B JUMP JUMPDEST PUSH2 0x372A PUSH1 0x60 DUP4 ADD DUP5 PUSH2 0x24AE JUMP JUMPDEST SWAP6 SWAP5 POP POP POP POP POP JUMP JUMPDEST PUSH1 0x0 PUSH2 0x3746 PUSH2 0x3741 DUP5 PUSH2 0x25E3 JUMP JUMPDEST PUSH2 0x25C8 JUMP JUMPDEST SWAP1 POP DUP3 DUP2 MSTORE PUSH1 0x20 DUP2 ADD DUP5 DUP5 DUP5 ADD GT ISZERO PUSH2 0x3762 JUMPI PUSH2 0x3761 PUSH2 0x2552 JUMP JUMPDEST JUMPDEST PUSH2 0x376D DUP5 DUP3 DUP6 PUSH2 0x2752 JUMP JUMPDEST POP SWAP4 SWAP3 POP POP POP JUMP JUMPDEST PUSH1 0x0 DUP3 PUSH1 0x1F DUP4 ADD SLT PUSH2 0x378A JUMPI PUSH2 0x3789 PUSH2 0x218D JUMP JUMPDEST JUMPDEST DUP2 MLOAD PUSH2 0x379A DUP5 DUP3 PUSH1 0x20 DUP7 ADD PUSH2 0x3733 JUMP JUMPDEST SWAP2 POP POP SWAP3 SWAP2 POP POP JUMP JUMPDEST PUSH1 0x0 PUSH1 0x20 DUP3 DUP5 SUB SLT ISZERO PUSH2 0x37B9 JUMPI PUSH2 0x37B8 PUSH2 0x2149 JUMP JUMPDEST JUMPDEST PUSH1 0x0 DUP3 ADD MLOAD PUSH8 0xFFFFFFFFFFFFFFFF DUP2 GT ISZERO PUSH2 0x37D7 JUMPI PUSH2 0x37D6 PUSH2 0x214E JUMP JUMPDEST JUMPDEST PUSH2 0x37E3 DUP5 DUP3 DUP6 ADD PUSH2 0x3775 JUMP JUMPDEST SWAP2 POP POP SWAP3 SWAP2 POP POP JUMP JUMPDEST PUSH1 0x0 PUSH1 0x80 DUP3 ADD SWAP1 POP PUSH2 0x3801 PUSH1 0x0 DUP4 ADD DUP8 PUSH2 0x2C57 JUMP JUMPDEST DUP2 DUP2 SUB PUSH1 0x20 DUP4 ADD MSTORE PUSH2 0x3813 DUP2 DUP7 PUSH2 0x277C JUMP JUMPDEST SWAP1 POP PUSH2 0x3822 PUSH1 0x40 DUP4 ADD DUP6 PUSH2 0x3481 JUMP JUMPDEST DUP2 DUP2 SUB PUSH1 0x60 DUP4 ADD MSTORE PUSH2 0x3834 DUP2 DUP5 PUSH2 0x277C JUMP JUMPDEST SWAP1 POP SWAP6 SWAP5 POP POP POP POP POP JUMP JUMPDEST PUSH32 0x4F776E61626C653A2063616C6C6572206973206E6F7420746865206F776E6572 PUSH1 0x0 DUP3 ADD MSTORE POP JUMP JUMPDEST PUSH1 0x0 PUSH2 0x3875 PUSH1 0x20 DUP4 PUSH2 0x2A9F JUMP JUMPDEST SWAP2 POP PUSH2 0x3880 DUP3 PUSH2 0x383F JUMP JUMPDEST PUSH1 0x20 DUP3 ADD SWAP1 POP SWAP2 SWAP1 POP JUMP JUMPDEST PUSH1 0x0 PUSH1 0x20 DUP3 ADD SWAP1 POP DUP2 DUP2 SUB PUSH1 0x0 DUP4 ADD MSTORE PUSH2 0x38A4 DUP2 PUSH2 0x3868 JUMP JUMPDEST SWAP1 POP SWAP2 SWAP1 POP JUMP JUMPDEST PUSH32 0x4C7A4170703A2064657374696E6174696F6E20636861696E206973206E6F7420 PUSH1 0x0 DUP3 ADD MSTORE PUSH32 0x61207472757374656420736F7572636500000000000000000000000000000000 PUSH1 0x20 DUP3 ADD MSTORE POP JUMP JUMPDEST PUSH1 0x0 PUSH2 0x3907 PUSH1 0x30 DUP4 PUSH2 0x2A9F JUMP JUMPDEST SWAP2 POP PUSH2 0x3912 DUP3 PUSH2 0x38AB JUMP JUMPDEST PUSH1 0x40 DUP3 ADD SWAP1 POP SWAP2 SWAP1 POP JUMP JUMPDEST PUSH1 0x0 PUSH1 0x20 DUP3 ADD SWAP1 POP DUP2 DUP2 SUB PUSH1 0x0 DUP4 ADD MSTORE PUSH2 0x3936 DUP2 PUSH2 0x38FA JUMP JUMPDEST SWAP1 POP SWAP2 SWAP1 POP JUMP JUMPDEST PUSH1 0x0 PUSH2 0x3948 DUP3 PUSH2 0x22D9 JUMP JUMPDEST SWAP1 POP SWAP2 SWAP1 POP JUMP JUMPDEST PUSH2 0x3958 DUP2 PUSH2 0x393D JUMP JUMPDEST DUP3 MSTORE POP POP JUMP JUMPDEST PUSH1 0x0 PUSH1 0xC0 DUP3 ADD SWAP1 POP PUSH2 0x3973 PUSH1 0x0 DUP4 ADD DUP10 PUSH2 0x2C57 JUMP JUMPDEST DUP2 DUP2 SUB PUSH1 0x20 DUP4 ADD MSTORE PUSH2 0x3985 DUP2 DUP9 PUSH2 0x277C JUMP JUMPDEST SWAP1 POP DUP2 DUP2 SUB PUSH1 0x40 DUP4 ADD MSTORE PUSH2 0x3999 DUP2 DUP8 PUSH2 0x277C JUMP JUMPDEST SWAP1 POP PUSH2 0x39A8 PUSH1 0x60 DUP4 ADD DUP7 PUSH2 0x394F JUMP JUMPDEST PUSH2 0x39B5 PUSH1 0x80 DUP4 ADD DUP6 PUSH2 0x230B JUMP JUMPDEST DUP2 DUP2 SUB PUSH1 0xA0 DUP4 ADD MSTORE PUSH2 0x39C7 DUP2 DUP5 PUSH2 0x277C JUMP JUMPDEST SWAP1 POP SWAP8 SWAP7 POP POP POP POP POP POP POP JUMP JUMPDEST PUSH1 0x0 DUP2 MLOAD SWAP1 POP PUSH2 0x39E3 DUP2 PUSH2 0x236C JUMP JUMPDEST SWAP3 SWAP2 POP POP JUMP JUMPDEST PUSH2 0x39F2 DUP2 PUSH2 0x393D JUMP JUMPDEST DUP2 EQ PUSH2 0x39FD JUMPI PUSH1 0x0 DUP1 REVERT JUMPDEST POP JUMP JUMPDEST PUSH1 0x0 DUP2 MLOAD SWAP1 POP PUSH2 0x3A0F DUP2 PUSH2 0x39E9 JUMP JUMPDEST SWAP3 SWAP2 POP POP JUMP JUMPDEST PUSH1 0x0 DUP1 PUSH1 0x40 DUP4 DUP6 SUB SLT ISZERO PUSH2 0x3A2C JUMPI PUSH2 0x3A2B PUSH2 0x2149 JUMP JUMPDEST JUMPDEST PUSH1 0x0 PUSH2 0x3A3A DUP6 DUP3 DUP7 ADD PUSH2 0x39D4 JUMP JUMPDEST SWAP3 POP POP PUSH1 0x20 PUSH2 0x3A4B DUP6 DUP3 DUP7 ADD PUSH2 0x3A00 JUMP JUMPDEST SWAP2 POP POP SWAP3 POP SWAP3 SWAP1 POP JUMP JUMPDEST PUSH1 0x0 PUSH2 0x3A60 DUP3 PUSH2 0x2362 JUMP JUMPDEST SWAP2 POP PUSH2 0x3A6B DUP4 PUSH2 0x2362 JUMP JUMPDEST SWAP3 POP DUP3 DUP3 ADD SWAP1 POP DUP1 DUP3 GT ISZERO PUSH2 0x3A83 JUMPI PUSH2 0x3A82 PUSH2 0x300E JUMP JUMPDEST JUMPDEST SWAP3 SWAP2 POP POP JUMP JUMPDEST PUSH32 0x736C6963655F6F766572666C6F77000000000000000000000000000000000000 PUSH1 0x0 DUP3 ADD MSTORE POP JUMP JUMPDEST PUSH1 0x0 PUSH2 0x3ABF PUSH1 0xE DUP4 PUSH2 0x2A9F JUMP JUMPDEST SWAP2 POP PUSH2 0x3ACA DUP3 PUSH2 0x3A89 JUMP JUMPDEST PUSH1 0x20 DUP3 ADD SWAP1 POP SWAP2 SWAP1 POP JUMP JUMPDEST PUSH1 0x0 PUSH1 0x20 DUP3 ADD SWAP1 POP DUP2 DUP2 SUB PUSH1 0x0 DUP4 ADD MSTORE PUSH2 0x3AEE DUP2 PUSH2 0x3AB2 JUMP JUMPDEST SWAP1 POP SWAP2 SWAP1 POP JUMP JUMPDEST PUSH32 0x736C6963655F6F75744F66426F756E6473000000000000000000000000000000 PUSH1 0x0 DUP3 ADD MSTORE POP JUMP JUMPDEST PUSH1 0x0 PUSH2 0x3B2B PUSH1 0x11 DUP4 PUSH2 0x2A9F JUMP JUMPDEST SWAP2 POP PUSH2 0x3B36 DUP3 PUSH2 0x3AF5 JUMP JUMPDEST PUSH1 0x20 DUP3 ADD SWAP1 POP SWAP2 SWAP1 POP JUMP JUMPDEST PUSH1 0x0 PUSH1 0x20 DUP3 ADD SWAP1 POP DUP2 DUP2 SUB PUSH1 0x0 DUP4 ADD MSTORE PUSH2 0x3B5A DUP2 PUSH2 0x3B1E JUMP JUMPDEST SWAP1 POP SWAP2 SWAP1 POP JUMP JUMPDEST PUSH1 0x0 PUSH2 0x3B6C DUP3 PUSH2 0x2736 JUMP JUMPDEST PUSH2 0x3B76 DUP2 DUP6 PUSH2 0x2B7C JUMP JUMPDEST SWAP4 POP PUSH2 0x3B86 DUP2 DUP6 PUSH1 0x20 DUP7 ADD PUSH2 0x2752 JUMP JUMPDEST DUP1 DUP5 ADD SWAP2 POP POP SWAP3 SWAP2 POP POP JUMP JUMPDEST PUSH1 0x0 PUSH2 0x3B9E DUP3 DUP5 PUSH2 0x3B61 JUMP JUMPDEST SWAP2 POP DUP2 SWAP1 POP SWAP3 SWAP2 POP POP JUMP JUMPDEST PUSH1 0x0 PUSH1 0xA0 DUP3 ADD SWAP1 POP PUSH2 0x3BBE PUSH1 0x0 DUP4 ADD DUP9 PUSH2 0x2C57 JUMP JUMPDEST DUP2 DUP2 SUB PUSH1 0x20 DUP4 ADD MSTORE PUSH2 0x3BD0 DUP2 DUP8 PUSH2 0x277C JUMP JUMPDEST SWAP1 POP PUSH2 0x3BDF PUSH1 0x40 DUP4 ADD DUP7 PUSH2 0x3481 JUMP JUMPDEST DUP2 DUP2 SUB PUSH1 0x60 DUP4 ADD MSTORE PUSH2 0x3BF1 DUP2 DUP6 PUSH2 0x277C JUMP JUMPDEST SWAP1 POP DUP2 DUP2 SUB PUSH1 0x80 DUP4 ADD MSTORE PUSH2 0x3C05 DUP2 DUP5 PUSH2 0x277C JUMP JUMPDEST SWAP1 POP SWAP7 SWAP6 POP POP POP POP POP POP JUMP JUMPDEST PUSH32 0x4C7A4170703A207061796C6F61642073697A6520697320746F6F206C61726765 PUSH1 0x0 DUP3 ADD MSTORE POP JUMP JUMPDEST PUSH1 0x0 PUSH2 0x3C47 PUSH1 0x20 DUP4 PUSH2 0x2A9F JUMP JUMPDEST SWAP2 POP PUSH2 0x3C52 DUP3 PUSH2 0x3C11 JUMP JUMPDEST PUSH1 0x20 DUP3 ADD SWAP1 POP SWAP2 SWAP1 POP JUMP JUMPDEST PUSH1 0x0 PUSH1 0x20 DUP3 ADD SWAP1 POP DUP2 DUP2 SUB PUSH1 0x0 DUP4 ADD MSTORE PUSH2 0x3C76 DUP2 PUSH2 0x3C3A JUMP JUMPDEST SWAP1 POP SWAP2 SWAP1 POP JUMP JUMPDEST PUSH1 0x0 PUSH1 0x40 DUP3 ADD SWAP1 POP PUSH2 0x3C92 PUSH1 0x0 DUP4 ADD DUP6 PUSH2 0x230B JUMP JUMPDEST PUSH2 0x3C9F PUSH1 0x20 DUP4 ADD DUP5 PUSH2 0x24AE JUMP JUMPDEST SWAP4 SWAP3 POP POP POP JUMP JUMPDEST PUSH2 0x3CAF DUP2 PUSH2 0x2478 JUMP JUMPDEST DUP2 EQ PUSH2 0x3CBA JUMPI PUSH1 0x0 DUP1 REVERT JUMPDEST POP JUMP JUMPDEST PUSH1 0x0 DUP2 MLOAD SWAP1 POP PUSH2 0x3CCC DUP2 PUSH2 0x3CA6 JUMP JUMPDEST SWAP3 SWAP2 POP POP JUMP JUMPDEST PUSH1 0x0 PUSH1 0x20 DUP3 DUP5 SUB SLT ISZERO PUSH2 0x3CE8 JUMPI PUSH2 0x3CE7 PUSH2 0x2149 JUMP JUMPDEST JUMPDEST PUSH1 0x0 PUSH2 0x3CF6 DUP5 DUP3 DUP6 ADD PUSH2 0x3CBD JUMP JUMPDEST SWAP2 POP POP SWAP3 SWAP2 POP POP JUMP INVALID LOG2 PUSH5 0x6970667358 0x22 SLT KECCAK256 0xD1 0xC3 SWAP3 STOP 0x23 0xA9 DUP13 BYTE 0xB7 PUSH28 0xD0D03D22552D449E446AC19F14532735D3D45F7F5DC764736F6C6343 STOP ADDMOD SGT STOP CALLER "},"methodIdentifiers":{"DEFAULT_PAYLOAD_SIZE_LIMIT()":"c4461834","POOL_FEE()":"dd1b9c4a","bridgeToken(uint256,uint16)":"1b175c9c","failedMessages(uint16,bytes,uint64)":"5b8c41e6","forceResumeReceive(uint16,bytes)":"42d65a8d","getConfig(uint16,uint16,address,uint256)":"f5ecbdbc","getContractBalanceNatve()":"dffc4bfc","getTrustedRemoteAddress(uint16)":"9f38369a","isTrustedRemote(uint16,bytes)":"3d8b38f6","lzEndpoint()":"b353aaa7","lzReceive(uint16,bytes,uint64,bytes)":"001d3567","minDstGasLookup(uint16,uint16)":"8cfd8f5c","nonblockingLzReceive(uint16,bytes,uint64,bytes)":"66ad5c8a","owner()":"8da5cb5b","payloadSizeLimitLookup(uint16)":"3f1f4fa4","precrime()":"950c8a74","priceFeedAddress()":"e0abca0b","renounceOwnership()":"715018a6","retryMessage(uint16,bytes,uint64,bytes)":"d1deba1f","setConfig(uint16,uint16,uint256,bytes)":"cbed8b9c","setMinDstGas(uint16,uint16,uint256)":"df2a5b3b","setPayloadSizeLimit(uint16,uint256)":"0df37483","setPrecrime(address)":"baf3292d","setReceiveVersion(uint16)":"10ddb137","setSendVersion(uint16)":"07e0db17","setTrustedRemote(uint16,bytes)":"eb8d72b7","setTrustedRemoteAddress(uint16,bytes)":"a6c3d165","stableAssetAddressUSDC()":"fb2134d9","swapRouter()":"c31c9c07","swapRouter2()":"cb351188","transferOwnership(address)":"f2fde38b","trustedRemoteLookup(uint16)":"7533d788","uniswapV3Factory()":"5b549182","withdrawNative()":"50431ce4","wrappedAssetAddressNative()":"0563d1ac"}}}}}