{
  "_format": "hh-sol-artifact-1",
  "contractName": "TestSwapV3",
  "sourceName": "contracts/TestSwapV3.sol",
  "abi": [
    {
      "inputs": [
        {
          "internalType": "contract ISwapRouter",
          "name": "_swapRouter",
          "type": "address"
        },
        {
          "internalType": "address",
          "name": "_stableAssetAddressUSDC",
          "type": "address"
        },
        {
          "internalType": "address",
          "name": "_wrappedAssetAddressNative",
          "type": "address"
        },
        {
          "internalType": "contract IUniswapV3Factory",
          "name": "_uniswapV3Factory",
          "type": "address"
        },
        {
          "internalType": "contract IQuoter",
          "name": "_quoter",
          "type": "address"
        }
      ],
      "stateMutability": "nonpayable",
      "type": "constructor"
    },
    {
      "inputs": [],
      "name": "POOL_FEE",
      "outputs": [
        {
          "internalType": "uint24",
          "name": "",
          "type": "uint24"
        }
      ],
      "stateMutability": "view",
      "type": "function"
    },
    {
      "inputs": [
        {
          "internalType": "uint256",
          "name": "_amount",
          "type": "uint256"
        }
      ],
      "name": "_getAssetPrice",
      "outputs": [
        {
          "internalType": "uint256",
          "name": "",
          "type": "uint256"
        }
      ],
      "stateMutability": "view",
      "type": "function"
    },
    {
      "inputs": [],
      "name": "_getPool",
      "outputs": [
        {
          "internalType": "address",
          "name": "",
          "type": "address"
        }
      ],
      "stateMutability": "view",
      "type": "function"
    },
    {
      "inputs": [
        {
          "internalType": "uint256",
          "name": "_amountIn",
          "type": "uint256"
        }
      ],
      "name": "_getQuotes",
      "outputs": [
        {
          "internalType": "uint256",
          "name": "",
          "type": "uint256"
        }
      ],
      "stateMutability": "nonpayable",
      "type": "function"
    },
    {
      "inputs": [
        {
          "internalType": "uint256",
          "name": "_amountIn",
          "type": "uint256"
        },
        {
          "internalType": "address",
          "name": "_recipient",
          "type": "address"
        }
      ],
      "name": "_swapTest",
      "outputs": [
        {
          "internalType": "uint256",
          "name": "_amountOut",
          "type": "uint256"
        }
      ],
      "stateMutability": "nonpayable",
      "type": "function"
    },
    {
      "inputs": [],
      "name": "quoter",
      "outputs": [
        {
          "internalType": "contract IQuoter",
          "name": "",
          "type": "address"
        }
      ],
      "stateMutability": "view",
      "type": "function"
    },
    {
      "inputs": [],
      "name": "stableAssetAddressUSDC",
      "outputs": [
        {
          "internalType": "address",
          "name": "",
          "type": "address"
        }
      ],
      "stateMutability": "view",
      "type": "function"
    },
    {
      "inputs": [],
      "name": "swapRouter",
      "outputs": [
        {
          "internalType": "contract ISwapRouter",
          "name": "",
          "type": "address"
        }
      ],
      "stateMutability": "view",
      "type": "function"
    },
    {
      "inputs": [],
      "name": "uniswapV3Factory",
      "outputs": [
        {
          "internalType": "contract IUniswapV3Factory",
          "name": "",
          "type": "address"
        }
      ],
      "stateMutability": "view",
      "type": "function"
    },
    {
      "inputs": [],
      "name": "wrappedAssetAddressNative",
      "outputs": [
        {
          "internalType": "address",
          "name": "",
          "type": "address"
        }
      ],
      "stateMutability": "view",
      "type": "function"
    }
  ],
  "bytecode": "0x60e06040523480156200001157600080fd5b50604051620017a4380380620017a4833981810160405281019062000037919062000298565b8473ffffffffffffffffffffffffffffffffffffffff1660808173ffffffffffffffffffffffffffffffffffffffff1681525050836000806101000a81548173ffffffffffffffffffffffffffffffffffffffff021916908373ffffffffffffffffffffffffffffffffffffffff16021790555082600160006101000a81548173ffffffffffffffffffffffffffffffffffffffff021916908373ffffffffffffffffffffffffffffffffffffffff1602179055508173ffffffffffffffffffffffffffffffffffffffff1660a08173ffffffffffffffffffffffffffffffffffffffff16815250508073ffffffffffffffffffffffffffffffffffffffff1660c08173ffffffffffffffffffffffffffffffffffffffff1681525050505050505062000320565b600080fd5b600073ffffffffffffffffffffffffffffffffffffffff82169050919050565b6000620001918262000164565b9050919050565b6000620001a58262000184565b9050919050565b620001b78162000198565b8114620001c357600080fd5b50565b600081519050620001d781620001ac565b92915050565b620001e88162000184565b8114620001f457600080fd5b50565b6000815190506200020881620001dd565b92915050565b60006200021b8262000184565b9050919050565b6200022d816200020e565b81146200023957600080fd5b50565b6000815190506200024d8162000222565b92915050565b6000620002608262000184565b9050919050565b620002728162000253565b81146200027e57600080fd5b50565b600081519050620002928162000267565b92915050565b600080600080600060a08688031215620002b757620002b66200015f565b5b6000620002c788828901620001c6565b9550506020620002da88828901620001f7565b9450506040620002ed88828901620001f7565b935050606062000300888289016200023c565b9250506080620003138882890162000281565b9150509295509295909350565b60805160a05160c0516114386200036c6000396000818161087b01526108a80152600081816103b7015281816104a201526104c901526000818161030f015261085701526114386000f3fe608060405234801561001057600080fd5b506004361061009e5760003560e01c8063c31c9c0711610066578063c31c9c071461015d578063c6bbd5a71461017b578063dd1b9c4a14610199578063e4d4a3c5146101b7578063fb2134d9146101e75761009e565b80630563d1ac146100a35780630c75538a146100c157806315c1c9c6146100f15780635b5491821461010f578063a02e9fea1461012d575b600080fd5b6100ab610205565b6040516100b89190610ad8565b60405180910390f35b6100db60048036038101906100d69190610b5a565b61022b565b6040516100e89190610ba9565b60405180910390f35b6100f96103b2565b6040516101069190610ad8565b60405180910390f35b6101176104a0565b6040516101249190610c23565b60405180910390f35b61014760048036038101906101429190610c3e565b6104c4565b6040516101549190610ba9565b60405180910390f35b610165610855565b6040516101729190610c8c565b60405180910390f35b610183610879565b6040516101909190610cc8565b60405180910390f35b6101a161089d565b6040516101ae9190610d01565b60405180910390f35b6101d160048036038101906101cc9190610c3e565b6108a3565b6040516101de9190610ba9565b60405180910390f35b6101ef61099a565b6040516101fc9190610ad8565b60405180910390f35b600160009054906101000a900473ffffffffffffffffffffffffffffffffffffffff1681565b60008060405180610100016040528060008054906101000a900473ffffffffffffffffffffffffffffffffffffffff1673ffffffffffffffffffffffffffffffffffffffff168152602001600160009054906101000a900473ffffffffffffffffffffffffffffffffffffffff1673ffffffffffffffffffffffffffffffffffffffff1681526020016101f462ffffff1681526020018473ffffffffffffffffffffffffffffffffffffffff16815260200142815260200185815260200160008152602001600073ffffffffffffffffffffffffffffffffffffffff1681525090507f000000000000000000000000000000000000000000000000000000000000000073ffffffffffffffffffffffffffffffffffffffff1663414bf389826040518263ffffffff1660e01b81526004016103669190610dfa565b6020604051808303816000875af1158015610385573d6000803e3d6000fd5b505050506040513d601f19601f820116820180604052508101906103a99190610e2b565b91505092915050565b6000807f000000000000000000000000000000000000000000000000000000000000000073ffffffffffffffffffffffffffffffffffffffff16631698ee8260008054906101000a900473ffffffffffffffffffffffffffffffffffffffff16600160009054906101000a900473ffffffffffffffffffffffffffffffffffffffff166101f46040518463ffffffff1660e01b815260040161045693929190610e58565b602060405180830381865afa158015610473573d6000803e3d6000fd5b505050506040513d601f19601f820116820180604052508101906104979190610ea4565b90508091505090565b7f000000000000000000000000000000000000000000000000000000000000000081565b6000807f000000000000000000000000000000000000000000000000000000000000000073ffffffffffffffffffffffffffffffffffffffff16631698ee8260008054906101000a900473ffffffffffffffffffffffffffffffffffffffff16600160009054906101000a900473ffffffffffffffffffffffffffffffffffffffff166101f46040518463ffffffff1660e01b815260040161056893929190610e58565b602060405180830381865afa158015610585573d6000803e3d6000fd5b505050506040513d601f19601f820116820180604052508101906105a99190610ea4565b905060008173ffffffffffffffffffffffffffffffffffffffff16633850c7bd6040518163ffffffff1660e01b815260040160e060405180830381865afa1580156105f8573d6000803e3d6000fd5b505050506040513d601f19601f8201168201806040525081019061061c9190610fe1565b505050505050905060006106d48373ffffffffffffffffffffffffffffffffffffffff16631a6865026040518163ffffffff1660e01b8152600401602060405180830381865afa158015610674573d6000803e3d6000fd5b505050506040513d601f19601f8201168201806040525081019061069891906110cb565b6fffffffffffffffffffffffffffffffff166c010000000000000000000000008473ffffffffffffffffffffffffffffffffffffffff166109be565b905060006107868473ffffffffffffffffffffffffffffffffffffffff16631a6865026040518163ffffffff1660e01b8152600401602060405180830381865afa158015610726573d6000803e3d6000fd5b505050506040513d601f19601f8201168201806040525081019061074a91906110cb565b6fffffffffffffffffffffffffffffffff168473ffffffffffffffffffffffffffffffffffffffff166c010000000000000000000000006109be565b905060008260008054906101000a900473ffffffffffffffffffffffffffffffffffffffff1673ffffffffffffffffffffffffffffffffffffffff1663313ce5676040518163ffffffff1660e01b8152600401602060405180830381865afa1580156107f6573d6000803e3d6000fd5b505050506040513d601f19601f8201168201806040525081019061081a91906110f8565b600a6108269190611287565b8361083191906112d2565b61083b9190611343565b9050808761084991906112d2565b95505050505050919050565b7f000000000000000000000000000000000000000000000000000000000000000081565b7f000000000000000000000000000000000000000000000000000000000000000081565b6101f481565b6000807f000000000000000000000000000000000000000000000000000000000000000073ffffffffffffffffffffffffffffffffffffffff1663f7729d4360008054906101000a900473ffffffffffffffffffffffffffffffffffffffff16600160009054906101000a900473ffffffffffffffffffffffffffffffffffffffff166101f48760006040518663ffffffff1660e01b815260040161094c9594939291906113af565b6020604051808303816000875af115801561096b573d6000803e3d6000fd5b505050506040513d601f19601f8201168201806040525081019061098f9190610e2b565b905080915050919050565b60008054906101000a900473ffffffffffffffffffffffffffffffffffffffff1681565b60008060008019858709858702925082811083820303915050600081036109f857600084116109ec57600080fd5b83820492505050610a90565b808411610a0457600080fd5b600084868809905082811182039150808303925060008586600003169050808604955080840493506001818260000304019050808302841793506000600287600302189050808702600203810290508087026002038102905080870260020381029050808702600203810290508087026002038102905080870260020381029050808502955050505050505b9392505050565b600073ffffffffffffffffffffffffffffffffffffffff82169050919050565b6000610ac282610a97565b9050919050565b610ad281610ab7565b82525050565b6000602082019050610aed6000830184610ac9565b92915050565b600080fd5b6000819050919050565b610b0b81610af8565b8114610b1657600080fd5b50565b600081359050610b2881610b02565b92915050565b610b3781610ab7565b8114610b4257600080fd5b50565b600081359050610b5481610b2e565b92915050565b60008060408385031215610b7157610b70610af3565b5b6000610b7f85828601610b19565b9250506020610b9085828601610b45565b9150509250929050565b610ba381610af8565b82525050565b6000602082019050610bbe6000830184610b9a565b92915050565b6000819050919050565b6000610be9610be4610bdf84610a97565b610bc4565b610a97565b9050919050565b6000610bfb82610bce565b9050919050565b6000610c0d82610bf0565b9050919050565b610c1d81610c02565b82525050565b6000602082019050610c386000830184610c14565b92915050565b600060208284031215610c5457610c53610af3565b5b6000610c6284828501610b19565b91505092915050565b6000610c7682610bf0565b9050919050565b610c8681610c6b565b82525050565b6000602082019050610ca16000830184610c7d565b92915050565b6000610cb282610bf0565b9050919050565b610cc281610ca7565b82525050565b6000602082019050610cdd6000830184610cb9565b92915050565b600062ffffff82169050919050565b610cfb81610ce3565b82525050565b6000602082019050610d166000830184610cf2565b92915050565b610d2581610ab7565b82525050565b610d3481610ce3565b82525050565b610d4381610af8565b82525050565b610d5281610a97565b82525050565b61010082016000820151610d6f6000850182610d1c565b506020820151610d826020850182610d1c565b506040820151610d956040850182610d2b565b506060820151610da86060850182610d1c565b506080820151610dbb6080850182610d3a565b5060a0820151610dce60a0850182610d3a565b5060c0820151610de160c0850182610d3a565b5060e0820151610df460e0850182610d49565b50505050565b600061010082019050610e106000830184610d58565b92915050565b600081519050610e2581610b02565b92915050565b600060208284031215610e4157610e40610af3565b5b6000610e4f84828501610e16565b91505092915050565b6000606082019050610e6d6000830186610ac9565b610e7a6020830185610ac9565b610e876040830184610cf2565b949350505050565b600081519050610e9e81610b2e565b92915050565b600060208284031215610eba57610eb9610af3565b5b6000610ec884828501610e8f565b91505092915050565b610eda81610a97565b8114610ee557600080fd5b50565b600081519050610ef781610ed1565b92915050565b60008160020b9050919050565b610f1381610efd565b8114610f1e57600080fd5b50565b600081519050610f3081610f0a565b92915050565b600061ffff82169050919050565b610f4d81610f36565b8114610f5857600080fd5b50565b600081519050610f6a81610f44565b92915050565b600060ff82169050919050565b610f8681610f70565b8114610f9157600080fd5b50565b600081519050610fa381610f7d565b92915050565b60008115159050919050565b610fbe81610fa9565b8114610fc957600080fd5b50565b600081519050610fdb81610fb5565b92915050565b600080600080600080600060e0888a03121561100057610fff610af3565b5b600061100e8a828b01610ee8565b975050602061101f8a828b01610f21565b96505060406110308a828b01610f5b565b95505060606110418a828b01610f5b565b94505060806110528a828b01610f5b565b93505060a06110638a828b01610f94565b92505060c06110748a828b01610fcc565b91505092959891949750929550565b60006fffffffffffffffffffffffffffffffff82169050919050565b6110a881611083565b81146110b357600080fd5b50565b6000815190506110c58161109f565b92915050565b6000602082840312156110e1576110e0610af3565b5b60006110ef848285016110b6565b91505092915050565b60006020828403121561110e5761110d610af3565b5b600061111c84828501610f94565b91505092915050565b7f4e487b7100000000000000000000000000000000000000000000000000000000600052601160045260246000fd5b60008160011c9050919050565b6000808291508390505b60018511156111ab5780860481111561118757611186611125565b5b60018516156111965780820291505b80810290506111a485611154565b945061116b565b94509492505050565b6000826111c45760019050611280565b816111d25760009050611280565b81600181146111e857600281146111f257611221565b6001915050611280565b60ff84111561120457611203611125565b5b8360020a91508482111561121b5761121a611125565b5b50611280565b5060208310610133831016604e8410600b84101617156112565782820a90508381111561125157611250611125565b5b611280565b6112638484846001611161565b9250905081840481111561127a57611279611125565b5b81810290505b9392505050565b600061129282610af8565b915061129d83610f70565b92506112ca7fffffffffffffffffffffffffffffffffffffffffffffffffffffffffffffffff84846111b4565b905092915050565b60006112dd82610af8565b91506112e883610af8565b92508282026112f681610af8565b9150828204841483151761130d5761130c611125565b5b5092915050565b7f4e487b7100000000000000000000000000000000000000000000000000000000600052601260045260246000fd5b600061134e82610af8565b915061135983610af8565b92508261136957611368611314565b5b828204905092915050565b6000819050919050565b600061139961139461138f84611374565b610bc4565b610a97565b9050919050565b6113a98161137e565b82525050565b600060a0820190506113c46000830188610ac9565b6113d16020830187610ac9565b6113de6040830186610cf2565b6113eb6060830185610b9a565b6113f860808301846113a0565b969550505050505056fea2646970667358221220bb1a8091883a7559f24345103c00d98c13eae0c5b05dacd1f12023fe68f2e07764736f6c63430008130033",
  "linkReferences": {},
  "deployedLinkReferences": {}
}